{
  "contractName": "MultiSig",
  "abi": [
    {
      "inputs": [],
      "payable": false,
      "stateMutability": "nonpayable",
      "type": "constructor"
    },
    {
      "anonymous": false,
      "inputs": [
        {
          "indexed": false,
          "internalType": "address",
          "name": "",
          "type": "address"
        }
      ],
      "name": "AddedWhiteList",
      "type": "event"
    },
    {
      "anonymous": false,
      "inputs": [
        {
          "indexed": false,
          "internalType": "address",
          "name": "",
          "type": "address"
        }
      ],
      "name": "SignedTransact",
      "type": "event"
    },
    {
      "anonymous": false,
      "inputs": [
        {
          "indexed": false,
          "internalType": "bytes32",
          "name": "",
          "type": "bytes32"
        }
      ],
      "name": "emitHash",
      "type": "event"
    },
    {
      "anonymous": false,
      "inputs": [
        {
          "indexed": false,
          "internalType": "address",
          "name": "",
          "type": "address"
        },
        {
          "indexed": false,
          "internalType": "address",
          "name": "",
          "type": "address"
        },
        {
          "indexed": false,
          "internalType": "uint256",
          "name": "",
          "type": "uint256"
        },
        {
          "indexed": false,
          "internalType": "uint256",
          "name": "",
          "type": "uint256"
        }
      ],
      "name": "transactionCreated",
      "type": "event"
    },
    {
      "anonymous": false,
      "inputs": [
        {
          "indexed": false,
          "internalType": "address",
          "name": "",
          "type": "address"
        },
        {
          "indexed": false,
          "internalType": "uint256",
          "name": "",
          "type": "uint256"
        }
      ],
      "name": "transactionOccured",
      "type": "event"
    },
    {
      "constant": true,
      "inputs": [
        {
          "internalType": "bytes32",
          "name": "",
          "type": "bytes32"
        }
      ],
      "name": "dataViaTxHash",
      "outputs": [
        {
          "internalType": "uint256",
          "name": "",
          "type": "uint256"
        }
      ],
      "payable": false,
      "stateMutability": "view",
      "type": "function"
    },
    {
      "constant": true,
      "inputs": [],
      "name": "nonce",
      "outputs": [
        {
          "internalType": "uint256",
          "name": "",
          "type": "uint256"
        }
      ],
      "payable": false,
      "stateMutability": "view",
      "type": "function"
    },
    {
      "constant": true,
      "inputs": [],
      "name": "owner",
      "outputs": [
        {
          "internalType": "address payable",
          "name": "",
          "type": "address"
        }
      ],
      "payable": false,
      "stateMutability": "view",
      "type": "function"
    },
    {
      "constant": true,
      "inputs": [
        {
          "internalType": "bytes32",
          "name": "",
          "type": "bytes32"
        },
        {
          "internalType": "address",
          "name": "",
          "type": "address"
        }
      ],
      "name": "signedList",
      "outputs": [
        {
          "internalType": "bool",
          "name": "",
          "type": "bool"
        }
      ],
      "payable": false,
      "stateMutability": "view",
      "type": "function"
    },
    {
      "constant": true,
      "inputs": [
        {
          "internalType": "bytes32",
          "name": "",
          "type": "bytes32"
        }
      ],
      "name": "signedMessages",
      "outputs": [
        {
          "internalType": "uint256",
          "name": "",
          "type": "uint256"
        }
      ],
      "payable": false,
      "stateMutability": "view",
      "type": "function"
    },
    {
      "constant": true,
      "inputs": [],
      "name": "threshold",
      "outputs": [
        {
          "internalType": "uint256",
          "name": "",
          "type": "uint256"
        }
      ],
      "payable": false,
      "stateMutability": "view",
      "type": "function"
    },
    {
      "constant": true,
      "inputs": [
        {
          "internalType": "bytes32",
          "name": "",
          "type": "bytes32"
        },
        {
          "internalType": "address",
          "name": "",
          "type": "address"
        }
      ],
      "name": "whiteList",
      "outputs": [
        {
          "internalType": "bool",
          "name": "",
          "type": "bool"
        }
      ],
      "payable": false,
      "stateMutability": "view",
      "type": "function"
    },
    {
      "constant": false,
      "inputs": [
        {
          "internalType": "address",
          "name": "newAddress",
          "type": "address"
        },
        {
          "internalType": "bytes32",
          "name": "txHash",
          "type": "bytes32"
        }
      ],
      "name": "addAddress",
      "outputs": [
        {
          "internalType": "bool",
          "name": "success",
          "type": "bool"
        }
      ],
      "payable": false,
      "stateMutability": "nonpayable",
      "type": "function"
    },
    {
      "constant": false,
      "inputs": [
        {
          "internalType": "address payable",
          "name": "_paymentReciever",
          "type": "address"
        },
        {
          "internalType": "uint256",
          "name": "_threshold",
          "type": "uint256"
        },
        {
          "internalType": "uint256",
          "name": "_amount",
          "type": "uint256"
        }
      ],
      "name": "setupTransaction",
      "outputs": [
        {
          "internalType": "bytes32",
          "name": "",
          "type": "bytes32"
        }
      ],
      "payable": true,
      "stateMutability": "payable",
      "type": "function"
    },
    {
      "constant": false,
      "inputs": [
        {
          "internalType": "bytes32",
          "name": "txHash",
          "type": "bytes32"
        }
      ],
      "name": "signTransaction",
      "outputs": [
        {
          "internalType": "bool",
          "name": "success",
          "type": "bool"
        }
      ],
      "payable": false,
      "stateMutability": "nonpayable",
      "type": "function"
    },
    {
      "constant": true,
      "inputs": [],
      "name": "contractBalance",
      "outputs": [
        {
          "internalType": "uint256",
          "name": "balance",
          "type": "uint256"
        }
      ],
      "payable": false,
      "stateMutability": "view",
      "type": "function"
    },
    {
      "constant": false,
      "inputs": [
        {
          "internalType": "bytes32",
          "name": "txHash",
          "type": "bytes32"
        }
      ],
      "name": "checkStatus",
      "outputs": [
        {
          "internalType": "bool",
          "name": "success",
          "type": "bool"
        }
      ],
      "payable": true,
      "stateMutability": "payable",
      "type": "function"
    }
  ],
  "bytecode": "0x6080604052600060065534801561001557600080fd5b50336000806101000a81548173ffffffffffffffffffffffffffffffffffffffff021916908373ffffffffffffffffffffffffffffffffffffffff1602179055506000600381905550600160058190555061110e806100756000396000f3fe6080604052600436106100a75760003560e01c80638b7afe2e116100645780638b7afe2e146102c75780638da5cb5b146102f25780638e847aa614610349578063955c20b2146103bc578063a22002781461040f578063affed0e014610455576100a7565b8063051faa6d146100ac5780633d8c16de146100fb57806342cde4e81461016757806357a12ae5146101925780635ae6bd371461020557806362e827c114610254575b600080fd5b3480156100b857600080fd5b506100e5600480360360208110156100cf57600080fd5b8101908080359060200190929190505050610480565b6040518082815260200191505060405180910390f35b6101516004803603606081101561011157600080fd5b81019080803573ffffffffffffffffffffffffffffffffffffffff1690602001909291908035906020019092919080359060200190929190505050610498565b6040518082815260200191505060405180910390f35b34801561017357600080fd5b5061017c6108ab565b6040518082815260200191505060405180910390f35b34801561019e57600080fd5b506101eb600480360360408110156101b557600080fd5b81019080803573ffffffffffffffffffffffffffffffffffffffff169060200190929190803590602001909291905050506108b1565b604051808215151515815260200191505060405180910390f35b34801561021157600080fd5b5061023e6004803603602081101561022857600080fd5b8101908080359060200190929190505050610b32565b6040518082815260200191505060405180910390f35b34801561026057600080fd5b506102ad6004803603604081101561027757600080fd5b8101908080359060200190929190803573ffffffffffffffffffffffffffffffffffffffff169060200190929190505050610b4a565b604051808215151515815260200191505060405180910390f35b3480156102d357600080fd5b506102dc610b79565b6040518082815260200191505060405180910390f35b3480156102fe57600080fd5b50610307610b81565b604051808273ffffffffffffffffffffffffffffffffffffffff1673ffffffffffffffffffffffffffffffffffffffff16815260200191505060405180910390f35b34801561035557600080fd5b506103a26004803603604081101561036c57600080fd5b8101908080359060200190929190803573ffffffffffffffffffffffffffffffffffffffff169060200190929190505050610ba6565b604051808215151515815260200191505060405180910390f35b3480156103c857600080fd5b506103f5600480360360208110156103df57600080fd5b8101908080359060200190929190505050610bd5565b604051808215151515815260200191505060405180910390f35b61043b6004803603602081101561042557600080fd5b8101908080359060200190929190505050610e59565b604051808215151515815260200191505060405180910390f35b34801561046157600080fd5b5061046a610eb8565b6040518082815260200191505060405180910390f35b60096020528060005260406000206000915090505481565b60008134146104f2576040517f08c379a00000000000000000000000000000000000000000000000000000000081526004018080602001828103825260228152602001806110b86022913960400191505060405180910390fd5b6040518060a001604052803373ffffffffffffffffffffffffffffffffffffffff1681526020018573ffffffffffffffffffffffffffffffffffffffff16815260200183815260200160065481526020018481525060016000600654815260200190815260200160002060008201518160000160006101000a81548173ffffffffffffffffffffffffffffffffffffffff021916908373ffffffffffffffffffffffffffffffffffffffff16021790555060208201518160010160006101000a81548173ffffffffffffffffffffffffffffffffffffffff021916908373ffffffffffffffffffffffffffffffffffffffff1602179055506040820151816002015560608201518160030155608082015181600401559050507fc5094f20ddbb9bda2b4d1b39f78d7d784f323b721a2a8f32456a45d3dfb716d8338560065486604051808573ffffffffffffffffffffffffffffffffffffffff1673ffffffffffffffffffffffffffffffffffffffff1681526020018473ffffffffffffffffffffffffffffffffffffffff1673ffffffffffffffffffffffffffffffffffffffff16815260200183815260200182815260200194505050505060405180910390a1600060016000600654815260200190815260200160002060010160009054906101000a900473ffffffffffffffffffffffffffffffffffffffff1660016000600654815260200190815260200160002060000160009054906101000a900473ffffffffffffffffffffffffffffffffffffffff16600160006006548152602001908152602001600020600201546001600060065481526020019081526020016000206003015460016000600654815260200190815260200160002060040154604051602001808673ffffffffffffffffffffffffffffffffffffffff1673ffffffffffffffffffffffffffffffffffffffff1681526020018573ffffffffffffffffffffffffffffffffffffffff1673ffffffffffffffffffffffffffffffffffffffff1681526020018481526020018381526020018281526020019550505050505060405160208183030381529060405280519060200120905060006008600083815260200190815260200160002081905550600654600960008381526020019081526020016000208190555061084c33826108b1565b5061085681610bd5565b506006600081548092919060010191905055507f5cc0f3a9b565d77821d0b777308389f2f8c3bca39e70f63f8e636af113c6429a816040518082815260200191505060405180910390a1809150509392505050565b60075481565b60008060009054906101000a900473ffffffffffffffffffffffffffffffffffffffff1673ffffffffffffffffffffffffffffffffffffffff163373ffffffffffffffffffffffffffffffffffffffff1614610975576040517f08c379a00000000000000000000000000000000000000000000000000000000081526004018080602001828103825260158152602001807f53656e646572206e6f7420617574686f72697a6564000000000000000000000081525060200191505060405180910390fd5b600015156002600084815260200190815260200160002060008573ffffffffffffffffffffffffffffffffffffffff1673ffffffffffffffffffffffffffffffffffffffff16815260200190815260200160002060009054906101000a900460ff16151514610a4c576040517f08c379a000000000000000000000000000000000000000000000000000000000815260040180806020018281038252601f8152602001807f4164647265737320697320616c7265616479206f6e2077686974656c6973740081525060200191505060405180910390fd5b60016002600084815260200190815260200160002060008573ffffffffffffffffffffffffffffffffffffffff1673ffffffffffffffffffffffffffffffffffffffff16815260200190815260200160002060006101000a81548160ff0219169083151502179055507f64fd21439447139bed5a374a0f62ecc0fbd38cf2687d4ed5d587cb55dfbd425883604051808273ffffffffffffffffffffffffffffffffffffffff1673ffffffffffffffffffffffffffffffffffffffff16815260200191505060405180910390a1600560008154600101919050819055506001905092915050565b60086020528060005260406000206000915090505481565b60026020528160005260406000206020528060005260406000206000915091509054906101000a900460ff1681565b600047905090565b6000809054906101000a900473ffffffffffffffffffffffffffffffffffffffff1681565b60046020528160005260406000206020528060005260406000206000915091509054906101000a900460ff1681565b6000600115156002600084815260200190815260200160002060003373ffffffffffffffffffffffffffffffffffffffff1673ffffffffffffffffffffffffffffffffffffffff16815260200190815260200160002060009054906101000a900460ff16151514610c91576040517f08c379a00000000000000000000000000000000000000000000000000000000081526004018080602001828103825260248152602001806110946024913960400191505060405180910390fd5b600015156004600084815260200190815260200160002060003373ffffffffffffffffffffffffffffffffffffffff1673ffffffffffffffffffffffffffffffffffffffff16815260200190815260200160002060009054906101000a900460ff16151514610d4b576040517f08c379a000000000000000000000000000000000000000000000000000000000815260040180806020018281038252602f815260200180611065602f913960400191505060405180910390fd5b6003600081546001019190508190555060016004600084815260200190815260200160002060003373ffffffffffffffffffffffffffffffffffffffff1673ffffffffffffffffffffffffffffffffffffffff16815260200190815260200160002060006101000a81548160ff021916908315150217905550600160086000848152602001908152602001600020600082825401925050819055507f827bfe95984eb396b6d8ff47200bd671835f5a6d87dc4bad10d2dbd4fe6355a333604051808273ffffffffffffffffffffffffffffffffffffffff1673ffffffffffffffffffffffffffffffffffffffff16815260200191505060405180910390a1610e5282610e59565b9050919050565b6000600160006009600085815260200190815260200160002054815260200190815260200160002060040154600860008481526020019081526020016000205410610eae57610ea782610ebe565b9050610eb3565b600090505b919050565b60065481565b600080600160006009600086815260200190815260200160002054815260200190815260200160002060010160009054906101000a900473ffffffffffffffffffffffffffffffffffffffff1690508073ffffffffffffffffffffffffffffffffffffffff166108fc6001600060096000888152602001908152602001600020548152602001908152602001600020600201549081150290604051600060405180830381858888f19350505050158015610f7c573d6000803e3d6000fd5b507f2f03f1395f971b1f02ef2bc5afe3dcaadb5138627f8f45633cefd28f1a5f7e45600160006009600087815260200190815260200160002054815260200190815260200160002060010160009054906101000a900473ffffffffffffffffffffffffffffffffffffffff16600160006009600088815260200190815260200160002054815260200190815260200160002060020154604051808373ffffffffffffffffffffffffffffffffffffffff1673ffffffffffffffffffffffffffffffffffffffff1681526020018281526020019250505060405180910390a1600191505091905056fe5468697320616464726573732068617320616c7265616479207369676e656420746865207472616e73616374696f6e546869732061646472657373206973206e6f74206f6e207468652077686974656c6973744e6f7420656e6f7567682065746820746f2073656e64207472616e73616374696f6ea265627a7a723158200b1f40feb00cbf063a9894bbdc9d15910911085c1d1ed2e304ecd24ec7345ebe64736f6c63430005100032",
  "source": "pragma solidity ^0.5.16;\r\n\r\ncontract MultiSig {\r\n    address payable public owner; // Will be the address of who deploys to contract\r\n\r\n    struct transactionData {\r\n        address payable from;\r\n        address payable to;\r\n        uint256 amount;\r\n        uint256 nonceTrans;\r\n        uint256 threshold;\r\n    }\r\n\r\n    mapping(uint256 => transactionData) private transactions;\r\n\r\n    mapping(bytes32 => mapping(address => bool)) public whiteList; // whitelist of address that can sign transactions\r\n    uint256 private numSigs; // Keeps track of num of signatures on transaction\r\n\r\n    mapping(bytes32 => mapping(address => bool)) public signedList; // list of address that have signed the transaction\r\n    uint256 private numWhiteList; // Keep track of num of addresses on whitelist\r\n\r\n    // Events to emmit\r\n    event transactionCreated(address, address, uint256, uint256);\r\n\r\n    event SignedTransact(address);\r\n    event AddedWhiteList(address);\r\n    event transactionOccured(address, uint256);\r\n    event emitHash(bytes32);\r\n\r\n    uint256 public nonce = 0;\r\n    uint256 public threshold;\r\n    // Mapping to keep track of all message hashes that have been approve by ALL REQUIRED owners\r\n    mapping(bytes32 => uint256) public signedMessages;\r\n    mapping(bytes32 => uint256) public dataViaTxHash;\r\n\r\n    constructor() public {\r\n        // Make the owner who deploys contract\r\n        owner = msg.sender;\r\n\r\n        // Add to white list for owner to sign\r\n        numSigs = 0;\r\n        numWhiteList = 1;\r\n    }\r\n\r\n    // Adds address to whitelist so entity has signing ability\r\n    function addAddress(address newAddress, bytes32 txHash) public returns (bool success) {\r\n        // Requires to ensure owner adding signers\r\n        require(msg.sender == owner, \"Sender not authorized\");\r\n        require(\r\n            whiteList[txHash][newAddress] == false,\r\n            \"Address is already on whitelist\"\r\n        );\r\n\r\n        // Give address signing ability and emit event\r\n        whiteList[txHash][newAddress] = true;\r\n        emit AddedWhiteList(newAddress);\r\n        ++numWhiteList;\r\n        return true;\r\n    }\r\n\r\n    function setupTransaction(\r\n        address payable _paymentReciever,\r\n        uint256 _threshold,\r\n        uint256 _amount\r\n    ) external payable returns (bytes32) {\r\n        require(msg.value == _amount, \"Not enough eth to send transaction\");\r\n\r\n        transactions[nonce] = transactionData(\r\n            msg.sender,\r\n            _paymentReciever,\r\n            _amount,\r\n            nonce,\r\n            _threshold\r\n        );\r\n\r\n        emit transactionCreated(\r\n            msg.sender,\r\n            _paymentReciever,\r\n            nonce,\r\n            _threshold\r\n        );\r\n\r\n        bytes32 txHash = keccak256(\r\n            abi.encode(\r\n                transactions[nonce].to,\r\n                transactions[nonce].from,\r\n                transactions[nonce].amount,\r\n                transactions[nonce].nonceTrans,\r\n                transactions[nonce].threshold\r\n            )\r\n        );\r\n\r\n        signedMessages[txHash] = 0;\r\n        dataViaTxHash[txHash] = nonce;\r\n        addAddress(msg.sender, txHash);\r\n        signTransaction(txHash);\r\n\r\n        nonce++;\r\n        emit emitHash(txHash);\r\n\r\n        return txHash;\r\n    }\r\n\r\n    // Msg.sender signs transaction\r\n    function signTransaction(bytes32 txHash) public returns (bool success) {\r\n        // Makes sure sender is on whitelist and has not signed yet\r\n        require(\r\n            whiteList[txHash][msg.sender] == true,\r\n            \"This address is not on the whitelist\"\r\n        );\r\n        require(\r\n            signedList[txHash][msg.sender] == false,\r\n            \"This address has already signed the transaction\"\r\n        );\r\n\r\n        // Increment num of signatures on transact and approve on signedList\r\n        ++numSigs;\r\n        signedList[txHash][msg.sender] = true;\r\n        signedMessages[txHash] += 1;\r\n        emit SignedTransact(msg.sender);\r\n\r\n        return checkStatus(txHash);\r\n    }\r\n\r\n    function handlePayment(bytes32 txHash) private returns (bool) {\r\n        address payable reciever = transactions[dataViaTxHash[txHash]].to;\r\n        reciever.transfer(transactions[dataViaTxHash[txHash]].amount);\r\n\r\n        emit transactionOccured(\r\n            transactions[dataViaTxHash[txHash]].to,\r\n            transactions[dataViaTxHash[txHash]].amount\r\n        );\r\n        return true;\r\n    }\r\n\r\n    function contractBalance() public view returns (uint256 balance) {\r\n        return address(this).balance;\r\n    }\r\n\r\n    // Getter for number of entities signed\r\n    function checkStatus(bytes32 txHash) public payable returns (bool success) {\r\n        if (\r\n            signedMessages[txHash] >=\r\n            transactions[dataViaTxHash[txHash]].threshold\r\n        ) {\r\n            return handlePayment(txHash);\r\n        }\r\n\r\n        return false;\r\n    }\r\n\r\n}\r\n",
  "sourcePath": "C:\\Users\\spvye\\Documents\\Fortmatic\\phantom\\contract\\contracts\\MultiSig.sol",
  "compiler": {
    "name": "solc",
    "version": "0.5.16+commit.9c3226ce.Emscripten.clang"
  },
  "schemaVersion": "3.0.23",
  "updatedAt": "2020-03-04T19:53:08.988Z",
  "devdoc": {
    "methods": {}
  },
  "userdoc": {
    "methods": {}
  }
}