{
  "contractName": "MultiSig",
  "abi": [
    {
      "inputs": [],
      "payable": false,
      "stateMutability": "nonpayable",
      "type": "constructor"
    },
    {
      "anonymous": false,
      "inputs": [
        {
          "indexed": false,
          "internalType": "address",
          "name": "",
          "type": "address"
        }
      ],
      "name": "AddedWhiteList",
      "type": "event"
    },
    {
      "anonymous": false,
      "inputs": [
        {
          "indexed": false,
          "internalType": "address",
          "name": "",
          "type": "address"
        }
      ],
      "name": "SignedTransact",
      "type": "event"
    },
    {
      "anonymous": false,
      "inputs": [
        {
          "indexed": false,
          "internalType": "bytes32",
          "name": "",
          "type": "bytes32"
        }
      ],
      "name": "emitHash",
      "type": "event"
    },
    {
      "anonymous": false,
      "inputs": [
        {
          "indexed": false,
          "internalType": "address",
          "name": "",
          "type": "address"
        },
        {
          "indexed": false,
          "internalType": "address",
          "name": "",
          "type": "address"
        },
        {
          "indexed": false,
          "internalType": "uint256",
          "name": "",
          "type": "uint256"
        },
        {
          "indexed": false,
          "internalType": "uint256",
          "name": "",
          "type": "uint256"
        }
      ],
      "name": "transactionCreated",
      "type": "event"
    },
    {
      "anonymous": false,
      "inputs": [
        {
          "indexed": false,
          "internalType": "address",
          "name": "",
          "type": "address"
        },
        {
          "indexed": false,
          "internalType": "uint256",
          "name": "",
          "type": "uint256"
        }
      ],
      "name": "transactionOccured",
      "type": "event"
    },
    {
      "constant": true,
      "inputs": [],
      "name": "nonce",
      "outputs": [
        {
          "internalType": "uint256",
          "name": "",
          "type": "uint256"
        }
      ],
      "payable": false,
      "stateMutability": "view",
      "type": "function"
    },
    {
      "constant": true,
      "inputs": [],
      "name": "numPendingTx",
      "outputs": [
        {
          "internalType": "uint256",
          "name": "",
          "type": "uint256"
        }
      ],
      "payable": false,
      "stateMutability": "view",
      "type": "function"
    },
    {
      "constant": true,
      "inputs": [],
      "name": "numWhitlist",
      "outputs": [
        {
          "internalType": "uint256",
          "name": "",
          "type": "uint256"
        }
      ],
      "payable": false,
      "stateMutability": "view",
      "type": "function"
    },
    {
      "constant": true,
      "inputs": [],
      "name": "owner",
      "outputs": [
        {
          "internalType": "address",
          "name": "",
          "type": "address"
        }
      ],
      "payable": false,
      "stateMutability": "view",
      "type": "function"
    },
    {
      "constant": true,
      "inputs": [
        {
          "internalType": "uint256",
          "name": "",
          "type": "uint256"
        }
      ],
      "name": "pendingTransactions",
      "outputs": [
        {
          "internalType": "address payable",
          "name": "from",
          "type": "address"
        },
        {
          "internalType": "address payable",
          "name": "to",
          "type": "address"
        },
        {
          "internalType": "uint256",
          "name": "amount",
          "type": "uint256"
        },
        {
          "internalType": "uint256",
          "name": "nonceTrans",
          "type": "uint256"
        },
        {
          "internalType": "uint256",
          "name": "threshold",
          "type": "uint256"
        }
      ],
      "payable": false,
      "stateMutability": "view",
      "type": "function"
    },
    {
      "constant": true,
      "inputs": [
        {
          "internalType": "bytes32",
          "name": "",
          "type": "bytes32"
        },
        {
          "internalType": "address",
          "name": "",
          "type": "address"
        }
      ],
      "name": "signedList",
      "outputs": [
        {
          "internalType": "bool",
          "name": "",
          "type": "bool"
        }
      ],
      "payable": false,
      "stateMutability": "view",
      "type": "function"
    },
    {
      "constant": true,
      "inputs": [
        {
          "internalType": "uint256",
          "name": "",
          "type": "uint256"
        }
      ],
      "name": "transactions",
      "outputs": [
        {
          "internalType": "address payable",
          "name": "from",
          "type": "address"
        },
        {
          "internalType": "address payable",
          "name": "to",
          "type": "address"
        },
        {
          "internalType": "uint256",
          "name": "amount",
          "type": "uint256"
        },
        {
          "internalType": "uint256",
          "name": "nonceTrans",
          "type": "uint256"
        },
        {
          "internalType": "uint256",
          "name": "threshold",
          "type": "uint256"
        }
      ],
      "payable": false,
      "stateMutability": "view",
      "type": "function"
    },
    {
      "constant": true,
      "inputs": [
        {
          "internalType": "uint256",
          "name": "",
          "type": "uint256"
        }
      ],
      "name": "whitelistAdd",
      "outputs": [
        {
          "internalType": "address",
          "name": "",
          "type": "address"
        }
      ],
      "payable": false,
      "stateMutability": "view",
      "type": "function"
    },
    {
      "constant": true,
      "inputs": [],
      "name": "getWhitelistAdd",
      "outputs": [
        {
          "internalType": "address[]",
          "name": "whitelist",
          "type": "address[]"
        }
      ],
      "payable": false,
      "stateMutability": "view",
      "type": "function"
    },
    {
      "constant": true,
      "inputs": [],
      "name": "getPendingTx",
      "outputs": [
        {
          "components": [
            {
              "internalType": "address payable",
              "name": "from",
              "type": "address"
            },
            {
              "internalType": "address payable",
              "name": "to",
              "type": "address"
            },
            {
              "internalType": "uint256",
              "name": "amount",
              "type": "uint256"
            },
            {
              "internalType": "uint256",
              "name": "nonceTrans",
              "type": "uint256"
            },
            {
              "internalType": "uint256",
              "name": "threshold",
              "type": "uint256"
            }
          ],
          "internalType": "struct MultiSig.transactionData[]",
          "name": "pending",
          "type": "tuple[]"
        }
      ],
      "payable": false,
      "stateMutability": "view",
      "type": "function"
    },
    {
      "constant": false,
      "inputs": [
        {
          "internalType": "address",
          "name": "newAddress",
          "type": "address"
        }
      ],
      "name": "addAddress",
      "outputs": [
        {
          "internalType": "bool",
          "name": "success",
          "type": "bool"
        }
      ],
      "payable": false,
      "stateMutability": "nonpayable",
      "type": "function"
    },
    {
      "constant": false,
      "inputs": [
        {
          "internalType": "address payable",
          "name": "_paymentReciever",
          "type": "address"
        },
        {
          "internalType": "uint256",
          "name": "_threshold",
          "type": "uint256"
        },
        {
          "internalType": "uint256",
          "name": "_amount",
          "type": "uint256"
        }
      ],
      "name": "setupTransaction",
      "outputs": [
        {
          "internalType": "uint256",
          "name": "",
          "type": "uint256"
        }
      ],
      "payable": true,
      "stateMutability": "payable",
      "type": "function"
    },
    {
      "constant": false,
      "inputs": [
        {
          "internalType": "uint256",
          "name": "index",
          "type": "uint256"
        }
      ],
      "name": "signTransaction",
      "outputs": [
        {
          "internalType": "bool",
          "name": "success",
          "type": "bool"
        }
      ],
      "payable": false,
      "stateMutability": "nonpayable",
      "type": "function"
    },
    {
      "constant": true,
      "inputs": [],
      "name": "contractBalance",
      "outputs": [
        {
          "internalType": "uint256",
          "name": "balance",
          "type": "uint256"
        }
      ],
      "payable": false,
      "stateMutability": "view",
      "type": "function"
    },
    {
      "constant": false,
      "inputs": [
        {
          "internalType": "uint256",
          "name": "index",
          "type": "uint256"
        }
      ],
      "name": "checkStatus",
      "outputs": [
        {
          "internalType": "bool",
          "name": "success",
          "type": "bool"
        }
      ],
      "payable": true,
      "stateMutability": "payable",
      "type": "function"
    }
  ],
  "bytecode": "0x60806040523480156200001157600080fd5b50336000806101000a81548173ffffffffffffffffffffffffffffffffffffffff021916908373ffffffffffffffffffffffffffffffffffffffff1602179055506000600381905550600060068190555060006001819055506200007b336200008260201b60201c565b5062000406565b60008060009054906101000a900473ffffffffffffffffffffffffffffffffffffffff1673ffffffffffffffffffffffffffffffffffffffff163373ffffffffffffffffffffffffffffffffffffffff161462000116576040517f08c379a00000000000000000000000000000000000000000000000000000000081526004016200010d906200037d565b60405180910390fd5b62000127826200022460201b60201c565b156200016a576040517f08c379a000000000000000000000000000000000000000000000000000000000815260040162000161906200039f565b60405180910390fd5b60028290806001815401808255809150509060018203906000526020600020016000909192909190916101000a81548173ffffffffffffffffffffffffffffffffffffffff021916908373ffffffffffffffffffffffffffffffffffffffff160217905550506003600081548092919060010191905055507f64fd21439447139bed5a374a0f62ecc0fbd38cf2687d4ed5d587cb55dfbd42588260405162000213919062000360565b60405180910390a160019050919050565b600080600090505b600280549050811015620002c0578273ffffffffffffffffffffffffffffffffffffffff16600282815481106200025f57fe5b9060005260206000200160009054906101000a900473ffffffffffffffffffffffffffffffffffffffff1673ffffffffffffffffffffffffffffffffffffffff161415620002b2576001915050620002c6565b80806001019150506200022c565b50600090505b919050565b620002d681620003d2565b82525050565b6000620002eb601583620003c1565b91507f53656e646572206e6f7420617574686f72697a656400000000000000000000006000830152602082019050919050565b60006200032d600d83620003c1565b91507f416c7265616479206164646564000000000000000000000000000000000000006000830152602082019050919050565b6000602082019050620003776000830184620002cb565b92915050565b600060208201905081810360008301526200039881620002dc565b9050919050565b60006020820190508181036000830152620003ba816200031e565b9050919050565b600082825260208201905092915050565b6000620003df82620003e6565b9050919050565b600073ffffffffffffffffffffffffffffffffffffffff82169050919050565b61200d80620004166000396000f3fe6080604052600436106100e85760003560e01c80638b7afe2e1161008a5780639ace38c2116100595780639ace38c21461032e578063affed0e01461036f578063e95597fc1461039a578063fe05ee13146103c5576100e8565b80638b7afe2e146102705780638da5cb5b1461029b5780638e847aa6146102c657806395b52bdb14610303576100e8565b80633d8c16de116100c65780633d8c16de146101855780635d9ec210146101b557806363a8374d146101f25780638358844714610233576100e8565b80631045af36146100ed5780632858c7641461011857806338eada1c14610148575b600080fd5b3480156100f957600080fd5b506101026103f0565b60405161010f9190611e36565b60405180910390f35b610132600480360361012d919081019061186f565b6103f6565b60405161013f9190611d60565b60405180910390f35b34801561015457600080fd5b5061016f600480360361016a91908101906117bb565b61057a565b60405161017c9190611d60565b60405180910390f35b61019f600480360361019a91908101906117e4565b61070c565b6040516101ac9190611e36565b60405180910390f35b3480156101c157600080fd5b506101dc60048036036101d7919081019061186f565b610b69565b6040516101e99190611d60565b60405180910390f35b3480156101fe57600080fd5b506102196004803603610214919081019061186f565b610e58565b60405161022a959493929190611ca0565b60405180910390f35b34801561023f57600080fd5b5061025a6004803603610255919081019061186f565b610edb565b6040516102679190611c25565b60405180910390f35b34801561027c57600080fd5b50610285610f17565b6040516102929190611e36565b60405180910390f35b3480156102a757600080fd5b506102b0610f1f565b6040516102bd9190611c25565b60405180910390f35b3480156102d257600080fd5b506102ed60048036036102e89190810190611833565b610f44565b6040516102fa9190611d60565b60405180910390f35b34801561030f57600080fd5b50610318610f73565b6040516103259190611d1c565b60405180910390f35b34801561033a57600080fd5b506103556004803603610350919081019061186f565b611001565b604051610366959493929190611ca0565b60405180910390f35b34801561037b57600080fd5b50610384611084565b6040516103919190611e36565b60405180910390f35b3480156103a657600080fd5b506103af61108a565b6040516103bc9190611d3e565b60405180910390f35b3480156103d157600080fd5b506103da6111b3565b6040516103e79190611e36565b60405180910390f35b60065481565b600080610524836005805480602002602001604051908101604052809291908181526020016000905b8282101561051b57838290600052602060002090600502016040518060a00160405290816000820160009054906101000a900473ffffffffffffffffffffffffffffffffffffffff1673ffffffffffffffffffffffffffffffffffffffff1673ffffffffffffffffffffffffffffffffffffffff1681526020016001820160009054906101000a900473ffffffffffffffffffffffffffffffffffffffff1673ffffffffffffffffffffffffffffffffffffffff1673ffffffffffffffffffffffffffffffffffffffff16815260200160028201548152602001600382015481526020016004820154815250508152602001906001019061041f565b505050506111b9565b90506004838154811061053357fe5b90600052602060002090600502016004015460086000838152602001908152602001600020541061056f576105678361126a565b915050610575565b60009150505b919050565b60008060009054906101000a900473ffffffffffffffffffffffffffffffffffffffff1673ffffffffffffffffffffffffffffffffffffffff163373ffffffffffffffffffffffffffffffffffffffff161461060b576040517f08c379a000000000000000000000000000000000000000000000000000000000815260040161060290611d96565b60405180910390fd5b610614826115b3565b15610654576040517f08c379a000000000000000000000000000000000000000000000000000000000815260040161064b90611e16565b60405180910390fd5b60028290806001815401808255809150509060018203906000526020600020016000909192909190916101000a81548173ffffffffffffffffffffffffffffffffffffffff021916908373ffffffffffffffffffffffffffffffffffffffff160217905550506003600081548092919060010191905055507f64fd21439447139bed5a374a0f62ecc0fbd38cf2687d4ed5d587cb55dfbd4258826040516106fb9190611c25565b60405180910390a160019050919050565b6000813414610750576040517f08c379a000000000000000000000000000000000000000000000000000000000815260040161074790611df6565b60405180910390fd5b610758611655565b6040518060a001604052803373ffffffffffffffffffffffffffffffffffffffff1681526020018673ffffffffffffffffffffffffffffffffffffffff16815260200184815260200160015481526020018581525090506004819080600181540180825580915050906001820390600052602060002090600502016000909192909190915060008201518160000160006101000a81548173ffffffffffffffffffffffffffffffffffffffff021916908373ffffffffffffffffffffffffffffffffffffffff16021790555060208201518160010160006101000a81548173ffffffffffffffffffffffffffffffffffffffff021916908373ffffffffffffffffffffffffffffffffffffffff1602179055506040820151816002015560608201518160030155608082015181600401555050506005819080600181540180825580915050906001820390600052602060002090600502016000909192909190915060008201518160000160006101000a81548173ffffffffffffffffffffffffffffffffffffffff021916908373ffffffffffffffffffffffffffffffffffffffff16021790555060208201518160010160006101000a81548173ffffffffffffffffffffffffffffffffffffffff021916908373ffffffffffffffffffffffffffffffffffffffff1602179055506040820151816002015560608201518160030155608082015181600401555050506006600081548092919060010191905055507fc5094f20ddbb9bda2b4d1b39f78d7d784f323b721a2a8f32456a45d3dfb716d83386600154876040516109b29493929190611c5b565b60405180910390a16000610ae96001546004805480602002602001604051908101604052809291908181526020016000905b82821015610ae057838290600052602060002090600502016040518060a00160405290816000820160009054906101000a900473ffffffffffffffffffffffffffffffffffffffff1673ffffffffffffffffffffffffffffffffffffffff1673ffffffffffffffffffffffffffffffffffffffff1681526020016001820160009054906101000a900473ffffffffffffffffffffffffffffffffffffffff1673ffffffffffffffffffffffffffffffffffffffff1673ffffffffffffffffffffffffffffffffffffffff1681526020016002820154815260200160038201548152602001600482015481525050815260200190600101906109e4565b505050506111b9565b905060006008600083815260200190815260200160002081905550610b0f600154610b69565b506001600081548092919060010191905055507f5cc0f3a9b565d77821d0b777308389f2f8c3bca39e70f63f8e636af113c6429a81604051610b519190611d7b565b60405180910390a16001805403925050509392505050565b600080610c97836005805480602002602001604051908101604052809291908181526020016000905b82821015610c8e57838290600052602060002090600502016040518060a00160405290816000820160009054906101000a900473ffffffffffffffffffffffffffffffffffffffff1673ffffffffffffffffffffffffffffffffffffffff1673ffffffffffffffffffffffffffffffffffffffff1681526020016001820160009054906101000a900473ffffffffffffffffffffffffffffffffffffffff1673ffffffffffffffffffffffffffffffffffffffff1673ffffffffffffffffffffffffffffffffffffffff168152602001600282015481526020016003820154815260200160048201548152505081526020019060010190610b92565b505050506111b9565b9050610ca2336115b3565b610ce1576040517f08c379a0000000000000000000000000000000000000000000000000000000008152600401610cd890611dd6565b60405180910390fd5b600015156007600083815260200190815260200160002060003373ffffffffffffffffffffffffffffffffffffffff1673ffffffffffffffffffffffffffffffffffffffff16815260200190815260200160002060009054906101000a900460ff16151514610d85576040517f08c379a0000000000000000000000000000000000000000000000000000000008152600401610d7c90611db6565b60405180910390fd5b60016007600083815260200190815260200160002060003373ffffffffffffffffffffffffffffffffffffffff1673ffffffffffffffffffffffffffffffffffffffff16815260200190815260200160002060006101000a81548160ff021916908315150217905550600160086000838152602001908152602001600020600082825401925050819055507f827bfe95984eb396b6d8ff47200bd671835f5a6d87dc4bad10d2dbd4fe6355a333604051610e3f9190611c40565b60405180910390a1610e50836103f6565b915050919050565b60058181548110610e6557fe5b90600052602060002090600502016000915090508060000160009054906101000a900473ffffffffffffffffffffffffffffffffffffffff16908060010160009054906101000a900473ffffffffffffffffffffffffffffffffffffffff16908060020154908060030154908060040154905085565b60028181548110610ee857fe5b906000526020600020016000915054906101000a900473ffffffffffffffffffffffffffffffffffffffff1681565b600047905090565b6000809054906101000a900473ffffffffffffffffffffffffffffffffffffffff1681565b60076020528160005260406000206020528060005260406000206000915091509054906101000a900460ff1681565b60606002805480602002602001604051908101604052809291908181526020018280548015610ff757602002820191906000526020600020905b8160009054906101000a900473ffffffffffffffffffffffffffffffffffffffff1673ffffffffffffffffffffffffffffffffffffffff1681526020019060010190808311610fad575b5050505050905090565b6004818154811061100e57fe5b90600052602060002090600502016000915090508060000160009054906101000a900473ffffffffffffffffffffffffffffffffffffffff16908060010160009054906101000a900473ffffffffffffffffffffffffffffffffffffffff16908060020154908060030154908060040154905085565b60015481565b60606005805480602002602001604051908101604052809291908181526020016000905b828210156111aa57838290600052602060002090600502016040518060a00160405290816000820160009054906101000a900473ffffffffffffffffffffffffffffffffffffffff1673ffffffffffffffffffffffffffffffffffffffff1673ffffffffffffffffffffffffffffffffffffffff1681526020016001820160009054906101000a900473ffffffffffffffffffffffffffffffffffffffff1673ffffffffffffffffffffffffffffffffffffffff1673ffffffffffffffffffffffffffffffffffffffff1681526020016002820154815260200160038201548152602001600482015481525050815260200190600101906110ae565b50505050905090565b60035481565b6000808284815181106111c857fe5b6020026020010151602001518385815181106111e057fe5b6020026020010151600001518486815181106111f857fe5b60200260200101516040015185878151811061121057fe5b60200260200101516060015186888151811061122857fe5b602002602001015160800151604051602001611248959493929190611ca0565b6040516020818303038152906040528051906020012090508091505092915050565b6000806004838154811061127a57fe5b906000526020600020906005020160010160009054906101000a900473ffffffffffffffffffffffffffffffffffffffff1690508073ffffffffffffffffffffffffffffffffffffffff166108fc600485815481106112d557fe5b9060005260206000209060050201600201549081150290604051600060405180830381858888f19350505050158015611312573d6000803e3d6000fd5b507f2f03f1395f971b1f02ef2bc5afe3dcaadb5138627f8f45633cefd28f1a5f7e456004848154811061134157fe5b906000526020600020906005020160010160009054906101000a900473ffffffffffffffffffffffffffffffffffffffff166004858154811061138057fe5b9060005260206000209060050201600201546040516113a0929190611cf3565b60405180910390a160008390505b6001600580549050038110156114f357600560018201815481106113ce57fe5b9060005260206000209060050201600582815481106113e957fe5b90600052602060002090600502016000820160009054906101000a900473ffffffffffffffffffffffffffffffffffffffff168160000160006101000a81548173ffffffffffffffffffffffffffffffffffffffff021916908373ffffffffffffffffffffffffffffffffffffffff1602179055506001820160009054906101000a900473ffffffffffffffffffffffffffffffffffffffff168160010160006101000a81548173ffffffffffffffffffffffffffffffffffffffff021916908373ffffffffffffffffffffffffffffffffffffffff16021790555060028201548160020155600382015481600301556004820154816004015590505080806001019150506113ae565b5060056001600580549050038154811061150957fe5b9060005260206000209060050201600080820160006101000a81549073ffffffffffffffffffffffffffffffffffffffff02191690556001820160006101000a81549073ffffffffffffffffffffffffffffffffffffffff02191690556002820160009055600382016000905560048201600090555050600580548091906001900361159591906116b0565b50600660008154809291906001900391905055506001915050919050565b600080600090505b60028054905081101561164a578273ffffffffffffffffffffffffffffffffffffffff16600282815481106115ec57fe5b9060005260206000200160009054906101000a900473ffffffffffffffffffffffffffffffffffffffff1673ffffffffffffffffffffffffffffffffffffffff16141561163d576001915050611650565b80806001019150506115bb565b50600090505b919050565b6040518060a00160405280600073ffffffffffffffffffffffffffffffffffffffff168152602001600073ffffffffffffffffffffffffffffffffffffffff1681526020016000815260200160008152602001600081525090565b8154818355818111156116dd576005028160050283600052602060002091820191016116dc91906116e2565b5b505050565b61176491905b8082111561176057600080820160006101000a81549073ffffffffffffffffffffffffffffffffffffffff02191690556001820160006101000a81549073ffffffffffffffffffffffffffffffffffffffff0219169055600282016000905560038201600090556004820160009055506005016116e8565b5090565b90565b60008135905061177681611f6e565b92915050565b60008135905061178b81611f85565b92915050565b6000813590506117a081611f9c565b92915050565b6000813590506117b581611fb3565b92915050565b6000602082840312156117cd57600080fd5b60006117db84828501611767565b91505092915050565b6000806000606084860312156117f957600080fd5b60006118078682870161177c565b9350506020611818868287016117a6565b9250506040611829868287016117a6565b9150509250925092565b6000806040838503121561184657600080fd5b600061185485828601611791565b925050602061186585828601611767565b9150509250929050565b60006020828403121561188157600080fd5b600061188f848285016117a6565b91505092915050565b60006118a483836118f5565b60208301905092915050565b60006118bc8383611b9f565b60a08301905092915050565b6118d181611f38565b82525050565b6118e081611ee6565b82525050565b6118ef81611ee6565b82525050565b6118fe81611ed4565b82525050565b61190d81611ed4565b82525050565b600061191e82611e71565b6119288185611ea1565b935061193383611e51565b8060005b8381101561196457815161194b8882611898565b975061195683611e87565b925050600181019050611937565b5085935050505092915050565b600061197c82611e7c565b6119868185611eb2565b935061199183611e61565b8060005b838110156119c25781516119a988826118b0565b97506119b483611e94565b925050600181019050611995565b5085935050505092915050565b6119d881611ef8565b82525050565b6119e781611f04565b82525050565b60006119fa601583611ec3565b91507f53656e646572206e6f7420617574686f72697a656400000000000000000000006000830152602082019050919050565b6000611a3a602f83611ec3565b91507f5468697320616464726573732068617320616c7265616479207369676e65642060008301527f746865207472616e73616374696f6e00000000000000000000000000000000006020830152604082019050919050565b6000611aa0602483611ec3565b91507f546869732061646472657373206973206e6f74206f6e2074686520776869746560008301527f6c697374000000000000000000000000000000000000000000000000000000006020830152604082019050919050565b6000611b06602283611ec3565b91507f4e6f7420656e6f7567682065746820746f2073656e64207472616e736163746960008301527f6f6e0000000000000000000000000000000000000000000000000000000000006020830152604082019050919050565b6000611b6c600d83611ec3565b91507f416c7265616479206164646564000000000000000000000000000000000000006000830152602082019050919050565b60a082016000820151611bb560008501826118d7565b506020820151611bc860208501826118d7565b506040820151611bdb6040850182611c07565b506060820151611bee6060850182611c07565b506080820151611c016080850182611c07565b50505050565b611c1081611f2e565b82525050565b611c1f81611f2e565b82525050565b6000602082019050611c3a6000830184611904565b92915050565b6000602082019050611c5560008301846118c8565b92915050565b6000608082019050611c7060008301876118c8565b611c7d60208301866118c8565b611c8a6040830185611c16565b611c976060830184611c16565b95945050505050565b600060a082019050611cb560008301886118e6565b611cc260208301876118e6565b611ccf6040830186611c16565b611cdc6060830185611c16565b611ce96080830184611c16565b9695505050505050565b6000604082019050611d0860008301856118c8565b611d156020830184611c16565b9392505050565b60006020820190508181036000830152611d368184611913565b905092915050565b60006020820190508181036000830152611d588184611971565b905092915050565b6000602082019050611d7560008301846119cf565b92915050565b6000602082019050611d9060008301846119de565b92915050565b60006020820190508181036000830152611daf816119ed565b9050919050565b60006020820190508181036000830152611dcf81611a2d565b9050919050565b60006020820190508181036000830152611def81611a93565b9050919050565b60006020820190508181036000830152611e0f81611af9565b9050919050565b60006020820190508181036000830152611e2f81611b5f565b9050919050565b6000602082019050611e4b6000830184611c16565b92915050565b6000819050602082019050919050565b6000819050602082019050919050565b600081519050919050565b600081519050919050565b6000602082019050919050565b6000602082019050919050565b600082825260208201905092915050565b600082825260208201905092915050565b600082825260208201905092915050565b6000611edf82611f0e565b9050919050565b6000611ef182611f0e565b9050919050565b60008115159050919050565b6000819050919050565b600073ffffffffffffffffffffffffffffffffffffffff82169050919050565b6000819050919050565b6000611f4382611f4a565b9050919050565b6000611f5582611f5c565b9050919050565b6000611f6782611f0e565b9050919050565b611f7781611ed4565b8114611f8257600080fd5b50565b611f8e81611ee6565b8114611f9957600080fd5b50565b611fa581611f04565b8114611fb057600080fd5b50565b611fbc81611f2e565b8114611fc757600080fd5b5056fea365627a7a723158204b275a4f8b55b92f8819f360c13b53af899fc6a139042c4e49d3dc0b37e2faa56c6578706572696d656e74616cf564736f6c63430005100040",
  "source": "pragma solidity ^0.5.16;\r\npragma experimental ABIEncoderV2;\r\n\r\ncontract MultiSig {\r\n    address public owner; // Will be the address of who deploys to contract\r\n    uint256 public nonce;\r\n\r\n    struct transactionData {\r\n        address payable from;\r\n        address payable to;\r\n        uint256 amount;\r\n        uint256 nonceTrans;\r\n        uint256 threshold;\r\n    }\r\n\r\n    address[] public whitelistAdd; // list of addresses added to whitelist\r\n    uint256 public numWhitlist;\r\n\r\n    transactionData[] public transactions;\r\n    transactionData[] public pendingTransactions;\r\n    uint256 public numPendingTx;\r\n\r\n    mapping(bytes32 => mapping(address => bool)) public signedList; // list of address that have signed the transaction\r\n    mapping(bytes32 => uint256) numSigs;\r\n\r\n    // Events to emmit\r\n    event transactionCreated(address, address, uint256, uint256);\r\n    event SignedTransact(address);\r\n    event AddedWhiteList(address);\r\n    event transactionOccured(address, uint256);\r\n    event emitHash(bytes32);\r\n\r\n    constructor() public {\r\n        // Make the owner who deploys contract\r\n        owner = msg.sender;\r\n        // Add to white list for owner to sign\r\n        numWhitlist = 0;\r\n        numPendingTx = 0;\r\n        nonce = 0;\r\n        addAddress(msg.sender); // add owner's address as address 0 of whitelist addresses\r\n    }\r\n\r\n    function getWhitelistAdd()\r\n        public\r\n        view\r\n        returns (address[] memory whitelist)\r\n    {\r\n        return whitelistAdd;\r\n    }\r\n\r\n    function getPendingTx()\r\n        public\r\n        view\r\n        returns (transactionData[] memory pending)\r\n    {\r\n        return pendingTransactions;\r\n    }\r\n\r\n    function findAddress(address find) internal view returns (bool success) {\r\n        for (uint256 index = 0; index < whitelistAdd.length; index++) {\r\n            if (whitelistAdd[index] == find) {\r\n                return true;\r\n            }\r\n        }\r\n\r\n        return false;\r\n    }\r\n\r\n    // Adds address to whitelist so entity has signing ability\r\n    function addAddress(address newAddress) public returns (bool success) {\r\n        // Requires to ensure owner adding signers\r\n        require(msg.sender == owner, \"Sender not authorized\");\r\n        require(!findAddress(newAddress), \"Already added\");\r\n\r\n        // Give address signing ability and emit event\r\n        whitelistAdd.push(newAddress); // add the new address to list of whitelist addresses\r\n        numWhitlist++;\r\n        emit AddedWhiteList(newAddress);\r\n        return true;\r\n    }\r\n\r\n    function setupTransaction(\r\n        address payable _paymentReciever,\r\n        uint256 _threshold,\r\n        uint256 _amount\r\n    ) external payable returns (uint256) {\r\n        require(msg.value == _amount, \"Not enough eth to send transaction\");\r\n\r\n        transactionData memory tmp = transactionData(\r\n            msg.sender,\r\n            _paymentReciever,\r\n            _amount,\r\n            nonce,\r\n            _threshold\r\n        );\r\n\r\n        transactions.push(tmp);\r\n        pendingTransactions.push(tmp);\r\n        numPendingTx++;\r\n\r\n        emit transactionCreated(\r\n            msg.sender,\r\n            _paymentReciever,\r\n            nonce,\r\n            _threshold\r\n        );\r\n\r\n        bytes32 txHash = encodeTransaction(nonce, transactions);\r\n\r\n        numSigs[txHash] = 0;\r\n        signTransaction(nonce);\r\n\r\n        nonce++;\r\n        emit emitHash(txHash);\r\n\r\n        return nonce - 1;\r\n    }\r\n\r\n    function encodeTransaction(uint256 index, transactionData[] memory txns)\r\n        internal\r\n        pure\r\n        returns (bytes32)\r\n    {\r\n        bytes32 tmp = keccak256(\r\n            abi.encode(\r\n                txns[index].to,\r\n                txns[index].from,\r\n                txns[index].amount,\r\n                txns[index].nonceTrans,\r\n                txns[index].threshold\r\n            )\r\n        );\r\n\r\n        return tmp;\r\n    }\r\n\r\n    // Msg.sender signs transaction\r\n    function signTransaction(uint256 index) public returns (bool success) {\r\n        bytes32 txHash = encodeTransaction(index, pendingTransactions);\r\n        // Makes sure sender is on whitelist and has not signed yet\r\n        require(\r\n            findAddress(msg.sender),\r\n            \"This address is not on the whitelist\"\r\n        );\r\n        require(\r\n            signedList[txHash][msg.sender] == false,\r\n            \"This address has already signed the transaction\"\r\n        );\r\n\r\n        // Increment num of signatures on transact and approve on signedList\r\n        signedList[txHash][msg.sender] = true;\r\n        numSigs[txHash] += 1;\r\n        emit SignedTransact(msg.sender);\r\n\r\n        return checkStatus(index);\r\n    }\r\n\r\n    function handlePayment(uint256 index) private returns (bool) {\r\n        address payable reciever = transactions[index].to;\r\n        reciever.transfer(transactions[index].amount);\r\n\r\n        emit transactionOccured(\r\n            transactions[index].to,\r\n            transactions[index].amount\r\n        );\r\n\r\n        for (uint256 i = index; i < pendingTransactions.length - 1; i++) {\r\n            pendingTransactions[i] = pendingTransactions[i + 1];\r\n        }\r\n\r\n        delete pendingTransactions[pendingTransactions.length - 1];\r\n        pendingTransactions.length--;\r\n        numPendingTx--;\r\n\r\n        return true;\r\n    }\r\n\r\n    function contractBalance() public view returns (uint256 balance) {\r\n        return address(this).balance;\r\n    }\r\n\r\n    // Getter for number of entities signed\r\n    function checkStatus(uint256 index) public payable returns (bool success) {\r\n        bytes32 txHash = encodeTransaction(index, pendingTransactions);\r\n        if (numSigs[txHash] >= transactions[index].threshold) {\r\n            return handlePayment(index);\r\n        }\r\n\r\n        return false;\r\n    }\r\n\r\n}\r\n",
  "sourcePath": "C:\\Users\\spvye\\Documents\\Fortmatic\\phantom\\contract\\contracts\\MultiSig.sol",
  "compiler": {
    "name": "solc",
    "version": "0.5.16+commit.9c3226ce.Emscripten.clang"
  },
  "schemaVersion": "3.0.23",
  "updatedAt": "2020-03-11T13:22:59.550Z",
  "devdoc": {
    "methods": {}
  },
  "userdoc": {
    "methods": {}
  }
}