{
  "contractName": "MultiSig",
  "abi": [
    {
      "inputs": [
        {
          "internalType": "string",
          "name": "name",
          "type": "string"
        }
      ],
      "payable": false,
      "stateMutability": "nonpayable",
      "type": "constructor"
    },
    {
      "anonymous": false,
      "inputs": [
        {
          "indexed": false,
          "internalType": "address",
          "name": "",
          "type": "address"
        }
      ],
      "name": "AddedWhiteList",
      "type": "event"
    },
    {
      "anonymous": false,
      "inputs": [
        {
          "indexed": false,
          "internalType": "address",
          "name": "",
          "type": "address"
        }
      ],
      "name": "SignedTransact",
      "type": "event"
    },
    {
      "anonymous": false,
      "inputs": [
        {
          "indexed": false,
          "internalType": "address",
          "name": "",
          "type": "address"
        },
        {
          "indexed": false,
          "internalType": "address",
          "name": "",
          "type": "address"
        },
        {
          "indexed": false,
          "internalType": "uint256",
          "name": "",
          "type": "uint256"
        },
        {
          "indexed": false,
          "internalType": "uint256",
          "name": "",
          "type": "uint256"
        }
      ],
      "name": "transactionCreated",
      "type": "event"
    },
    {
      "anonymous": false,
      "inputs": [
        {
          "indexed": false,
          "internalType": "address",
          "name": "",
          "type": "address"
        },
        {
          "indexed": false,
          "internalType": "uint256",
          "name": "",
          "type": "uint256"
        }
      ],
      "name": "transactionOccured",
      "type": "event"
    },
    {
      "constant": true,
      "inputs": [
        {
          "internalType": "uint256",
          "name": "",
          "type": "uint256"
        }
      ],
      "name": "ethTxHashes",
      "outputs": [
        {
          "internalType": "string",
          "name": "",
          "type": "string"
        }
      ],
      "payable": false,
      "stateMutability": "view",
      "type": "function"
    },
    {
      "constant": true,
      "inputs": [],
      "name": "nonce",
      "outputs": [
        {
          "internalType": "uint256",
          "name": "",
          "type": "uint256"
        }
      ],
      "payable": false,
      "stateMutability": "view",
      "type": "function"
    },
    {
      "constant": true,
      "inputs": [],
      "name": "owner",
      "outputs": [
        {
          "internalType": "address",
          "name": "",
          "type": "address"
        }
      ],
      "payable": false,
      "stateMutability": "view",
      "type": "function"
    },
    {
      "constant": true,
      "inputs": [
        {
          "internalType": "uint256",
          "name": "",
          "type": "uint256"
        }
      ],
      "name": "pendingTransactions",
      "outputs": [
        {
          "components": [
            {
              "internalType": "address payable",
              "name": "from",
              "type": "address"
            },
            {
              "internalType": "address payable",
              "name": "to",
              "type": "address"
            },
            {
              "internalType": "uint256",
              "name": "amount",
              "type": "uint256"
            },
            {
              "internalType": "uint256",
              "name": "nonceTrans",
              "type": "uint256"
            },
            {
              "internalType": "uint256",
              "name": "threshold",
              "type": "uint256"
            }
          ],
          "internalType": "struct MultiSig.transactionData",
          "name": "txnData",
          "type": "tuple"
        },
        {
          "internalType": "uint256",
          "name": "numSigs",
          "type": "uint256"
        },
        {
          "internalType": "bytes32",
          "name": "txHash",
          "type": "bytes32"
        }
      ],
      "payable": false,
      "stateMutability": "view",
      "type": "function"
    },
    {
      "constant": true,
      "inputs": [
        {
          "internalType": "uint256",
          "name": "",
          "type": "uint256"
        }
      ],
      "name": "transactions",
      "outputs": [
        {
          "internalType": "address payable",
          "name": "from",
          "type": "address"
        },
        {
          "internalType": "address payable",
          "name": "to",
          "type": "address"
        },
        {
          "internalType": "uint256",
          "name": "amount",
          "type": "uint256"
        },
        {
          "internalType": "uint256",
          "name": "nonceTrans",
          "type": "uint256"
        },
        {
          "internalType": "uint256",
          "name": "threshold",
          "type": "uint256"
        }
      ],
      "payable": false,
      "stateMutability": "view",
      "type": "function"
    },
    {
      "constant": true,
      "inputs": [
        {
          "internalType": "address",
          "name": "",
          "type": "address"
        }
      ],
      "name": "whitelist",
      "outputs": [
        {
          "internalType": "bool",
          "name": "",
          "type": "bool"
        }
      ],
      "payable": false,
      "stateMutability": "view",
      "type": "function"
    },
    {
      "constant": true,
      "inputs": [
        {
          "internalType": "uint256",
          "name": "",
          "type": "uint256"
        }
      ],
      "name": "whitelistAdd",
      "outputs": [
        {
          "internalType": "address",
          "name": "whiteAdd",
          "type": "address"
        },
        {
          "internalType": "string",
          "name": "email",
          "type": "string"
        }
      ],
      "payable": false,
      "stateMutability": "view",
      "type": "function"
    },
    {
      "constant": true,
      "inputs": [],
      "name": "getAllTransactions",
      "outputs": [
        {
          "components": [
            {
              "internalType": "address payable",
              "name": "from",
              "type": "address"
            },
            {
              "internalType": "address payable",
              "name": "to",
              "type": "address"
            },
            {
              "internalType": "uint256",
              "name": "amount",
              "type": "uint256"
            },
            {
              "internalType": "uint256",
              "name": "nonceTrans",
              "type": "uint256"
            },
            {
              "internalType": "uint256",
              "name": "threshold",
              "type": "uint256"
            }
          ],
          "internalType": "struct MultiSig.transactionData[]",
          "name": "transArr",
          "type": "tuple[]"
        }
      ],
      "payable": false,
      "stateMutability": "view",
      "type": "function"
    },
    {
      "constant": true,
      "inputs": [],
      "name": "getWhitelistAdd",
      "outputs": [
        {
          "components": [
            {
              "internalType": "address",
              "name": "whiteAdd",
              "type": "address"
            },
            {
              "internalType": "string",
              "name": "email",
              "type": "string"
            }
          ],
          "internalType": "struct MultiSig.whitelistData[]",
          "name": "whitelistArr",
          "type": "tuple[]"
        }
      ],
      "payable": false,
      "stateMutability": "view",
      "type": "function"
    },
    {
      "constant": true,
      "inputs": [],
      "name": "getPendingTx",
      "outputs": [
        {
          "components": [
            {
              "components": [
                {
                  "internalType": "address payable",
                  "name": "from",
                  "type": "address"
                },
                {
                  "internalType": "address payable",
                  "name": "to",
                  "type": "address"
                },
                {
                  "internalType": "uint256",
                  "name": "amount",
                  "type": "uint256"
                },
                {
                  "internalType": "uint256",
                  "name": "nonceTrans",
                  "type": "uint256"
                },
                {
                  "internalType": "uint256",
                  "name": "threshold",
                  "type": "uint256"
                }
              ],
              "internalType": "struct MultiSig.transactionData",
              "name": "txnData",
              "type": "tuple"
            },
            {
              "internalType": "uint256",
              "name": "numSigs",
              "type": "uint256"
            },
            {
              "internalType": "bytes32",
              "name": "txHash",
              "type": "bytes32"
            }
          ],
          "internalType": "struct MultiSig.pendingData[]",
          "name": "pending",
          "type": "tuple[]"
        }
      ],
      "payable": false,
      "stateMutability": "view",
      "type": "function"
    },
    {
      "constant": true,
      "inputs": [],
      "name": "contractBalance",
      "outputs": [
        {
          "internalType": "uint256",
          "name": "balance",
          "type": "uint256"
        }
      ],
      "payable": false,
      "stateMutability": "view",
      "type": "function"
    },
    {
      "constant": true,
      "inputs": [],
      "name": "getHashes",
      "outputs": [
        {
          "internalType": "string[]",
          "name": "hashes",
          "type": "string[]"
        }
      ],
      "payable": false,
      "stateMutability": "view",
      "type": "function"
    },
    {
      "constant": false,
      "inputs": [
        {
          "internalType": "string",
          "name": "txHash",
          "type": "string"
        }
      ],
      "name": "setHash",
      "outputs": [
        {
          "internalType": "bool",
          "name": "success",
          "type": "bool"
        }
      ],
      "payable": false,
      "stateMutability": "nonpayable",
      "type": "function"
    },
    {
      "constant": false,
      "inputs": [
        {
          "internalType": "address",
          "name": "newAddress",
          "type": "address"
        },
        {
          "internalType": "string",
          "name": "name",
          "type": "string"
        }
      ],
      "name": "addAddress",
      "outputs": [
        {
          "internalType": "bool",
          "name": "success",
          "type": "bool"
        }
      ],
      "payable": false,
      "stateMutability": "nonpayable",
      "type": "function"
    },
    {
      "constant": false,
      "inputs": [
        {
          "internalType": "address payable",
          "name": "_paymentReciever",
          "type": "address"
        },
        {
          "internalType": "uint256",
          "name": "_threshold",
          "type": "uint256"
        },
        {
          "internalType": "uint256",
          "name": "_amount",
          "type": "uint256"
        }
      ],
      "name": "setupTransaction",
      "outputs": [
        {
          "internalType": "uint256",
          "name": "",
          "type": "uint256"
        }
      ],
      "payable": true,
      "stateMutability": "payable",
      "type": "function"
    },
    {
      "constant": false,
      "inputs": [
        {
          "internalType": "uint256",
          "name": "index",
          "type": "uint256"
        }
      ],
      "name": "signTransaction",
      "outputs": [
        {
          "internalType": "bool",
          "name": "success",
          "type": "bool"
        }
      ],
      "payable": false,
      "stateMutability": "nonpayable",
      "type": "function"
    },
    {
      "constant": false,
      "inputs": [
        {
          "internalType": "uint256",
          "name": "index",
          "type": "uint256"
        }
      ],
      "name": "checkStatus",
      "outputs": [
        {
          "internalType": "bool",
          "name": "success",
          "type": "bool"
        }
      ],
      "payable": true,
      "stateMutability": "payable",
      "type": "function"
    }
  ],
  "bytecode": "0x60806040523480156200001157600080fd5b50604051620034d6380380620034d6833981810160405262000037919081019062000486565b336000806101000a81548173ffffffffffffffffffffffffffffffffffffffff021916908373ffffffffffffffffffffffffffffffffffffffff16021790555060006001819055506200009133826200009960201b60201c565b505062000697565b600060011515600360003373ffffffffffffffffffffffffffffffffffffffff1673ffffffffffffffffffffffffffffffffffffffff16815260200190815260200160002060009054906101000a900460ff16151514806200014757503373ffffffffffffffffffffffffffffffffffffffff166000809054906101000a900473ffffffffffffffffffffffffffffffffffffffff1673ffffffffffffffffffffffffffffffffffffffff16145b62000189576040517f08c379a000000000000000000000000000000000000000000000000000000000815260040162000180906200057d565b60405180910390fd5b60001515600360008573ffffffffffffffffffffffffffffffffffffffff1673ffffffffffffffffffffffffffffffffffffffff16815260200190815260200160002060009054906101000a900460ff161515146200021f576040517f08c379a000000000000000000000000000000000000000000000000000000000815260040162000216906200059f565b60405180910390fd5b600260405180604001604052808573ffffffffffffffffffffffffffffffffffffffff168152602001848152509080600181540180825580915050906001820390600052602060002090600202016000909192909190915060008201518160000160006101000a81548173ffffffffffffffffffffffffffffffffffffffff021916908373ffffffffffffffffffffffffffffffffffffffff1602179055506020820151816001019080519060200190620002dc9291906200037b565b505050506001600360008573ffffffffffffffffffffffffffffffffffffffff1673ffffffffffffffffffffffffffffffffffffffff16815260200190815260200160002060006101000a81548160ff0219169083151502179055507f64fd21439447139bed5a374a0f62ecc0fbd38cf2687d4ed5d587cb55dfbd42588360405162000369919062000560565b60405180910390a16001905092915050565b828054600181600116156101000203166002900490600052602060002090601f016020900481019282601f10620003be57805160ff1916838001178555620003ef565b82800160010185558215620003ef579182015b82811115620003ee578251825591602001919060010190620003d1565b5b509050620003fe919062000402565b5090565b6200042791905b808211156200042357600081600090555060010162000409565b5090565b90565b600082601f8301126200043c57600080fd5b8151620004536200044d82620005ef565b620005c1565b915080825260208301602083018583830111156200047057600080fd5b6200047d83828462000661565b50505092915050565b6000602082840312156200049957600080fd5b600082015167ffffffffffffffff811115620004b457600080fd5b620004c2848285016200042a565b91505092915050565b620004d6816200062d565b82525050565b6000620004eb6015836200061c565b91507f53656e646572206e6f7420617574686f72697a656400000000000000000000006000830152602082019050919050565b60006200052d600d836200061c565b91507f416c7265616479206164646564000000000000000000000000000000000000006000830152602082019050919050565b6000602082019050620005776000830184620004cb565b92915050565b600060208201905081810360008301526200059881620004dc565b9050919050565b60006020820190508181036000830152620005ba816200051e565b9050919050565b6000604051905081810181811067ffffffffffffffff82111715620005e557600080fd5b8060405250919050565b600067ffffffffffffffff8211156200060757600080fd5b601f19601f8301169050602081019050919050565b600082825260208201905092915050565b60006200063a8262000641565b9050919050565b600073ffffffffffffffffffffffffffffffffffffffff82169050919050565b60005b838110156200068157808201518184015260208101905062000664565b8381111562000691576000848401525b50505050565b612e2f80620006a76000396000f3fe6080604052600436106100fe5760003560e01c806383588447116100955780639ace38c2116100645780639ace38c21461036e5780639b19251a146103af578063affed0e0146103ec578063d033c45614610417578063e95597fc14610454576100fe565b806383588447146102af5780638b7afe2e146102ed5780638da5cb5b1461031857806395b52bdb14610343576100fe565b80634245d48e116100d15780634245d48e146101cb5780635d9ec210146101f657806363a8374d1461023357806365bc989314610272576100fe565b80631ed83fd41461010357806327506f53146101405780632858c7641461016b5780633d8c16de1461019b575b600080fd5b34801561010f57600080fd5b5061012a6004803603610125919081019061211b565b61047f565b60405161013791906129e1565b60405180910390f35b34801561014c57600080fd5b506101556104c9565b604051610162919061299d565b60405180910390f35b6101856004803603610180919081019061215c565b6105f2565b60405161019291906129e1565b60405180910390f35b6101b560048036036101b09190810190612078565b61069b565b6040516101c29190612b35565b60405180910390f35b3480156101d757600080fd5b506101e0610c48565b6040516101ed9190612959565b60405180910390f35b34801561020257600080fd5b5061021d6004803603610218919081019061215c565b610d31565b60405161022a91906129e1565b60405180910390f35b34801561023f57600080fd5b5061025a6004803603610255919081019061215c565b610fca565b60405161026993929190612afe565b60405180910390f35b34801561027e57600080fd5b506102996004803603610294919081019061215c565b6110d5565b6040516102a691906129fc565b60405180910390f35b3480156102bb57600080fd5b506102d660048036036102d1919081019061215c565b61118e565b6040516102e4929190612929565b60405180910390f35b3480156102f957600080fd5b50610302611277565b60405161030f9190612b35565b60405180910390f35b34801561032457600080fd5b5061032d61127f565b60405161033a9190612832565b60405180910390f35b34801561034f57600080fd5b506103586112a4565b60405161036591906129bf565b60405180910390f35b34801561037a57600080fd5b506103956004803603610390919081019061215c565b6113fb565b6040516103a69594939291906128ad565b60405180910390f35b3480156103bb57600080fd5b506103d660048036036103d1919081019061204f565b61147e565b6040516103e391906129e1565b60405180910390f35b3480156103f857600080fd5b5061040161149e565b60405161040e9190612b35565b60405180910390f35b34801561042357600080fd5b5061043e600480360361043991908101906120c7565b6114a4565b60405161044b91906129e1565b60405180910390f35b34801561046057600080fd5b5061046961177b565b604051610476919061297b565b60405180910390f35b600060078290806001815401808255809150509060018203906000526020600020016000909192909190915090805190602001906104be929190611dc8565b505060019050919050565b60606005805480602002602001604051908101604052809291908181526020016000905b828210156105e957838290600052602060002090600502016040518060a00160405290816000820160009054906101000a900473ffffffffffffffffffffffffffffffffffffffff1673ffffffffffffffffffffffffffffffffffffffff1673ffffffffffffffffffffffffffffffffffffffff1681526020016001820160009054906101000a900473ffffffffffffffffffffffffffffffffffffffff1673ffffffffffffffffffffffffffffffffffffffff1673ffffffffffffffffffffffffffffffffffffffff1681526020016002820154815260200160038201548152602001600482015481525050815260200190600101906104ed565b50505050905090565b6000600680549050821061063b576040517f08c379a000000000000000000000000000000000000000000000000000000000815260040161063290612ade565b60405180910390fd5b6006828154811061064857fe5b9060005260206000209060070201600001600401546006838154811061066a57fe5b906000526020600020906007020160050154106106915761068a826118cc565b9050610696565b600090505b919050565b60008134146106df576040517f08c379a00000000000000000000000000000000000000000000000000000000081526004016106d690612a9e565b60405180910390fd5b60011515600360003373ffffffffffffffffffffffffffffffffffffffff1673ffffffffffffffffffffffffffffffffffffffff16815260200190815260200160002060009054906101000a900460ff16151514610772576040517f08c379a000000000000000000000000000000000000000000000000000000000815260040161076990612a5e565b60405180910390fd5b60056040518060a001604052803373ffffffffffffffffffffffffffffffffffffffff1681526020018673ffffffffffffffffffffffffffffffffffffffff1681526020018481526020016001548152602001858152509080600181540180825580915050906001820390600052602060002090600502016000909192909190915060008201518160000160006101000a81548173ffffffffffffffffffffffffffffffffffffffff021916908373ffffffffffffffffffffffffffffffffffffffff16021790555060208201518160010160006101000a81548173ffffffffffffffffffffffffffffffffffffffff021916908373ffffffffffffffffffffffffffffffffffffffff160217905550604082015181600201556060820151816003015560808201518160040155505050600660405180606001604052806005600154815481106108bf57fe5b90600052602060002090600502016040518060a00160405290816000820160009054906101000a900473ffffffffffffffffffffffffffffffffffffffff1673ffffffffffffffffffffffffffffffffffffffff1673ffffffffffffffffffffffffffffffffffffffff1681526020016001820160009054906101000a900473ffffffffffffffffffffffffffffffffffffffff1673ffffffffffffffffffffffffffffffffffffffff1673ffffffffffffffffffffffffffffffffffffffff1681526020016002820154815260200160038201548152602001600482015481525050815260200160008152602001610adb6001546005805480602002602001604051908101604052809291908181526020016000905b82821015610ad257838290600052602060002090600502016040518060a00160405290816000820160009054906101000a900473ffffffffffffffffffffffffffffffffffffffff1673ffffffffffffffffffffffffffffffffffffffff1673ffffffffffffffffffffffffffffffffffffffff1681526020016001820160009054906101000a900473ffffffffffffffffffffffffffffffffffffffff1673ffffffffffffffffffffffffffffffffffffffff1673ffffffffffffffffffffffffffffffffffffffff1681526020016002820154815260200160038201548152602001600482015481525050815260200190600101906109d6565b50505050611cd3565b8152509080600181540180825580915050906001820390600052602060002090600702016000909192909190915060008201518160000160008201518160000160006101000a81548173ffffffffffffffffffffffffffffffffffffffff021916908373ffffffffffffffffffffffffffffffffffffffff16021790555060208201518160010160006101000a81548173ffffffffffffffffffffffffffffffffffffffff021916908373ffffffffffffffffffffffffffffffffffffffff160217905550604082015181600201556060820151816003015560808201518160040155505060208201518160050155604082015181600601555050507fc5094f20ddbb9bda2b4d1b39f78d7d784f323b721a2a8f32456a45d3dfb716d8338560015486604051610c0e9493929190612868565b60405180910390a1610c27600160068054905003610d31565b50600160008154809291906001019190505550600180540390509392505050565b60606007805480602002602001604051908101604052809291908181526020016000905b82821015610d28578382906000526020600020018054600181600116156101000203166002900480601f016020809104026020016040519081016040528092919081815260200182805460018160011615610100020316600290048015610d145780601f10610ce957610100808354040283529160200191610d14565b820191906000526020600020905b815481529060010190602001808311610cf757829003601f168201915b505050505081526020019060010190610c6c565b50505050905090565b60006006805490508210610d7a576040517f08c379a0000000000000000000000000000000000000000000000000000000008152600401610d7190612ade565b60405180910390fd5b60011515600360003373ffffffffffffffffffffffffffffffffffffffff1673ffffffffffffffffffffffffffffffffffffffff16815260200190815260200160002060009054906101000a900460ff16151514610e0d576040517f08c379a0000000000000000000000000000000000000000000000000000000008152600401610e0490612a7e565b60405180910390fd5b600015156004600060068581548110610e2257fe5b906000526020600020906007020160060154815260200190815260200160002060003373ffffffffffffffffffffffffffffffffffffffff1673ffffffffffffffffffffffffffffffffffffffff16815260200190815260200160002060009054906101000a900460ff16151514610ecf576040517f08c379a0000000000000000000000000000000000000000000000000000000008152600401610ec690612a3e565b60405180910390fd5b60016004600060068581548110610ee257fe5b906000526020600020906007020160060154815260200190815260200160002060003373ffffffffffffffffffffffffffffffffffffffff1673ffffffffffffffffffffffffffffffffffffffff16815260200190815260200160002060006101000a81548160ff021916908315150217905550600160068381548110610f6557fe5b9060005260206000209060070201600501600082825401925050819055507f827bfe95984eb396b6d8ff47200bd671835f5a6d87dc4bad10d2dbd4fe6355a333604051610fb2919061284d565b60405180910390a1610fc3826105f2565b9050919050565b60068181548110610fd757fe5b9060005260206000209060070201600091509050806000016040518060a00160405290816000820160009054906101000a900473ffffffffffffffffffffffffffffffffffffffff1673ffffffffffffffffffffffffffffffffffffffff1673ffffffffffffffffffffffffffffffffffffffff1681526020016001820160009054906101000a900473ffffffffffffffffffffffffffffffffffffffff1673ffffffffffffffffffffffffffffffffffffffff1673ffffffffffffffffffffffffffffffffffffffff1681526020016002820154815260200160038201548152602001600482015481525050908060050154908060060154905083565b600781815481106110e257fe5b906000526020600020016000915090508054600181600116156101000203166002900480601f0160208091040260200160405190810160405280929190818152602001828054600181600116156101000203166002900480156111865780601f1061115b57610100808354040283529160200191611186565b820191906000526020600020905b81548152906001019060200180831161116957829003601f168201915b505050505081565b6002818154811061119b57fe5b90600052602060002090600202016000915090508060000160009054906101000a900473ffffffffffffffffffffffffffffffffffffffff1690806001018054600181600116156101000203166002900480601f01602080910402602001604051908101604052809291908181526020018280546001816001161561010002031660029004801561126d5780601f106112425761010080835404028352916020019161126d565b820191906000526020600020905b81548152906001019060200180831161125057829003601f168201915b5050505050905082565b600047905090565b6000809054906101000a900473ffffffffffffffffffffffffffffffffffffffff1681565b60606002805480602002602001604051908101604052809291908181526020016000905b828210156113f257838290600052602060002090600202016040518060400160405290816000820160009054906101000a900473ffffffffffffffffffffffffffffffffffffffff1673ffffffffffffffffffffffffffffffffffffffff1673ffffffffffffffffffffffffffffffffffffffff168152602001600182018054600181600116156101000203166002900480601f0160208091040260200160405190810160405280929190818152602001828054600181600116156101000203166002900480156113da5780601f106113af576101008083540402835291602001916113da565b820191906000526020600020905b8154815290600101906020018083116113bd57829003601f168201915b505050505081525050815260200190600101906112c8565b50505050905090565b6005818154811061140857fe5b90600052602060002090600502016000915090508060000160009054906101000a900473ffffffffffffffffffffffffffffffffffffffff16908060010160009054906101000a900473ffffffffffffffffffffffffffffffffffffffff16908060020154908060030154908060040154905085565b60036020528060005260406000206000915054906101000a900460ff1681565b60015481565b600060011515600360003373ffffffffffffffffffffffffffffffffffffffff1673ffffffffffffffffffffffffffffffffffffffff16815260200190815260200160002060009054906101000a900460ff161515148061155157503373ffffffffffffffffffffffffffffffffffffffff166000809054906101000a900473ffffffffffffffffffffffffffffffffffffffff1673ffffffffffffffffffffffffffffffffffffffff16145b611590576040517f08c379a000000000000000000000000000000000000000000000000000000000815260040161158790612a1e565b60405180910390fd5b60001515600360008573ffffffffffffffffffffffffffffffffffffffff1673ffffffffffffffffffffffffffffffffffffffff16815260200190815260200160002060009054906101000a900460ff16151514611623576040517f08c379a000000000000000000000000000000000000000000000000000000000815260040161161a90612abe565b60405180910390fd5b600260405180604001604052808573ffffffffffffffffffffffffffffffffffffffff168152602001848152509080600181540180825580915050906001820390600052602060002090600202016000909192909190915060008201518160000160006101000a81548173ffffffffffffffffffffffffffffffffffffffff021916908373ffffffffffffffffffffffffffffffffffffffff16021790555060208201518160010190805190602001906116de929190611e48565b505050506001600360008573ffffffffffffffffffffffffffffffffffffffff1673ffffffffffffffffffffffffffffffffffffffff16815260200190815260200160002060006101000a81548160ff0219169083151502179055507f64fd21439447139bed5a374a0f62ecc0fbd38cf2687d4ed5d587cb55dfbd4258836040516117699190612832565b60405180910390a16001905092915050565b60606006805480602002602001604051908101604052809291908181526020016000905b828210156118c35783829060005260206000209060070201604051806060016040529081600082016040518060a00160405290816000820160009054906101000a900473ffffffffffffffffffffffffffffffffffffffff1673ffffffffffffffffffffffffffffffffffffffff1673ffffffffffffffffffffffffffffffffffffffff1681526020016001820160009054906101000a900473ffffffffffffffffffffffffffffffffffffffff1673ffffffffffffffffffffffffffffffffffffffff1673ffffffffffffffffffffffffffffffffffffffff16815260200160028201548152602001600382015481526020016004820154815250508152602001600582015481526020016006820154815250508152602001906001019061179f565b50505050905090565b60006006805490508210611915576040517f08c379a000000000000000000000000000000000000000000000000000000000815260040161190c90612ade565b60405180910390fd5b60006006838154811061192457fe5b906000526020600020906007020160000160010160009054906101000a900473ffffffffffffffffffffffffffffffffffffffff1690508073ffffffffffffffffffffffffffffffffffffffff166108fc6006858154811061198257fe5b9060005260206000209060070201600001600201549081150290604051600060405180830381858888f193505050501580156119c2573d6000803e3d6000fd5b507f2f03f1395f971b1f02ef2bc5afe3dcaadb5138627f8f45633cefd28f1a5f7e45600684815481106119f157fe5b906000526020600020906007020160000160010160009054906101000a900473ffffffffffffffffffffffffffffffffffffffff1660068581548110611a3357fe5b906000526020600020906007020160000160020154604051611a56929190612900565b60405180910390a1600660016006805490500381548110611a7357fe5b906000526020600020906007020160068481548110611a8e57fe5b906000526020600020906007020160008201816000016000820160009054906101000a900473ffffffffffffffffffffffffffffffffffffffff168160000160006101000a81548173ffffffffffffffffffffffffffffffffffffffff021916908373ffffffffffffffffffffffffffffffffffffffff1602179055506001820160009054906101000a900473ffffffffffffffffffffffffffffffffffffffff168160010160006101000a81548173ffffffffffffffffffffffffffffffffffffffff021916908373ffffffffffffffffffffffffffffffffffffffff16021790555060028201548160020155600382015481600301556004820154816004015550506005820154816005015560068201548160060155905050600760016007805490500381548110611bbe57fe5b9060005260206000200160078481548110611bd557fe5b906000526020600020019080546001816001161561010002031660029004611bfe929190611ec8565b506006805480611c0a57fe5b60019003818190600052602060002090600702016000808201600080820160006101000a81549073ffffffffffffffffffffffffffffffffffffffff02191690556001820160006101000a81549073ffffffffffffffffffffffffffffffffffffffff0219169055600282016000905560038201600090556004820160009055505060058201600090556006820160009055505090556007805480611cab57fe5b600190038181906000526020600020016000611cc79190611f4f565b90556001915050919050565b600081518310611d18576040517f08c379a0000000000000000000000000000000000000000000000000000000008152600401611d0f90612ade565b60405180910390fd5b6000828481518110611d2657fe5b602002602001015160200151838581518110611d3e57fe5b602002602001015160000151848681518110611d5657fe5b602002602001015160400151858781518110611d6e57fe5b602002602001015160600151868881518110611d8657fe5b602002602001015160800151604051602001611da69594939291906128ad565b6040516020818303038152906040528051906020012090508091505092915050565b828054600181600116156101000203166002900490600052602060002090601f016020900481019282601f10611e0957805160ff1916838001178555611e37565b82800160010185558215611e37579182015b82811115611e36578251825591602001919060010190611e1b565b5b509050611e449190611f97565b5090565b828054600181600116156101000203166002900490600052602060002090601f016020900481019282601f10611e8957805160ff1916838001178555611eb7565b82800160010185558215611eb7579182015b82811115611eb6578251825591602001919060010190611e9b565b5b509050611ec49190611f97565b5090565b828054600181600116156101000203166002900490600052602060002090601f016020900481019282601f10611f015780548555611f3e565b82800160010185558215611f3e57600052602060002091601f016020900482015b82811115611f3d578254825591600101919060010190611f22565b5b509050611f4b9190611f97565b5090565b50805460018160011615610100020316600290046000825580601f10611f755750611f94565b601f016020900490600052602060002090810190611f939190611f97565b5b50565b611fb991905b80821115611fb5576000816000905550600101611f9d565b5090565b90565b600081359050611fcb81612da7565b92915050565b600081359050611fe081612dbe565b92915050565b600082601f830112611ff757600080fd5b813561200a61200582612b7d565b612b50565b9150808252602083016020830185838301111561202657600080fd5b612031838284612d54565b50505092915050565b60008135905061204981612dd5565b92915050565b60006020828403121561206157600080fd5b600061206f84828501611fbc565b91505092915050565b60008060006060848603121561208d57600080fd5b600061209b86828701611fd1565b93505060206120ac8682870161203a565b92505060406120bd8682870161203a565b9150509250925092565b600080604083850312156120da57600080fd5b60006120e885828601611fbc565b925050602083013567ffffffffffffffff81111561210557600080fd5b61211185828601611fe6565b9150509250929050565b60006020828403121561212d57600080fd5b600082013567ffffffffffffffff81111561214757600080fd5b61215384828501611fe6565b91505092915050565b60006020828403121561216e57600080fd5b600061217c8482850161203a565b91505092915050565b600061219183836123fb565b905092915050565b60006121a583836126c5565b60e08301905092915050565b60006121bd8383612707565b60a08301905092915050565b60006121d583836127d7565b905092915050565b6121e681612d1e565b82525050565b6121f581612ccc565b82525050565b61220481612ccc565b82525050565b61221381612cba565b82525050565b61222281612cba565b82525050565b600061223382612be9565b61223d8185612c54565b93508360208202850161224f85612ba9565b8060005b8581101561228b578484038952815161226c8582612185565b945061227783612c20565b925060208a01995050600181019050612253565b50829750879550505050505092915050565b60006122a882612bf4565b6122b28185612c65565b93506122bd83612bb9565b8060005b838110156122ee5781516122d58882612199565b97506122e083612c2d565b9250506001810190506122c1565b5085935050505092915050565b600061230682612bff565b6123108185612c76565b935061231b83612bc9565b8060005b8381101561234c57815161233388826121b1565b975061233e83612c3a565b92505060018101905061231f565b5085935050505092915050565b600061236482612c0a565b61236e8185612c87565b93508360208202850161238085612bd9565b8060005b858110156123bc578484038952815161239d85826121c9565b94506123a883612c47565b925060208a01995050600181019050612384565b50829750879550505050505092915050565b6123d781612cde565b82525050565b6123e681612cea565b82525050565b6123f581612cea565b82525050565b600061240682612c15565b6124108185612c98565b9350612420818560208601612d63565b61242981612d96565b840191505092915050565b600061243f82612c15565b6124498185612ca9565b9350612459818560208601612d63565b61246281612d96565b840191505092915050565b600061247a601583612ca9565b91507f53656e646572206e6f7420617574686f72697a656400000000000000000000006000830152602082019050919050565b60006124ba602f83612ca9565b91507f5468697320616464726573732068617320616c7265616479207369676e65642060008301527f746865207472616e73616374696f6e00000000000000000000000000000000006020830152604082019050919050565b6000612520602483612ca9565b91507f546869732061646472657373206973206e6f7420616e2074686520776869746560008301527f6c697374000000000000000000000000000000000000000000000000000000006020830152604082019050919050565b6000612586602483612ca9565b91507f546869732061646472657373206973206e6f74206f6e2074686520776869746560008301527f6c697374000000000000000000000000000000000000000000000000000000006020830152604082019050919050565b60006125ec602283612ca9565b91507f4e6f7420656e6f7567682065746820746f2073656e64207472616e736163746960008301527f6f6e0000000000000000000000000000000000000000000000000000000000006020830152604082019050919050565b6000612652600d83612ca9565b91507f416c7265616479206164646564000000000000000000000000000000000000006000830152602082019050919050565b6000612692601683612ca9565b91507f496e646578206973206f7574206f6620626f756e6473000000000000000000006000830152602082019050919050565b60e0820160008201516126db6000850182612707565b5060208201516126ee60a0850182612814565b50604082015161270160c08501826123dd565b50505050565b60a08201600082015161271d60008501826121ec565b50602082015161273060208501826121ec565b5060408201516127436040850182612814565b5060608201516127566060850182612814565b5060808201516127696080850182612814565b50505050565b60a08201600082015161278560008501826121ec565b50602082015161279860208501826121ec565b5060408201516127ab6040850182612814565b5060608201516127be6060850182612814565b5060808201516127d16080850182612814565b50505050565b60006040830160008301516127ef600086018261220a565b506020830151848203602086015261280782826123fb565b9150508091505092915050565b61281d81612d14565b82525050565b61282c81612d14565b82525050565b60006020820190506128476000830184612219565b92915050565b600060208201905061286260008301846121dd565b92915050565b600060808201905061287d60008301876121dd565b61288a60208301866121dd565b6128976040830185612823565b6128a46060830184612823565b95945050505050565b600060a0820190506128c260008301886121fb565b6128cf60208301876121fb565b6128dc6040830186612823565b6128e96060830185612823565b6128f66080830184612823565b9695505050505050565b600060408201905061291560008301856121dd565b6129226020830184612823565b9392505050565b600060408201905061293e6000830185612219565b81810360208301526129508184612434565b90509392505050565b600060208201905081810360008301526129738184612228565b905092915050565b60006020820190508181036000830152612995818461229d565b905092915050565b600060208201905081810360008301526129b781846122fb565b905092915050565b600060208201905081810360008301526129d98184612359565b905092915050565b60006020820190506129f660008301846123ce565b92915050565b60006020820190508181036000830152612a168184612434565b905092915050565b60006020820190508181036000830152612a378161246d565b9050919050565b60006020820190508181036000830152612a57816124ad565b9050919050565b60006020820190508181036000830152612a7781612513565b9050919050565b60006020820190508181036000830152612a9781612579565b9050919050565b60006020820190508181036000830152612ab7816125df565b9050919050565b60006020820190508181036000830152612ad781612645565b9050919050565b60006020820190508181036000830152612af781612685565b9050919050565b600060e082019050612b13600083018661276f565b612b2060a0830185612823565b612b2d60c08301846123ec565b949350505050565b6000602082019050612b4a6000830184612823565b92915050565b6000604051905081810181811067ffffffffffffffff82111715612b7357600080fd5b8060405250919050565b600067ffffffffffffffff821115612b9457600080fd5b601f19601f8301169050602081019050919050565b6000819050602082019050919050565b6000819050602082019050919050565b6000819050602082019050919050565b6000819050602082019050919050565b600081519050919050565b600081519050919050565b600081519050919050565b600081519050919050565b600081519050919050565b6000602082019050919050565b6000602082019050919050565b6000602082019050919050565b6000602082019050919050565b600082825260208201905092915050565b600082825260208201905092915050565b600082825260208201905092915050565b600082825260208201905092915050565b600082825260208201905092915050565b600082825260208201905092915050565b6000612cc582612cf4565b9050919050565b6000612cd782612cf4565b9050919050565b60008115159050919050565b6000819050919050565b600073ffffffffffffffffffffffffffffffffffffffff82169050919050565b6000819050919050565b6000612d2982612d30565b9050919050565b6000612d3b82612d42565b9050919050565b6000612d4d82612cf4565b9050919050565b82818337600083830152505050565b60005b83811015612d81578082015181840152602081019050612d66565b83811115612d90576000848401525b50505050565b6000601f19601f8301169050919050565b612db081612cba565b8114612dbb57600080fd5b50565b612dc781612ccc565b8114612dd257600080fd5b50565b612dde81612d14565b8114612de957600080fd5b5056fea365627a7a7231582092f572fec4a0ac3aa527c898d8d92a0aa49337e9a55fac0c06708ac96600fa426c6578706572696d656e74616cf564736f6c63430005100040",
  "source": "pragma solidity ^0.5.16;\r\npragma experimental ABIEncoderV2;\r\n\r\n\r\ncontract MultiSig {\r\n    // Basic Contract data for ownership and nonce\r\n    address public owner;\r\n    uint256 public nonce;\r\n\r\n    struct whitelistData {\r\n        address whiteAdd;\r\n        string email;\r\n    }\r\n\r\n    // WhiteList info\r\n    whitelistData[] public whitelistAdd;\r\n    mapping(address => bool) public whitelist;\r\n\r\n    // Structs for transactions\r\n    struct transactionData {\r\n        address payable from;\r\n        address payable to;\r\n        uint256 amount;\r\n        uint256 nonceTrans;\r\n        uint256 threshold;\r\n    }\r\n\r\n    struct pendingData {\r\n        transactionData txnData;\r\n        uint256 numSigs;\r\n        bytes32 txHash;\r\n    }\r\n    mapping(bytes32 => mapping(address => bool)) signedList;\r\n\r\n    // Arrays for transactions\r\n    transactionData[] public transactions;\r\n    pendingData[] public pendingTransactions;\r\n    string[] public ethTxHashes;\r\n\r\n    // Events to emmit\r\n    event transactionCreated(address, address, uint256, uint256);\r\n    event SignedTransact(address);\r\n    event AddedWhiteList(address);\r\n    event transactionOccured(address, uint256);\r\n\r\n    constructor(string memory name) public {\r\n        // Make the owner address that deploys contract\r\n        owner = msg.sender;\r\n        nonce = 0;\r\n\r\n        // Add to white list for owner to sign\r\n        addAddress(msg.sender, name);\r\n    }\r\n\r\n    function getAllTransactions()\r\n        public\r\n        view\r\n        returns (transactionData[] memory transArr)\r\n    {\r\n        return transactions;\r\n    }\r\n\r\n    function getWhitelistAdd()\r\n        public\r\n        view\r\n        returns (whitelistData[] memory whitelistArr)\r\n    {\r\n        return whitelistAdd;\r\n    }\r\n\r\n    function getPendingTx()\r\n        external\r\n        view\r\n        returns (pendingData[] memory pending)\r\n    {\r\n        return pendingTransactions;\r\n    }\r\n\r\n    function contractBalance() external view returns (uint256 balance) {\r\n        return address(this).balance;\r\n    }\r\n\r\n    function getHashes() external view returns (string[] memory hashes) {\r\n        return ethTxHashes;\r\n    }\r\n\r\n    function setHash(string memory txHash) public returns (bool success) {\r\n        ethTxHashes.push(txHash);\r\n        return true;\r\n    }\r\n\r\n    // Adds address to whitelist so entity has signing ability\r\n    function addAddress(address newAddress, string memory name)\r\n        public\r\n        returns (bool success)\r\n    {\r\n        // Requires to ensure owner adding signers\r\n        require(whitelist[msg.sender] == true || owner == msg.sender, \"Sender not authorized\");\r\n        require(whitelist[newAddress] == false, \"Already added\");\r\n\r\n        // Give address signing ability and emit event\r\n        whitelistAdd.push(whitelistData(newAddress, name)); // add the new address to list of whitelist addresses\r\n        whitelist[newAddress] = true;\r\n\r\n        emit AddedWhiteList(newAddress);\r\n        return true;\r\n    }\r\n\r\n    function setupTransaction(\r\n        address payable _paymentReciever,\r\n        uint256 _threshold,\r\n        uint256 _amount\r\n    ) external payable returns (uint256) {\r\n        require(msg.value == _amount, \"Not enough eth to send transaction\");\r\n        require(\r\n            whitelist[msg.sender] == true,\r\n            \"This address is not an the whitelist\"\r\n        );\r\n\r\n        transactions.push(\r\n            transactionData(\r\n                msg.sender,\r\n                _paymentReciever,\r\n                _amount,\r\n                nonce,\r\n                _threshold\r\n            )\r\n        );\r\n\r\n        pendingTransactions.push(\r\n            pendingData(\r\n                transactions[nonce],\r\n                0,\r\n                encodeTransaction(nonce, transactions)\r\n            )\r\n        );\r\n\r\n        emit transactionCreated(\r\n            msg.sender,\r\n            _paymentReciever,\r\n            nonce,\r\n            _threshold\r\n        );\r\n        signTransaction(pendingTransactions.length - 1);\r\n\r\n        nonce++;\r\n        return nonce - 1;\r\n    }\r\n\r\n    function encodeTransaction(uint256 index, transactionData[] memory txns)\r\n        internal\r\n        pure\r\n        returns (bytes32)\r\n    {\r\n        require(index < txns.length, \"Index is out of bounds\");\r\n        bytes32 tmp = keccak256(\r\n            abi.encode(\r\n                txns[index].to,\r\n                txns[index].from,\r\n                txns[index].amount,\r\n                txns[index].nonceTrans,\r\n                txns[index].threshold\r\n            )\r\n        );\r\n\r\n        return tmp;\r\n    }\r\n\r\n    // Msg.sender signs transaction\r\n    function signTransaction(uint256 index) public returns (bool success) {\r\n        // Makes sure sender is on whitelist and has not signed yet\r\n        require(index < pendingTransactions.length, \"Index is out of bounds\");\r\n        require(\r\n            whitelist[msg.sender] == true,\r\n            \"This address is not on the whitelist\"\r\n        );\r\n        require(\r\n            signedList[pendingTransactions[index].txHash][msg.sender] == false,\r\n            \"This address has already signed the transaction\"\r\n        );\r\n\r\n        // Increment num of signatures on transact and approve on signedList\r\n        signedList[pendingTransactions[index].txHash][msg.sender] = true;\r\n        pendingTransactions[index].numSigs += 1;\r\n        emit SignedTransact(msg.sender);\r\n\r\n        return checkStatus(index);\r\n    }\r\n\r\n    function handlePayment(uint256 index) private returns (bool) {\r\n        require(index < pendingTransactions.length, \"Index is out of bounds\");\r\n        address payable reciever = pendingTransactions[index].txnData.to;\r\n        reciever.transfer(pendingTransactions[index].txnData.amount);\r\n\r\n        emit transactionOccured(\r\n            pendingTransactions[index].txnData.to,\r\n            pendingTransactions[index].txnData.amount\r\n        );\r\n\r\n        pendingTransactions[index] = pendingTransactions[pendingTransactions\r\n            .length - 1];\r\n\r\n        ethTxHashes[index] = ethTxHashes[ethTxHashes.length - 1];\r\n\r\n        pendingTransactions.pop();\r\n        ethTxHashes.pop();\r\n\r\n        return true;\r\n    }\r\n\r\n    function checkStatus(uint256 index) public payable returns (bool success) {\r\n        require(index < pendingTransactions.length, \"Index is out of bounds\");\r\n        if (\r\n            pendingTransactions[index].numSigs >=\r\n            pendingTransactions[index].txnData.threshold\r\n        ) {\r\n            return handlePayment(index);\r\n        }\r\n\r\n        return false;\r\n    }\r\n}\r\n",
  "sourcePath": "C:\\Users\\spvye\\Documents\\Fortmatic\\intern-project\\contract\\contracts\\MultiSig.sol",
  "compiler": {
    "name": "solc",
    "version": "0.5.16+commit.9c3226ce.Emscripten.clang"
  },
  "schemaVersion": "3.0.23",
  "updatedAt": "2020-04-14T16:03:15.681Z",
  "devdoc": {
    "methods": {}
  },
  "userdoc": {
    "methods": {}
  }
}