{
  "contractName": "MultiSig",
  "abi": [
    {
      "inputs": [
        {
          "internalType": "string",
          "name": "name",
          "type": "string"
        }
      ],
      "payable": false,
      "stateMutability": "nonpayable",
      "type": "constructor"
    },
    {
      "anonymous": false,
      "inputs": [
        {
          "indexed": false,
          "internalType": "address",
          "name": "",
          "type": "address"
        }
      ],
      "name": "AddedWhiteList",
      "type": "event"
    },
    {
      "anonymous": false,
      "inputs": [
        {
          "indexed": false,
          "internalType": "address",
          "name": "",
          "type": "address"
        }
      ],
      "name": "SignedTransact",
      "type": "event"
    },
    {
      "anonymous": false,
      "inputs": [
        {
          "indexed": false,
          "internalType": "address",
          "name": "",
          "type": "address"
        },
        {
          "indexed": false,
          "internalType": "address",
          "name": "",
          "type": "address"
        },
        {
          "indexed": false,
          "internalType": "uint256",
          "name": "",
          "type": "uint256"
        },
        {
          "indexed": false,
          "internalType": "uint256",
          "name": "",
          "type": "uint256"
        }
      ],
      "name": "transactionCreated",
      "type": "event"
    },
    {
      "anonymous": false,
      "inputs": [
        {
          "indexed": false,
          "internalType": "address",
          "name": "",
          "type": "address"
        },
        {
          "indexed": false,
          "internalType": "uint256",
          "name": "",
          "type": "uint256"
        }
      ],
      "name": "transactionOccured",
      "type": "event"
    },
    {
      "constant": true,
      "inputs": [
        {
          "internalType": "uint256",
          "name": "",
          "type": "uint256"
        }
      ],
      "name": "ethTxHashes",
      "outputs": [
        {
          "internalType": "string",
          "name": "",
          "type": "string"
        }
      ],
      "payable": false,
      "stateMutability": "view",
      "type": "function"
    },
    {
      "constant": true,
      "inputs": [],
      "name": "nonce",
      "outputs": [
        {
          "internalType": "uint256",
          "name": "",
          "type": "uint256"
        }
      ],
      "payable": false,
      "stateMutability": "view",
      "type": "function"
    },
    {
      "constant": true,
      "inputs": [],
      "name": "owner",
      "outputs": [
        {
          "internalType": "address",
          "name": "",
          "type": "address"
        }
      ],
      "payable": false,
      "stateMutability": "view",
      "type": "function"
    },
    {
      "constant": true,
      "inputs": [
        {
          "internalType": "uint256",
          "name": "",
          "type": "uint256"
        }
      ],
      "name": "pendingTransactions",
      "outputs": [
        {
          "components": [
            {
              "internalType": "address payable",
              "name": "from",
              "type": "address"
            },
            {
              "internalType": "address payable",
              "name": "to",
              "type": "address"
            },
            {
              "internalType": "uint256",
              "name": "amount",
              "type": "uint256"
            },
            {
              "internalType": "uint256",
              "name": "nonceTrans",
              "type": "uint256"
            },
            {
              "internalType": "uint256",
              "name": "threshold",
              "type": "uint256"
            }
          ],
          "internalType": "struct MultiSig.transactionData",
          "name": "txnData",
          "type": "tuple"
        },
        {
          "internalType": "uint256",
          "name": "numSigs",
          "type": "uint256"
        },
        {
          "internalType": "bytes32",
          "name": "txHash",
          "type": "bytes32"
        }
      ],
      "payable": false,
      "stateMutability": "view",
      "type": "function"
    },
    {
      "constant": true,
      "inputs": [
        {
          "internalType": "uint256",
          "name": "",
          "type": "uint256"
        }
      ],
      "name": "transactions",
      "outputs": [
        {
          "internalType": "address payable",
          "name": "from",
          "type": "address"
        },
        {
          "internalType": "address payable",
          "name": "to",
          "type": "address"
        },
        {
          "internalType": "uint256",
          "name": "amount",
          "type": "uint256"
        },
        {
          "internalType": "uint256",
          "name": "nonceTrans",
          "type": "uint256"
        },
        {
          "internalType": "uint256",
          "name": "threshold",
          "type": "uint256"
        }
      ],
      "payable": false,
      "stateMutability": "view",
      "type": "function"
    },
    {
      "constant": true,
      "inputs": [
        {
          "internalType": "address",
          "name": "",
          "type": "address"
        }
      ],
      "name": "whitelist",
      "outputs": [
        {
          "internalType": "bool",
          "name": "",
          "type": "bool"
        }
      ],
      "payable": false,
      "stateMutability": "view",
      "type": "function"
    },
    {
      "constant": true,
      "inputs": [
        {
          "internalType": "uint256",
          "name": "",
          "type": "uint256"
        }
      ],
      "name": "whitelistAdd",
      "outputs": [
        {
          "internalType": "address",
          "name": "whiteAdd",
          "type": "address"
        },
        {
          "internalType": "string",
          "name": "email",
          "type": "string"
        }
      ],
      "payable": false,
      "stateMutability": "view",
      "type": "function"
    },
    {
      "constant": true,
      "inputs": [],
      "name": "getWhitelistAdd",
      "outputs": [
        {
          "components": [
            {
              "internalType": "address",
              "name": "whiteAdd",
              "type": "address"
            },
            {
              "internalType": "string",
              "name": "email",
              "type": "string"
            }
          ],
          "internalType": "struct MultiSig.whitelistData[]",
          "name": "whitelistArr",
          "type": "tuple[]"
        }
      ],
      "payable": false,
      "stateMutability": "view",
      "type": "function"
    },
    {
      "constant": true,
      "inputs": [],
      "name": "getPendingTx",
      "outputs": [
        {
          "components": [
            {
              "components": [
                {
                  "internalType": "address payable",
                  "name": "from",
                  "type": "address"
                },
                {
                  "internalType": "address payable",
                  "name": "to",
                  "type": "address"
                },
                {
                  "internalType": "uint256",
                  "name": "amount",
                  "type": "uint256"
                },
                {
                  "internalType": "uint256",
                  "name": "nonceTrans",
                  "type": "uint256"
                },
                {
                  "internalType": "uint256",
                  "name": "threshold",
                  "type": "uint256"
                }
              ],
              "internalType": "struct MultiSig.transactionData",
              "name": "txnData",
              "type": "tuple"
            },
            {
              "internalType": "uint256",
              "name": "numSigs",
              "type": "uint256"
            },
            {
              "internalType": "bytes32",
              "name": "txHash",
              "type": "bytes32"
            }
          ],
          "internalType": "struct MultiSig.pendingData[]",
          "name": "pending",
          "type": "tuple[]"
        }
      ],
      "payable": false,
      "stateMutability": "view",
      "type": "function"
    },
    {
      "constant": true,
      "inputs": [],
      "name": "contractBalance",
      "outputs": [
        {
          "internalType": "uint256",
          "name": "balance",
          "type": "uint256"
        }
      ],
      "payable": false,
      "stateMutability": "view",
      "type": "function"
    },
    {
      "constant": true,
      "inputs": [],
      "name": "getHashes",
      "outputs": [
        {
          "internalType": "string[]",
          "name": "hashes",
          "type": "string[]"
        }
      ],
      "payable": false,
      "stateMutability": "view",
      "type": "function"
    },
    {
      "constant": false,
      "inputs": [
        {
          "internalType": "string",
          "name": "txHash",
          "type": "string"
        }
      ],
      "name": "setHash",
      "outputs": [
        {
          "internalType": "bool",
          "name": "success",
          "type": "bool"
        }
      ],
      "payable": false,
      "stateMutability": "nonpayable",
      "type": "function"
    },
    {
      "constant": false,
      "inputs": [
        {
          "internalType": "address",
          "name": "newAddress",
          "type": "address"
        },
        {
          "internalType": "string",
          "name": "name",
          "type": "string"
        }
      ],
      "name": "addAddress",
      "outputs": [
        {
          "internalType": "bool",
          "name": "success",
          "type": "bool"
        }
      ],
      "payable": false,
      "stateMutability": "nonpayable",
      "type": "function"
    },
    {
      "constant": false,
      "inputs": [
        {
          "internalType": "address payable",
          "name": "_paymentReciever",
          "type": "address"
        },
        {
          "internalType": "uint256",
          "name": "_threshold",
          "type": "uint256"
        },
        {
          "internalType": "uint256",
          "name": "_amount",
          "type": "uint256"
        }
      ],
      "name": "setupTransaction",
      "outputs": [
        {
          "internalType": "uint256",
          "name": "",
          "type": "uint256"
        }
      ],
      "payable": true,
      "stateMutability": "payable",
      "type": "function"
    },
    {
      "constant": false,
      "inputs": [
        {
          "internalType": "uint256",
          "name": "index",
          "type": "uint256"
        }
      ],
      "name": "signTransaction",
      "outputs": [
        {
          "internalType": "bool",
          "name": "success",
          "type": "bool"
        }
      ],
      "payable": false,
      "stateMutability": "nonpayable",
      "type": "function"
    },
    {
      "constant": false,
      "inputs": [
        {
          "internalType": "uint256",
          "name": "index",
          "type": "uint256"
        }
      ],
      "name": "checkStatus",
      "outputs": [
        {
          "internalType": "bool",
          "name": "success",
          "type": "bool"
        }
      ],
      "payable": true,
      "stateMutability": "payable",
      "type": "function"
    }
  ],
  "bytecode": "0x60806040523480156200001157600080fd5b50604051620031cd380380620031cd83398181016040526200003791908101906200042e565b336000806101000a81548173ffffffffffffffffffffffffffffffffffffffff021916908373ffffffffffffffffffffffffffffffffffffffff16021790555060006001819055506200009133826200009960201b60201c565b50506200063f565b600060011515600360003373ffffffffffffffffffffffffffffffffffffffff1673ffffffffffffffffffffffffffffffffffffffff16815260200190815260200160002060009054906101000a900460ff1615151462000131576040517f08c379a0000000000000000000000000000000000000000000000000000000008152600401620001289062000525565b60405180910390fd5b60001515600360008573ffffffffffffffffffffffffffffffffffffffff1673ffffffffffffffffffffffffffffffffffffffff16815260200190815260200160002060009054906101000a900460ff16151514620001c7576040517f08c379a0000000000000000000000000000000000000000000000000000000008152600401620001be9062000547565b60405180910390fd5b600260405180604001604052808573ffffffffffffffffffffffffffffffffffffffff168152602001848152509080600181540180825580915050906001820390600052602060002090600202016000909192909190915060008201518160000160006101000a81548173ffffffffffffffffffffffffffffffffffffffff021916908373ffffffffffffffffffffffffffffffffffffffff16021790555060208201518160010190805190602001906200028492919062000323565b505050506001600360008573ffffffffffffffffffffffffffffffffffffffff1673ffffffffffffffffffffffffffffffffffffffff16815260200190815260200160002060006101000a81548160ff0219169083151502179055507f64fd21439447139bed5a374a0f62ecc0fbd38cf2687d4ed5d587cb55dfbd42588360405162000311919062000508565b60405180910390a16001905092915050565b828054600181600116156101000203166002900490600052602060002090601f016020900481019282601f106200036657805160ff191683800117855562000397565b8280016001018555821562000397579182015b828111156200039657825182559160200191906001019062000379565b5b509050620003a69190620003aa565b5090565b620003cf91905b80821115620003cb576000816000905550600101620003b1565b5090565b90565b600082601f830112620003e457600080fd5b8151620003fb620003f58262000597565b62000569565b915080825260208301602083018583830111156200041857600080fd5b6200042583828462000609565b50505092915050565b6000602082840312156200044157600080fd5b600082015167ffffffffffffffff8111156200045c57600080fd5b6200046a84828501620003d2565b91505092915050565b6200047e81620005d5565b82525050565b600062000493601583620005c4565b91507f53656e646572206e6f7420617574686f72697a656400000000000000000000006000830152602082019050919050565b6000620004d5600d83620005c4565b91507f416c7265616479206164646564000000000000000000000000000000000000006000830152602082019050919050565b60006020820190506200051f600083018462000473565b92915050565b60006020820190508181036000830152620005408162000484565b9050919050565b600060208201905081810360008301526200056281620004c6565b9050919050565b6000604051905081810181811067ffffffffffffffff821117156200058d57600080fd5b8060405250919050565b600067ffffffffffffffff821115620005af57600080fd5b601f19601f8301169050602081019050919050565b600082825260208201905092915050565b6000620005e282620005e9565b9050919050565b600073ffffffffffffffffffffffffffffffffffffffff82169050919050565b60005b83811015620006295780820151818401526020810190506200060c565b8381111562000639576000848401525b50505050565b612b7e806200064f6000396000f3fe6080604052600436106100f35760003560e01c80638b7afe2e1161008a5780639b19251a116100595780639b19251a14610379578063affed0e0146103b6578063d033c456146103e1578063e95597fc1461041e576100f3565b80638b7afe2e146102b75780638da5cb5b146102e257806395b52bdb1461030d5780639ace38c214610338576100f3565b80635d9ec210116100c65780635d9ec210146101c057806363a8374d146101fd57806365bc98931461023c5780638358844714610279576100f3565b80631ed83fd4146100f85780632858c764146101355780633d8c16de146101655780634245d48e14610195575b600080fd5b34801561010457600080fd5b5061011f600480360361011a9190810190611f9b565b610449565b60405161012c9190612789565b60405180910390f35b61014f600480360361014a9190810190611fdc565b610493565b60405161015c9190612789565b60405180910390f35b61017f600480360361017a9190810190611ef8565b6104f5565b60405161018c91906128bd565b60405180910390f35b3480156101a157600080fd5b506101aa610a9c565b6040516101b79190612723565b60405180910390f35b3480156101cc57600080fd5b506101e760048036036101e29190810190611fdc565b610b85565b6040516101f49190612789565b60405180910390f35b34801561020957600080fd5b50610224600480360361021f9190810190611fdc565b610dd7565b60405161023393929190612886565b60405180910390f35b34801561024857600080fd5b50610263600480360361025e9190810190611fdc565b610ee2565b60405161027091906127a4565b60405180910390f35b34801561028557600080fd5b506102a0600480360361029b9190810190611fdc565b610f9b565b6040516102ae9291906126f3565b60405180910390f35b3480156102c357600080fd5b506102cc611084565b6040516102d991906128bd565b60405180910390f35b3480156102ee57600080fd5b506102f761108c565b60405161030491906125fc565b60405180910390f35b34801561031957600080fd5b506103226110b1565b60405161032f9190612767565b60405180910390f35b34801561034457600080fd5b5061035f600480360361035a9190810190611fdc565b611208565b604051610370959493929190612677565b60405180910390f35b34801561038557600080fd5b506103a0600480360361039b9190810190611ecf565b61128b565b6040516103ad9190612789565b60405180910390f35b3480156103c257600080fd5b506103cb6112ab565b6040516103d891906128bd565b60405180910390f35b3480156103ed57600080fd5b5061040860048036036104039190810190611f47565b6112b1565b6040516104159190612789565b60405180910390f35b34801561042a57600080fd5b50610433611531565b6040516104409190612745565b60405180910390f35b60006007829080600181540180825580915050906001820390600052602060002001600090919290919091509080519060200190610488929190611b22565b505060019050919050565b6000600682815481106104a257fe5b906000526020600020906007020160000160040154600683815481106104c457fe5b906000526020600020906007020160050154106104eb576104e482611682565b90506104f0565b600090505b919050565b6000813414610539576040517f08c379a000000000000000000000000000000000000000000000000000000000815260040161053090612846565b60405180910390fd5b60011515600360003373ffffffffffffffffffffffffffffffffffffffff1673ffffffffffffffffffffffffffffffffffffffff16815260200190815260200160002060009054906101000a900460ff161515146105cc576040517f08c379a00000000000000000000000000000000000000000000000000000000081526004016105c390612806565b60405180910390fd5b60056040518060a001604052803373ffffffffffffffffffffffffffffffffffffffff1681526020018673ffffffffffffffffffffffffffffffffffffffff1681526020018481526020016001548152602001858152509080600181540180825580915050906001820390600052602060002090600502016000909192909190915060008201518160000160006101000a81548173ffffffffffffffffffffffffffffffffffffffff021916908373ffffffffffffffffffffffffffffffffffffffff16021790555060208201518160010160006101000a81548173ffffffffffffffffffffffffffffffffffffffff021916908373ffffffffffffffffffffffffffffffffffffffff1602179055506040820151816002015560608201518160030155608082015181600401555050506006604051806060016040528060056001548154811061071957fe5b90600052602060002090600502016040518060a00160405290816000820160009054906101000a900473ffffffffffffffffffffffffffffffffffffffff1673ffffffffffffffffffffffffffffffffffffffff1673ffffffffffffffffffffffffffffffffffffffff1681526020016001820160009054906101000a900473ffffffffffffffffffffffffffffffffffffffff1673ffffffffffffffffffffffffffffffffffffffff1673ffffffffffffffffffffffffffffffffffffffff16815260200160028201548152602001600382015481526020016004820154815250508152602001600081526020016109356001546005805480602002602001604051908101604052809291908181526020016000905b8282101561092c57838290600052602060002090600502016040518060a00160405290816000820160009054906101000a900473ffffffffffffffffffffffffffffffffffffffff1673ffffffffffffffffffffffffffffffffffffffff1673ffffffffffffffffffffffffffffffffffffffff1681526020016001820160009054906101000a900473ffffffffffffffffffffffffffffffffffffffff1673ffffffffffffffffffffffffffffffffffffffff1673ffffffffffffffffffffffffffffffffffffffff168152602001600282015481526020016003820154815260200160048201548152505081526020019060010190610830565b50505050611a71565b8152509080600181540180825580915050906001820390600052602060002090600702016000909192909190915060008201518160000160008201518160000160006101000a81548173ffffffffffffffffffffffffffffffffffffffff021916908373ffffffffffffffffffffffffffffffffffffffff16021790555060208201518160010160006101000a81548173ffffffffffffffffffffffffffffffffffffffff021916908373ffffffffffffffffffffffffffffffffffffffff160217905550604082015181600201556060820151816003015560808201518160040155505060208201518160050155604082015181600601555050507fc5094f20ddbb9bda2b4d1b39f78d7d784f323b721a2a8f32456a45d3dfb716d8338560015486604051610a689493929190612632565b60405180910390a1610a7b600154610b85565b50600160008154809291906001019190505550600180540390509392505050565b60606007805480602002602001604051908101604052809291908181526020016000905b82821015610b7c578382906000526020600020018054600181600116156101000203166002900480601f016020809104026020016040519081016040528092919081815260200182805460018160011615610100020316600290048015610b685780601f10610b3d57610100808354040283529160200191610b68565b820191906000526020600020905b815481529060010190602001808311610b4b57829003601f168201915b505050505081526020019060010190610ac0565b50505050905090565b600060011515600360003373ffffffffffffffffffffffffffffffffffffffff1673ffffffffffffffffffffffffffffffffffffffff16815260200190815260200160002060009054906101000a900460ff16151514610c1a576040517f08c379a0000000000000000000000000000000000000000000000000000000008152600401610c1190612826565b60405180910390fd5b600015156004600060068581548110610c2f57fe5b906000526020600020906007020160060154815260200190815260200160002060003373ffffffffffffffffffffffffffffffffffffffff1673ffffffffffffffffffffffffffffffffffffffff16815260200190815260200160002060009054906101000a900460ff16151514610cdc576040517f08c379a0000000000000000000000000000000000000000000000000000000008152600401610cd3906127e6565b60405180910390fd5b60016004600060068581548110610cef57fe5b906000526020600020906007020160060154815260200190815260200160002060003373ffffffffffffffffffffffffffffffffffffffff1673ffffffffffffffffffffffffffffffffffffffff16815260200190815260200160002060006101000a81548160ff021916908315150217905550600160068381548110610d7257fe5b9060005260206000209060070201600501600082825401925050819055507f827bfe95984eb396b6d8ff47200bd671835f5a6d87dc4bad10d2dbd4fe6355a333604051610dbf9190612617565b60405180910390a1610dd082610493565b9050919050565b60068181548110610de457fe5b9060005260206000209060070201600091509050806000016040518060a00160405290816000820160009054906101000a900473ffffffffffffffffffffffffffffffffffffffff1673ffffffffffffffffffffffffffffffffffffffff1673ffffffffffffffffffffffffffffffffffffffff1681526020016001820160009054906101000a900473ffffffffffffffffffffffffffffffffffffffff1673ffffffffffffffffffffffffffffffffffffffff1673ffffffffffffffffffffffffffffffffffffffff1681526020016002820154815260200160038201548152602001600482015481525050908060050154908060060154905083565b60078181548110610eef57fe5b906000526020600020016000915090508054600181600116156101000203166002900480601f016020809104026020016040519081016040528092919081815260200182805460018160011615610100020316600290048015610f935780601f10610f6857610100808354040283529160200191610f93565b820191906000526020600020905b815481529060010190602001808311610f7657829003601f168201915b505050505081565b60028181548110610fa857fe5b90600052602060002090600202016000915090508060000160009054906101000a900473ffffffffffffffffffffffffffffffffffffffff1690806001018054600181600116156101000203166002900480601f01602080910402602001604051908101604052809291908181526020018280546001816001161561010002031660029004801561107a5780601f1061104f5761010080835404028352916020019161107a565b820191906000526020600020905b81548152906001019060200180831161105d57829003601f168201915b5050505050905082565b600047905090565b6000809054906101000a900473ffffffffffffffffffffffffffffffffffffffff1681565b60606002805480602002602001604051908101604052809291908181526020016000905b828210156111ff57838290600052602060002090600202016040518060400160405290816000820160009054906101000a900473ffffffffffffffffffffffffffffffffffffffff1673ffffffffffffffffffffffffffffffffffffffff1673ffffffffffffffffffffffffffffffffffffffff168152602001600182018054600181600116156101000203166002900480601f0160208091040260200160405190810160405280929190818152602001828054600181600116156101000203166002900480156111e75780601f106111bc576101008083540402835291602001916111e7565b820191906000526020600020905b8154815290600101906020018083116111ca57829003601f168201915b505050505081525050815260200190600101906110d5565b50505050905090565b6005818154811061121557fe5b90600052602060002090600502016000915090508060000160009054906101000a900473ffffffffffffffffffffffffffffffffffffffff16908060010160009054906101000a900473ffffffffffffffffffffffffffffffffffffffff16908060020154908060030154908060040154905085565b60036020528060005260406000206000915054906101000a900460ff1681565b60015481565b600060011515600360003373ffffffffffffffffffffffffffffffffffffffff1673ffffffffffffffffffffffffffffffffffffffff16815260200190815260200160002060009054906101000a900460ff16151514611346576040517f08c379a000000000000000000000000000000000000000000000000000000000815260040161133d906127c6565b60405180910390fd5b60001515600360008573ffffffffffffffffffffffffffffffffffffffff1673ffffffffffffffffffffffffffffffffffffffff16815260200190815260200160002060009054906101000a900460ff161515146113d9576040517f08c379a00000000000000000000000000000000000000000000000000000000081526004016113d090612866565b60405180910390fd5b600260405180604001604052808573ffffffffffffffffffffffffffffffffffffffff168152602001848152509080600181540180825580915050906001820390600052602060002090600202016000909192909190915060008201518160000160006101000a81548173ffffffffffffffffffffffffffffffffffffffff021916908373ffffffffffffffffffffffffffffffffffffffff1602179055506020820151816001019080519060200190611494929190611ba2565b505050506001600360008573ffffffffffffffffffffffffffffffffffffffff1673ffffffffffffffffffffffffffffffffffffffff16815260200190815260200160002060006101000a81548160ff0219169083151502179055507f64fd21439447139bed5a374a0f62ecc0fbd38cf2687d4ed5d587cb55dfbd42588360405161151f91906125fc565b60405180910390a16001905092915050565b60606006805480602002602001604051908101604052809291908181526020016000905b828210156116795783829060005260206000209060070201604051806060016040529081600082016040518060a00160405290816000820160009054906101000a900473ffffffffffffffffffffffffffffffffffffffff1673ffffffffffffffffffffffffffffffffffffffff1673ffffffffffffffffffffffffffffffffffffffff1681526020016001820160009054906101000a900473ffffffffffffffffffffffffffffffffffffffff1673ffffffffffffffffffffffffffffffffffffffff1673ffffffffffffffffffffffffffffffffffffffff168152602001600282015481526020016003820154815260200160048201548152505081526020016005820154815260200160068201548152505081526020019060010190611555565b50505050905090565b6000806006838154811061169257fe5b906000526020600020906007020160000160010160009054906101000a900473ffffffffffffffffffffffffffffffffffffffff1690508073ffffffffffffffffffffffffffffffffffffffff166108fc600685815481106116f057fe5b9060005260206000209060070201600001600201549081150290604051600060405180830381858888f19350505050158015611730573d6000803e3d6000fd5b507f2f03f1395f971b1f02ef2bc5afe3dcaadb5138627f8f45633cefd28f1a5f7e456006848154811061175f57fe5b906000526020600020906007020160000160010160009054906101000a900473ffffffffffffffffffffffffffffffffffffffff16600685815481106117a157fe5b9060005260206000209060070201600001600201546040516117c49291906126ca565b60405180910390a16006600160068054905003815481106117e157fe5b9060005260206000209060070201600684815481106117fc57fe5b906000526020600020906007020160008201816000016000820160009054906101000a900473ffffffffffffffffffffffffffffffffffffffff168160000160006101000a81548173ffffffffffffffffffffffffffffffffffffffff021916908373ffffffffffffffffffffffffffffffffffffffff1602179055506001820160009054906101000a900473ffffffffffffffffffffffffffffffffffffffff168160010160006101000a81548173ffffffffffffffffffffffffffffffffffffffff021916908373ffffffffffffffffffffffffffffffffffffffff1602179055506002820154816002015560038201548160030155600482015481600401555050600582015481600501556006820154816006015590505060076001600780549050038154811061192c57fe5b906000526020600020016007848154811061194357fe5b90600052602060002001908054600181600116156101000203166002900461196c929190611c22565b5060066001600680549050038154811061198257fe5b90600052602060002090600702016000808201600080820160006101000a81549073ffffffffffffffffffffffffffffffffffffffff02191690556001820160006101000a81549073ffffffffffffffffffffffffffffffffffffffff02191690556002820160009055600382016000905560048201600090555050600582016000905560068201600090555050600760016007805490500381548110611a2557fe5b906000526020600020016000611a3b9190611ca9565b6007805480919060019003611a509190611cf1565b506006805480919060019003611a669190611d1d565b506001915050919050565b600080828481518110611a8057fe5b602002602001015160200151838581518110611a9857fe5b602002602001015160000151848681518110611ab057fe5b602002602001015160400151858781518110611ac857fe5b602002602001015160600151868881518110611ae057fe5b602002602001015160800151604051602001611b00959493929190612677565b6040516020818303038152906040528051906020012090508091505092915050565b828054600181600116156101000203166002900490600052602060002090601f016020900481019282601f10611b6357805160ff1916838001178555611b91565b82800160010185558215611b91579182015b82811115611b90578251825591602001919060010190611b75565b5b509050611b9e9190611d4f565b5090565b828054600181600116156101000203166002900490600052602060002090601f016020900481019282601f10611be357805160ff1916838001178555611c11565b82800160010185558215611c11579182015b82811115611c10578251825591602001919060010190611bf5565b5b509050611c1e9190611d4f565b5090565b828054600181600116156101000203166002900490600052602060002090601f016020900481019282601f10611c5b5780548555611c98565b82800160010185558215611c9857600052602060002091601f016020900482015b82811115611c97578254825591600101919060010190611c7c565b5b509050611ca59190611d4f565b5090565b50805460018160011615610100020316600290046000825580601f10611ccf5750611cee565b601f016020900490600052602060002090810190611ced9190611d4f565b5b50565b815481835581811115611d1857818360005260206000209182019101611d179190611d74565b5b505050565b815481835581811115611d4a57600702816007028360005260206000209182019101611d499190611da0565b5b505050565b611d7191905b80821115611d6d576000816000905550600101611d55565b5090565b90565b611d9d91905b80821115611d995760008181611d909190611ca9565b50600101611d7a565b5090565b90565b611e3991905b80821115611e35576000808201600080820160006101000a81549073ffffffffffffffffffffffffffffffffffffffff02191690556001820160006101000a81549073ffffffffffffffffffffffffffffffffffffffff021916905560028201600090556003820160009055600482016000905550506005820160009055600682016000905550600701611da6565b5090565b90565b600081359050611e4b81612af6565b92915050565b600081359050611e6081612b0d565b92915050565b600082601f830112611e7757600080fd5b8135611e8a611e8582612905565b6128d8565b91508082526020830160208301858383011115611ea657600080fd5b611eb1838284612aa3565b50505092915050565b600081359050611ec981612b24565b92915050565b600060208284031215611ee157600080fd5b6000611eef84828501611e3c565b91505092915050565b600080600060608486031215611f0d57600080fd5b6000611f1b86828701611e51565b9350506020611f2c86828701611eba565b9250506040611f3d86828701611eba565b9150509250925092565b60008060408385031215611f5a57600080fd5b6000611f6885828601611e3c565b925050602083013567ffffffffffffffff811115611f8557600080fd5b611f9185828601611e66565b9150509250929050565b600060208284031215611fad57600080fd5b600082013567ffffffffffffffff811115611fc757600080fd5b611fd384828501611e66565b91505092915050565b600060208284031215611fee57600080fd5b6000611ffc84828501611eba565b91505092915050565b60006120118383612205565b905092915050565b6000612025838361248f565b60e08301905092915050565b600061203d83836125a1565b905092915050565b61204e81612a6d565b82525050565b61205d81612a1b565b82525050565b61206c81612a1b565b82525050565b61207b81612a09565b82525050565b61208a81612a09565b82525050565b600061209b82612961565b6120a581856129b4565b9350836020820285016120b785612931565b8060005b858110156120f357848403895281516120d48582612005565b94506120df8361298d565b925060208a019950506001810190506120bb565b50829750879550505050505092915050565b60006121108261296c565b61211a81856129c5565b935061212583612941565b8060005b8381101561215657815161213d8882612019565b97506121488361299a565b925050600181019050612129565b5085935050505092915050565b600061216e82612977565b61217881856129d6565b93508360208202850161218a85612951565b8060005b858110156121c657848403895281516121a78582612031565b94506121b2836129a7565b925060208a0199505060018101905061218e565b50829750879550505050505092915050565b6121e181612a2d565b82525050565b6121f081612a39565b82525050565b6121ff81612a39565b82525050565b600061221082612982565b61221a81856129e7565b935061222a818560208601612ab2565b61223381612ae5565b840191505092915050565b600061224982612982565b61225381856129f8565b9350612263818560208601612ab2565b61226c81612ae5565b840191505092915050565b60006122846015836129f8565b91507f53656e646572206e6f7420617574686f72697a656400000000000000000000006000830152602082019050919050565b60006122c4602f836129f8565b91507f5468697320616464726573732068617320616c7265616479207369676e65642060008301527f746865207472616e73616374696f6e00000000000000000000000000000000006020830152604082019050919050565b600061232a6024836129f8565b91507f546869732061646472657373206973206e6f7420616e2074686520776869746560008301527f6c697374000000000000000000000000000000000000000000000000000000006020830152604082019050919050565b60006123906024836129f8565b91507f546869732061646472657373206973206e6f74206f6e2074686520776869746560008301527f6c697374000000000000000000000000000000000000000000000000000000006020830152604082019050919050565b60006123f66022836129f8565b91507f4e6f7420656e6f7567682065746820746f2073656e64207472616e736163746960008301527f6f6e0000000000000000000000000000000000000000000000000000000000006020830152604082019050919050565b600061245c600d836129f8565b91507f416c7265616479206164646564000000000000000000000000000000000000006000830152602082019050919050565b60e0820160008201516124a560008501826124d1565b5060208201516124b860a08501826125de565b5060408201516124cb60c08501826121e7565b50505050565b60a0820160008201516124e76000850182612054565b5060208201516124fa6020850182612054565b50604082015161250d60408501826125de565b50606082015161252060608501826125de565b50608082015161253360808501826125de565b50505050565b60a08201600082015161254f6000850182612054565b5060208201516125626020850182612054565b50604082015161257560408501826125de565b50606082015161258860608501826125de565b50608082015161259b60808501826125de565b50505050565b60006040830160008301516125b96000860182612072565b50602083015184820360208601526125d18282612205565b9150508091505092915050565b6125e781612a63565b82525050565b6125f681612a63565b82525050565b60006020820190506126116000830184612081565b92915050565b600060208201905061262c6000830184612045565b92915050565b60006080820190506126476000830187612045565b6126546020830186612045565b61266160408301856125ed565b61266e60608301846125ed565b95945050505050565b600060a08201905061268c6000830188612063565b6126996020830187612063565b6126a660408301866125ed565b6126b360608301856125ed565b6126c060808301846125ed565b9695505050505050565b60006040820190506126df6000830185612045565b6126ec60208301846125ed565b9392505050565b60006040820190506127086000830185612081565b818103602083015261271a818461223e565b90509392505050565b6000602082019050818103600083015261273d8184612090565b905092915050565b6000602082019050818103600083015261275f8184612105565b905092915050565b600060208201905081810360008301526127818184612163565b905092915050565b600060208201905061279e60008301846121d8565b92915050565b600060208201905081810360008301526127be818461223e565b905092915050565b600060208201905081810360008301526127df81612277565b9050919050565b600060208201905081810360008301526127ff816122b7565b9050919050565b6000602082019050818103600083015261281f8161231d565b9050919050565b6000602082019050818103600083015261283f81612383565b9050919050565b6000602082019050818103600083015261285f816123e9565b9050919050565b6000602082019050818103600083015261287f8161244f565b9050919050565b600060e08201905061289b6000830186612539565b6128a860a08301856125ed565b6128b560c08301846121f6565b949350505050565b60006020820190506128d260008301846125ed565b92915050565b6000604051905081810181811067ffffffffffffffff821117156128fb57600080fd5b8060405250919050565b600067ffffffffffffffff82111561291c57600080fd5b601f19601f8301169050602081019050919050565b6000819050602082019050919050565b6000819050602082019050919050565b6000819050602082019050919050565b600081519050919050565b600081519050919050565b600081519050919050565b600081519050919050565b6000602082019050919050565b6000602082019050919050565b6000602082019050919050565b600082825260208201905092915050565b600082825260208201905092915050565b600082825260208201905092915050565b600082825260208201905092915050565b600082825260208201905092915050565b6000612a1482612a43565b9050919050565b6000612a2682612a43565b9050919050565b60008115159050919050565b6000819050919050565b600073ffffffffffffffffffffffffffffffffffffffff82169050919050565b6000819050919050565b6000612a7882612a7f565b9050919050565b6000612a8a82612a91565b9050919050565b6000612a9c82612a43565b9050919050565b82818337600083830152505050565b60005b83811015612ad0578082015181840152602081019050612ab5565b83811115612adf576000848401525b50505050565b6000601f19601f8301169050919050565b612aff81612a09565b8114612b0a57600080fd5b50565b612b1681612a1b565b8114612b2157600080fd5b50565b612b2d81612a63565b8114612b3857600080fd5b5056fea365627a7a72315820575798053152c072a23b3d7cf14fefea0d6d3cd52f3a1e4bbdc421941638830d6c6578706572696d656e74616cf564736f6c63430005100040",
  "source": "pragma solidity ^0.5.16;\r\npragma experimental ABIEncoderV2;\r\n\r\ncontract MultiSig {\r\n    // Basic Contract data for ownership and nonce\r\n    address public owner;\r\n    uint256 public nonce;\r\n\r\n    struct whitelistData {\r\n        address whiteAdd;\r\n        string email;\r\n    }\r\n\r\n    // WhiteList info\r\n    whitelistData[] public whitelistAdd;\r\n    mapping(address => bool) public whitelist;\r\n\r\n    // Structs for transactions\r\n    struct transactionData {\r\n        address payable from;\r\n        address payable to;\r\n        uint256 amount;\r\n        uint256 nonceTrans;\r\n        uint256 threshold;\r\n    }\r\n\r\n    struct pendingData {\r\n        transactionData txnData;\r\n        uint256 numSigs;\r\n        bytes32 txHash;\r\n    }\r\n    mapping(bytes32 => mapping(address => bool)) signedList;\r\n\r\n    // Arrays for transactions\r\n    transactionData[] public transactions;\r\n    pendingData[] public pendingTransactions;\r\n    string[] public ethTxHashes;\r\n\r\n    // Events to emmit\r\n    event transactionCreated(address, address, uint256, uint256);\r\n    event SignedTransact(address);\r\n    event AddedWhiteList(address);\r\n    event transactionOccured(address, uint256);\r\n\r\n    constructor(string memory name) public {\r\n        // Make the owner address that deploys contract\r\n        owner = msg.sender;\r\n        nonce = 0;\r\n\r\n        // Add to white list for owner to sign\r\n        addAddress(msg.sender, name);\r\n    }\r\n\r\n    function getWhitelistAdd()\r\n        public\r\n        view\r\n        returns (whitelistData[] memory whitelistArr)\r\n    {\r\n        return whitelistAdd;\r\n    }\r\n\r\n    function getPendingTx()\r\n        external\r\n        view\r\n        returns (pendingData[] memory pending)\r\n    {\r\n        return pendingTransactions;\r\n    }\r\n\r\n    function contractBalance() external view returns (uint256 balance) {\r\n        return address(this).balance;\r\n    }\r\n\r\n    function getHashes() external view returns (string[] memory hashes) {\r\n        return ethTxHashes;\r\n    }\r\n\r\n    function setHash(string memory txHash) public returns (bool success) {\r\n        ethTxHashes.push(txHash);\r\n        return true;\r\n    }\r\n\r\n    // Adds address to whitelist so entity has signing ability\r\n    function addAddress(address newAddress, string memory name)\r\n        public\r\n        returns (bool success)\r\n    {\r\n        // Requires to ensure owner adding signers\r\n        require(whitelist[msg.sender] == true, \"Sender not authorized\");\r\n        require(whitelist[newAddress] == false, \"Already added\");\r\n\r\n        // Give address signing ability and emit event\r\n        whitelistAdd.push(whitelistData(newAddress, name)); // add the new address to list of whitelist addresses\r\n        whitelist[newAddress] = true;\r\n\r\n        emit AddedWhiteList(newAddress);\r\n        return true;\r\n    }\r\n\r\n    function setupTransaction(\r\n        address payable _paymentReciever,\r\n        uint256 _threshold,\r\n        uint256 _amount\r\n    ) external payable returns (uint256) {\r\n        require(msg.value == _amount, \"Not enough eth to send transaction\");\r\n        require(\r\n            whitelist[msg.sender] == true,\r\n            \"This address is not an the whitelist\"\r\n        );\r\n\r\n        transactions.push(\r\n            transactionData(\r\n                msg.sender,\r\n                _paymentReciever,\r\n                _amount,\r\n                nonce,\r\n                _threshold\r\n            )\r\n        );\r\n\r\n        pendingTransactions.push(\r\n            pendingData(\r\n                transactions[nonce],\r\n                0,\r\n                encodeTransaction(nonce, transactions)\r\n            )\r\n        );\r\n\r\n        emit transactionCreated(\r\n            msg.sender,\r\n            _paymentReciever,\r\n            nonce,\r\n            _threshold\r\n        );\r\n        signTransaction(nonce);\r\n\r\n        nonce++;\r\n        return nonce - 1;\r\n    }\r\n\r\n    function encodeTransaction(uint256 index, transactionData[] memory txns)\r\n        internal\r\n        pure\r\n        returns (bytes32)\r\n    {\r\n        bytes32 tmp = keccak256(\r\n            abi.encode(\r\n                txns[index].to,\r\n                txns[index].from,\r\n                txns[index].amount,\r\n                txns[index].nonceTrans,\r\n                txns[index].threshold\r\n            )\r\n        );\r\n\r\n        return tmp;\r\n    }\r\n\r\n    // Msg.sender signs transaction\r\n    function signTransaction(uint256 index) public returns (bool success) {\r\n        // Makes sure sender is on whitelist and has not signed yet\r\n        require(\r\n            whitelist[msg.sender] == true,\r\n            \"This address is not on the whitelist\"\r\n        );\r\n        require(\r\n            signedList[pendingTransactions[index].txHash][msg.sender] == false,\r\n            \"This address has already signed the transaction\"\r\n        );\r\n\r\n        // Increment num of signatures on transact and approve on signedList\r\n        signedList[pendingTransactions[index].txHash][msg.sender] = true;\r\n        pendingTransactions[index].numSigs += 1;\r\n        emit SignedTransact(msg.sender);\r\n\r\n        return checkStatus(index);\r\n    }\r\n\r\n    function handlePayment(uint256 index) private returns (bool) {\r\n        address payable reciever = pendingTransactions[index].txnData.to;\r\n        reciever.transfer(pendingTransactions[index].txnData.amount);\r\n\r\n        emit transactionOccured(\r\n            pendingTransactions[index].txnData.to,\r\n            pendingTransactions[index].txnData.amount\r\n        );\r\n\r\n        pendingTransactions[index] = pendingTransactions[pendingTransactions\r\n            .length -\r\n            1];\r\n\r\n        ethTxHashes[index] = ethTxHashes[ethTxHashes.length - 1];\r\n\r\n        delete pendingTransactions[pendingTransactions.length - 1];\r\n        delete ethTxHashes[ethTxHashes.length - 1];\r\n\r\n        ethTxHashes.length--;\r\n        pendingTransactions.length--;\r\n\r\n        return true;\r\n    }\r\n\r\n    function checkStatus(uint256 index) public payable returns (bool success) {\r\n        if (\r\n            pendingTransactions[index].numSigs >=\r\n            pendingTransactions[index].txnData.threshold\r\n        ) {\r\n            return handlePayment(index);\r\n        }\r\n\r\n        return false;\r\n    }\r\n\r\n}\r\n",
  "sourcePath": "/Users/sangillee/Documents/phantom/contract/contracts/MultiSig.sol",
  "compiler": {
    "name": "solc",
    "version": "0.5.16+commit.9c3226ce.Emscripten.clang"
  },
  "schemaVersion": "3.0.23",
  "updatedAt": "2020-04-09T00:45:33.368Z",
  "devdoc": {
    "methods": {}
  },
  "userdoc": {
    "methods": {}
  }
}