{
  "contractName": "MultiSig",
  "abi": [
    {
      "inputs": [
        {
          "internalType": "string",
          "name": "name",
          "type": "string"
        }
      ],
      "payable": false,
      "stateMutability": "nonpayable",
      "type": "constructor"
    },
    {
      "anonymous": false,
      "inputs": [
        {
          "indexed": false,
          "internalType": "address",
          "name": "",
          "type": "address"
        }
      ],
      "name": "AddedWhiteList",
      "type": "event"
    },
    {
      "anonymous": false,
      "inputs": [
        {
          "indexed": false,
          "internalType": "address",
          "name": "",
          "type": "address"
        }
      ],
      "name": "SignedTransact",
      "type": "event"
    },
    {
      "anonymous": false,
      "inputs": [
        {
          "indexed": false,
          "internalType": "address",
          "name": "",
          "type": "address"
        },
        {
          "indexed": false,
          "internalType": "address",
          "name": "",
          "type": "address"
        },
        {
          "indexed": false,
          "internalType": "uint256",
          "name": "",
          "type": "uint256"
        },
        {
          "indexed": false,
          "internalType": "uint256",
          "name": "",
          "type": "uint256"
        }
      ],
      "name": "transactionCreated",
      "type": "event"
    },
    {
      "anonymous": false,
      "inputs": [
        {
          "indexed": false,
          "internalType": "address",
          "name": "",
          "type": "address"
        },
        {
          "indexed": false,
          "internalType": "uint256",
          "name": "",
          "type": "uint256"
        }
      ],
      "name": "transactionOccured",
      "type": "event"
    },
    {
      "constant": true,
      "inputs": [
        {
          "internalType": "uint256",
          "name": "",
          "type": "uint256"
        }
      ],
      "name": "ethTxHashes",
      "outputs": [
        {
          "internalType": "string",
          "name": "",
          "type": "string"
        }
      ],
      "payable": false,
      "stateMutability": "view",
      "type": "function"
    },
    {
      "constant": true,
      "inputs": [],
      "name": "nonce",
      "outputs": [
        {
          "internalType": "uint256",
          "name": "",
          "type": "uint256"
        }
      ],
      "payable": false,
      "stateMutability": "view",
      "type": "function"
    },
    {
      "constant": true,
      "inputs": [],
      "name": "owner",
      "outputs": [
        {
          "internalType": "address",
          "name": "",
          "type": "address"
        }
      ],
      "payable": false,
      "stateMutability": "view",
      "type": "function"
    },
    {
      "constant": true,
      "inputs": [
        {
          "internalType": "uint256",
          "name": "",
          "type": "uint256"
        }
      ],
      "name": "pendingTransactions",
      "outputs": [
        {
          "components": [
            {
              "internalType": "address payable",
              "name": "from",
              "type": "address"
            },
            {
              "internalType": "address payable",
              "name": "to",
              "type": "address"
            },
            {
              "internalType": "uint256",
              "name": "amount",
              "type": "uint256"
            },
            {
              "internalType": "uint256",
              "name": "nonceTrans",
              "type": "uint256"
            },
            {
              "internalType": "uint256",
              "name": "threshold",
              "type": "uint256"
            }
          ],
          "internalType": "struct MultiSig.transactionData",
          "name": "txnData",
          "type": "tuple"
        },
        {
          "internalType": "uint256",
          "name": "numSigs",
          "type": "uint256"
        },
        {
          "internalType": "bytes32",
          "name": "txHash",
          "type": "bytes32"
        }
      ],
      "payable": false,
      "stateMutability": "view",
      "type": "function"
    },
    {
      "constant": true,
      "inputs": [
        {
          "internalType": "uint256",
          "name": "",
          "type": "uint256"
        }
      ],
      "name": "transactions",
      "outputs": [
        {
          "internalType": "address payable",
          "name": "from",
          "type": "address"
        },
        {
          "internalType": "address payable",
          "name": "to",
          "type": "address"
        },
        {
          "internalType": "uint256",
          "name": "amount",
          "type": "uint256"
        },
        {
          "internalType": "uint256",
          "name": "nonceTrans",
          "type": "uint256"
        },
        {
          "internalType": "uint256",
          "name": "threshold",
          "type": "uint256"
        }
      ],
      "payable": false,
      "stateMutability": "view",
      "type": "function"
    },
    {
      "constant": true,
      "inputs": [
        {
          "internalType": "address",
          "name": "",
          "type": "address"
        }
      ],
      "name": "whitelist",
      "outputs": [
        {
          "internalType": "bool",
          "name": "",
          "type": "bool"
        }
      ],
      "payable": false,
      "stateMutability": "view",
      "type": "function"
    },
    {
      "constant": true,
      "inputs": [
        {
          "internalType": "uint256",
          "name": "",
          "type": "uint256"
        }
      ],
      "name": "whitelistAdd",
      "outputs": [
        {
          "internalType": "address",
          "name": "whiteAdd",
          "type": "address"
        },
        {
          "internalType": "string",
          "name": "email",
          "type": "string"
        }
      ],
      "payable": false,
      "stateMutability": "view",
      "type": "function"
    },
    {
      "constant": true,
      "inputs": [],
      "name": "getAllTransactions",
      "outputs": [
        {
          "components": [
            {
              "internalType": "address payable",
              "name": "from",
              "type": "address"
            },
            {
              "internalType": "address payable",
              "name": "to",
              "type": "address"
            },
            {
              "internalType": "uint256",
              "name": "amount",
              "type": "uint256"
            },
            {
              "internalType": "uint256",
              "name": "nonceTrans",
              "type": "uint256"
            },
            {
              "internalType": "uint256",
              "name": "threshold",
              "type": "uint256"
            }
          ],
          "internalType": "struct MultiSig.transactionData[]",
          "name": "transArr",
          "type": "tuple[]"
        }
      ],
      "payable": false,
      "stateMutability": "view",
      "type": "function"
    },
    {
      "constant": true,
      "inputs": [],
      "name": "getWhitelistAdd",
      "outputs": [
        {
          "components": [
            {
              "internalType": "address",
              "name": "whiteAdd",
              "type": "address"
            },
            {
              "internalType": "string",
              "name": "email",
              "type": "string"
            }
          ],
          "internalType": "struct MultiSig.whitelistData[]",
          "name": "whitelistArr",
          "type": "tuple[]"
        }
      ],
      "payable": false,
      "stateMutability": "view",
      "type": "function"
    },
    {
      "constant": true,
      "inputs": [],
      "name": "getPendingTx",
      "outputs": [
        {
          "components": [
            {
              "components": [
                {
                  "internalType": "address payable",
                  "name": "from",
                  "type": "address"
                },
                {
                  "internalType": "address payable",
                  "name": "to",
                  "type": "address"
                },
                {
                  "internalType": "uint256",
                  "name": "amount",
                  "type": "uint256"
                },
                {
                  "internalType": "uint256",
                  "name": "nonceTrans",
                  "type": "uint256"
                },
                {
                  "internalType": "uint256",
                  "name": "threshold",
                  "type": "uint256"
                }
              ],
              "internalType": "struct MultiSig.transactionData",
              "name": "txnData",
              "type": "tuple"
            },
            {
              "internalType": "uint256",
              "name": "numSigs",
              "type": "uint256"
            },
            {
              "internalType": "bytes32",
              "name": "txHash",
              "type": "bytes32"
            }
          ],
          "internalType": "struct MultiSig.pendingData[]",
          "name": "pending",
          "type": "tuple[]"
        }
      ],
      "payable": false,
      "stateMutability": "view",
      "type": "function"
    },
    {
      "constant": true,
      "inputs": [],
      "name": "contractBalance",
      "outputs": [
        {
          "internalType": "uint256",
          "name": "balance",
          "type": "uint256"
        }
      ],
      "payable": false,
      "stateMutability": "view",
      "type": "function"
    },
    {
      "constant": true,
      "inputs": [],
      "name": "getHashes",
      "outputs": [
        {
          "internalType": "string[]",
          "name": "hashes",
          "type": "string[]"
        }
      ],
      "payable": false,
      "stateMutability": "view",
      "type": "function"
    },
    {
      "constant": false,
      "inputs": [
        {
          "internalType": "string",
          "name": "txHash",
          "type": "string"
        }
      ],
      "name": "setHash",
      "outputs": [
        {
          "internalType": "bool",
          "name": "success",
          "type": "bool"
        }
      ],
      "payable": false,
      "stateMutability": "nonpayable",
      "type": "function"
    },
    {
      "constant": false,
      "inputs": [
        {
          "internalType": "address",
          "name": "newAddress",
          "type": "address"
        },
        {
          "internalType": "string",
          "name": "name",
          "type": "string"
        }
      ],
      "name": "addAddress",
      "outputs": [
        {
          "internalType": "bool",
          "name": "success",
          "type": "bool"
        }
      ],
      "payable": false,
      "stateMutability": "nonpayable",
      "type": "function"
    },
    {
      "constant": false,
      "inputs": [
        {
          "internalType": "address payable",
          "name": "_paymentReciever",
          "type": "address"
        },
        {
          "internalType": "uint256",
          "name": "_threshold",
          "type": "uint256"
        },
        {
          "internalType": "uint256",
          "name": "_amount",
          "type": "uint256"
        }
      ],
      "name": "setupTransaction",
      "outputs": [
        {
          "internalType": "uint256",
          "name": "",
          "type": "uint256"
        }
      ],
      "payable": true,
      "stateMutability": "payable",
      "type": "function"
    },
    {
      "constant": false,
      "inputs": [
        {
          "internalType": "uint256",
          "name": "index",
          "type": "uint256"
        }
      ],
      "name": "signTransaction",
      "outputs": [
        {
          "internalType": "bool",
          "name": "success",
          "type": "bool"
        }
      ],
      "payable": false,
      "stateMutability": "nonpayable",
      "type": "function"
    },
    {
      "constant": false,
      "inputs": [
        {
          "internalType": "uint256",
          "name": "index",
          "type": "uint256"
        }
      ],
      "name": "checkStatus",
      "outputs": [
        {
          "internalType": "bool",
          "name": "success",
          "type": "bool"
        }
      ],
      "payable": true,
      "stateMutability": "payable",
      "type": "function"
    }
  ],
  "bytecode": "0x60806040523480156200001157600080fd5b50604051620034ac380380620034ac833981810160405262000037919081019062000486565b336000806101000a81548173ffffffffffffffffffffffffffffffffffffffff021916908373ffffffffffffffffffffffffffffffffffffffff16021790555060006001819055506200009133826200009960201b60201c565b505062000697565b600060011515600360003373ffffffffffffffffffffffffffffffffffffffff1673ffffffffffffffffffffffffffffffffffffffff16815260200190815260200160002060009054906101000a900460ff16151514806200014757503373ffffffffffffffffffffffffffffffffffffffff166000809054906101000a900473ffffffffffffffffffffffffffffffffffffffff1673ffffffffffffffffffffffffffffffffffffffff16145b62000189576040517f08c379a000000000000000000000000000000000000000000000000000000000815260040162000180906200057d565b60405180910390fd5b60001515600360008573ffffffffffffffffffffffffffffffffffffffff1673ffffffffffffffffffffffffffffffffffffffff16815260200190815260200160002060009054906101000a900460ff161515146200021f576040517f08c379a000000000000000000000000000000000000000000000000000000000815260040162000216906200059f565b60405180910390fd5b600260405180604001604052808573ffffffffffffffffffffffffffffffffffffffff168152602001848152509080600181540180825580915050906001820390600052602060002090600202016000909192909190915060008201518160000160006101000a81548173ffffffffffffffffffffffffffffffffffffffff021916908373ffffffffffffffffffffffffffffffffffffffff1602179055506020820151816001019080519060200190620002dc9291906200037b565b505050506001600360008573ffffffffffffffffffffffffffffffffffffffff1673ffffffffffffffffffffffffffffffffffffffff16815260200190815260200160002060006101000a81548160ff0219169083151502179055507f64fd21439447139bed5a374a0f62ecc0fbd38cf2687d4ed5d587cb55dfbd42588360405162000369919062000560565b60405180910390a16001905092915050565b828054600181600116156101000203166002900490600052602060002090601f016020900481019282601f10620003be57805160ff1916838001178555620003ef565b82800160010185558215620003ef579182015b82811115620003ee578251825591602001919060010190620003d1565b5b509050620003fe919062000402565b5090565b6200042791905b808211156200042357600081600090555060010162000409565b5090565b90565b600082601f8301126200043c57600080fd5b8151620004536200044d82620005ef565b620005c1565b915080825260208301602083018583830111156200047057600080fd5b6200047d83828462000661565b50505092915050565b6000602082840312156200049957600080fd5b600082015167ffffffffffffffff811115620004b457600080fd5b620004c2848285016200042a565b91505092915050565b620004d6816200062d565b82525050565b6000620004eb6015836200061c565b91507f53656e646572206e6f7420617574686f72697a656400000000000000000000006000830152602082019050919050565b60006200052d600d836200061c565b91507f416c7265616479206164646564000000000000000000000000000000000000006000830152602082019050919050565b6000602082019050620005776000830184620004cb565b92915050565b600060208201905081810360008301526200059881620004dc565b9050919050565b60006020820190508181036000830152620005ba816200051e565b9050919050565b6000604051905081810181811067ffffffffffffffff82111715620005e557600080fd5b8060405250919050565b600067ffffffffffffffff8211156200060757600080fd5b601f19601f8301169050602081019050919050565b600082825260208201905092915050565b60006200063a8262000641565b9050919050565b600073ffffffffffffffffffffffffffffffffffffffff82169050919050565b60005b838110156200068157808201518184015260208101905062000664565b8381111562000691576000848401525b50505050565b612e0580620006a76000396000f3fe6080604052600436106100fe5760003560e01c806383588447116100955780639ace38c2116100645780639ace38c21461036e5780639b19251a146103af578063affed0e0146103ec578063d033c45614610417578063e95597fc14610454576100fe565b806383588447146102af5780638b7afe2e146102ed5780638da5cb5b1461031857806395b52bdb14610343576100fe565b80634245d48e116100d15780634245d48e146101cb5780635d9ec210146101f657806363a8374d1461023357806365bc989314610272576100fe565b80631ed83fd41461010357806327506f53146101405780632858c7641461016b5780633d8c16de1461019b575b600080fd5b34801561010f57600080fd5b5061012a60048036036101259190810190612151565b61047f565b60405161013791906129d7565b60405180910390f35b34801561014c57600080fd5b506101556104c9565b6040516101629190612993565b60405180910390f35b61018560048036036101809190810190612192565b6105f2565b60405161019291906129d7565b60405180910390f35b6101b560048036036101b091908101906120ae565b610654565b6040516101c29190612b0b565b60405180910390f35b3480156101d757600080fd5b506101e0610bfb565b6040516101ed919061294f565b60405180910390f35b34801561020257600080fd5b5061021d60048036036102189190810190612192565b610ce4565b60405161022a91906129d7565b60405180910390f35b34801561023f57600080fd5b5061025a60048036036102559190810190612192565b610f36565b60405161026993929190612ad4565b60405180910390f35b34801561027e57600080fd5b5061029960048036036102949190810190612192565b611041565b6040516102a691906129f2565b60405180910390f35b3480156102bb57600080fd5b506102d660048036036102d19190810190612192565b6110fa565b6040516102e492919061291f565b60405180910390f35b3480156102f957600080fd5b506103026111e3565b60405161030f9190612b0b565b60405180910390f35b34801561032457600080fd5b5061032d6111eb565b60405161033a9190612828565b60405180910390f35b34801561034f57600080fd5b50610358611210565b60405161036591906129b5565b60405180910390f35b34801561037a57600080fd5b5061039560048036036103909190810190612192565b611367565b6040516103a69594939291906128a3565b60405180910390f35b3480156103bb57600080fd5b506103d660048036036103d19190810190612085565b6113ea565b6040516103e391906129d7565b60405180910390f35b3480156103f857600080fd5b5061040161140a565b60405161040e9190612b0b565b60405180910390f35b34801561042357600080fd5b5061043e600480360361043991908101906120fd565b611410565b60405161044b91906129d7565b60405180910390f35b34801561046057600080fd5b506104696116e7565b6040516104769190612971565b60405180910390f35b600060078290806001815401808255809150509060018203906000526020600020016000909192909190915090805190602001906104be929190611cd8565b505060019050919050565b60606005805480602002602001604051908101604052809291908181526020016000905b828210156105e957838290600052602060002090600502016040518060a00160405290816000820160009054906101000a900473ffffffffffffffffffffffffffffffffffffffff1673ffffffffffffffffffffffffffffffffffffffff1673ffffffffffffffffffffffffffffffffffffffff1681526020016001820160009054906101000a900473ffffffffffffffffffffffffffffffffffffffff1673ffffffffffffffffffffffffffffffffffffffff1673ffffffffffffffffffffffffffffffffffffffff1681526020016002820154815260200160038201548152602001600482015481525050815260200190600101906104ed565b50505050905090565b60006006828154811061060157fe5b9060005260206000209060070201600001600401546006838154811061062357fe5b9060005260206000209060070201600501541061064a5761064382611838565b905061064f565b600090505b919050565b6000813414610698576040517f08c379a000000000000000000000000000000000000000000000000000000000815260040161068f90612a94565b60405180910390fd5b60011515600360003373ffffffffffffffffffffffffffffffffffffffff1673ffffffffffffffffffffffffffffffffffffffff16815260200190815260200160002060009054906101000a900460ff1615151461072b576040517f08c379a000000000000000000000000000000000000000000000000000000000815260040161072290612a54565b60405180910390fd5b60056040518060a001604052803373ffffffffffffffffffffffffffffffffffffffff1681526020018673ffffffffffffffffffffffffffffffffffffffff1681526020018481526020016001548152602001858152509080600181540180825580915050906001820390600052602060002090600502016000909192909190915060008201518160000160006101000a81548173ffffffffffffffffffffffffffffffffffffffff021916908373ffffffffffffffffffffffffffffffffffffffff16021790555060208201518160010160006101000a81548173ffffffffffffffffffffffffffffffffffffffff021916908373ffffffffffffffffffffffffffffffffffffffff1602179055506040820151816002015560608201518160030155608082015181600401555050506006604051806060016040528060056001548154811061087857fe5b90600052602060002090600502016040518060a00160405290816000820160009054906101000a900473ffffffffffffffffffffffffffffffffffffffff1673ffffffffffffffffffffffffffffffffffffffff1673ffffffffffffffffffffffffffffffffffffffff1681526020016001820160009054906101000a900473ffffffffffffffffffffffffffffffffffffffff1673ffffffffffffffffffffffffffffffffffffffff1673ffffffffffffffffffffffffffffffffffffffff1681526020016002820154815260200160038201548152602001600482015481525050815260200160008152602001610a946001546005805480602002602001604051908101604052809291908181526020016000905b82821015610a8b57838290600052602060002090600502016040518060a00160405290816000820160009054906101000a900473ffffffffffffffffffffffffffffffffffffffff1673ffffffffffffffffffffffffffffffffffffffff1673ffffffffffffffffffffffffffffffffffffffff1681526020016001820160009054906101000a900473ffffffffffffffffffffffffffffffffffffffff1673ffffffffffffffffffffffffffffffffffffffff1673ffffffffffffffffffffffffffffffffffffffff16815260200160028201548152602001600382015481526020016004820154815250508152602001906001019061098f565b50505050611c27565b8152509080600181540180825580915050906001820390600052602060002090600702016000909192909190915060008201518160000160008201518160000160006101000a81548173ffffffffffffffffffffffffffffffffffffffff021916908373ffffffffffffffffffffffffffffffffffffffff16021790555060208201518160010160006101000a81548173ffffffffffffffffffffffffffffffffffffffff021916908373ffffffffffffffffffffffffffffffffffffffff160217905550604082015181600201556060820151816003015560808201518160040155505060208201518160050155604082015181600601555050507fc5094f20ddbb9bda2b4d1b39f78d7d784f323b721a2a8f32456a45d3dfb716d8338560015486604051610bc7949392919061285e565b60405180910390a1610bda600154610ce4565b50600160008154809291906001019190505550600180540390509392505050565b60606007805480602002602001604051908101604052809291908181526020016000905b82821015610cdb578382906000526020600020018054600181600116156101000203166002900480601f016020809104026020016040519081016040528092919081815260200182805460018160011615610100020316600290048015610cc75780601f10610c9c57610100808354040283529160200191610cc7565b820191906000526020600020905b815481529060010190602001808311610caa57829003601f168201915b505050505081526020019060010190610c1f565b50505050905090565b600060011515600360003373ffffffffffffffffffffffffffffffffffffffff1673ffffffffffffffffffffffffffffffffffffffff16815260200190815260200160002060009054906101000a900460ff16151514610d79576040517f08c379a0000000000000000000000000000000000000000000000000000000008152600401610d7090612a74565b60405180910390fd5b600015156004600060068581548110610d8e57fe5b906000526020600020906007020160060154815260200190815260200160002060003373ffffffffffffffffffffffffffffffffffffffff1673ffffffffffffffffffffffffffffffffffffffff16815260200190815260200160002060009054906101000a900460ff16151514610e3b576040517f08c379a0000000000000000000000000000000000000000000000000000000008152600401610e3290612a34565b60405180910390fd5b60016004600060068581548110610e4e57fe5b906000526020600020906007020160060154815260200190815260200160002060003373ffffffffffffffffffffffffffffffffffffffff1673ffffffffffffffffffffffffffffffffffffffff16815260200190815260200160002060006101000a81548160ff021916908315150217905550600160068381548110610ed157fe5b9060005260206000209060070201600501600082825401925050819055507f827bfe95984eb396b6d8ff47200bd671835f5a6d87dc4bad10d2dbd4fe6355a333604051610f1e9190612843565b60405180910390a1610f2f826105f2565b9050919050565b60068181548110610f4357fe5b9060005260206000209060070201600091509050806000016040518060a00160405290816000820160009054906101000a900473ffffffffffffffffffffffffffffffffffffffff1673ffffffffffffffffffffffffffffffffffffffff1673ffffffffffffffffffffffffffffffffffffffff1681526020016001820160009054906101000a900473ffffffffffffffffffffffffffffffffffffffff1673ffffffffffffffffffffffffffffffffffffffff1673ffffffffffffffffffffffffffffffffffffffff1681526020016002820154815260200160038201548152602001600482015481525050908060050154908060060154905083565b6007818154811061104e57fe5b906000526020600020016000915090508054600181600116156101000203166002900480601f0160208091040260200160405190810160405280929190818152602001828054600181600116156101000203166002900480156110f25780601f106110c7576101008083540402835291602001916110f2565b820191906000526020600020905b8154815290600101906020018083116110d557829003601f168201915b505050505081565b6002818154811061110757fe5b90600052602060002090600202016000915090508060000160009054906101000a900473ffffffffffffffffffffffffffffffffffffffff1690806001018054600181600116156101000203166002900480601f0160208091040260200160405190810160405280929190818152602001828054600181600116156101000203166002900480156111d95780601f106111ae576101008083540402835291602001916111d9565b820191906000526020600020905b8154815290600101906020018083116111bc57829003601f168201915b5050505050905082565b600047905090565b6000809054906101000a900473ffffffffffffffffffffffffffffffffffffffff1681565b60606002805480602002602001604051908101604052809291908181526020016000905b8282101561135e57838290600052602060002090600202016040518060400160405290816000820160009054906101000a900473ffffffffffffffffffffffffffffffffffffffff1673ffffffffffffffffffffffffffffffffffffffff1673ffffffffffffffffffffffffffffffffffffffff168152602001600182018054600181600116156101000203166002900480601f0160208091040260200160405190810160405280929190818152602001828054600181600116156101000203166002900480156113465780601f1061131b57610100808354040283529160200191611346565b820191906000526020600020905b81548152906001019060200180831161132957829003601f168201915b50505050508152505081526020019060010190611234565b50505050905090565b6005818154811061137457fe5b90600052602060002090600502016000915090508060000160009054906101000a900473ffffffffffffffffffffffffffffffffffffffff16908060010160009054906101000a900473ffffffffffffffffffffffffffffffffffffffff16908060020154908060030154908060040154905085565b60036020528060005260406000206000915054906101000a900460ff1681565b60015481565b600060011515600360003373ffffffffffffffffffffffffffffffffffffffff1673ffffffffffffffffffffffffffffffffffffffff16815260200190815260200160002060009054906101000a900460ff16151514806114bd57503373ffffffffffffffffffffffffffffffffffffffff166000809054906101000a900473ffffffffffffffffffffffffffffffffffffffff1673ffffffffffffffffffffffffffffffffffffffff16145b6114fc576040517f08c379a00000000000000000000000000000000000000000000000000000000081526004016114f390612a14565b60405180910390fd5b60001515600360008573ffffffffffffffffffffffffffffffffffffffff1673ffffffffffffffffffffffffffffffffffffffff16815260200190815260200160002060009054906101000a900460ff1615151461158f576040517f08c379a000000000000000000000000000000000000000000000000000000000815260040161158690612ab4565b60405180910390fd5b600260405180604001604052808573ffffffffffffffffffffffffffffffffffffffff168152602001848152509080600181540180825580915050906001820390600052602060002090600202016000909192909190915060008201518160000160006101000a81548173ffffffffffffffffffffffffffffffffffffffff021916908373ffffffffffffffffffffffffffffffffffffffff160217905550602082015181600101908051906020019061164a929190611d58565b505050506001600360008573ffffffffffffffffffffffffffffffffffffffff1673ffffffffffffffffffffffffffffffffffffffff16815260200190815260200160002060006101000a81548160ff0219169083151502179055507f64fd21439447139bed5a374a0f62ecc0fbd38cf2687d4ed5d587cb55dfbd4258836040516116d59190612828565b60405180910390a16001905092915050565b60606006805480602002602001604051908101604052809291908181526020016000905b8282101561182f5783829060005260206000209060070201604051806060016040529081600082016040518060a00160405290816000820160009054906101000a900473ffffffffffffffffffffffffffffffffffffffff1673ffffffffffffffffffffffffffffffffffffffff1673ffffffffffffffffffffffffffffffffffffffff1681526020016001820160009054906101000a900473ffffffffffffffffffffffffffffffffffffffff1673ffffffffffffffffffffffffffffffffffffffff1673ffffffffffffffffffffffffffffffffffffffff16815260200160028201548152602001600382015481526020016004820154815250508152602001600582015481526020016006820154815250508152602001906001019061170b565b50505050905090565b6000806006838154811061184857fe5b906000526020600020906007020160000160010160009054906101000a900473ffffffffffffffffffffffffffffffffffffffff1690508073ffffffffffffffffffffffffffffffffffffffff166108fc600685815481106118a657fe5b9060005260206000209060070201600001600201549081150290604051600060405180830381858888f193505050501580156118e6573d6000803e3d6000fd5b507f2f03f1395f971b1f02ef2bc5afe3dcaadb5138627f8f45633cefd28f1a5f7e456006848154811061191557fe5b906000526020600020906007020160000160010160009054906101000a900473ffffffffffffffffffffffffffffffffffffffff166006858154811061195757fe5b90600052602060002090600702016000016002015460405161197a9291906128f6565b60405180910390a160066001600680549050038154811061199757fe5b9060005260206000209060070201600684815481106119b257fe5b906000526020600020906007020160008201816000016000820160009054906101000a900473ffffffffffffffffffffffffffffffffffffffff168160000160006101000a81548173ffffffffffffffffffffffffffffffffffffffff021916908373ffffffffffffffffffffffffffffffffffffffff1602179055506001820160009054906101000a900473ffffffffffffffffffffffffffffffffffffffff168160010160006101000a81548173ffffffffffffffffffffffffffffffffffffffff021916908373ffffffffffffffffffffffffffffffffffffffff16021790555060028201548160020155600382015481600301556004820154816004015550506005820154816005015560068201548160060155905050600760016007805490500381548110611ae257fe5b9060005260206000200160078481548110611af957fe5b906000526020600020019080546001816001161561010002031660029004611b22929190611dd8565b50600660016006805490500381548110611b3857fe5b90600052602060002090600702016000808201600080820160006101000a81549073ffffffffffffffffffffffffffffffffffffffff02191690556001820160006101000a81549073ffffffffffffffffffffffffffffffffffffffff02191690556002820160009055600382016000905560048201600090555050600582016000905560068201600090555050600760016007805490500381548110611bdb57fe5b906000526020600020016000611bf19190611e5f565b6007805480919060019003611c069190611ea7565b506006805480919060019003611c1c9190611ed3565b506001915050919050565b600080828481518110611c3657fe5b602002602001015160200151838581518110611c4e57fe5b602002602001015160000151848681518110611c6657fe5b602002602001015160400151858781518110611c7e57fe5b602002602001015160600151868881518110611c9657fe5b602002602001015160800151604051602001611cb69594939291906128a3565b6040516020818303038152906040528051906020012090508091505092915050565b828054600181600116156101000203166002900490600052602060002090601f016020900481019282601f10611d1957805160ff1916838001178555611d47565b82800160010185558215611d47579182015b82811115611d46578251825591602001919060010190611d2b565b5b509050611d549190611f05565b5090565b828054600181600116156101000203166002900490600052602060002090601f016020900481019282601f10611d9957805160ff1916838001178555611dc7565b82800160010185558215611dc7579182015b82811115611dc6578251825591602001919060010190611dab565b5b509050611dd49190611f05565b5090565b828054600181600116156101000203166002900490600052602060002090601f016020900481019282601f10611e115780548555611e4e565b82800160010185558215611e4e57600052602060002091601f016020900482015b82811115611e4d578254825591600101919060010190611e32565b5b509050611e5b9190611f05565b5090565b50805460018160011615610100020316600290046000825580601f10611e855750611ea4565b601f016020900490600052602060002090810190611ea39190611f05565b5b50565b815481835581811115611ece57818360005260206000209182019101611ecd9190611f2a565b5b505050565b815481835581811115611f0057600702816007028360005260206000209182019101611eff9190611f56565b5b505050565b611f2791905b80821115611f23576000816000905550600101611f0b565b5090565b90565b611f5391905b80821115611f4f5760008181611f469190611e5f565b50600101611f30565b5090565b90565b611fef91905b80821115611feb576000808201600080820160006101000a81549073ffffffffffffffffffffffffffffffffffffffff02191690556001820160006101000a81549073ffffffffffffffffffffffffffffffffffffffff021916905560028201600090556003820160009055600482016000905550506005820160009055600682016000905550600701611f5c565b5090565b90565b60008135905061200181612d7d565b92915050565b60008135905061201681612d94565b92915050565b600082601f83011261202d57600080fd5b813561204061203b82612b53565b612b26565b9150808252602083016020830185838301111561205c57600080fd5b612067838284612d2a565b50505092915050565b60008135905061207f81612dab565b92915050565b60006020828403121561209757600080fd5b60006120a584828501611ff2565b91505092915050565b6000806000606084860312156120c357600080fd5b60006120d186828701612007565b93505060206120e286828701612070565b92505060406120f386828701612070565b9150509250925092565b6000806040838503121561211057600080fd5b600061211e85828601611ff2565b925050602083013567ffffffffffffffff81111561213b57600080fd5b6121478582860161201c565b9150509250929050565b60006020828403121561216357600080fd5b600082013567ffffffffffffffff81111561217d57600080fd5b6121898482850161201c565b91505092915050565b6000602082840312156121a457600080fd5b60006121b284828501612070565b91505092915050565b60006121c78383612431565b905092915050565b60006121db83836126bb565b60e08301905092915050565b60006121f383836126fd565b60a08301905092915050565b600061220b83836127cd565b905092915050565b61221c81612cf4565b82525050565b61222b81612ca2565b82525050565b61223a81612ca2565b82525050565b61224981612c90565b82525050565b61225881612c90565b82525050565b600061226982612bbf565b6122738185612c2a565b93508360208202850161228585612b7f565b8060005b858110156122c157848403895281516122a285826121bb565b94506122ad83612bf6565b925060208a01995050600181019050612289565b50829750879550505050505092915050565b60006122de82612bca565b6122e88185612c3b565b93506122f383612b8f565b8060005b8381101561232457815161230b88826121cf565b975061231683612c03565b9250506001810190506122f7565b5085935050505092915050565b600061233c82612bd5565b6123468185612c4c565b935061235183612b9f565b8060005b8381101561238257815161236988826121e7565b975061237483612c10565b925050600181019050612355565b5085935050505092915050565b600061239a82612be0565b6123a48185612c5d565b9350836020820285016123b685612baf565b8060005b858110156123f257848403895281516123d385826121ff565b94506123de83612c1d565b925060208a019950506001810190506123ba565b50829750879550505050505092915050565b61240d81612cb4565b82525050565b61241c81612cc0565b82525050565b61242b81612cc0565b82525050565b600061243c82612beb565b6124468185612c6e565b9350612456818560208601612d39565b61245f81612d6c565b840191505092915050565b600061247582612beb565b61247f8185612c7f565b935061248f818560208601612d39565b61249881612d6c565b840191505092915050565b60006124b0601583612c7f565b91507f53656e646572206e6f7420617574686f72697a656400000000000000000000006000830152602082019050919050565b60006124f0602f83612c7f565b91507f5468697320616464726573732068617320616c7265616479207369676e65642060008301527f746865207472616e73616374696f6e00000000000000000000000000000000006020830152604082019050919050565b6000612556602483612c7f565b91507f546869732061646472657373206973206e6f7420616e2074686520776869746560008301527f6c697374000000000000000000000000000000000000000000000000000000006020830152604082019050919050565b60006125bc602483612c7f565b91507f546869732061646472657373206973206e6f74206f6e2074686520776869746560008301527f6c697374000000000000000000000000000000000000000000000000000000006020830152604082019050919050565b6000612622602283612c7f565b91507f4e6f7420656e6f7567682065746820746f2073656e64207472616e736163746960008301527f6f6e0000000000000000000000000000000000000000000000000000000000006020830152604082019050919050565b6000612688600d83612c7f565b91507f416c7265616479206164646564000000000000000000000000000000000000006000830152602082019050919050565b60e0820160008201516126d160008501826126fd565b5060208201516126e460a085018261280a565b5060408201516126f760c0850182612413565b50505050565b60a0820160008201516127136000850182612222565b5060208201516127266020850182612222565b506040820151612739604085018261280a565b50606082015161274c606085018261280a565b50608082015161275f608085018261280a565b50505050565b60a08201600082015161277b6000850182612222565b50602082015161278e6020850182612222565b5060408201516127a1604085018261280a565b5060608201516127b4606085018261280a565b5060808201516127c7608085018261280a565b50505050565b60006040830160008301516127e56000860182612240565b50602083015184820360208601526127fd8282612431565b9150508091505092915050565b61281381612cea565b82525050565b61282281612cea565b82525050565b600060208201905061283d600083018461224f565b92915050565b60006020820190506128586000830184612213565b92915050565b60006080820190506128736000830187612213565b6128806020830186612213565b61288d6040830185612819565b61289a6060830184612819565b95945050505050565b600060a0820190506128b86000830188612231565b6128c56020830187612231565b6128d26040830186612819565b6128df6060830185612819565b6128ec6080830184612819565b9695505050505050565b600060408201905061290b6000830185612213565b6129186020830184612819565b9392505050565b6000604082019050612934600083018561224f565b8181036020830152612946818461246a565b90509392505050565b60006020820190508181036000830152612969818461225e565b905092915050565b6000602082019050818103600083015261298b81846122d3565b905092915050565b600060208201905081810360008301526129ad8184612331565b905092915050565b600060208201905081810360008301526129cf818461238f565b905092915050565b60006020820190506129ec6000830184612404565b92915050565b60006020820190508181036000830152612a0c818461246a565b905092915050565b60006020820190508181036000830152612a2d816124a3565b9050919050565b60006020820190508181036000830152612a4d816124e3565b9050919050565b60006020820190508181036000830152612a6d81612549565b9050919050565b60006020820190508181036000830152612a8d816125af565b9050919050565b60006020820190508181036000830152612aad81612615565b9050919050565b60006020820190508181036000830152612acd8161267b565b9050919050565b600060e082019050612ae96000830186612765565b612af660a0830185612819565b612b0360c0830184612422565b949350505050565b6000602082019050612b206000830184612819565b92915050565b6000604051905081810181811067ffffffffffffffff82111715612b4957600080fd5b8060405250919050565b600067ffffffffffffffff821115612b6a57600080fd5b601f19601f8301169050602081019050919050565b6000819050602082019050919050565b6000819050602082019050919050565b6000819050602082019050919050565b6000819050602082019050919050565b600081519050919050565b600081519050919050565b600081519050919050565b600081519050919050565b600081519050919050565b6000602082019050919050565b6000602082019050919050565b6000602082019050919050565b6000602082019050919050565b600082825260208201905092915050565b600082825260208201905092915050565b600082825260208201905092915050565b600082825260208201905092915050565b600082825260208201905092915050565b600082825260208201905092915050565b6000612c9b82612cca565b9050919050565b6000612cad82612cca565b9050919050565b60008115159050919050565b6000819050919050565b600073ffffffffffffffffffffffffffffffffffffffff82169050919050565b6000819050919050565b6000612cff82612d06565b9050919050565b6000612d1182612d18565b9050919050565b6000612d2382612cca565b9050919050565b82818337600083830152505050565b60005b83811015612d57578082015181840152602081019050612d3c565b83811115612d66576000848401525b50505050565b6000601f19601f8301169050919050565b612d8681612c90565b8114612d9157600080fd5b50565b612d9d81612ca2565b8114612da857600080fd5b50565b612db481612cea565b8114612dbf57600080fd5b5056fea365627a7a723158208705919a517767424c12b916620e5667d0cfe5edc5bf1dcc5c599693d1e6bbc36c6578706572696d656e74616cf564736f6c63430005100040",
  "source": "pragma solidity ^0.5.16;\r\npragma experimental ABIEncoderV2;\r\n\r\n\r\ncontract MultiSig {\r\n    // Basic Contract data for ownership and nonce\r\n    address public owner;\r\n    uint256 public nonce;\r\n\r\n    struct whitelistData {\r\n        address whiteAdd;\r\n        string email;\r\n    }\r\n\r\n    // WhiteList info\r\n    whitelistData[] public whitelistAdd;\r\n    mapping(address => bool) public whitelist;\r\n\r\n    // Structs for transactions\r\n    struct transactionData {\r\n        address payable from;\r\n        address payable to;\r\n        uint256 amount;\r\n        uint256 nonceTrans;\r\n        uint256 threshold;\r\n    }\r\n\r\n    struct pendingData {\r\n        transactionData txnData;\r\n        uint256 numSigs;\r\n        bytes32 txHash;\r\n    }\r\n    mapping(bytes32 => mapping(address => bool)) signedList;\r\n\r\n    // Arrays for transactions\r\n    transactionData[] public transactions;\r\n    pendingData[] public pendingTransactions;\r\n    string[] public ethTxHashes;\r\n\r\n    // Events to emmit\r\n    event transactionCreated(address, address, uint256, uint256);\r\n    event SignedTransact(address);\r\n    event AddedWhiteList(address);\r\n    event transactionOccured(address, uint256);\r\n\r\n    constructor(string memory name) public {\r\n        // Make the owner address that deploys contract\r\n        owner = msg.sender;\r\n        nonce = 0;\r\n\r\n        // Add to white list for owner to sign\r\n        addAddress(msg.sender, name);\r\n    }\r\n\r\n    function getAllTransactions()\r\n        public\r\n        view\r\n        returns (transactionData[] memory transArr)\r\n    {\r\n        return transactions;\r\n    }\r\n\r\n    function getWhitelistAdd()\r\n        public\r\n        view\r\n        returns (whitelistData[] memory whitelistArr)\r\n    {\r\n        return whitelistAdd;\r\n    }\r\n\r\n    function getPendingTx()\r\n        external\r\n        view\r\n        returns (pendingData[] memory pending)\r\n    {\r\n        return pendingTransactions;\r\n    }\r\n\r\n    function contractBalance() external view returns (uint256 balance) {\r\n        return address(this).balance;\r\n    }\r\n\r\n    function getHashes() external view returns (string[] memory hashes) {\r\n        return ethTxHashes;\r\n    }\r\n\r\n    function setHash(string memory txHash) public returns (bool success) {\r\n        ethTxHashes.push(txHash);\r\n        return true;\r\n    }\r\n\r\n    // Adds address to whitelist so entity has signing ability\r\n    function addAddress(address newAddress, string memory name)\r\n        public\r\n        returns (bool success)\r\n    {\r\n        // Requires to ensure owner adding signers\r\n        require(whitelist[msg.sender] == true || owner == msg.sender, \"Sender not authorized\");\r\n        require(whitelist[newAddress] == false, \"Already added\");\r\n\r\n        // Give address signing ability and emit event\r\n        whitelistAdd.push(whitelistData(newAddress, name)); // add the new address to list of whitelist addresses\r\n        whitelist[newAddress] = true;\r\n\r\n        emit AddedWhiteList(newAddress);\r\n        return true;\r\n    }\r\n\r\n    function setupTransaction(\r\n        address payable _paymentReciever,\r\n        uint256 _threshold,\r\n        uint256 _amount\r\n    ) external payable returns (uint256) {\r\n        require(msg.value == _amount, \"Not enough eth to send transaction\");\r\n        require(\r\n            whitelist[msg.sender] == true,\r\n            \"This address is not an the whitelist\"\r\n        );\r\n\r\n        transactions.push(\r\n            transactionData(\r\n                msg.sender,\r\n                _paymentReciever,\r\n                _amount,\r\n                nonce,\r\n                _threshold\r\n            )\r\n        );\r\n\r\n        pendingTransactions.push(\r\n            pendingData(\r\n                transactions[nonce],\r\n                0,\r\n                encodeTransaction(nonce, transactions)\r\n            )\r\n        );\r\n\r\n        emit transactionCreated(\r\n            msg.sender,\r\n            _paymentReciever,\r\n            nonce,\r\n            _threshold\r\n        );\r\n        signTransaction(nonce);\r\n\r\n        nonce++;\r\n        return nonce - 1;\r\n    }\r\n\r\n    function encodeTransaction(uint256 index, transactionData[] memory txns)\r\n        internal\r\n        pure\r\n        returns (bytes32)\r\n    {\r\n        bytes32 tmp = keccak256(\r\n            abi.encode(\r\n                txns[index].to,\r\n                txns[index].from,\r\n                txns[index].amount,\r\n                txns[index].nonceTrans,\r\n                txns[index].threshold\r\n            )\r\n        );\r\n\r\n        return tmp;\r\n    }\r\n\r\n    // Msg.sender signs transaction\r\n    function signTransaction(uint256 index) public returns (bool success) {\r\n        // Makes sure sender is on whitelist and has not signed yet\r\n        require(\r\n            whitelist[msg.sender] == true,\r\n            \"This address is not on the whitelist\"\r\n        );\r\n        require(\r\n            signedList[pendingTransactions[index].txHash][msg.sender] == false,\r\n            \"This address has already signed the transaction\"\r\n        );\r\n\r\n        // Increment num of signatures on transact and approve on signedList\r\n        signedList[pendingTransactions[index].txHash][msg.sender] = true;\r\n        pendingTransactions[index].numSigs += 1;\r\n        emit SignedTransact(msg.sender);\r\n\r\n        return checkStatus(index);\r\n    }\r\n\r\n    function handlePayment(uint256 index) private returns (bool) {\r\n        address payable reciever = pendingTransactions[index].txnData.to;\r\n        reciever.transfer(pendingTransactions[index].txnData.amount);\r\n\r\n        emit transactionOccured(\r\n            pendingTransactions[index].txnData.to,\r\n            pendingTransactions[index].txnData.amount\r\n        );\r\n\r\n        pendingTransactions[index] = pendingTransactions[pendingTransactions\r\n            .length - 1];\r\n\r\n        ethTxHashes[index] = ethTxHashes[ethTxHashes.length - 1];\r\n\r\n        delete pendingTransactions[pendingTransactions.length - 1];\r\n        delete ethTxHashes[ethTxHashes.length - 1];\r\n\r\n        ethTxHashes.length--;\r\n        pendingTransactions.length--;\r\n\r\n        return true;\r\n    }\r\n\r\n    function checkStatus(uint256 index) public payable returns (bool success) {\r\n        if (\r\n            pendingTransactions[index].numSigs >=\r\n            pendingTransactions[index].txnData.threshold\r\n        ) {\r\n            return handlePayment(index);\r\n        }\r\n\r\n        return false;\r\n    }\r\n}\r\n",
  "sourcePath": "C:\\Users\\spvye\\Documents\\Fortmatic\\intern-project\\contract\\contracts\\MultiSig.sol",
  "compiler": {
    "name": "solc",
    "version": "0.5.16+commit.9c3226ce.Emscripten.clang"
  },
  "schemaVersion": "3.0.23",
  "updatedAt": "2020-04-13T03:01:41.946Z",
  "devdoc": {
    "methods": {}
  },
  "userdoc": {
    "methods": {}
  }
}