{
  "contractName": "MultiSig",
  "abi": [
    {
      "inputs": [
        {
          "internalType": "string",
          "name": "name",
          "type": "string"
        }
      ],
      "payable": false,
      "stateMutability": "nonpayable",
      "type": "constructor"
    },
    {
      "anonymous": false,
      "inputs": [
        {
          "indexed": false,
          "internalType": "address",
          "name": "",
          "type": "address"
        }
      ],
      "name": "AddedWhiteList",
      "type": "event"
    },
    {
      "anonymous": false,
      "inputs": [
        {
          "indexed": false,
          "internalType": "address",
          "name": "",
          "type": "address"
        }
      ],
      "name": "SignedTransact",
      "type": "event"
    },
    {
      "anonymous": false,
      "inputs": [
        {
          "indexed": false,
          "internalType": "address",
          "name": "",
          "type": "address"
        },
        {
          "indexed": false,
          "internalType": "address",
          "name": "",
          "type": "address"
        },
        {
          "indexed": false,
          "internalType": "uint256",
          "name": "",
          "type": "uint256"
        },
        {
          "indexed": false,
          "internalType": "uint256",
          "name": "",
          "type": "uint256"
        }
      ],
      "name": "transactionCreated",
      "type": "event"
    },
    {
      "anonymous": false,
      "inputs": [
        {
          "indexed": false,
          "internalType": "address",
          "name": "",
          "type": "address"
        },
        {
          "indexed": false,
          "internalType": "uint256",
          "name": "",
          "type": "uint256"
        }
      ],
      "name": "transactionOccured",
      "type": "event"
    },
    {
      "constant": true,
      "inputs": [],
      "name": "nonce",
      "outputs": [
        {
          "internalType": "uint256",
          "name": "",
          "type": "uint256"
        }
      ],
      "payable": false,
      "stateMutability": "view",
      "type": "function"
    },
    {
      "constant": true,
      "inputs": [],
      "name": "owner",
      "outputs": [
        {
          "internalType": "address",
          "name": "",
          "type": "address"
        }
      ],
      "payable": false,
      "stateMutability": "view",
      "type": "function"
    },
    {
      "constant": true,
      "inputs": [
        {
          "internalType": "uint256",
          "name": "",
          "type": "uint256"
        }
      ],
      "name": "transactions",
      "outputs": [
        {
          "internalType": "address payable",
          "name": "from",
          "type": "address"
        },
        {
          "internalType": "address payable",
          "name": "to",
          "type": "address"
        },
        {
          "internalType": "uint256",
          "name": "amount",
          "type": "uint256"
        },
        {
          "internalType": "uint256",
          "name": "nonceTrans",
          "type": "uint256"
        },
        {
          "internalType": "uint256",
          "name": "threshold",
          "type": "uint256"
        },
        {
          "internalType": "uint256",
          "name": "numSigs",
          "type": "uint256"
        },
        {
          "internalType": "string",
          "name": "txHash",
          "type": "string"
        },
        {
          "internalType": "bool",
          "name": "complete",
          "type": "bool"
        }
      ],
      "payable": false,
      "stateMutability": "view",
      "type": "function"
    },
    {
      "constant": true,
      "inputs": [
        {
          "internalType": "uint256",
          "name": "",
          "type": "uint256"
        }
      ],
      "name": "whitelistAdd",
      "outputs": [
        {
          "internalType": "address",
          "name": "whiteAdd",
          "type": "address"
        },
        {
          "internalType": "string",
          "name": "email",
          "type": "string"
        }
      ],
      "payable": false,
      "stateMutability": "view",
      "type": "function"
    },
    {
      "constant": true,
      "inputs": [],
      "name": "getTransactions",
      "outputs": [
        {
          "components": [
            {
              "internalType": "address payable",
              "name": "from",
              "type": "address"
            },
            {
              "internalType": "address payable",
              "name": "to",
              "type": "address"
            },
            {
              "internalType": "uint256",
              "name": "amount",
              "type": "uint256"
            },
            {
              "internalType": "uint256",
              "name": "nonceTrans",
              "type": "uint256"
            },
            {
              "internalType": "uint256",
              "name": "threshold",
              "type": "uint256"
            },
            {
              "internalType": "uint256",
              "name": "numSigs",
              "type": "uint256"
            },
            {
              "internalType": "string",
              "name": "txHash",
              "type": "string"
            },
            {
              "internalType": "bool",
              "name": "complete",
              "type": "bool"
            }
          ],
          "internalType": "struct MultiSig.transactionData[]",
          "name": "transArr",
          "type": "tuple[]"
        }
      ],
      "payable": false,
      "stateMutability": "view",
      "type": "function"
    },
    {
      "constant": true,
      "inputs": [],
      "name": "getWhitelistAdd",
      "outputs": [
        {
          "components": [
            {
              "internalType": "address",
              "name": "whiteAdd",
              "type": "address"
            },
            {
              "internalType": "string",
              "name": "email",
              "type": "string"
            }
          ],
          "internalType": "struct MultiSig.whitelistData[]",
          "name": "whitelistArr",
          "type": "tuple[]"
        }
      ],
      "payable": false,
      "stateMutability": "view",
      "type": "function"
    },
    {
      "constant": true,
      "inputs": [],
      "name": "contractBalance",
      "outputs": [
        {
          "internalType": "uint256",
          "name": "balance",
          "type": "uint256"
        }
      ],
      "payable": false,
      "stateMutability": "view",
      "type": "function"
    },
    {
      "constant": false,
      "inputs": [
        {
          "internalType": "string",
          "name": "txHash_in",
          "type": "string"
        }
      ],
      "name": "setHash",
      "outputs": [
        {
          "internalType": "bool",
          "name": "success",
          "type": "bool"
        }
      ],
      "payable": false,
      "stateMutability": "nonpayable",
      "type": "function"
    },
    {
      "constant": false,
      "inputs": [
        {
          "internalType": "address",
          "name": "newAddress",
          "type": "address"
        },
        {
          "internalType": "string",
          "name": "name",
          "type": "string"
        }
      ],
      "name": "addAddress",
      "outputs": [
        {
          "internalType": "string",
          "name": "status",
          "type": "string"
        }
      ],
      "payable": false,
      "stateMutability": "nonpayable",
      "type": "function"
    },
    {
      "constant": false,
      "inputs": [
        {
          "internalType": "address payable",
          "name": "_paymentReciever",
          "type": "address"
        },
        {
          "internalType": "uint256",
          "name": "_threshold",
          "type": "uint256"
        },
        {
          "internalType": "uint256",
          "name": "_amount",
          "type": "uint256"
        }
      ],
      "name": "setupTransaction",
      "outputs": [
        {
          "internalType": "string",
          "name": "status",
          "type": "string"
        }
      ],
      "payable": true,
      "stateMutability": "payable",
      "type": "function"
    },
    {
      "constant": false,
      "inputs": [
        {
          "internalType": "uint256",
          "name": "index",
          "type": "uint256"
        }
      ],
      "name": "signTransaction",
      "outputs": [
        {
          "internalType": "string",
          "name": "status",
          "type": "string"
        }
      ],
      "payable": false,
      "stateMutability": "nonpayable",
      "type": "function"
    },
    {
      "constant": false,
      "inputs": [
        {
          "internalType": "uint256",
          "name": "index",
          "type": "uint256"
        }
      ],
      "name": "checkStatus",
      "outputs": [
        {
          "internalType": "string",
          "name": "status",
          "type": "string"
        }
      ],
      "payable": true,
      "stateMutability": "payable",
      "type": "function"
    }
  ],
  "bytecode": "0x60806040523480156200001157600080fd5b506040516200313738038062003137833981810160405262000037919081019062000645565b336000806101000a81548173ffffffffffffffffffffffffffffffffffffffff021916908373ffffffffffffffffffffffffffffffffffffffff16021790555060006001819055506200009133826200009960201b60201c565b505062000856565b606060001515600360003373ffffffffffffffffffffffffffffffffffffffff1673ffffffffffffffffffffffffffffffffffffffff16815260200190815260200160002060009054906101000a900460ff1615151480156200014957503373ffffffffffffffffffffffffffffffffffffffff166000809054906101000a900473ffffffffffffffffffffffffffffffffffffffff1673ffffffffffffffffffffffffffffffffffffffff1614155b156200018d576040518060400160405280601581526020017f53656e646572206e6f7420617574686f72697a65640000000000000000000000815250905062000534565b60011515600360008573ffffffffffffffffffffffffffffffffffffffff1673ffffffffffffffffffffffffffffffffffffffff16815260200190815260200160002060009054906101000a900460ff161515141562000225576040518060400160405280600d81526020017f416c726561647920616464656400000000000000000000000000000000000000815250905062000534565b60011515600360003373ffffffffffffffffffffffffffffffffffffffff1673ffffffffffffffffffffffffffffffffffffffff16815260200190815260200160002060009054906101000a900460ff1615151480620002d157503373ffffffffffffffffffffffffffffffffffffffff166000809054906101000a900473ffffffffffffffffffffffffffffffffffffffff1673ffffffffffffffffffffffffffffffffffffffff16145b62000313576040517f08c379a00000000000000000000000000000000000000000000000000000000081526004016200030a906200073c565b60405180910390fd5b60001515600360008573ffffffffffffffffffffffffffffffffffffffff1673ffffffffffffffffffffffffffffffffffffffff16815260200190815260200160002060009054906101000a900460ff16151514620003a9576040517f08c379a0000000000000000000000000000000000000000000000000000000008152600401620003a0906200075e565b60405180910390fd5b600260405180604001604052808573ffffffffffffffffffffffffffffffffffffffff168152602001848152509080600181540180825580915050906001820390600052602060002090600202016000909192909190915060008201518160000160006101000a81548173ffffffffffffffffffffffffffffffffffffffff021916908373ffffffffffffffffffffffffffffffffffffffff1602179055506020820151816001019080519060200190620004669291906200053a565b505050506001600360008573ffffffffffffffffffffffffffffffffffffffff1673ffffffffffffffffffffffffffffffffffffffff16815260200190815260200160002060006101000a81548160ff0219169083151502179055507f64fd21439447139bed5a374a0f62ecc0fbd38cf2687d4ed5d587cb55dfbd425883604051620004f391906200071f565b60405180910390a16040518060400160405280600581526020017f416464656400000000000000000000000000000000000000000000000000000081525090505b92915050565b828054600181600116156101000203166002900490600052602060002090601f016020900481019282601f106200057d57805160ff1916838001178555620005ae565b82800160010185558215620005ae579182015b82811115620005ad57825182559160200191906001019062000590565b5b509050620005bd9190620005c1565b5090565b620005e691905b80821115620005e2576000816000905550600101620005c8565b5090565b90565b600082601f830112620005fb57600080fd5b8151620006126200060c82620007ae565b62000780565b915080825260208301602083018583830111156200062f57600080fd5b6200063c83828462000820565b50505092915050565b6000602082840312156200065857600080fd5b600082015167ffffffffffffffff8111156200067357600080fd5b6200068184828501620005e9565b91505092915050565b6200069581620007ec565b82525050565b6000620006aa601583620007db565b91507f53656e646572206e6f7420617574686f72697a656400000000000000000000006000830152602082019050919050565b6000620006ec600d83620007db565b91507f416c7265616479206164646564000000000000000000000000000000000000006000830152602082019050919050565b60006020820190506200073660008301846200068a565b92915050565b6000602082019050818103600083015262000757816200069b565b9050919050565b600060208201905081810360008301526200077981620006dd565b9050919050565b6000604051905081810181811067ffffffffffffffff82111715620007a457600080fd5b8060405250919050565b600067ffffffffffffffff821115620007c657600080fd5b601f19601f8301169050602081019050919050565b600082825260208201905092915050565b6000620007f98262000800565b9050919050565b600073ffffffffffffffffffffffffffffffffffffffff82169050919050565b60005b838110156200084057808201518184015260208101905062000823565b8381111562000850576000848401525b50505050565b6128d180620008666000396000f3fe6080604052600436106100a75760003560e01c80638b7afe2e116100645780638b7afe2e146101ef5780638da5cb5b1461021a57806395b52bdb146102455780639ace38c214610270578063affed0e0146102b4578063d033c456146102df576100a7565b80631ed83fd4146100ac5780632858c764146100e95780633d8c16de146101195780635d9ec21014610149578063835884471461018657806383920e90146101c4575b600080fd5b3480156100b857600080fd5b506100d360048036036100ce9190810190611ca1565b61031c565b6040516100e09190612497565b60405180910390f35b61010360048036036100fe9190810190611ce2565b610362565b60405161011091906124b2565b60405180910390f35b610133600480360361012e9190810190611bfe565b61044a565b60405161014091906124b2565b60405180910390f35b34801561015557600080fd5b50610170600480360361016b9190810190611ce2565b610822565b60405161017d91906124b2565b60405180910390f35b34801561019257600080fd5b506101ad60048036036101a89190810190611ce2565b610cfc565b6040516101bb929190612423565b60405180910390f35b3480156101d057600080fd5b506101d9610de5565b6040516101e69190612453565b60405180910390f35b3480156101fb57600080fd5b50610204610fd6565b60405161021191906125d4565b60405180910390f35b34801561022657600080fd5b5061022f610fde565b60405161023c91906122fa565b60405180910390f35b34801561025157600080fd5b5061025a611003565b6040516102679190612475565b60405180910390f35b34801561027c57600080fd5b5061029760048036036102929190810190611ce2565b61115a565b6040516102ab989796959493929190612375565b60405180910390f35b3480156102c057600080fd5b506102c9611294565b6040516102d691906125d4565b60405180910390f35b3480156102eb57600080fd5b5061030660048036036103019190810190611c4d565b61129a565b60405161031391906124b2565b60405180910390f35b60008160056001600580549050038154811061033457fe5b90600052602060002090600802016006019080519060200190610358929190611a46565b5060019050919050565b60606005805490508211806103775750600082105b156103b9576040518060400160405280601681526020017f496e646578206973206f7574206f6620626f756e6473000000000000000000008152509050610445565b600582815481106103c657fe5b906000526020600020906008020160040154600583815481106103e557fe5b9060005260206000209060080201600501541061040c576104058261172b565b9050610445565b6040518060400160405280600681526020017f5369676e6564000000000000000000000000000000000000000000000000000081525090505b919050565b606081341461048e576040517f08c379a000000000000000000000000000000000000000000000000000000000815260040161048590612574565b60405180910390fd5b60001515600360003373ffffffffffffffffffffffffffffffffffffffff1673ffffffffffffffffffffffffffffffffffffffff16815260200190815260200160002060009054906101000a900460ff161515141561054e573373ffffffffffffffffffffffffffffffffffffffff166108fc839081150290604051600060405180830381858888f1935050505015801561052d573d6000803e3d6000fd5b5060405180606001604052806024815260200161284a60249139905061081b565b60011515600360003373ffffffffffffffffffffffffffffffffffffffff1673ffffffffffffffffffffffffffffffffffffffff16815260200190815260200160002060009054906101000a900460ff161515146105e1576040517f08c379a00000000000000000000000000000000000000000000000000000000081526004016105d890612514565b60405180910390fd5b60056040518061010001604052803373ffffffffffffffffffffffffffffffffffffffff1681526020018673ffffffffffffffffffffffffffffffffffffffff168152602001848152602001600154815260200185815260200160008152602001604051806020016040528060008152508152602001600015158152509080600181540180825580915050906001820390600052602060002090600802016000909192909190915060008201518160000160006101000a81548173ffffffffffffffffffffffffffffffffffffffff021916908373ffffffffffffffffffffffffffffffffffffffff16021790555060208201518160010160006101000a81548173ffffffffffffffffffffffffffffffffffffffff021916908373ffffffffffffffffffffffffffffffffffffffff16021790555060408201518160020155606082015181600301556080820151816004015560a0820151816005015560c082015181600601908051906020019061075b929190611ac6565b5060e08201518160070160006101000a81548160ff0219169083151502179055505050507fc5094f20ddbb9bda2b4d1b39f78d7d784f323b721a2a8f32456a45d3dfb716d83385600154866040516107b69493929190612330565b60405180910390a16107cf600160058054905003610822565b506001600081548092919060010191905055506040518060400160405280601381526020017f5472616e73616374696f6e20537461727465640000000000000000000000000081525090505b9392505050565b60606005805490508211806108375750600082105b15610879576040518060400160405280601681526020017f496e646578206973206f7574206f6620626f756e6473000000000000000000008152509050610cf7565b600115156005838154811061088a57fe5b906000526020600020906008020160070160009054906101000a900460ff16151514156108d15760405180606001604052806021815260200161286e602191399050610cf7565b60001515600360003373ffffffffffffffffffffffffffffffffffffffff1673ffffffffffffffffffffffffffffffffffffffff16815260200190815260200160002060009054906101000a900460ff161515141561094a5760405180606001604052806024815260200161284a602491399050610cf7565b60011515600460006005858154811061095f57fe5b906000526020600020906008020160030154815260200190815260200160002060003373ffffffffffffffffffffffffffffffffffffffff1673ffffffffffffffffffffffffffffffffffffffff16815260200190815260200160002060009054906101000a900460ff16151514156109f2576040518060600160405280602f815260200161281b602f91399050610cf7565b6000151560058381548110610a0357fe5b906000526020600020906008020160070160009054906101000a900460ff16151514610a64576040517f08c379a0000000000000000000000000000000000000000000000000000000008152600401610a5b90612554565b60405180910390fd5b6005805490508210610aab576040517f08c379a0000000000000000000000000000000000000000000000000000000008152600401610aa2906125b4565b60405180910390fd5b60011515600360003373ffffffffffffffffffffffffffffffffffffffff1673ffffffffffffffffffffffffffffffffffffffff16815260200190815260200160002060009054906101000a900460ff16151514610b3e576040517f08c379a0000000000000000000000000000000000000000000000000000000008152600401610b3590612534565b60405180910390fd5b600015156004600060058581548110610b5357fe5b906000526020600020906008020160030154815260200190815260200160002060003373ffffffffffffffffffffffffffffffffffffffff1673ffffffffffffffffffffffffffffffffffffffff16815260200190815260200160002060009054906101000a900460ff16151514610c00576040517f08c379a0000000000000000000000000000000000000000000000000000000008152600401610bf7906124f4565b60405180910390fd5b60016004600060058581548110610c1357fe5b906000526020600020906008020160030154815260200190815260200160002060003373ffffffffffffffffffffffffffffffffffffffff1673ffffffffffffffffffffffffffffffffffffffff16815260200190815260200160002060006101000a81548160ff021916908315150217905550600160058381548110610c9657fe5b9060005260206000209060080201600501600082825401925050819055507f827bfe95984eb396b6d8ff47200bd671835f5a6d87dc4bad10d2dbd4fe6355a333604051610ce39190612315565b60405180910390a1610cf482610362565b90505b919050565b60028181548110610d0957fe5b90600052602060002090600202016000915090508060000160009054906101000a900473ffffffffffffffffffffffffffffffffffffffff1690806001018054600181600116156101000203166002900480601f016020809104026020016040519081016040528092919081815260200182805460018160011615610100020316600290048015610ddb5780601f10610db057610100808354040283529160200191610ddb565b820191906000526020600020905b815481529060010190602001808311610dbe57829003601f168201915b5050505050905082565b60606005805480602002602001604051908101604052809291908181526020016000905b82821015610fcd5783829060005260206000209060080201604051806101000160405290816000820160009054906101000a900473ffffffffffffffffffffffffffffffffffffffff1673ffffffffffffffffffffffffffffffffffffffff1673ffffffffffffffffffffffffffffffffffffffff1681526020016001820160009054906101000a900473ffffffffffffffffffffffffffffffffffffffff1673ffffffffffffffffffffffffffffffffffffffff1673ffffffffffffffffffffffffffffffffffffffff16815260200160028201548152602001600382015481526020016004820154815260200160058201548152602001600682018054600181600116156101000203166002900480601f016020809104026020016040519081016040528092919081815260200182805460018160011615610100020316600290048015610f9a5780601f10610f6f57610100808354040283529160200191610f9a565b820191906000526020600020905b815481529060010190602001808311610f7d57829003601f168201915b505050505081526020016007820160009054906101000a900460ff16151515158152505081526020019060010190610e09565b50505050905090565b600047905090565b6000809054906101000a900473ffffffffffffffffffffffffffffffffffffffff1681565b60606002805480602002602001604051908101604052809291908181526020016000905b8282101561115157838290600052602060002090600202016040518060400160405290816000820160009054906101000a900473ffffffffffffffffffffffffffffffffffffffff1673ffffffffffffffffffffffffffffffffffffffff1673ffffffffffffffffffffffffffffffffffffffff168152602001600182018054600181600116156101000203166002900480601f0160208091040260200160405190810160405280929190818152602001828054600181600116156101000203166002900480156111395780601f1061110e57610100808354040283529160200191611139565b820191906000526020600020905b81548152906001019060200180831161111c57829003601f168201915b50505050508152505081526020019060010190611027565b50505050905090565b6005818154811061116757fe5b90600052602060002090600802016000915090508060000160009054906101000a900473ffffffffffffffffffffffffffffffffffffffff16908060010160009054906101000a900473ffffffffffffffffffffffffffffffffffffffff1690806002015490806003015490806004015490806005015490806006018054600181600116156101000203166002900480601f0160208091040260200160405190810160405280929190818152602001828054600181600116156101000203166002900480156112775780601f1061124c57610100808354040283529160200191611277565b820191906000526020600020905b81548152906001019060200180831161125a57829003601f168201915b5050505050908060070160009054906101000a900460ff16905088565b60015481565b606060001515600360003373ffffffffffffffffffffffffffffffffffffffff1673ffffffffffffffffffffffffffffffffffffffff16815260200190815260200160002060009054906101000a900460ff16151514801561134957503373ffffffffffffffffffffffffffffffffffffffff166000809054906101000a900473ffffffffffffffffffffffffffffffffffffffff1673ffffffffffffffffffffffffffffffffffffffff1614155b1561138b576040518060400160405280601581526020017f53656e646572206e6f7420617574686f72697a656400000000000000000000008152509050611725565b60011515600360008573ffffffffffffffffffffffffffffffffffffffff1673ffffffffffffffffffffffffffffffffffffffff16815260200190815260200160002060009054906101000a900460ff1615151415611421576040518060400160405280600d81526020017f416c7265616479206164646564000000000000000000000000000000000000008152509050611725565b60011515600360003373ffffffffffffffffffffffffffffffffffffffff1673ffffffffffffffffffffffffffffffffffffffff16815260200190815260200160002060009054906101000a900460ff16151514806114cc57503373ffffffffffffffffffffffffffffffffffffffff166000809054906101000a900473ffffffffffffffffffffffffffffffffffffffff1673ffffffffffffffffffffffffffffffffffffffff16145b61150b576040517f08c379a0000000000000000000000000000000000000000000000000000000008152600401611502906124d4565b60405180910390fd5b60001515600360008573ffffffffffffffffffffffffffffffffffffffff1673ffffffffffffffffffffffffffffffffffffffff16815260200190815260200160002060009054906101000a900460ff1615151461159e576040517f08c379a000000000000000000000000000000000000000000000000000000000815260040161159590612594565b60405180910390fd5b600260405180604001604052808573ffffffffffffffffffffffffffffffffffffffff168152602001848152509080600181540180825580915050906001820390600052602060002090600202016000909192909190915060008201518160000160006101000a81548173ffffffffffffffffffffffffffffffffffffffff021916908373ffffffffffffffffffffffffffffffffffffffff1602179055506020820151816001019080519060200190611659929190611ac6565b505050506001600360008573ffffffffffffffffffffffffffffffffffffffff1673ffffffffffffffffffffffffffffffffffffffff16815260200190815260200160002060006101000a81548160ff0219169083151502179055507f64fd21439447139bed5a374a0f62ecc0fbd38cf2687d4ed5d587cb55dfbd4258836040516116e491906122fa565b60405180910390a16040518060400160405280600581526020017f416464656400000000000000000000000000000000000000000000000000000081525090505b92915050565b60606005805490508211806117405750600082105b15611782576040518060400160405280601681526020017f496e646578206973206f7574206f6620626f756e6473000000000000000000008152509050611a41565b600115156005838154811061179357fe5b906000526020600020906008020160070160009054906101000a900460ff16151514156117da5760405180606001604052806021815260200161286e602191399050611a41565b60001515600583815481106117eb57fe5b906000526020600020906008020160070160009054906101000a900460ff1615151461184c576040517f08c379a000000000000000000000000000000000000000000000000000000000815260040161184390612554565b60405180910390fd5b6005805490508210611893576040517f08c379a000000000000000000000000000000000000000000000000000000000815260040161188a906125b4565b60405180910390fd5b6000600583815481106118a257fe5b906000526020600020906008020160010160009054906101000a900473ffffffffffffffffffffffffffffffffffffffff1690508073ffffffffffffffffffffffffffffffffffffffff166108fc600585815481106118fd57fe5b9060005260206000209060080201600201549081150290604051600060405180830381858888f1935050505015801561193a573d6000803e3d6000fd5b507f2f03f1395f971b1f02ef2bc5afe3dcaadb5138627f8f45633cefd28f1a5f7e456005848154811061196957fe5b906000526020600020906008020160010160009054906101000a900473ffffffffffffffffffffffffffffffffffffffff16600585815481106119a857fe5b9060005260206000209060080201600201546040516119c89291906123fa565b60405180910390a16001600584815481106119df57fe5b906000526020600020906008020160070160006101000a81548160ff0219169083151502179055506040518060400160405280601581526020017f5472616e73616374696f6e20436f6d706c6574656400000000000000000000008152509150505b919050565b828054600181600116156101000203166002900490600052602060002090601f016020900481019282601f10611a8757805160ff1916838001178555611ab5565b82800160010185558215611ab5579182015b82811115611ab4578251825591602001919060010190611a99565b5b509050611ac29190611b46565b5090565b828054600181600116156101000203166002900490600052602060002090601f016020900481019282601f10611b0757805160ff1916838001178555611b35565b82800160010185558215611b35579182015b82811115611b34578251825591602001919060010190611b19565b5b509050611b429190611b46565b5090565b611b6891905b80821115611b64576000816000905550600101611b4c565b5090565b90565b600081359050611b7a816127d5565b92915050565b600081359050611b8f816127ec565b92915050565b600082601f830112611ba657600080fd5b8135611bb9611bb48261261c565b6125ef565b91508082526020830160208301858383011115611bd557600080fd5b611be0838284612782565b50505092915050565b600081359050611bf881612803565b92915050565b600080600060608486031215611c1357600080fd5b6000611c2186828701611b80565b9350506020611c3286828701611be9565b9250506040611c4386828701611be9565b9150509250925092565b60008060408385031215611c6057600080fd5b6000611c6e85828601611b6b565b925050602083013567ffffffffffffffff811115611c8b57600080fd5b611c9785828601611b95565b9150509250929050565b600060208284031215611cb357600080fd5b600082013567ffffffffffffffff811115611ccd57600080fd5b611cd984828501611b95565b91505092915050565b600060208284031215611cf457600080fd5b6000611d0284828501611be9565b91505092915050565b6000611d1783836121ef565b905092915050565b6000611d2b838361229f565b905092915050565b611d3c8161274c565b82525050565b611d4b81612704565b82525050565b611d5a81612704565b82525050565b611d69816126f2565b82525050565b611d78816126f2565b82525050565b6000611d8982612668565b611d9381856126ae565b935083602082028501611da585612648565b8060005b85811015611de15784840389528151611dc28582611d0b565b9450611dcd83612694565b925060208a01995050600181019050611da9565b50829750879550505050505092915050565b6000611dfe82612673565b611e0881856126bf565b935083602082028501611e1a85612658565b8060005b85811015611e565784840389528151611e378582611d1f565b9450611e42836126a1565b925060208a01995050600181019050611e1e565b50829750879550505050505092915050565b611e7181612716565b82525050565b611e8081612716565b82525050565b6000611e9182612689565b611e9b81856126e1565b9350611eab818560208601612791565b611eb4816127c4565b840191505092915050565b6000611eca8261267e565b611ed481856126d0565b9350611ee4818560208601612791565b611eed816127c4565b840191505092915050565b6000611f038261267e565b611f0d81856126e1565b9350611f1d818560208601612791565b611f26816127c4565b840191505092915050565b6000611f3e6015836126e1565b91507f53656e646572206e6f7420617574686f72697a656400000000000000000000006000830152602082019050919050565b6000611f7e602f836126e1565b91507f5468697320616464726573732068617320616c7265616479207369676e65642060008301527f746865207472616e73616374696f6e00000000000000000000000000000000006020830152604082019050919050565b6000611fe46024836126e1565b91507f546869732061646472657373206973206e6f7420616e2074686520776869746560008301527f6c697374000000000000000000000000000000000000000000000000000000006020830152604082019050919050565b600061204a6024836126e1565b91507f546869732061646472657373206973206e6f74206f6e2074686520776869746560008301527f6c697374000000000000000000000000000000000000000000000000000000006020830152604082019050919050565b60006120b06021836126e1565b91507f5472616e73616374696f6e2068617320616c7265616479206265656e2073656e60008301527f74000000000000000000000000000000000000000000000000000000000000006020830152604082019050919050565b60006121166022836126e1565b91507f4e6f7420656e6f7567682065746820746f2073656e64207472616e736163746960008301527f6f6e0000000000000000000000000000000000000000000000000000000000006020830152604082019050919050565b600061217c600d836126e1565b91507f416c7265616479206164646564000000000000000000000000000000000000006000830152602082019050919050565b60006121bc6016836126e1565b91507f496e646578206973206f7574206f6620626f756e6473000000000000000000006000830152602082019050919050565b6000610100830160008301516122086000860182611d42565b50602083015161221b6020860182611d42565b50604083015161222e60408601826122dc565b50606083015161224160608601826122dc565b50608083015161225460808601826122dc565b5060a083015161226760a08601826122dc565b5060c083015184820360c086015261227f8282611ebf565b91505060e083015161229460e0860182611e68565b508091505092915050565b60006040830160008301516122b76000860182611d60565b50602083015184820360208601526122cf8282611ebf565b9150508091505092915050565b6122e581612742565b82525050565b6122f481612742565b82525050565b600060208201905061230f6000830184611d6f565b92915050565b600060208201905061232a6000830184611d33565b92915050565b60006080820190506123456000830187611d33565b6123526020830186611d33565b61235f60408301856122eb565b61236c60608301846122eb565b95945050505050565b60006101008201905061238b600083018b611d51565b612398602083018a611d51565b6123a560408301896122eb565b6123b260608301886122eb565b6123bf60808301876122eb565b6123cc60a08301866122eb565b81810360c08301526123de8185611ef8565b90506123ed60e0830184611e77565b9998505050505050505050565b600060408201905061240f6000830185611d33565b61241c60208301846122eb565b9392505050565b60006040820190506124386000830185611d6f565b818103602083015261244a8184611ef8565b90509392505050565b6000602082019050818103600083015261246d8184611d7e565b905092915050565b6000602082019050818103600083015261248f8184611df3565b905092915050565b60006020820190506124ac6000830184611e77565b92915050565b600060208201905081810360008301526124cc8184611e86565b905092915050565b600060208201905081810360008301526124ed81611f31565b9050919050565b6000602082019050818103600083015261250d81611f71565b9050919050565b6000602082019050818103600083015261252d81611fd7565b9050919050565b6000602082019050818103600083015261254d8161203d565b9050919050565b6000602082019050818103600083015261256d816120a3565b9050919050565b6000602082019050818103600083015261258d81612109565b9050919050565b600060208201905081810360008301526125ad8161216f565b9050919050565b600060208201905081810360008301526125cd816121af565b9050919050565b60006020820190506125e960008301846122eb565b92915050565b6000604051905081810181811067ffffffffffffffff8211171561261257600080fd5b8060405250919050565b600067ffffffffffffffff82111561263357600080fd5b601f19601f8301169050602081019050919050565b6000819050602082019050919050565b6000819050602082019050919050565b600081519050919050565b600081519050919050565b600081519050919050565b600081519050919050565b6000602082019050919050565b6000602082019050919050565b600082825260208201905092915050565b600082825260208201905092915050565b600082825260208201905092915050565b600082825260208201905092915050565b60006126fd82612722565b9050919050565b600061270f82612722565b9050919050565b60008115159050919050565b600073ffffffffffffffffffffffffffffffffffffffff82169050919050565b6000819050919050565b60006127578261275e565b9050919050565b600061276982612770565b9050919050565b600061277b82612722565b9050919050565b82818337600083830152505050565b60005b838110156127af578082015181840152602081019050612794565b838111156127be576000848401525b50505050565b6000601f19601f8301169050919050565b6127de816126f2565b81146127e957600080fd5b50565b6127f581612704565b811461280057600080fd5b50565b61280c81612742565b811461281757600080fd5b5056fe5468697320616464726573732068617320616c7265616479207369676e656420746865207472616e73616374696f6e546869732061646472657373206973206e6f74206f6e207468652077686974656c6973745472616e73616374696f6e2068617320616c7265616479206265656e2073656e74a365627a7a723158206996d281195bccea2181a3566f9ecde1676e5ccec78180e0bcf51a950722d52e6c6578706572696d656e74616cf564736f6c63430005100040",
  "source": "pragma solidity ^0.5.16;\r\npragma experimental ABIEncoderV2;\r\n\r\n\r\ncontract MultiSig {\r\n    // Basic Contract data for ownership and nonce\r\n    address public owner;\r\n    uint256 public nonce;\r\n\r\n    struct whitelistData {\r\n        address whiteAdd;\r\n        string email;\r\n    }\r\n\r\n    // WhiteList info\r\n    whitelistData[] public whitelistAdd;\r\n    mapping(address => bool) whitelist;\r\n\r\n    // Structs for transactions\r\n    struct transactionData {\r\n        address payable from;\r\n        address payable to;\r\n        uint256 amount;\r\n        uint256 nonceTrans;\r\n        uint256 threshold;\r\n        uint256 numSigs;\r\n        string txHash;\r\n        bool complete;\r\n    }\r\n    mapping(uint256 => mapping(address => bool)) signedList;\r\n\r\n    // Arrays for transactions\r\n    transactionData[] public transactions;\r\n\r\n    // Events to emmit\r\n    event transactionCreated(address, address, uint256, uint256);\r\n    event SignedTransact(address);\r\n    event AddedWhiteList(address);\r\n    event transactionOccured(address, uint256);\r\n\r\n    constructor(string memory name) public {\r\n        // Make the owner address that deploys contract\r\n        owner = msg.sender;\r\n        nonce = 0;\r\n\r\n        // Add to white list for owner to sign\r\n        addAddress(msg.sender, name);\r\n    }\r\n\r\n    function getTransactions()\r\n        external\r\n        view\r\n        returns (transactionData[] memory transArr)\r\n    {\r\n        return transactions;\r\n    }\r\n\r\n    function getWhitelistAdd()\r\n        external\r\n        view\r\n        returns (whitelistData[] memory whitelistArr)\r\n    {\r\n        return whitelistAdd;\r\n    }\r\n\r\n    function contractBalance() external view returns (uint256 balance) {\r\n        return address(this).balance;\r\n    }\r\n\r\n    function setHash(string memory txHash_in) public returns (bool success) {\r\n        transactions[transactions.length - 1].txHash = txHash_in;\r\n        return true;\r\n    }\r\n\r\n    // Adds address to whitelist so entity has signing ability\r\n    function addAddress(address newAddress, string memory name)\r\n        public\r\n        returns (string memory status)\r\n    {\r\n        // If statements to ensure owner adding signers\r\n        if (whitelist[msg.sender] == false && owner != msg.sender) {\r\n            return \"Sender not authorized\";\r\n        }\r\n\r\n        if (whitelist[newAddress] == true) {\r\n            return \"Already added\";\r\n        }\r\n\r\n        require(\r\n            whitelist[msg.sender] == true || owner == msg.sender,\r\n            \"Sender not authorized\"\r\n        );\r\n        require(whitelist[newAddress] == false, \"Already added\");\r\n\r\n        // Give address signing ability and emit event\r\n        whitelistAdd.push(whitelistData(newAddress, name)); // add the new address to list of whitelist addresses\r\n        whitelist[newAddress] = true;\r\n\r\n        emit AddedWhiteList(newAddress);\r\n        return \"Added\";\r\n    }\r\n\r\n    function setupTransaction(\r\n        address payable _paymentReciever,\r\n        uint256 _threshold,\r\n        uint256 _amount\r\n    ) external payable returns (string memory status) {\r\n        require(msg.value == _amount, \"Not enough eth to send transaction\");\r\n\r\n        if (whitelist[msg.sender] == false) {\r\n            msg.sender.transfer(_amount);\r\n            return \"This address is not on the whitelist\";\r\n        }\r\n\r\n        require(\r\n            whitelist[msg.sender] == true,\r\n            \"This address is not an the whitelist\"\r\n        );\r\n\r\n        transactions.push(\r\n            transactionData(\r\n                msg.sender,\r\n                _paymentReciever,\r\n                _amount,\r\n                nonce,\r\n                _threshold,\r\n                0,\r\n                \"\",\r\n                false\r\n            )\r\n        );\r\n\r\n        emit transactionCreated(\r\n            msg.sender,\r\n            _paymentReciever,\r\n            nonce,\r\n            _threshold\r\n        );\r\n        signTransaction(transactions.length - 1);\r\n\r\n        nonce++;\r\n        return \"Transaction Started\";\r\n    }\r\n\r\n    // Msg.sender signs transaction\r\n    function signTransaction(uint256 index)\r\n        public\r\n        returns (string memory status)\r\n    {\r\n        // Makes sure sender is on whitelist and has not signed yet\r\n        if (index > transactions.length || index < 0) {\r\n            return \"Index is out of bounds\";\r\n        }\r\n\r\n        if (transactions[index].complete == true) {\r\n            return \"Transaction has already been sent\";\r\n        }\r\n\r\n        if (whitelist[msg.sender] == false) {\r\n            return \"This address is not on the whitelist\";\r\n        }\r\n\r\n        if (signedList[transactions[index].nonceTrans][msg.sender] == true) {\r\n            return \"This address has already signed the transaction\";\r\n        }\r\n\r\n        require(\r\n            transactions[index].complete == false,\r\n            \"Transaction has already been sent\"\r\n        );\r\n        require(index < transactions.length, \"Index is out of bounds\");\r\n        require(\r\n            whitelist[msg.sender] == true,\r\n            \"This address is not on the whitelist\"\r\n        );\r\n        require(\r\n            signedList[transactions[index].nonceTrans][msg.sender] == false,\r\n            \"This address has already signed the transaction\"\r\n        );\r\n\r\n        // Increment num of signatures on transact and approve on signedList\r\n        signedList[transactions[index].nonceTrans][msg.sender] = true;\r\n        transactions[index].numSigs += 1;\r\n        emit SignedTransact(msg.sender);\r\n\r\n        return checkStatus(index);\r\n    }\r\n\r\n    function handlePayment(uint256 index)\r\n        private\r\n        returns (string memory status)\r\n    {\r\n        if (index > transactions.length || index < 0) {\r\n            return \"Index is out of bounds\";\r\n        }\r\n\r\n        if (transactions[index].complete == true) {\r\n            return \"Transaction has already been sent\";\r\n        }\r\n\r\n        require(\r\n            transactions[index].complete == false,\r\n            \"Transaction has already been sent\"\r\n        );\r\n        require(index < transactions.length, \"Index is out of bounds\");\r\n\r\n        address payable reciever = transactions[index].to;\r\n        reciever.transfer(transactions[index].amount);\r\n\r\n        emit transactionOccured(\r\n            transactions[index].to,\r\n            transactions[index].amount\r\n        );\r\n        transactions[index].complete = true;\r\n\r\n        return \"Transaction Completed\";\r\n    }\r\n\r\n    function checkStatus(uint256 index)\r\n        public\r\n        payable\r\n        returns (string memory status)\r\n    {\r\n        if (index > transactions.length || index < 0) {\r\n            return \"Index is out of bounds\";\r\n        }\r\n\r\n        if (transactions[index].numSigs >= transactions[index].threshold) {\r\n            return handlePayment(index);\r\n        }\r\n\r\n        return \"Signed\";\r\n    }\r\n}\r\n",
  "sourcePath": "C:\\Users\\spvye\\Documents\\Fortmatic\\intern-project\\contract\\contracts\\MultiSig.sol",
  "compiler": {
    "name": "solc",
    "version": "0.5.16+commit.9c3226ce.Emscripten.clang"
  },
  "schemaVersion": "3.0.23",
  "updatedAt": "2020-04-21T01:58:34.228Z",
  "devdoc": {
    "methods": {}
  },
  "userdoc": {
    "methods": {}
  }
}