{
  "contractName": "MultiSig",
  "abi": [
    {
      "inputs": [
        {
          "internalType": "string",
          "name": "name",
          "type": "string"
        }
      ],
      "payable": false,
      "stateMutability": "nonpayable",
      "type": "constructor"
    },
    {
      "anonymous": false,
      "inputs": [
        {
          "indexed": false,
          "internalType": "address",
          "name": "",
          "type": "address"
        }
      ],
      "name": "AddedWhiteList",
      "type": "event"
    },
    {
      "anonymous": false,
      "inputs": [
        {
          "indexed": false,
          "internalType": "address",
          "name": "",
          "type": "address"
        }
      ],
      "name": "SignedTransact",
      "type": "event"
    },
    {
      "anonymous": false,
      "inputs": [
        {
          "indexed": false,
          "internalType": "address",
          "name": "",
          "type": "address"
        },
        {
          "indexed": false,
          "internalType": "address",
          "name": "",
          "type": "address"
        },
        {
          "indexed": false,
          "internalType": "uint256",
          "name": "",
          "type": "uint256"
        },
        {
          "indexed": false,
          "internalType": "uint256",
          "name": "",
          "type": "uint256"
        }
      ],
      "name": "transactionCreated",
      "type": "event"
    },
    {
      "anonymous": false,
      "inputs": [
        {
          "indexed": false,
          "internalType": "address",
          "name": "",
          "type": "address"
        },
        {
          "indexed": false,
          "internalType": "uint256",
          "name": "",
          "type": "uint256"
        }
      ],
      "name": "transactionOccured",
      "type": "event"
    },
    {
      "constant": true,
      "inputs": [
        {
          "internalType": "uint256",
          "name": "",
          "type": "uint256"
        }
      ],
      "name": "ethTxHashes",
      "outputs": [
        {
          "internalType": "string",
          "name": "",
          "type": "string"
        }
      ],
      "payable": false,
      "stateMutability": "view",
      "type": "function"
    },
    {
      "constant": true,
      "inputs": [],
      "name": "nonce",
      "outputs": [
        {
          "internalType": "uint256",
          "name": "",
          "type": "uint256"
        }
      ],
      "payable": false,
      "stateMutability": "view",
      "type": "function"
    },
    {
      "constant": true,
      "inputs": [],
      "name": "owner",
      "outputs": [
        {
          "internalType": "address",
          "name": "",
          "type": "address"
        }
      ],
      "payable": false,
      "stateMutability": "view",
      "type": "function"
    },
    {
      "constant": true,
      "inputs": [
        {
          "internalType": "uint256",
          "name": "",
          "type": "uint256"
        }
      ],
      "name": "pendingTransactions",
      "outputs": [
        {
          "components": [
            {
              "internalType": "address payable",
              "name": "from",
              "type": "address"
            },
            {
              "internalType": "address payable",
              "name": "to",
              "type": "address"
            },
            {
              "internalType": "uint256",
              "name": "amount",
              "type": "uint256"
            },
            {
              "internalType": "uint256",
              "name": "nonceTrans",
              "type": "uint256"
            },
            {
              "internalType": "uint256",
              "name": "threshold",
              "type": "uint256"
            }
          ],
          "internalType": "struct MultiSig.transactionData",
          "name": "txnData",
          "type": "tuple"
        },
        {
          "internalType": "uint256",
          "name": "numSigs",
          "type": "uint256"
        },
        {
          "internalType": "bytes32",
          "name": "txHash",
          "type": "bytes32"
        }
      ],
      "payable": false,
      "stateMutability": "view",
      "type": "function"
    },
    {
      "constant": true,
      "inputs": [
        {
          "internalType": "uint256",
          "name": "",
          "type": "uint256"
        }
      ],
      "name": "transactions",
      "outputs": [
        {
          "internalType": "address payable",
          "name": "from",
          "type": "address"
        },
        {
          "internalType": "address payable",
          "name": "to",
          "type": "address"
        },
        {
          "internalType": "uint256",
          "name": "amount",
          "type": "uint256"
        },
        {
          "internalType": "uint256",
          "name": "nonceTrans",
          "type": "uint256"
        },
        {
          "internalType": "uint256",
          "name": "threshold",
          "type": "uint256"
        }
      ],
      "payable": false,
      "stateMutability": "view",
      "type": "function"
    },
    {
      "constant": true,
      "inputs": [
        {
          "internalType": "address",
          "name": "",
          "type": "address"
        }
      ],
      "name": "whitelist",
      "outputs": [
        {
          "internalType": "bool",
          "name": "",
          "type": "bool"
        }
      ],
      "payable": false,
      "stateMutability": "view",
      "type": "function"
    },
    {
      "constant": true,
      "inputs": [
        {
          "internalType": "uint256",
          "name": "",
          "type": "uint256"
        }
      ],
      "name": "whitelistAdd",
      "outputs": [
        {
          "internalType": "address",
          "name": "whiteAdd",
          "type": "address"
        },
        {
          "internalType": "string",
          "name": "email",
          "type": "string"
        }
      ],
      "payable": false,
      "stateMutability": "view",
      "type": "function"
    },
    {
      "constant": true,
      "inputs": [],
      "name": "getWhitelistAdd",
      "outputs": [
        {
          "components": [
            {
              "internalType": "address",
              "name": "whiteAdd",
              "type": "address"
            },
            {
              "internalType": "string",
              "name": "email",
              "type": "string"
            }
          ],
          "internalType": "struct MultiSig.whitelistData[]",
          "name": "whitelistArr",
          "type": "tuple[]"
        }
      ],
      "payable": false,
      "stateMutability": "view",
      "type": "function"
    },
    {
      "constant": true,
      "inputs": [],
      "name": "getPendingTx",
      "outputs": [
        {
          "components": [
            {
              "components": [
                {
                  "internalType": "address payable",
                  "name": "from",
                  "type": "address"
                },
                {
                  "internalType": "address payable",
                  "name": "to",
                  "type": "address"
                },
                {
                  "internalType": "uint256",
                  "name": "amount",
                  "type": "uint256"
                },
                {
                  "internalType": "uint256",
                  "name": "nonceTrans",
                  "type": "uint256"
                },
                {
                  "internalType": "uint256",
                  "name": "threshold",
                  "type": "uint256"
                }
              ],
              "internalType": "struct MultiSig.transactionData",
              "name": "txnData",
              "type": "tuple"
            },
            {
              "internalType": "uint256",
              "name": "numSigs",
              "type": "uint256"
            },
            {
              "internalType": "bytes32",
              "name": "txHash",
              "type": "bytes32"
            }
          ],
          "internalType": "struct MultiSig.pendingData[]",
          "name": "pending",
          "type": "tuple[]"
        }
      ],
      "payable": false,
      "stateMutability": "view",
      "type": "function"
    },
    {
      "constant": true,
      "inputs": [],
      "name": "contractBalance",
      "outputs": [
        {
          "internalType": "uint256",
          "name": "balance",
          "type": "uint256"
        }
      ],
      "payable": false,
      "stateMutability": "view",
      "type": "function"
    },
    {
      "constant": true,
      "inputs": [],
      "name": "getHashes",
      "outputs": [
        {
          "internalType": "string[]",
          "name": "hashes",
          "type": "string[]"
        }
      ],
      "payable": false,
      "stateMutability": "view",
      "type": "function"
    },
    {
      "constant": false,
      "inputs": [
        {
          "internalType": "string",
          "name": "txHash",
          "type": "string"
        }
      ],
      "name": "setHash",
      "outputs": [
        {
          "internalType": "bool",
          "name": "success",
          "type": "bool"
        }
      ],
      "payable": false,
      "stateMutability": "nonpayable",
      "type": "function"
    },
    {
      "constant": false,
      "inputs": [
        {
          "internalType": "address",
          "name": "newAddress",
          "type": "address"
        },
        {
          "internalType": "string",
          "name": "name",
          "type": "string"
        }
      ],
      "name": "addAddress",
      "outputs": [
        {
          "internalType": "bool",
          "name": "success",
          "type": "bool"
        }
      ],
      "payable": false,
      "stateMutability": "nonpayable",
      "type": "function"
    },
    {
      "constant": false,
      "inputs": [
        {
          "internalType": "address payable",
          "name": "_paymentReciever",
          "type": "address"
        },
        {
          "internalType": "uint256",
          "name": "_threshold",
          "type": "uint256"
        },
        {
          "internalType": "uint256",
          "name": "_amount",
          "type": "uint256"
        }
      ],
      "name": "setupTransaction",
      "outputs": [
        {
          "internalType": "uint256",
          "name": "",
          "type": "uint256"
        }
      ],
      "payable": true,
      "stateMutability": "payable",
      "type": "function"
    },
    {
      "constant": false,
      "inputs": [
        {
          "internalType": "uint256",
          "name": "index",
          "type": "uint256"
        }
      ],
      "name": "signTransaction",
      "outputs": [
        {
          "internalType": "bool",
          "name": "success",
          "type": "bool"
        }
      ],
      "payable": false,
      "stateMutability": "nonpayable",
      "type": "function"
    },
    {
      "constant": false,
      "inputs": [
        {
          "internalType": "uint256",
          "name": "index",
          "type": "uint256"
        }
      ],
      "name": "checkStatus",
      "outputs": [
        {
          "internalType": "bool",
          "name": "success",
          "type": "bool"
        }
      ],
      "payable": true,
      "stateMutability": "payable",
      "type": "function"
    }
  ],
  "bytecode": "0x60806040523480156200001157600080fd5b50604051620031c5380380620031c583398181016040526200003791908101906200042a565b336000806101000a81548173ffffffffffffffffffffffffffffffffffffffff021916908373ffffffffffffffffffffffffffffffffffffffff16021790555060006001819055506200009133826200009960201b60201c565b50506200063b565b60008060009054906101000a900473ffffffffffffffffffffffffffffffffffffffff1673ffffffffffffffffffffffffffffffffffffffff163373ffffffffffffffffffffffffffffffffffffffff16146200012d576040517f08c379a0000000000000000000000000000000000000000000000000000000008152600401620001249062000521565b60405180910390fd5b60001515600360008573ffffffffffffffffffffffffffffffffffffffff1673ffffffffffffffffffffffffffffffffffffffff16815260200190815260200160002060009054906101000a900460ff16151514620001c3576040517f08c379a0000000000000000000000000000000000000000000000000000000008152600401620001ba9062000543565b60405180910390fd5b600260405180604001604052808573ffffffffffffffffffffffffffffffffffffffff168152602001848152509080600181540180825580915050906001820390600052602060002090600202016000909192909190915060008201518160000160006101000a81548173ffffffffffffffffffffffffffffffffffffffff021916908373ffffffffffffffffffffffffffffffffffffffff1602179055506020820151816001019080519060200190620002809291906200031f565b505050506001600360008573ffffffffffffffffffffffffffffffffffffffff1673ffffffffffffffffffffffffffffffffffffffff16815260200190815260200160002060006101000a81548160ff0219169083151502179055507f64fd21439447139bed5a374a0f62ecc0fbd38cf2687d4ed5d587cb55dfbd4258836040516200030d919062000504565b60405180910390a16001905092915050565b828054600181600116156101000203166002900490600052602060002090601f016020900481019282601f106200036257805160ff191683800117855562000393565b8280016001018555821562000393579182015b828111156200039257825182559160200191906001019062000375565b5b509050620003a29190620003a6565b5090565b620003cb91905b80821115620003c7576000816000905550600101620003ad565b5090565b90565b600082601f830112620003e057600080fd5b8151620003f7620003f18262000593565b62000565565b915080825260208301602083018583830111156200041457600080fd5b6200042183828462000605565b50505092915050565b6000602082840312156200043d57600080fd5b600082015167ffffffffffffffff8111156200045857600080fd5b6200046684828501620003ce565b91505092915050565b6200047a81620005d1565b82525050565b60006200048f601583620005c0565b91507f53656e646572206e6f7420617574686f72697a656400000000000000000000006000830152602082019050919050565b6000620004d1600d83620005c0565b91507f416c7265616479206164646564000000000000000000000000000000000000006000830152602082019050919050565b60006020820190506200051b60008301846200046f565b92915050565b600060208201905081810360008301526200053c8162000480565b9050919050565b600060208201905081810360008301526200055e81620004c2565b9050919050565b6000604051905081810181811067ffffffffffffffff821117156200058957600080fd5b8060405250919050565b600067ffffffffffffffff821115620005ab57600080fd5b601f19601f8301169050602081019050919050565b600082825260208201905092915050565b6000620005de82620005e5565b9050919050565b600073ffffffffffffffffffffffffffffffffffffffff82169050919050565b60005b838110156200062557808201518184015260208101905062000608565b8381111562000635576000848401525b50505050565b612b7a806200064b6000396000f3fe6080604052600436106100f35760003560e01c80638b7afe2e1161008a5780639b19251a116100595780639b19251a14610379578063affed0e0146103b6578063d033c456146103e1578063e95597fc1461041e576100f3565b80638b7afe2e146102b75780638da5cb5b146102e257806395b52bdb1461030d5780639ace38c214610338576100f3565b80635d9ec210116100c65780635d9ec210146101c057806363a8374d146101fd57806365bc98931461023c5780638358844714610279576100f3565b80631ed83fd4146100f85780632858c764146101355780633d8c16de146101655780634245d48e14610195575b600080fd5b34801561010457600080fd5b5061011f600480360361011a9190810190611f97565b610449565b60405161012c9190612785565b60405180910390f35b61014f600480360361014a9190810190611fd8565b610493565b60405161015c9190612785565b60405180910390f35b61017f600480360361017a9190810190611ef4565b6104f5565b60405161018c91906128b9565b60405180910390f35b3480156101a157600080fd5b506101aa610a9c565b6040516101b7919061271f565b60405180910390f35b3480156101cc57600080fd5b506101e760048036036101e29190810190611fd8565b610b85565b6040516101f49190612785565b60405180910390f35b34801561020957600080fd5b50610224600480360361021f9190810190611fd8565b610dd7565b60405161023393929190612882565b60405180910390f35b34801561024857600080fd5b50610263600480360361025e9190810190611fd8565b610ee2565b60405161027091906127a0565b60405180910390f35b34801561028557600080fd5b506102a0600480360361029b9190810190611fd8565b610f9b565b6040516102ae9291906126ef565b60405180910390f35b3480156102c357600080fd5b506102cc611084565b6040516102d991906128b9565b60405180910390f35b3480156102ee57600080fd5b506102f761108c565b60405161030491906125f8565b60405180910390f35b34801561031957600080fd5b506103226110b1565b60405161032f9190612763565b60405180910390f35b34801561034457600080fd5b5061035f600480360361035a9190810190611fd8565b611208565b604051610370959493929190612673565b60405180910390f35b34801561038557600080fd5b506103a0600480360361039b9190810190611ecb565b61128b565b6040516103ad9190612785565b60405180910390f35b3480156103c257600080fd5b506103cb6112ab565b6040516103d891906128b9565b60405180910390f35b3480156103ed57600080fd5b5061040860048036036104039190810190611f43565b6112b1565b6040516104159190612785565b60405180910390f35b34801561042a57600080fd5b5061043361152d565b6040516104409190612741565b60405180910390f35b60006007829080600181540180825580915050906001820390600052602060002001600090919290919091509080519060200190610488929190611b1e565b505060019050919050565b6000600682815481106104a257fe5b906000526020600020906007020160000160040154600683815481106104c457fe5b906000526020600020906007020160050154106104eb576104e48261167e565b90506104f0565b600090505b919050565b6000813414610539576040517f08c379a000000000000000000000000000000000000000000000000000000000815260040161053090612842565b60405180910390fd5b60011515600360003373ffffffffffffffffffffffffffffffffffffffff1673ffffffffffffffffffffffffffffffffffffffff16815260200190815260200160002060009054906101000a900460ff161515146105cc576040517f08c379a00000000000000000000000000000000000000000000000000000000081526004016105c390612802565b60405180910390fd5b60056040518060a001604052803373ffffffffffffffffffffffffffffffffffffffff1681526020018673ffffffffffffffffffffffffffffffffffffffff1681526020018481526020016001548152602001858152509080600181540180825580915050906001820390600052602060002090600502016000909192909190915060008201518160000160006101000a81548173ffffffffffffffffffffffffffffffffffffffff021916908373ffffffffffffffffffffffffffffffffffffffff16021790555060208201518160010160006101000a81548173ffffffffffffffffffffffffffffffffffffffff021916908373ffffffffffffffffffffffffffffffffffffffff1602179055506040820151816002015560608201518160030155608082015181600401555050506006604051806060016040528060056001548154811061071957fe5b90600052602060002090600502016040518060a00160405290816000820160009054906101000a900473ffffffffffffffffffffffffffffffffffffffff1673ffffffffffffffffffffffffffffffffffffffff1673ffffffffffffffffffffffffffffffffffffffff1681526020016001820160009054906101000a900473ffffffffffffffffffffffffffffffffffffffff1673ffffffffffffffffffffffffffffffffffffffff1673ffffffffffffffffffffffffffffffffffffffff16815260200160028201548152602001600382015481526020016004820154815250508152602001600081526020016109356001546005805480602002602001604051908101604052809291908181526020016000905b8282101561092c57838290600052602060002090600502016040518060a00160405290816000820160009054906101000a900473ffffffffffffffffffffffffffffffffffffffff1673ffffffffffffffffffffffffffffffffffffffff1673ffffffffffffffffffffffffffffffffffffffff1681526020016001820160009054906101000a900473ffffffffffffffffffffffffffffffffffffffff1673ffffffffffffffffffffffffffffffffffffffff1673ffffffffffffffffffffffffffffffffffffffff168152602001600282015481526020016003820154815260200160048201548152505081526020019060010190610830565b50505050611a6d565b8152509080600181540180825580915050906001820390600052602060002090600702016000909192909190915060008201518160000160008201518160000160006101000a81548173ffffffffffffffffffffffffffffffffffffffff021916908373ffffffffffffffffffffffffffffffffffffffff16021790555060208201518160010160006101000a81548173ffffffffffffffffffffffffffffffffffffffff021916908373ffffffffffffffffffffffffffffffffffffffff160217905550604082015181600201556060820151816003015560808201518160040155505060208201518160050155604082015181600601555050507fc5094f20ddbb9bda2b4d1b39f78d7d784f323b721a2a8f32456a45d3dfb716d8338560015486604051610a68949392919061262e565b60405180910390a1610a7b600154610b85565b50600160008154809291906001019190505550600180540390509392505050565b60606007805480602002602001604051908101604052809291908181526020016000905b82821015610b7c578382906000526020600020018054600181600116156101000203166002900480601f016020809104026020016040519081016040528092919081815260200182805460018160011615610100020316600290048015610b685780601f10610b3d57610100808354040283529160200191610b68565b820191906000526020600020905b815481529060010190602001808311610b4b57829003601f168201915b505050505081526020019060010190610ac0565b50505050905090565b600060011515600360003373ffffffffffffffffffffffffffffffffffffffff1673ffffffffffffffffffffffffffffffffffffffff16815260200190815260200160002060009054906101000a900460ff16151514610c1a576040517f08c379a0000000000000000000000000000000000000000000000000000000008152600401610c1190612822565b60405180910390fd5b600015156004600060068581548110610c2f57fe5b906000526020600020906007020160060154815260200190815260200160002060003373ffffffffffffffffffffffffffffffffffffffff1673ffffffffffffffffffffffffffffffffffffffff16815260200190815260200160002060009054906101000a900460ff16151514610cdc576040517f08c379a0000000000000000000000000000000000000000000000000000000008152600401610cd3906127e2565b60405180910390fd5b60016004600060068581548110610cef57fe5b906000526020600020906007020160060154815260200190815260200160002060003373ffffffffffffffffffffffffffffffffffffffff1673ffffffffffffffffffffffffffffffffffffffff16815260200190815260200160002060006101000a81548160ff021916908315150217905550600160068381548110610d7257fe5b9060005260206000209060070201600501600082825401925050819055507f827bfe95984eb396b6d8ff47200bd671835f5a6d87dc4bad10d2dbd4fe6355a333604051610dbf9190612613565b60405180910390a1610dd082610493565b9050919050565b60068181548110610de457fe5b9060005260206000209060070201600091509050806000016040518060a00160405290816000820160009054906101000a900473ffffffffffffffffffffffffffffffffffffffff1673ffffffffffffffffffffffffffffffffffffffff1673ffffffffffffffffffffffffffffffffffffffff1681526020016001820160009054906101000a900473ffffffffffffffffffffffffffffffffffffffff1673ffffffffffffffffffffffffffffffffffffffff1673ffffffffffffffffffffffffffffffffffffffff1681526020016002820154815260200160038201548152602001600482015481525050908060050154908060060154905083565b60078181548110610eef57fe5b906000526020600020016000915090508054600181600116156101000203166002900480601f016020809104026020016040519081016040528092919081815260200182805460018160011615610100020316600290048015610f935780601f10610f6857610100808354040283529160200191610f93565b820191906000526020600020905b815481529060010190602001808311610f7657829003601f168201915b505050505081565b60028181548110610fa857fe5b90600052602060002090600202016000915090508060000160009054906101000a900473ffffffffffffffffffffffffffffffffffffffff1690806001018054600181600116156101000203166002900480601f01602080910402602001604051908101604052809291908181526020018280546001816001161561010002031660029004801561107a5780601f1061104f5761010080835404028352916020019161107a565b820191906000526020600020905b81548152906001019060200180831161105d57829003601f168201915b5050505050905082565b600047905090565b6000809054906101000a900473ffffffffffffffffffffffffffffffffffffffff1681565b60606002805480602002602001604051908101604052809291908181526020016000905b828210156111ff57838290600052602060002090600202016040518060400160405290816000820160009054906101000a900473ffffffffffffffffffffffffffffffffffffffff1673ffffffffffffffffffffffffffffffffffffffff1673ffffffffffffffffffffffffffffffffffffffff168152602001600182018054600181600116156101000203166002900480601f0160208091040260200160405190810160405280929190818152602001828054600181600116156101000203166002900480156111e75780601f106111bc576101008083540402835291602001916111e7565b820191906000526020600020905b8154815290600101906020018083116111ca57829003601f168201915b505050505081525050815260200190600101906110d5565b50505050905090565b6005818154811061121557fe5b90600052602060002090600502016000915090508060000160009054906101000a900473ffffffffffffffffffffffffffffffffffffffff16908060010160009054906101000a900473ffffffffffffffffffffffffffffffffffffffff16908060020154908060030154908060040154905085565b60036020528060005260406000206000915054906101000a900460ff1681565b60015481565b60008060009054906101000a900473ffffffffffffffffffffffffffffffffffffffff1673ffffffffffffffffffffffffffffffffffffffff163373ffffffffffffffffffffffffffffffffffffffff1614611342576040517f08c379a0000000000000000000000000000000000000000000000000000000008152600401611339906127c2565b60405180910390fd5b60001515600360008573ffffffffffffffffffffffffffffffffffffffff1673ffffffffffffffffffffffffffffffffffffffff16815260200190815260200160002060009054906101000a900460ff161515146113d5576040517f08c379a00000000000000000000000000000000000000000000000000000000081526004016113cc90612862565b60405180910390fd5b600260405180604001604052808573ffffffffffffffffffffffffffffffffffffffff168152602001848152509080600181540180825580915050906001820390600052602060002090600202016000909192909190915060008201518160000160006101000a81548173ffffffffffffffffffffffffffffffffffffffff021916908373ffffffffffffffffffffffffffffffffffffffff1602179055506020820151816001019080519060200190611490929190611b9e565b505050506001600360008573ffffffffffffffffffffffffffffffffffffffff1673ffffffffffffffffffffffffffffffffffffffff16815260200190815260200160002060006101000a81548160ff0219169083151502179055507f64fd21439447139bed5a374a0f62ecc0fbd38cf2687d4ed5d587cb55dfbd42588360405161151b91906125f8565b60405180910390a16001905092915050565b60606006805480602002602001604051908101604052809291908181526020016000905b828210156116755783829060005260206000209060070201604051806060016040529081600082016040518060a00160405290816000820160009054906101000a900473ffffffffffffffffffffffffffffffffffffffff1673ffffffffffffffffffffffffffffffffffffffff1673ffffffffffffffffffffffffffffffffffffffff1681526020016001820160009054906101000a900473ffffffffffffffffffffffffffffffffffffffff1673ffffffffffffffffffffffffffffffffffffffff1673ffffffffffffffffffffffffffffffffffffffff168152602001600282015481526020016003820154815260200160048201548152505081526020016005820154815260200160068201548152505081526020019060010190611551565b50505050905090565b6000806006838154811061168e57fe5b906000526020600020906007020160000160010160009054906101000a900473ffffffffffffffffffffffffffffffffffffffff1690508073ffffffffffffffffffffffffffffffffffffffff166108fc600685815481106116ec57fe5b9060005260206000209060070201600001600201549081150290604051600060405180830381858888f1935050505015801561172c573d6000803e3d6000fd5b507f2f03f1395f971b1f02ef2bc5afe3dcaadb5138627f8f45633cefd28f1a5f7e456006848154811061175b57fe5b906000526020600020906007020160000160010160009054906101000a900473ffffffffffffffffffffffffffffffffffffffff166006858154811061179d57fe5b9060005260206000209060070201600001600201546040516117c09291906126c6565b60405180910390a16006600160068054905003815481106117dd57fe5b9060005260206000209060070201600684815481106117f857fe5b906000526020600020906007020160008201816000016000820160009054906101000a900473ffffffffffffffffffffffffffffffffffffffff168160000160006101000a81548173ffffffffffffffffffffffffffffffffffffffff021916908373ffffffffffffffffffffffffffffffffffffffff1602179055506001820160009054906101000a900473ffffffffffffffffffffffffffffffffffffffff168160010160006101000a81548173ffffffffffffffffffffffffffffffffffffffff021916908373ffffffffffffffffffffffffffffffffffffffff1602179055506002820154816002015560038201548160030155600482015481600401555050600582015481600501556006820154816006015590505060076001600780549050038154811061192857fe5b906000526020600020016007848154811061193f57fe5b906000526020600020019080546001816001161561010002031660029004611968929190611c1e565b5060066001600680549050038154811061197e57fe5b90600052602060002090600702016000808201600080820160006101000a81549073ffffffffffffffffffffffffffffffffffffffff02191690556001820160006101000a81549073ffffffffffffffffffffffffffffffffffffffff02191690556002820160009055600382016000905560048201600090555050600582016000905560068201600090555050600760016007805490500381548110611a2157fe5b906000526020600020016000611a379190611ca5565b6007805480919060019003611a4c9190611ced565b506006805480919060019003611a629190611d19565b506001915050919050565b600080828481518110611a7c57fe5b602002602001015160200151838581518110611a9457fe5b602002602001015160000151848681518110611aac57fe5b602002602001015160400151858781518110611ac457fe5b602002602001015160600151868881518110611adc57fe5b602002602001015160800151604051602001611afc959493929190612673565b6040516020818303038152906040528051906020012090508091505092915050565b828054600181600116156101000203166002900490600052602060002090601f016020900481019282601f10611b5f57805160ff1916838001178555611b8d565b82800160010185558215611b8d579182015b82811115611b8c578251825591602001919060010190611b71565b5b509050611b9a9190611d4b565b5090565b828054600181600116156101000203166002900490600052602060002090601f016020900481019282601f10611bdf57805160ff1916838001178555611c0d565b82800160010185558215611c0d579182015b82811115611c0c578251825591602001919060010190611bf1565b5b509050611c1a9190611d4b565b5090565b828054600181600116156101000203166002900490600052602060002090601f016020900481019282601f10611c575780548555611c94565b82800160010185558215611c9457600052602060002091601f016020900482015b82811115611c93578254825591600101919060010190611c78565b5b509050611ca19190611d4b565b5090565b50805460018160011615610100020316600290046000825580601f10611ccb5750611cea565b601f016020900490600052602060002090810190611ce99190611d4b565b5b50565b815481835581811115611d1457818360005260206000209182019101611d139190611d70565b5b505050565b815481835581811115611d4657600702816007028360005260206000209182019101611d459190611d9c565b5b505050565b611d6d91905b80821115611d69576000816000905550600101611d51565b5090565b90565b611d9991905b80821115611d955760008181611d8c9190611ca5565b50600101611d76565b5090565b90565b611e3591905b80821115611e31576000808201600080820160006101000a81549073ffffffffffffffffffffffffffffffffffffffff02191690556001820160006101000a81549073ffffffffffffffffffffffffffffffffffffffff021916905560028201600090556003820160009055600482016000905550506005820160009055600682016000905550600701611da2565b5090565b90565b600081359050611e4781612af2565b92915050565b600081359050611e5c81612b09565b92915050565b600082601f830112611e7357600080fd5b8135611e86611e8182612901565b6128d4565b91508082526020830160208301858383011115611ea257600080fd5b611ead838284612a9f565b50505092915050565b600081359050611ec581612b20565b92915050565b600060208284031215611edd57600080fd5b6000611eeb84828501611e38565b91505092915050565b600080600060608486031215611f0957600080fd5b6000611f1786828701611e4d565b9350506020611f2886828701611eb6565b9250506040611f3986828701611eb6565b9150509250925092565b60008060408385031215611f5657600080fd5b6000611f6485828601611e38565b925050602083013567ffffffffffffffff811115611f8157600080fd5b611f8d85828601611e62565b9150509250929050565b600060208284031215611fa957600080fd5b600082013567ffffffffffffffff811115611fc357600080fd5b611fcf84828501611e62565b91505092915050565b600060208284031215611fea57600080fd5b6000611ff884828501611eb6565b91505092915050565b600061200d8383612201565b905092915050565b6000612021838361248b565b60e08301905092915050565b6000612039838361259d565b905092915050565b61204a81612a69565b82525050565b61205981612a17565b82525050565b61206881612a17565b82525050565b61207781612a05565b82525050565b61208681612a05565b82525050565b60006120978261295d565b6120a181856129b0565b9350836020820285016120b38561292d565b8060005b858110156120ef57848403895281516120d08582612001565b94506120db83612989565b925060208a019950506001810190506120b7565b50829750879550505050505092915050565b600061210c82612968565b61211681856129c1565b93506121218361293d565b8060005b838110156121525781516121398882612015565b975061214483612996565b925050600181019050612125565b5085935050505092915050565b600061216a82612973565b61217481856129d2565b9350836020820285016121868561294d565b8060005b858110156121c257848403895281516121a3858261202d565b94506121ae836129a3565b925060208a0199505060018101905061218a565b50829750879550505050505092915050565b6121dd81612a29565b82525050565b6121ec81612a35565b82525050565b6121fb81612a35565b82525050565b600061220c8261297e565b61221681856129e3565b9350612226818560208601612aae565b61222f81612ae1565b840191505092915050565b60006122458261297e565b61224f81856129f4565b935061225f818560208601612aae565b61226881612ae1565b840191505092915050565b60006122806015836129f4565b91507f53656e646572206e6f7420617574686f72697a656400000000000000000000006000830152602082019050919050565b60006122c0602f836129f4565b91507f5468697320616464726573732068617320616c7265616479207369676e65642060008301527f746865207472616e73616374696f6e00000000000000000000000000000000006020830152604082019050919050565b60006123266024836129f4565b91507f546869732061646472657373206973206e6f7420616e2074686520776869746560008301527f6c697374000000000000000000000000000000000000000000000000000000006020830152604082019050919050565b600061238c6024836129f4565b91507f546869732061646472657373206973206e6f74206f6e2074686520776869746560008301527f6c697374000000000000000000000000000000000000000000000000000000006020830152604082019050919050565b60006123f26022836129f4565b91507f4e6f7420656e6f7567682065746820746f2073656e64207472616e736163746960008301527f6f6e0000000000000000000000000000000000000000000000000000000000006020830152604082019050919050565b6000612458600d836129f4565b91507f416c7265616479206164646564000000000000000000000000000000000000006000830152602082019050919050565b60e0820160008201516124a160008501826124cd565b5060208201516124b460a08501826125da565b5060408201516124c760c08501826121e3565b50505050565b60a0820160008201516124e36000850182612050565b5060208201516124f66020850182612050565b50604082015161250960408501826125da565b50606082015161251c60608501826125da565b50608082015161252f60808501826125da565b50505050565b60a08201600082015161254b6000850182612050565b50602082015161255e6020850182612050565b50604082015161257160408501826125da565b50606082015161258460608501826125da565b50608082015161259760808501826125da565b50505050565b60006040830160008301516125b5600086018261206e565b50602083015184820360208601526125cd8282612201565b9150508091505092915050565b6125e381612a5f565b82525050565b6125f281612a5f565b82525050565b600060208201905061260d600083018461207d565b92915050565b60006020820190506126286000830184612041565b92915050565b60006080820190506126436000830187612041565b6126506020830186612041565b61265d60408301856125e9565b61266a60608301846125e9565b95945050505050565b600060a082019050612688600083018861205f565b612695602083018761205f565b6126a260408301866125e9565b6126af60608301856125e9565b6126bc60808301846125e9565b9695505050505050565b60006040820190506126db6000830185612041565b6126e860208301846125e9565b9392505050565b6000604082019050612704600083018561207d565b8181036020830152612716818461223a565b90509392505050565b60006020820190508181036000830152612739818461208c565b905092915050565b6000602082019050818103600083015261275b8184612101565b905092915050565b6000602082019050818103600083015261277d818461215f565b905092915050565b600060208201905061279a60008301846121d4565b92915050565b600060208201905081810360008301526127ba818461223a565b905092915050565b600060208201905081810360008301526127db81612273565b9050919050565b600060208201905081810360008301526127fb816122b3565b9050919050565b6000602082019050818103600083015261281b81612319565b9050919050565b6000602082019050818103600083015261283b8161237f565b9050919050565b6000602082019050818103600083015261285b816123e5565b9050919050565b6000602082019050818103600083015261287b8161244b565b9050919050565b600060e0820190506128976000830186612535565b6128a460a08301856125e9565b6128b160c08301846121f2565b949350505050565b60006020820190506128ce60008301846125e9565b92915050565b6000604051905081810181811067ffffffffffffffff821117156128f757600080fd5b8060405250919050565b600067ffffffffffffffff82111561291857600080fd5b601f19601f8301169050602081019050919050565b6000819050602082019050919050565b6000819050602082019050919050565b6000819050602082019050919050565b600081519050919050565b600081519050919050565b600081519050919050565b600081519050919050565b6000602082019050919050565b6000602082019050919050565b6000602082019050919050565b600082825260208201905092915050565b600082825260208201905092915050565b600082825260208201905092915050565b600082825260208201905092915050565b600082825260208201905092915050565b6000612a1082612a3f565b9050919050565b6000612a2282612a3f565b9050919050565b60008115159050919050565b6000819050919050565b600073ffffffffffffffffffffffffffffffffffffffff82169050919050565b6000819050919050565b6000612a7482612a7b565b9050919050565b6000612a8682612a8d565b9050919050565b6000612a9882612a3f565b9050919050565b82818337600083830152505050565b60005b83811015612acc578082015181840152602081019050612ab1565b83811115612adb576000848401525b50505050565b6000601f19601f8301169050919050565b612afb81612a05565b8114612b0657600080fd5b50565b612b1281612a17565b8114612b1d57600080fd5b50565b612b2981612a5f565b8114612b3457600080fd5b5056fea365627a7a7231582099f93e4430d882ee6d37c5676ed8260532bbc03672218b4eab4621e279e0451d6c6578706572696d656e74616cf564736f6c63430005100040",
  "source": "pragma solidity ^0.5.16;\r\npragma experimental ABIEncoderV2;\r\n\r\ncontract MultiSig {\r\n    // Basic Contract data for ownership and nonce\r\n    address public owner;\r\n    uint256 public nonce;\r\n\r\n    struct whitelistData {\r\n        address whiteAdd;\r\n        string email;\r\n    }\r\n\r\n    // WhiteList info\r\n    whitelistData[] public whitelistAdd;\r\n    mapping(address => bool) public whitelist;\r\n\r\n    // Structs for transactions\r\n    struct transactionData {\r\n        address payable from;\r\n        address payable to;\r\n        uint256 amount;\r\n        uint256 nonceTrans;\r\n        uint256 threshold;\r\n    }\r\n\r\n    struct pendingData {\r\n        transactionData txnData;\r\n        uint256 numSigs;\r\n        bytes32 txHash;\r\n    }\r\n    mapping(bytes32 => mapping(address => bool)) signedList;\r\n\r\n    // Arrays for transactions\r\n    transactionData[] public transactions;\r\n    pendingData[] public pendingTransactions;\r\n    string[] public ethTxHashes;\r\n\r\n    // Events to emmit\r\n    event transactionCreated(address, address, uint256, uint256);\r\n    event SignedTransact(address);\r\n    event AddedWhiteList(address);\r\n    event transactionOccured(address, uint256);\r\n\r\n    constructor(string memory name) public {\r\n        // Make the owner address that deploys contract\r\n        owner = msg.sender;\r\n        nonce = 0;\r\n\r\n        // Add to white list for owner to sign\r\n        addAddress(msg.sender, name);\r\n    }\r\n\r\n    function getWhitelistAdd()\r\n        public\r\n        view\r\n        returns (whitelistData[] memory whitelistArr)\r\n    {\r\n        return whitelistAdd;\r\n    }\r\n\r\n    function getPendingTx()\r\n        external\r\n        view\r\n        returns (pendingData[] memory pending)\r\n    {\r\n        return pendingTransactions;\r\n    }\r\n\r\n    function contractBalance() external view returns (uint256 balance) {\r\n        return address(this).balance;\r\n    }\r\n\r\n    function getHashes() external view returns (string[] memory hashes) {\r\n        return ethTxHashes;\r\n    }\r\n\r\n    function setHash(string memory txHash) public returns (bool success) {\r\n        ethTxHashes.push(txHash);\r\n        return true;\r\n    }\r\n\r\n    // Adds address to whitelist so entity has signing ability\r\n    function addAddress(address newAddress, string memory name)\r\n        public\r\n        returns (bool success)\r\n    {\r\n        // Requires to ensure owner adding signers\r\n        require(msg.sender == owner, \"Sender not authorized\");\r\n        require(whitelist[newAddress] == false, \"Already added\");\r\n\r\n        // Give address signing ability and emit event\r\n        whitelistAdd.push(whitelistData(newAddress, name)); // add the new address to list of whitelist addresses\r\n        whitelist[newAddress] = true;\r\n\r\n        emit AddedWhiteList(newAddress);\r\n        return true;\r\n    }\r\n\r\n    function setupTransaction(\r\n        address payable _paymentReciever,\r\n        uint256 _threshold,\r\n        uint256 _amount\r\n    ) external payable returns (uint256) {\r\n        require(msg.value == _amount, \"Not enough eth to send transaction\");\r\n        require(\r\n            whitelist[msg.sender] == true,\r\n            \"This address is not an the whitelist\"\r\n        );\r\n\r\n        transactions.push(\r\n            transactionData(\r\n                msg.sender,\r\n                _paymentReciever,\r\n                _amount,\r\n                nonce,\r\n                _threshold\r\n            )\r\n        );\r\n\r\n        pendingTransactions.push(\r\n            pendingData(\r\n                transactions[nonce],\r\n                0,\r\n                encodeTransaction(nonce, transactions)\r\n            )\r\n        );\r\n\r\n        emit transactionCreated(\r\n            msg.sender,\r\n            _paymentReciever,\r\n            nonce,\r\n            _threshold\r\n        );\r\n        signTransaction(nonce);\r\n\r\n        nonce++;\r\n        return nonce - 1;\r\n    }\r\n\r\n    function encodeTransaction(uint256 index, transactionData[] memory txns)\r\n        internal\r\n        pure\r\n        returns (bytes32)\r\n    {\r\n        bytes32 tmp = keccak256(\r\n            abi.encode(\r\n                txns[index].to,\r\n                txns[index].from,\r\n                txns[index].amount,\r\n                txns[index].nonceTrans,\r\n                txns[index].threshold\r\n            )\r\n        );\r\n\r\n        return tmp;\r\n    }\r\n\r\n    // Msg.sender signs transaction\r\n    function signTransaction(uint256 index) public returns (bool success) {\r\n        // Makes sure sender is on whitelist and has not signed yet\r\n        require(\r\n            whitelist[msg.sender] == true,\r\n            \"This address is not on the whitelist\"\r\n        );\r\n        require(\r\n            signedList[pendingTransactions[index].txHash][msg.sender] == false,\r\n            \"This address has already signed the transaction\"\r\n        );\r\n\r\n        // Increment num of signatures on transact and approve on signedList\r\n        signedList[pendingTransactions[index].txHash][msg.sender] = true;\r\n        pendingTransactions[index].numSigs += 1;\r\n        emit SignedTransact(msg.sender);\r\n\r\n        return checkStatus(index);\r\n    }\r\n\r\n    function handlePayment(uint256 index) private returns (bool) {\r\n        address payable reciever = pendingTransactions[index].txnData.to;\r\n        reciever.transfer(pendingTransactions[index].txnData.amount);\r\n\r\n        emit transactionOccured(\r\n            pendingTransactions[index].txnData.to,\r\n            pendingTransactions[index].txnData.amount\r\n        );\r\n\r\n        pendingTransactions[index] = pendingTransactions[pendingTransactions\r\n            .length -\r\n            1];\r\n\r\n        ethTxHashes[index] = ethTxHashes[ethTxHashes.length - 1];\r\n\r\n        delete pendingTransactions[pendingTransactions.length - 1];\r\n        delete ethTxHashes[ethTxHashes.length - 1];\r\n\r\n        ethTxHashes.length--;\r\n        pendingTransactions.length--;\r\n\r\n        return true;\r\n    }\r\n\r\n    function checkStatus(uint256 index) public payable returns (bool success) {\r\n        if (\r\n            pendingTransactions[index].numSigs >=\r\n            pendingTransactions[index].txnData.threshold\r\n        ) {\r\n            return handlePayment(index);\r\n        }\r\n\r\n        return false;\r\n    }\r\n\r\n}\r\n",
  "sourcePath": "C:\\Users\\spvye\\Documents\\Fortmatic\\phantom\\contract\\contracts\\MultiSig.sol",
  "compiler": {
    "name": "solc",
    "version": "0.5.16+commit.9c3226ce.Emscripten.clang"
  },
  "schemaVersion": "3.0.23",
  "updatedAt": "2020-03-28T02:33:07.135Z",
  "devdoc": {
    "methods": {}
  },
  "userdoc": {
    "methods": {}
  }
}