{
  "contractName": "MultiSig",
  "abi": [
    {
      "inputs": [
        {
          "internalType": "string",
          "name": "name",
          "type": "string"
        }
      ],
      "payable": false,
      "stateMutability": "nonpayable",
      "type": "constructor"
    },
    {
      "anonymous": false,
      "inputs": [
        {
          "indexed": false,
          "internalType": "address",
          "name": "",
          "type": "address"
        }
      ],
      "name": "AddedWhiteList",
      "type": "event"
    },
    {
      "anonymous": false,
      "inputs": [
        {
          "indexed": false,
          "internalType": "address",
          "name": "",
          "type": "address"
        }
      ],
      "name": "SignedTransact",
      "type": "event"
    },
    {
      "anonymous": false,
      "inputs": [
        {
          "indexed": false,
          "internalType": "address",
          "name": "",
          "type": "address"
        },
        {
          "indexed": false,
          "internalType": "address",
          "name": "",
          "type": "address"
        },
        {
          "indexed": false,
          "internalType": "uint256",
          "name": "",
          "type": "uint256"
        },
        {
          "indexed": false,
          "internalType": "uint256",
          "name": "",
          "type": "uint256"
        }
      ],
      "name": "transactionCreated",
      "type": "event"
    },
    {
      "anonymous": false,
      "inputs": [
        {
          "indexed": false,
          "internalType": "address",
          "name": "",
          "type": "address"
        },
        {
          "indexed": false,
          "internalType": "uint256",
          "name": "",
          "type": "uint256"
        }
      ],
      "name": "transactionOccured",
      "type": "event"
    },
    {
      "constant": true,
      "inputs": [],
      "name": "nonce",
      "outputs": [
        {
          "internalType": "uint256",
          "name": "",
          "type": "uint256"
        }
      ],
      "payable": false,
      "stateMutability": "view",
      "type": "function"
    },
    {
      "constant": true,
      "inputs": [],
      "name": "owner",
      "outputs": [
        {
          "internalType": "address",
          "name": "",
          "type": "address"
        }
      ],
      "payable": false,
      "stateMutability": "view",
      "type": "function"
    },
    {
      "constant": true,
      "inputs": [
        {
          "internalType": "uint256",
          "name": "",
          "type": "uint256"
        }
      ],
      "name": "transactions",
      "outputs": [
        {
          "internalType": "address payable",
          "name": "from",
          "type": "address"
        },
        {
          "internalType": "address payable",
          "name": "to",
          "type": "address"
        },
        {
          "internalType": "uint256",
          "name": "amount",
          "type": "uint256"
        },
        {
          "internalType": "uint256",
          "name": "nonceTrans",
          "type": "uint256"
        },
        {
          "internalType": "uint256",
          "name": "threshold",
          "type": "uint256"
        },
        {
          "internalType": "uint256",
          "name": "numSigs",
          "type": "uint256"
        },
        {
          "internalType": "string",
          "name": "txHash",
          "type": "string"
        },
        {
          "internalType": "bool",
          "name": "complete",
          "type": "bool"
        }
      ],
      "payable": false,
      "stateMutability": "view",
      "type": "function"
    },
    {
      "constant": true,
      "inputs": [
        {
          "internalType": "uint256",
          "name": "",
          "type": "uint256"
        }
      ],
      "name": "whitelistAdd",
      "outputs": [
        {
          "internalType": "address",
          "name": "whiteAdd",
          "type": "address"
        },
        {
          "internalType": "string",
          "name": "email",
          "type": "string"
        }
      ],
      "payable": false,
      "stateMutability": "view",
      "type": "function"
    },
    {
      "constant": true,
      "inputs": [],
      "name": "getTransactions",
      "outputs": [
        {
          "components": [
            {
              "internalType": "address payable",
              "name": "from",
              "type": "address"
            },
            {
              "internalType": "address payable",
              "name": "to",
              "type": "address"
            },
            {
              "internalType": "uint256",
              "name": "amount",
              "type": "uint256"
            },
            {
              "internalType": "uint256",
              "name": "nonceTrans",
              "type": "uint256"
            },
            {
              "internalType": "uint256",
              "name": "threshold",
              "type": "uint256"
            },
            {
              "internalType": "uint256",
              "name": "numSigs",
              "type": "uint256"
            },
            {
              "internalType": "string",
              "name": "txHash",
              "type": "string"
            },
            {
              "internalType": "bool",
              "name": "complete",
              "type": "bool"
            }
          ],
          "internalType": "struct MultiSig.transactionData[]",
          "name": "transArr",
          "type": "tuple[]"
        }
      ],
      "payable": false,
      "stateMutability": "view",
      "type": "function"
    },
    {
      "constant": true,
      "inputs": [],
      "name": "getWhitelistAdd",
      "outputs": [
        {
          "components": [
            {
              "internalType": "address",
              "name": "whiteAdd",
              "type": "address"
            },
            {
              "internalType": "string",
              "name": "email",
              "type": "string"
            }
          ],
          "internalType": "struct MultiSig.whitelistData[]",
          "name": "whitelistArr",
          "type": "tuple[]"
        }
      ],
      "payable": false,
      "stateMutability": "view",
      "type": "function"
    },
    {
      "constant": true,
      "inputs": [],
      "name": "contractBalance",
      "outputs": [
        {
          "internalType": "uint256",
          "name": "balance",
          "type": "uint256"
        }
      ],
      "payable": false,
      "stateMutability": "view",
      "type": "function"
    },
    {
      "constant": false,
      "inputs": [
        {
          "internalType": "string",
          "name": "txHash_in",
          "type": "string"
        }
      ],
      "name": "setHash",
      "outputs": [
        {
          "internalType": "bool",
          "name": "success",
          "type": "bool"
        }
      ],
      "payable": false,
      "stateMutability": "nonpayable",
      "type": "function"
    },
    {
      "constant": false,
      "inputs": [
        {
          "internalType": "address",
          "name": "newAddress",
          "type": "address"
        },
        {
          "internalType": "string",
          "name": "name",
          "type": "string"
        }
      ],
      "name": "addAddress",
      "outputs": [
        {
          "internalType": "bool",
          "name": "success",
          "type": "bool"
        }
      ],
      "payable": false,
      "stateMutability": "nonpayable",
      "type": "function"
    },
    {
      "constant": false,
      "inputs": [
        {
          "internalType": "address payable",
          "name": "_paymentReciever",
          "type": "address"
        },
        {
          "internalType": "uint256",
          "name": "_threshold",
          "type": "uint256"
        },
        {
          "internalType": "uint256",
          "name": "_amount",
          "type": "uint256"
        }
      ],
      "name": "setupTransaction",
      "outputs": [
        {
          "internalType": "uint256",
          "name": "",
          "type": "uint256"
        }
      ],
      "payable": true,
      "stateMutability": "payable",
      "type": "function"
    },
    {
      "constant": false,
      "inputs": [
        {
          "internalType": "uint256",
          "name": "index",
          "type": "uint256"
        }
      ],
      "name": "signTransaction",
      "outputs": [
        {
          "internalType": "bool",
          "name": "success",
          "type": "bool"
        }
      ],
      "payable": false,
      "stateMutability": "nonpayable",
      "type": "function"
    },
    {
      "constant": false,
      "inputs": [
        {
          "internalType": "uint256",
          "name": "index",
          "type": "uint256"
        }
      ],
      "name": "checkStatus",
      "outputs": [
        {
          "internalType": "bool",
          "name": "success",
          "type": "bool"
        }
      ],
      "payable": true,
      "stateMutability": "payable",
      "type": "function"
    }
  ],
  "bytecode": "0x60806040523480156200001157600080fd5b50604051620028fd380380620028fd833981810160405262000037919081019062000486565b336000806101000a81548173ffffffffffffffffffffffffffffffffffffffff021916908373ffffffffffffffffffffffffffffffffffffffff16021790555060006001819055506200009133826200009960201b60201c565b505062000697565b600060011515600360003373ffffffffffffffffffffffffffffffffffffffff1673ffffffffffffffffffffffffffffffffffffffff16815260200190815260200160002060009054906101000a900460ff16151514806200014757503373ffffffffffffffffffffffffffffffffffffffff166000809054906101000a900473ffffffffffffffffffffffffffffffffffffffff1673ffffffffffffffffffffffffffffffffffffffff16145b62000189576040517f08c379a000000000000000000000000000000000000000000000000000000000815260040162000180906200057d565b60405180910390fd5b60001515600360008573ffffffffffffffffffffffffffffffffffffffff1673ffffffffffffffffffffffffffffffffffffffff16815260200190815260200160002060009054906101000a900460ff161515146200021f576040517f08c379a000000000000000000000000000000000000000000000000000000000815260040162000216906200059f565b60405180910390fd5b600260405180604001604052808573ffffffffffffffffffffffffffffffffffffffff168152602001848152509080600181540180825580915050906001820390600052602060002090600202016000909192909190915060008201518160000160006101000a81548173ffffffffffffffffffffffffffffffffffffffff021916908373ffffffffffffffffffffffffffffffffffffffff1602179055506020820151816001019080519060200190620002dc9291906200037b565b505050506001600360008573ffffffffffffffffffffffffffffffffffffffff1673ffffffffffffffffffffffffffffffffffffffff16815260200190815260200160002060006101000a81548160ff0219169083151502179055507f64fd21439447139bed5a374a0f62ecc0fbd38cf2687d4ed5d587cb55dfbd42588360405162000369919062000560565b60405180910390a16001905092915050565b828054600181600116156101000203166002900490600052602060002090601f016020900481019282601f10620003be57805160ff1916838001178555620003ef565b82800160010185558215620003ef579182015b82811115620003ee578251825591602001919060010190620003d1565b5b509050620003fe919062000402565b5090565b6200042791905b808211156200042357600081600090555060010162000409565b5090565b90565b600082601f8301126200043c57600080fd5b8151620004536200044d82620005ef565b620005c1565b915080825260208301602083018583830111156200047057600080fd5b6200047d83828462000661565b50505092915050565b6000602082840312156200049957600080fd5b600082015167ffffffffffffffff811115620004b457600080fd5b620004c2848285016200042a565b91505092915050565b620004d6816200062d565b82525050565b6000620004eb6015836200061c565b91507f53656e646572206e6f7420617574686f72697a656400000000000000000000006000830152602082019050919050565b60006200052d600d836200061c565b91507f416c7265616479206164646564000000000000000000000000000000000000006000830152602082019050919050565b6000602082019050620005776000830184620004cb565b92915050565b600060208201905081810360008301526200059881620004dc565b9050919050565b60006020820190508181036000830152620005ba816200051e565b9050919050565b6000604051905081810181811067ffffffffffffffff82111715620005e557600080fd5b8060405250919050565b600067ffffffffffffffff8211156200060757600080fd5b601f19601f8301169050602081019050919050565b600082825260208201905092915050565b60006200063a8262000641565b9050919050565b600073ffffffffffffffffffffffffffffffffffffffff82169050919050565b60005b838110156200068157808201518184015260208101905062000664565b8381111562000691576000848401525b50505050565b61225680620006a76000396000f3fe6080604052600436106100a75760003560e01c80638b7afe2e116100645780638b7afe2e146101ef5780638da5cb5b1461021a57806395b52bdb146102455780639ace38c214610270578063affed0e0146102b4578063d033c456146102df576100a7565b80631ed83fd4146100ac5780632858c764146100e95780633d8c16de146101195780635d9ec21014610149578063835884471461018657806383920e90146101c4575b600080fd5b3480156100b857600080fd5b506100d360048036036100ce9190810190611700565b61031c565b6040516100e09190611ebd565b60405180910390f35b61010360048036036100fe9190810190611741565b610362565b6040516101109190611ebd565b60405180910390f35b610133600480360361012e919081019061165d565b610408565b6040516101409190611fd8565b60405180910390f35b34801561015557600080fd5b50610170600480360361016b9190810190611741565b6106ee565b60405161017d9190611ebd565b60405180910390f35b34801561019257600080fd5b506101ad60048036036101a89190810190611741565b6109f8565b6040516101bb929190611e49565b60405180910390f35b3480156101d057600080fd5b506101d9610ae1565b6040516101e69190611e79565b60405180910390f35b3480156101fb57600080fd5b50610204610cd2565b6040516102119190611fd8565b60405180910390f35b34801561022657600080fd5b5061022f610cda565b60405161023c9190611d20565b60405180910390f35b34801561025157600080fd5b5061025a610cff565b6040516102679190611e9b565b60405180910390f35b34801561027c57600080fd5b5061029760048036036102929190810190611741565b610e56565b6040516102ab989796959493929190611d9b565b60405180910390f35b3480156102c057600080fd5b506102c9610f90565b6040516102d69190611fd8565b60405180910390f35b3480156102eb57600080fd5b50610306600480360361030191908101906116ac565b610f96565b6040516103139190611ebd565b60405180910390f35b60008160056001600580549050038154811061033457fe5b906000526020600020906008020160060190805190602001906103589291906114a5565b5060019050919050565b600060058054905082106103ab576040517f08c379a00000000000000000000000000000000000000000000000000000000081526004016103a290611fb8565b60405180910390fd5b600582815481106103b857fe5b906000526020600020906008020160040154600583815481106103d757fe5b906000526020600020906008020160050154106103fe576103f78261126d565b9050610403565b600090505b919050565b600081341461044c576040517f08c379a000000000000000000000000000000000000000000000000000000000815260040161044390611f78565b60405180910390fd5b60011515600360003373ffffffffffffffffffffffffffffffffffffffff1673ffffffffffffffffffffffffffffffffffffffff16815260200190815260200160002060009054906101000a900460ff161515146104df576040517f08c379a00000000000000000000000000000000000000000000000000000000081526004016104d690611f18565b60405180910390fd5b60056040518061010001604052803373ffffffffffffffffffffffffffffffffffffffff1681526020018673ffffffffffffffffffffffffffffffffffffffff168152602001848152602001600154815260200185815260200160008152602001604051806020016040528060008152508152602001600015158152509080600181540180825580915050906001820390600052602060002090600802016000909192909190915060008201518160000160006101000a81548173ffffffffffffffffffffffffffffffffffffffff021916908373ffffffffffffffffffffffffffffffffffffffff16021790555060208201518160010160006101000a81548173ffffffffffffffffffffffffffffffffffffffff021916908373ffffffffffffffffffffffffffffffffffffffff16021790555060408201518160020155606082015181600301556080820151816004015560a0820151816005015560c0820151816006019080519060200190610659929190611525565b5060e08201518160070160006101000a81548160ff0219169083151502179055505050507fc5094f20ddbb9bda2b4d1b39f78d7d784f323b721a2a8f32456a45d3dfb716d83385600154866040516106b49493929190611d56565b60405180910390a16106cd6001600580549050036106ee565b50600160008154809291906001019190505550600180540390509392505050565b60008015156005838154811061070057fe5b906000526020600020906008020160070160009054906101000a900460ff16151514610761576040517f08c379a000000000000000000000000000000000000000000000000000000000815260040161075890611f58565b60405180910390fd5b60058054905082106107a8576040517f08c379a000000000000000000000000000000000000000000000000000000000815260040161079f90611fb8565b60405180910390fd5b60011515600360003373ffffffffffffffffffffffffffffffffffffffff1673ffffffffffffffffffffffffffffffffffffffff16815260200190815260200160002060009054906101000a900460ff1615151461083b576040517f08c379a000000000000000000000000000000000000000000000000000000000815260040161083290611f38565b60405180910390fd5b60001515600460006005858154811061085057fe5b906000526020600020906008020160030154815260200190815260200160002060003373ffffffffffffffffffffffffffffffffffffffff1673ffffffffffffffffffffffffffffffffffffffff16815260200190815260200160002060009054906101000a900460ff161515146108fd576040517f08c379a00000000000000000000000000000000000000000000000000000000081526004016108f490611ef8565b60405180910390fd5b6001600460006005858154811061091057fe5b906000526020600020906008020160030154815260200190815260200160002060003373ffffffffffffffffffffffffffffffffffffffff1673ffffffffffffffffffffffffffffffffffffffff16815260200190815260200160002060006101000a81548160ff02191690831515021790555060016005838154811061099357fe5b9060005260206000209060080201600501600082825401925050819055507f827bfe95984eb396b6d8ff47200bd671835f5a6d87dc4bad10d2dbd4fe6355a3336040516109e09190611d3b565b60405180910390a16109f182610362565b9050919050565b60028181548110610a0557fe5b90600052602060002090600202016000915090508060000160009054906101000a900473ffffffffffffffffffffffffffffffffffffffff1690806001018054600181600116156101000203166002900480601f016020809104026020016040519081016040528092919081815260200182805460018160011615610100020316600290048015610ad75780601f10610aac57610100808354040283529160200191610ad7565b820191906000526020600020905b815481529060010190602001808311610aba57829003601f168201915b5050505050905082565b60606005805480602002602001604051908101604052809291908181526020016000905b82821015610cc95783829060005260206000209060080201604051806101000160405290816000820160009054906101000a900473ffffffffffffffffffffffffffffffffffffffff1673ffffffffffffffffffffffffffffffffffffffff1673ffffffffffffffffffffffffffffffffffffffff1681526020016001820160009054906101000a900473ffffffffffffffffffffffffffffffffffffffff1673ffffffffffffffffffffffffffffffffffffffff1673ffffffffffffffffffffffffffffffffffffffff16815260200160028201548152602001600382015481526020016004820154815260200160058201548152602001600682018054600181600116156101000203166002900480601f016020809104026020016040519081016040528092919081815260200182805460018160011615610100020316600290048015610c965780601f10610c6b57610100808354040283529160200191610c96565b820191906000526020600020905b815481529060010190602001808311610c7957829003601f168201915b505050505081526020016007820160009054906101000a900460ff16151515158152505081526020019060010190610b05565b50505050905090565b600047905090565b6000809054906101000a900473ffffffffffffffffffffffffffffffffffffffff1681565b60606002805480602002602001604051908101604052809291908181526020016000905b82821015610e4d57838290600052602060002090600202016040518060400160405290816000820160009054906101000a900473ffffffffffffffffffffffffffffffffffffffff1673ffffffffffffffffffffffffffffffffffffffff1673ffffffffffffffffffffffffffffffffffffffff168152602001600182018054600181600116156101000203166002900480601f016020809104026020016040519081016040528092919081815260200182805460018160011615610100020316600290048015610e355780601f10610e0a57610100808354040283529160200191610e35565b820191906000526020600020905b815481529060010190602001808311610e1857829003601f168201915b50505050508152505081526020019060010190610d23565b50505050905090565b60058181548110610e6357fe5b90600052602060002090600802016000915090508060000160009054906101000a900473ffffffffffffffffffffffffffffffffffffffff16908060010160009054906101000a900473ffffffffffffffffffffffffffffffffffffffff1690806002015490806003015490806004015490806005015490806006018054600181600116156101000203166002900480601f016020809104026020016040519081016040528092919081815260200182805460018160011615610100020316600290048015610f735780601f10610f4857610100808354040283529160200191610f73565b820191906000526020600020905b815481529060010190602001808311610f5657829003601f168201915b5050505050908060070160009054906101000a900460ff16905088565b60015481565b600060011515600360003373ffffffffffffffffffffffffffffffffffffffff1673ffffffffffffffffffffffffffffffffffffffff16815260200190815260200160002060009054906101000a900460ff161515148061104357503373ffffffffffffffffffffffffffffffffffffffff166000809054906101000a900473ffffffffffffffffffffffffffffffffffffffff1673ffffffffffffffffffffffffffffffffffffffff16145b611082576040517f08c379a000000000000000000000000000000000000000000000000000000000815260040161107990611ed8565b60405180910390fd5b60001515600360008573ffffffffffffffffffffffffffffffffffffffff1673ffffffffffffffffffffffffffffffffffffffff16815260200190815260200160002060009054906101000a900460ff16151514611115576040517f08c379a000000000000000000000000000000000000000000000000000000000815260040161110c90611f98565b60405180910390fd5b600260405180604001604052808573ffffffffffffffffffffffffffffffffffffffff168152602001848152509080600181540180825580915050906001820390600052602060002090600202016000909192909190915060008201518160000160006101000a81548173ffffffffffffffffffffffffffffffffffffffff021916908373ffffffffffffffffffffffffffffffffffffffff16021790555060208201518160010190805190602001906111d0929190611525565b505050506001600360008573ffffffffffffffffffffffffffffffffffffffff1673ffffffffffffffffffffffffffffffffffffffff16815260200190815260200160002060006101000a81548160ff0219169083151502179055507f64fd21439447139bed5a374a0f62ecc0fbd38cf2687d4ed5d587cb55dfbd42588360405161125b9190611d20565b60405180910390a16001905092915050565b60008015156005838154811061127f57fe5b906000526020600020906008020160070160009054906101000a900460ff161515146112e0576040517f08c379a00000000000000000000000000000000000000000000000000000000081526004016112d790611f58565b60405180910390fd5b6005805490508210611327576040517f08c379a000000000000000000000000000000000000000000000000000000000815260040161131e90611fb8565b60405180910390fd5b60006005838154811061133657fe5b906000526020600020906008020160010160009054906101000a900473ffffffffffffffffffffffffffffffffffffffff1690508073ffffffffffffffffffffffffffffffffffffffff166108fc6005858154811061139157fe5b9060005260206000209060080201600201549081150290604051600060405180830381858888f193505050501580156113ce573d6000803e3d6000fd5b507f2f03f1395f971b1f02ef2bc5afe3dcaadb5138627f8f45633cefd28f1a5f7e45600584815481106113fd57fe5b906000526020600020906008020160010160009054906101000a900473ffffffffffffffffffffffffffffffffffffffff166005858154811061143c57fe5b90600052602060002090600802016002015460405161145c929190611e20565b60405180910390a160016005848154811061147357fe5b906000526020600020906008020160070160006101000a81548160ff0219169083151502179055506001915050919050565b828054600181600116156101000203166002900490600052602060002090601f016020900481019282601f106114e657805160ff1916838001178555611514565b82800160010185558215611514579182015b828111156115135782518255916020019190600101906114f8565b5b50905061152191906115a5565b5090565b828054600181600116156101000203166002900490600052602060002090601f016020900481019282601f1061156657805160ff1916838001178555611594565b82800160010185558215611594579182015b82811115611593578251825591602001919060010190611578565b5b5090506115a191906115a5565b5090565b6115c791905b808211156115c35760008160009055506001016115ab565b5090565b90565b6000813590506115d9816121ce565b92915050565b6000813590506115ee816121e5565b92915050565b600082601f83011261160557600080fd5b813561161861161382612020565b611ff3565b9150808252602083016020830185838301111561163457600080fd5b61163f83828461217b565b50505092915050565b600081359050611657816121fc565b92915050565b60008060006060848603121561167257600080fd5b6000611680868287016115df565b935050602061169186828701611648565b92505060406116a286828701611648565b9150509250925092565b600080604083850312156116bf57600080fd5b60006116cd858286016115ca565b925050602083013567ffffffffffffffff8111156116ea57600080fd5b6116f6858286016115f4565b9150509250929050565b60006020828403121561171257600080fd5b600082013567ffffffffffffffff81111561172c57600080fd5b611738848285016115f4565b91505092915050565b60006020828403121561175357600080fd5b600061176184828501611648565b91505092915050565b60006117768383611c15565b905092915050565b600061178a8383611cc5565b905092915050565b61179b81612145565b82525050565b6117aa816120fd565b82525050565b6117b9816120fd565b82525050565b6117c8816120eb565b82525050565b6117d7816120eb565b82525050565b60006117e88261206c565b6117f281856120a7565b9350836020820285016118048561204c565b8060005b858110156118405784840389528151611821858261176a565b945061182c8361208d565b925060208a01995050600181019050611808565b50829750879550505050505092915050565b600061185d82612077565b61186781856120b8565b9350836020820285016118798561205c565b8060005b858110156118b55784840389528151611896858261177e565b94506118a18361209a565b925060208a0199505060018101905061187d565b50829750879550505050505092915050565b6118d08161210f565b82525050565b6118df8161210f565b82525050565b60006118f082612082565b6118fa81856120c9565b935061190a81856020860161218a565b611913816121bd565b840191505092915050565b600061192982612082565b61193381856120da565b935061194381856020860161218a565b61194c816121bd565b840191505092915050565b60006119646015836120da565b91507f53656e646572206e6f7420617574686f72697a656400000000000000000000006000830152602082019050919050565b60006119a4602f836120da565b91507f5468697320616464726573732068617320616c7265616479207369676e65642060008301527f746865207472616e73616374696f6e00000000000000000000000000000000006020830152604082019050919050565b6000611a0a6024836120da565b91507f546869732061646472657373206973206e6f7420616e2074686520776869746560008301527f6c697374000000000000000000000000000000000000000000000000000000006020830152604082019050919050565b6000611a706024836120da565b91507f546869732061646472657373206973206e6f74206f6e2074686520776869746560008301527f6c697374000000000000000000000000000000000000000000000000000000006020830152604082019050919050565b6000611ad66021836120da565b91507f5472616e73616374696f6e2068617320616c7265616479206265656e2073656e60008301527f74000000000000000000000000000000000000000000000000000000000000006020830152604082019050919050565b6000611b3c6022836120da565b91507f4e6f7420656e6f7567682065746820746f2073656e64207472616e736163746960008301527f6f6e0000000000000000000000000000000000000000000000000000000000006020830152604082019050919050565b6000611ba2600d836120da565b91507f416c7265616479206164646564000000000000000000000000000000000000006000830152602082019050919050565b6000611be26016836120da565b91507f496e646578206973206f7574206f6620626f756e6473000000000000000000006000830152602082019050919050565b600061010083016000830151611c2e60008601826117a1565b506020830151611c4160208601826117a1565b506040830151611c546040860182611d02565b506060830151611c676060860182611d02565b506080830151611c7a6080860182611d02565b5060a0830151611c8d60a0860182611d02565b5060c083015184820360c0860152611ca582826118e5565b91505060e0830151611cba60e08601826118c7565b508091505092915050565b6000604083016000830151611cdd60008601826117bf565b5060208301518482036020860152611cf582826118e5565b9150508091505092915050565b611d0b8161213b565b82525050565b611d1a8161213b565b82525050565b6000602082019050611d3560008301846117ce565b92915050565b6000602082019050611d506000830184611792565b92915050565b6000608082019050611d6b6000830187611792565b611d786020830186611792565b611d856040830185611d11565b611d926060830184611d11565b95945050505050565b600061010082019050611db1600083018b6117b0565b611dbe602083018a6117b0565b611dcb6040830189611d11565b611dd86060830188611d11565b611de56080830187611d11565b611df260a0830186611d11565b81810360c0830152611e04818561191e565b9050611e1360e08301846118d6565b9998505050505050505050565b6000604082019050611e356000830185611792565b611e426020830184611d11565b9392505050565b6000604082019050611e5e60008301856117ce565b8181036020830152611e70818461191e565b90509392505050565b60006020820190508181036000830152611e9381846117dd565b905092915050565b60006020820190508181036000830152611eb58184611852565b905092915050565b6000602082019050611ed260008301846118d6565b92915050565b60006020820190508181036000830152611ef181611957565b9050919050565b60006020820190508181036000830152611f1181611997565b9050919050565b60006020820190508181036000830152611f31816119fd565b9050919050565b60006020820190508181036000830152611f5181611a63565b9050919050565b60006020820190508181036000830152611f7181611ac9565b9050919050565b60006020820190508181036000830152611f9181611b2f565b9050919050565b60006020820190508181036000830152611fb181611b95565b9050919050565b60006020820190508181036000830152611fd181611bd5565b9050919050565b6000602082019050611fed6000830184611d11565b92915050565b6000604051905081810181811067ffffffffffffffff8211171561201657600080fd5b8060405250919050565b600067ffffffffffffffff82111561203757600080fd5b601f19601f8301169050602081019050919050565b6000819050602082019050919050565b6000819050602082019050919050565b600081519050919050565b600081519050919050565b600081519050919050565b6000602082019050919050565b6000602082019050919050565b600082825260208201905092915050565b600082825260208201905092915050565b600082825260208201905092915050565b600082825260208201905092915050565b60006120f68261211b565b9050919050565b60006121088261211b565b9050919050565b60008115159050919050565b600073ffffffffffffffffffffffffffffffffffffffff82169050919050565b6000819050919050565b600061215082612157565b9050919050565b600061216282612169565b9050919050565b60006121748261211b565b9050919050565b82818337600083830152505050565b60005b838110156121a857808201518184015260208101905061218d565b838111156121b7576000848401525b50505050565b6000601f19601f8301169050919050565b6121d7816120eb565b81146121e257600080fd5b50565b6121ee816120fd565b81146121f957600080fd5b50565b6122058161213b565b811461221057600080fd5b5056fea365627a7a723158206133a568b20d844b5ecf8de0d3a8f25fa6c9b65ee30d9ab0fa45315f67caf23c6c6578706572696d656e74616cf564736f6c63430005100040",
  "source": "pragma solidity ^0.5.16;\r\npragma experimental ABIEncoderV2;\r\n\r\n\r\ncontract MultiSig {\r\n    // Basic Contract data for ownership and nonce\r\n    address public owner;\r\n    uint256 public nonce;\r\n\r\n    struct whitelistData {\r\n        address whiteAdd;\r\n        string email;\r\n    }\r\n\r\n    // WhiteList info\r\n    whitelistData[] public whitelistAdd;\r\n    mapping(address => bool) whitelist;\r\n\r\n    // Structs for transactions\r\n    struct transactionData {\r\n        address payable from;\r\n        address payable to;\r\n        uint256 amount;\r\n        uint256 nonceTrans;\r\n        uint256 threshold;\r\n        uint256 numSigs;\r\n        string txHash;\r\n        bool complete;\r\n    }\r\n    mapping(uint256 => mapping(address => bool)) signedList;\r\n\r\n    // Arrays for transactions\r\n    transactionData[] public transactions;\r\n\r\n    // Events to emmit\r\n    event transactionCreated(address, address, uint256, uint256);\r\n    event SignedTransact(address);\r\n    event AddedWhiteList(address);\r\n    event transactionOccured(address, uint256);\r\n\r\n    constructor(string memory name) public {\r\n        // Make the owner address that deploys contract\r\n        owner = msg.sender;\r\n        nonce = 0;\r\n\r\n        // Add to white list for owner to sign\r\n        addAddress(msg.sender, name);\r\n    }\r\n\r\n    function getTransactions()\r\n        public\r\n        view\r\n        returns (transactionData[] memory transArr)\r\n    {\r\n        return transactions;\r\n    }\r\n\r\n    function getWhitelistAdd()\r\n        public\r\n        view\r\n        returns (whitelistData[] memory whitelistArr)\r\n    {\r\n        return whitelistAdd;\r\n    }\r\n\r\n    function contractBalance() external view returns (uint256 balance) {\r\n        return address(this).balance;\r\n    }\r\n\r\n    function setHash(string memory txHash_in) public returns (bool success) {\r\n        transactions[transactions.length - 1].txHash = txHash_in;\r\n        return true;\r\n    }\r\n\r\n    // Adds address to whitelist so entity has signing ability\r\n    function addAddress(address newAddress, string memory name)\r\n        public\r\n        returns (bool success)\r\n    {\r\n        // Requires to ensure owner adding signers\r\n        require(\r\n            whitelist[msg.sender] == true || owner == msg.sender,\r\n            \"Sender not authorized\"\r\n        );\r\n        require(whitelist[newAddress] == false, \"Already added\");\r\n\r\n        // Give address signing ability and emit event\r\n        whitelistAdd.push(whitelistData(newAddress, name)); // add the new address to list of whitelist addresses\r\n        whitelist[newAddress] = true;\r\n\r\n        emit AddedWhiteList(newAddress);\r\n        return true;\r\n    }\r\n\r\n    function setupTransaction(\r\n        address payable _paymentReciever,\r\n        uint256 _threshold,\r\n        uint256 _amount\r\n    ) external payable returns (uint256) {\r\n        require(msg.value == _amount, \"Not enough eth to send transaction\");\r\n        require(\r\n            whitelist[msg.sender] == true,\r\n            \"This address is not an the whitelist\"\r\n        );\r\n\r\n        transactions.push(\r\n            transactionData(\r\n                msg.sender,\r\n                _paymentReciever,\r\n                _amount,\r\n                nonce,\r\n                _threshold,\r\n                0,\r\n                \"\",\r\n                false\r\n            )\r\n        );\r\n\r\n        emit transactionCreated(\r\n            msg.sender,\r\n            _paymentReciever,\r\n            nonce,\r\n            _threshold\r\n        );\r\n        signTransaction(transactions.length - 1);\r\n\r\n        nonce++;\r\n        return nonce - 1;\r\n    }\r\n\r\n    // Msg.sender signs transaction\r\n    function signTransaction(uint256 index) public returns (bool success) {\r\n        // Makes sure sender is on whitelist and has not signed yet\r\n        require(\r\n            transactions[index].complete == false,\r\n            \"Transaction has already been sent\"\r\n        );\r\n        require(index < transactions.length, \"Index is out of bounds\");\r\n        require(\r\n            whitelist[msg.sender] == true,\r\n            \"This address is not on the whitelist\"\r\n        );\r\n        require(\r\n            signedList[transactions[index].nonceTrans][msg.sender] == false,\r\n            \"This address has already signed the transaction\"\r\n        );\r\n\r\n        // Increment num of signatures on transact and approve on signedList\r\n        signedList[transactions[index].nonceTrans][msg.sender] = true;\r\n        transactions[index].numSigs += 1;\r\n        emit SignedTransact(msg.sender);\r\n\r\n        return checkStatus(index);\r\n    }\r\n\r\n    function handlePayment(uint256 index) private returns (bool) {\r\n        require(\r\n            transactions[index].complete == false,\r\n            \"Transaction has already been sent\"\r\n        );\r\n        require(index < transactions.length, \"Index is out of bounds\");\r\n        address payable reciever = transactions[index].to;\r\n        reciever.transfer(transactions[index].amount);\r\n\r\n        emit transactionOccured(\r\n            transactions[index].to,\r\n            transactions[index].amount\r\n        );\r\n        transactions[index].complete = true;\r\n\r\n        return true;\r\n    }\r\n\r\n    function checkStatus(uint256 index) public payable returns (bool success) {\r\n        require(index < transactions.length, \"Index is out of bounds\");\r\n        if (transactions[index].numSigs >= transactions[index].threshold) {\r\n            return handlePayment(index);\r\n        }\r\n\r\n        return false;\r\n    }\r\n}\r\n",
  "sourcePath": "C:\\Users\\spvye\\Documents\\Fortmatic\\intern-project\\contract\\contracts\\MultiSig.sol",
  "compiler": {
    "name": "solc",
    "version": "0.5.16+commit.9c3226ce.Emscripten.clang"
  },
  "schemaVersion": "3.0.23",
  "updatedAt": "2020-04-14T22:26:46.676Z",
  "devdoc": {
    "methods": {}
  },
  "userdoc": {
    "methods": {}
  }
}