{
  "contractName": "MultiSig",
  "abi": [
    {
      "inputs": [],
      "payable": false,
      "stateMutability": "nonpayable",
      "type": "constructor"
    },
    {
      "anonymous": false,
      "inputs": [
        {
          "indexed": false,
          "internalType": "address",
          "name": "",
          "type": "address"
        }
      ],
      "name": "AddedWhiteList",
      "type": "event"
    },
    {
      "anonymous": false,
      "inputs": [
        {
          "indexed": false,
          "internalType": "address",
          "name": "",
          "type": "address"
        }
      ],
      "name": "SignedTransact",
      "type": "event"
    },
    {
      "anonymous": false,
      "inputs": [
        {
          "indexed": false,
          "internalType": "bytes32",
          "name": "",
          "type": "bytes32"
        }
      ],
      "name": "emitHash",
      "type": "event"
    },
    {
      "anonymous": false,
      "inputs": [
        {
          "indexed": false,
          "internalType": "address",
          "name": "",
          "type": "address"
        },
        {
          "indexed": false,
          "internalType": "address",
          "name": "",
          "type": "address"
        },
        {
          "indexed": false,
          "internalType": "uint256",
          "name": "",
          "type": "uint256"
        },
        {
          "indexed": false,
          "internalType": "uint256",
          "name": "",
          "type": "uint256"
        }
      ],
      "name": "transactionCreated",
      "type": "event"
    },
    {
      "anonymous": false,
      "inputs": [
        {
          "indexed": false,
          "internalType": "address",
          "name": "",
          "type": "address"
        },
        {
          "indexed": false,
          "internalType": "uint256",
          "name": "",
          "type": "uint256"
        }
      ],
      "name": "transactionOccured",
      "type": "event"
    },
    {
      "constant": true,
      "inputs": [],
      "name": "nonce",
      "outputs": [
        {
          "internalType": "uint256",
          "name": "",
          "type": "uint256"
        }
      ],
      "payable": false,
      "stateMutability": "view",
      "type": "function"
    },
    {
      "constant": true,
      "inputs": [],
      "name": "numPendingTx",
      "outputs": [
        {
          "internalType": "uint256",
          "name": "",
          "type": "uint256"
        }
      ],
      "payable": false,
      "stateMutability": "view",
      "type": "function"
    },
    {
      "constant": true,
      "inputs": [],
      "name": "numWhitlist",
      "outputs": [
        {
          "internalType": "uint256",
          "name": "",
          "type": "uint256"
        }
      ],
      "payable": false,
      "stateMutability": "view",
      "type": "function"
    },
    {
      "constant": true,
      "inputs": [],
      "name": "owner",
      "outputs": [
        {
          "internalType": "address",
          "name": "",
          "type": "address"
        }
      ],
      "payable": false,
      "stateMutability": "view",
      "type": "function"
    },
    {
      "constant": true,
      "inputs": [
        {
          "internalType": "uint256",
          "name": "",
          "type": "uint256"
        }
      ],
      "name": "pendingTransactions",
      "outputs": [
        {
          "internalType": "address payable",
          "name": "from",
          "type": "address"
        },
        {
          "internalType": "address payable",
          "name": "to",
          "type": "address"
        },
        {
          "internalType": "uint256",
          "name": "amount",
          "type": "uint256"
        },
        {
          "internalType": "uint256",
          "name": "nonceTrans",
          "type": "uint256"
        },
        {
          "internalType": "uint256",
          "name": "threshold",
          "type": "uint256"
        }
      ],
      "payable": false,
      "stateMutability": "view",
      "type": "function"
    },
    {
      "constant": true,
      "inputs": [
        {
          "internalType": "bytes32",
          "name": "",
          "type": "bytes32"
        },
        {
          "internalType": "address",
          "name": "",
          "type": "address"
        }
      ],
      "name": "signedList",
      "outputs": [
        {
          "internalType": "bool",
          "name": "",
          "type": "bool"
        }
      ],
      "payable": false,
      "stateMutability": "view",
      "type": "function"
    },
    {
      "constant": true,
      "inputs": [
        {
          "internalType": "uint256",
          "name": "",
          "type": "uint256"
        }
      ],
      "name": "transactions",
      "outputs": [
        {
          "internalType": "address payable",
          "name": "from",
          "type": "address"
        },
        {
          "internalType": "address payable",
          "name": "to",
          "type": "address"
        },
        {
          "internalType": "uint256",
          "name": "amount",
          "type": "uint256"
        },
        {
          "internalType": "uint256",
          "name": "nonceTrans",
          "type": "uint256"
        },
        {
          "internalType": "uint256",
          "name": "threshold",
          "type": "uint256"
        }
      ],
      "payable": false,
      "stateMutability": "view",
      "type": "function"
    },
    {
      "constant": true,
      "inputs": [
        {
          "internalType": "uint256",
          "name": "",
          "type": "uint256"
        }
      ],
      "name": "whitelistAdd",
      "outputs": [
        {
          "internalType": "address",
          "name": "",
          "type": "address"
        }
      ],
      "payable": false,
      "stateMutability": "view",
      "type": "function"
    },
    {
      "constant": false,
      "inputs": [
        {
          "internalType": "address",
          "name": "newAddress",
          "type": "address"
        }
      ],
      "name": "addAddress",
      "outputs": [
        {
          "internalType": "bool",
          "name": "success",
          "type": "bool"
        }
      ],
      "payable": false,
      "stateMutability": "nonpayable",
      "type": "function"
    },
    {
      "constant": false,
      "inputs": [
        {
          "internalType": "address payable",
          "name": "_paymentReciever",
          "type": "address"
        },
        {
          "internalType": "uint256",
          "name": "_threshold",
          "type": "uint256"
        },
        {
          "internalType": "uint256",
          "name": "_amount",
          "type": "uint256"
        }
      ],
      "name": "setupTransaction",
      "outputs": [
        {
          "internalType": "uint256",
          "name": "",
          "type": "uint256"
        }
      ],
      "payable": true,
      "stateMutability": "payable",
      "type": "function"
    },
    {
      "constant": false,
      "inputs": [
        {
          "internalType": "uint256",
          "name": "index",
          "type": "uint256"
        }
      ],
      "name": "signTransaction",
      "outputs": [
        {
          "internalType": "bool",
          "name": "success",
          "type": "bool"
        }
      ],
      "payable": false,
      "stateMutability": "nonpayable",
      "type": "function"
    },
    {
      "constant": true,
      "inputs": [],
      "name": "contractBalance",
      "outputs": [
        {
          "internalType": "uint256",
          "name": "balance",
          "type": "uint256"
        }
      ],
      "payable": false,
      "stateMutability": "view",
      "type": "function"
    },
    {
      "constant": false,
      "inputs": [
        {
          "internalType": "uint256",
          "name": "index",
          "type": "uint256"
        }
      ],
      "name": "checkStatus",
      "outputs": [
        {
          "internalType": "bool",
          "name": "success",
          "type": "bool"
        }
      ],
      "payable": true,
      "stateMutability": "payable",
      "type": "function"
    }
  ],
  "bytecode": "0x60806040523480156200001157600080fd5b50336000806101000a81548173ffffffffffffffffffffffffffffffffffffffff021916908373ffffffffffffffffffffffffffffffffffffffff1602179055506000600381905550600060068190555060006001819055506200007b336200008260201b60201c565b5062000357565b60008060009054906101000a900473ffffffffffffffffffffffffffffffffffffffff1673ffffffffffffffffffffffffffffffffffffffff163373ffffffffffffffffffffffffffffffffffffffff161462000147576040517f08c379a00000000000000000000000000000000000000000000000000000000081526004018080602001828103825260158152602001807f53656e646572206e6f7420617574686f72697a6564000000000000000000000081525060200191505060405180910390fd5b6200015882620002b060201b60201c565b15620001cc576040517f08c379a000000000000000000000000000000000000000000000000000000000815260040180806020018281038252600d8152602001807f416c72656164792061646465640000000000000000000000000000000000000081525060200191505060405180910390fd5b60028290806001815401808255809150509060018203906000526020600020016000909192909190916101000a81548173ffffffffffffffffffffffffffffffffffffffff021916908373ffffffffffffffffffffffffffffffffffffffff160217905550506003600081548092919060010191905055507f64fd21439447139bed5a374a0f62ecc0fbd38cf2687d4ed5d587cb55dfbd425882604051808273ffffffffffffffffffffffffffffffffffffffff1673ffffffffffffffffffffffffffffffffffffffff16815260200191505060405180910390a160019050919050565b600080600090505b6002805490508110156200034c578273ffffffffffffffffffffffffffffffffffffffff1660028281548110620002eb57fe5b9060005260206000200160009054906101000a900473ffffffffffffffffffffffffffffffffffffffff1673ffffffffffffffffffffffffffffffffffffffff1614156200033e57600191505062000352565b8080600101915050620002b8565b50600090505b919050565b61171e80620003676000396000f3fe6080604052600436106100c25760003560e01c8063835884471161007f5780638e847aa6116100595780638e847aa6146104205780639ace38c214610493578063affed0e014610556578063fe05ee1314610581576100c2565b806383588447146103235780638b7afe2e1461039e5780638da5cb5b146103c9576100c2565b80631045af36146100c75780632858c764146100f257806338eada1c146101385780633d8c16de146101a15780635d9ec2101461020d57806363a8374d14610260575b600080fd5b3480156100d357600080fd5b506100dc6105ac565b6040518082815260200191505060405180910390f35b61011e6004803603602081101561010857600080fd5b81019080803590602001909291905050506105b2565b604051808215151515815260200191505060405180910390f35b34801561014457600080fd5b506101876004803603602081101561015b57600080fd5b81019080803573ffffffffffffffffffffffffffffffffffffffff169060200190929190505050610614565b604051808215151515815260200191505060405180910390f35b6101f7600480360360608110156101b757600080fd5b81019080803573ffffffffffffffffffffffffffffffffffffffff1690602001909291908035906020019092919080359060200190929190505050610838565b6040518082815260200191505060405180910390f35b34801561021957600080fd5b506102466004803603602081101561023057600080fd5b8101908080359060200190929190505050610bf3565b604051808215151515815260200191505060405180910390f35b34801561026c57600080fd5b506102996004803603602081101561028357600080fd5b8101908080359060200190929190505050610e18565b604051808673ffffffffffffffffffffffffffffffffffffffff1673ffffffffffffffffffffffffffffffffffffffff1681526020018573ffffffffffffffffffffffffffffffffffffffff1673ffffffffffffffffffffffffffffffffffffffff1681526020018481526020018381526020018281526020019550505050505060405180910390f35b34801561032f57600080fd5b5061035c6004803603602081101561034657600080fd5b8101908080359060200190929190505050610e9b565b604051808273ffffffffffffffffffffffffffffffffffffffff1673ffffffffffffffffffffffffffffffffffffffff16815260200191505060405180910390f35b3480156103aa57600080fd5b506103b3610ed7565b6040518082815260200191505060405180910390f35b3480156103d557600080fd5b506103de610edf565b604051808273ffffffffffffffffffffffffffffffffffffffff1673ffffffffffffffffffffffffffffffffffffffff16815260200191505060405180910390f35b34801561042c57600080fd5b506104796004803603604081101561044357600080fd5b8101908080359060200190929190803573ffffffffffffffffffffffffffffffffffffffff169060200190929190505050610f04565b604051808215151515815260200191505060405180910390f35b34801561049f57600080fd5b506104cc600480360360208110156104b657600080fd5b8101908080359060200190929190505050610f33565b604051808673ffffffffffffffffffffffffffffffffffffffff1673ffffffffffffffffffffffffffffffffffffffff1681526020018573ffffffffffffffffffffffffffffffffffffffff1673ffffffffffffffffffffffffffffffffffffffff1681526020018481526020018381526020018281526020019550505050505060405180910390f35b34801561056257600080fd5b5061056b610fb6565b6040518082815260200191505060405180910390f35b34801561058d57600080fd5b50610596610fbc565b6040518082815260200191505060405180910390f35b60065481565b6000806105be83610fc2565b9050600483815481106105cd57fe5b9060005260206000209060050201600401546008600083815260200190815260200160002054106106095761060183611145565b91505061060f565b60009150505b919050565b60008060009054906101000a900473ffffffffffffffffffffffffffffffffffffffff1673ffffffffffffffffffffffffffffffffffffffff163373ffffffffffffffffffffffffffffffffffffffff16146106d8576040517f08c379a00000000000000000000000000000000000000000000000000000000081526004018080602001828103825260158152602001807f53656e646572206e6f7420617574686f72697a6564000000000000000000000081525060200191505060405180910390fd5b6106e1826114c0565b15610754576040517f08c379a000000000000000000000000000000000000000000000000000000000815260040180806020018281038252600d8152602001807f416c72656164792061646465640000000000000000000000000000000000000081525060200191505060405180910390fd5b60028290806001815401808255809150509060018203906000526020600020016000909192909190916101000a81548173ffffffffffffffffffffffffffffffffffffffff021916908373ffffffffffffffffffffffffffffffffffffffff160217905550506003600081548092919060010191905055507f64fd21439447139bed5a374a0f62ecc0fbd38cf2687d4ed5d587cb55dfbd425882604051808273ffffffffffffffffffffffffffffffffffffffff1673ffffffffffffffffffffffffffffffffffffffff16815260200191505060405180910390a160019050919050565b6000813414610892576040517f08c379a00000000000000000000000000000000000000000000000000000000081526004018080602001828103825260228152602001806116c86022913960400191505060405180910390fd5b61089a611562565b6040518060a001604052803373ffffffffffffffffffffffffffffffffffffffff1681526020018673ffffffffffffffffffffffffffffffffffffffff16815260200184815260200160015481526020018581525090506004819080600181540180825580915050906001820390600052602060002090600502016000909192909190915060008201518160000160006101000a81548173ffffffffffffffffffffffffffffffffffffffff021916908373ffffffffffffffffffffffffffffffffffffffff16021790555060208201518160010160006101000a81548173ffffffffffffffffffffffffffffffffffffffff021916908373ffffffffffffffffffffffffffffffffffffffff1602179055506040820151816002015560608201518160030155608082015181600401555050506005819080600181540180825580915050906001820390600052602060002090600502016000909192909190915060008201518160000160006101000a81548173ffffffffffffffffffffffffffffffffffffffff021916908373ffffffffffffffffffffffffffffffffffffffff16021790555060208201518160010160006101000a81548173ffffffffffffffffffffffffffffffffffffffff021916908373ffffffffffffffffffffffffffffffffffffffff1602179055506040820151816002015560608201518160030155608082015181600401555050506006600081548092919060010191905055507fc5094f20ddbb9bda2b4d1b39f78d7d784f323b721a2a8f32456a45d3dfb716d8338660015487604051808573ffffffffffffffffffffffffffffffffffffffff1673ffffffffffffffffffffffffffffffffffffffff1681526020018473ffffffffffffffffffffffffffffffffffffffff1673ffffffffffffffffffffffffffffffffffffffff16815260200183815260200182815260200194505050505060405180910390a16000610b73600154610fc2565b905060006008600083815260200190815260200160002081905550610b99600154610bf3565b506001600081548092919060010191905055507f5cc0f3a9b565d77821d0b777308389f2f8c3bca39e70f63f8e636af113c6429a816040518082815260200191505060405180910390a16001805403925050509392505050565b600080610bff83610fc2565b9050610c0a336114c0565b610c5f576040517f08c379a00000000000000000000000000000000000000000000000000000000081526004018080602001828103825260248152602001806116a46024913960400191505060405180910390fd5b600015156007600083815260200190815260200160002060003373ffffffffffffffffffffffffffffffffffffffff1673ffffffffffffffffffffffffffffffffffffffff16815260200190815260200160002060009054906101000a900460ff16151514610d19576040517f08c379a000000000000000000000000000000000000000000000000000000000815260040180806020018281038252602f815260200180611675602f913960400191505060405180910390fd5b60016007600083815260200190815260200160002060003373ffffffffffffffffffffffffffffffffffffffff1673ffffffffffffffffffffffffffffffffffffffff16815260200190815260200160002060006101000a81548160ff021916908315150217905550600160086000838152602001908152602001600020600082825401925050819055507f827bfe95984eb396b6d8ff47200bd671835f5a6d87dc4bad10d2dbd4fe6355a333604051808273ffffffffffffffffffffffffffffffffffffffff1673ffffffffffffffffffffffffffffffffffffffff16815260200191505060405180910390a1610e10836105b2565b915050919050565b60058181548110610e2557fe5b90600052602060002090600502016000915090508060000160009054906101000a900473ffffffffffffffffffffffffffffffffffffffff16908060010160009054906101000a900473ffffffffffffffffffffffffffffffffffffffff16908060020154908060030154908060040154905085565b60028181548110610ea857fe5b906000526020600020016000915054906101000a900473ffffffffffffffffffffffffffffffffffffffff1681565b600047905090565b6000809054906101000a900473ffffffffffffffffffffffffffffffffffffffff1681565b60076020528160005260406000206020528060005260406000206000915091509054906101000a900460ff1681565b60048181548110610f4057fe5b90600052602060002090600502016000915090508060000160009054906101000a900473ffffffffffffffffffffffffffffffffffffffff16908060010160009054906101000a900473ffffffffffffffffffffffffffffffffffffffff16908060020154908060030154908060040154905085565b60015481565b60035481565b60008060048381548110610fd257fe5b906000526020600020906005020160010160009054906101000a900473ffffffffffffffffffffffffffffffffffffffff166004848154811061101157fe5b906000526020600020906005020160000160009054906101000a900473ffffffffffffffffffffffffffffffffffffffff166004858154811061105057fe5b9060005260206000209060050201600201546004868154811061106f57fe5b9060005260206000209060050201600301546004878154811061108e57fe5b906000526020600020906005020160040154604051602001808673ffffffffffffffffffffffffffffffffffffffff1673ffffffffffffffffffffffffffffffffffffffff1681526020018573ffffffffffffffffffffffffffffffffffffffff1673ffffffffffffffffffffffffffffffffffffffff1681526020018481526020018381526020018281526020019550505050505060405160208183030381529060405280519060200120905080915050919050565b6000806004838154811061115557fe5b906000526020600020906005020160010160009054906101000a900473ffffffffffffffffffffffffffffffffffffffff1690508073ffffffffffffffffffffffffffffffffffffffff166108fc600485815481106111b057fe5b9060005260206000209060050201600201549081150290604051600060405180830381858888f193505050501580156111ed573d6000803e3d6000fd5b507f2f03f1395f971b1f02ef2bc5afe3dcaadb5138627f8f45633cefd28f1a5f7e456004848154811061121c57fe5b906000526020600020906005020160010160009054906101000a900473ffffffffffffffffffffffffffffffffffffffff166004858154811061125b57fe5b906000526020600020906005020160020154604051808373ffffffffffffffffffffffffffffffffffffffff1673ffffffffffffffffffffffffffffffffffffffff1681526020018281526020019250505060405180910390a160008390505b60016005805490500381101561140057600560018201815481106112db57fe5b9060005260206000209060050201600582815481106112f657fe5b90600052602060002090600502016000820160009054906101000a900473ffffffffffffffffffffffffffffffffffffffff168160000160006101000a81548173ffffffffffffffffffffffffffffffffffffffff021916908373ffffffffffffffffffffffffffffffffffffffff1602179055506001820160009054906101000a900473ffffffffffffffffffffffffffffffffffffffff168160010160006101000a81548173ffffffffffffffffffffffffffffffffffffffff021916908373ffffffffffffffffffffffffffffffffffffffff16021790555060028201548160020155600382015481600301556004820154816004015590505080806001019150506112bb565b5060056001600580549050038154811061141657fe5b9060005260206000209060050201600080820160006101000a81549073ffffffffffffffffffffffffffffffffffffffff02191690556001820160006101000a81549073ffffffffffffffffffffffffffffffffffffffff0219169055600282016000905560038201600090556004820160009055505060058054809190600190036114a291906115bd565b50600660008154809291906001900391905055506001915050919050565b600080600090505b600280549050811015611557578273ffffffffffffffffffffffffffffffffffffffff16600282815481106114f957fe5b9060005260206000200160009054906101000a900473ffffffffffffffffffffffffffffffffffffffff1673ffffffffffffffffffffffffffffffffffffffff16141561154a57600191505061155d565b80806001019150506114c8565b50600090505b919050565b6040518060a00160405280600073ffffffffffffffffffffffffffffffffffffffff168152602001600073ffffffffffffffffffffffffffffffffffffffff1681526020016000815260200160008152602001600081525090565b8154818355818111156115ea576005028160050283600052602060002091820191016115e991906115ef565b5b505050565b61167191905b8082111561166d57600080820160006101000a81549073ffffffffffffffffffffffffffffffffffffffff02191690556001820160006101000a81549073ffffffffffffffffffffffffffffffffffffffff0219169055600282016000905560038201600090556004820160009055506005016115f5565b5090565b9056fe5468697320616464726573732068617320616c7265616479207369676e656420746865207472616e73616374696f6e546869732061646472657373206973206e6f74206f6e207468652077686974656c6973744e6f7420656e6f7567682065746820746f2073656e64207472616e73616374696f6ea265627a7a72315820898ce7d8e474d48d70380941b08342622fdd022751d815c208fe19d8454e2ee164736f6c63430005100032",
  "source": "pragma solidity ^0.5.16;\r\n\r\ncontract MultiSig {\r\n    address public owner; // Will be the address of who deploys to contract\r\n    uint256 public nonce;\r\n\r\n    struct transactionData {\r\n        address payable from;\r\n        address payable to;\r\n        uint256 amount;\r\n        uint256 nonceTrans;\r\n        uint256 threshold;\r\n    }\r\n\r\n    address[] public whitelistAdd; // list of addresses added to whitelist\r\n    uint256 public numWhitlist;\r\n\r\n    transactionData[] public transactions;\r\n    transactionData[] public pendingTransactions;\r\n    uint256 public numPendingTx;\r\n\r\n    mapping(bytes32 => mapping(address => bool)) public signedList; // list of address that have signed the transaction\r\n    mapping(bytes32 => uint256) numSigs;\r\n\r\n    // Events to emmit\r\n    event transactionCreated(address, address, uint256, uint256);\r\n    event SignedTransact(address);\r\n    event AddedWhiteList(address);\r\n    event transactionOccured(address, uint256);\r\n    event emitHash(bytes32);\r\n\r\n    constructor() public {\r\n        // Make the owner who deploys contract\r\n        owner = msg.sender;\r\n        // Add to white list for owner to sign\r\n        numWhitlist = 0;\r\n        numPendingTx = 0;\r\n        nonce = 0;\r\n        addAddress(msg.sender); // add owner's address as address 0 of whitelist addresses\r\n    }\r\n\r\n    function findAddress(address find) internal returns (bool success) {\r\n        for (uint256 index = 0; index < whitelistAdd.length; index++) {\r\n            if (whitelistAdd[index] == find) {\r\n                return true;\r\n            }\r\n        }\r\n\r\n        return false;\r\n    }\r\n\r\n    // Adds address to whitelist so entity has signing ability\r\n    function addAddress(address newAddress) public returns (bool success) {\r\n        // Requires to ensure owner adding signers\r\n        require(msg.sender == owner, \"Sender not authorized\");\r\n        require(!findAddress(newAddress), \"Already added\");\r\n\r\n        // Give address signing ability and emit event\r\n        whitelistAdd.push(newAddress); // add the new address to list of whitelist addresses\r\n        numWhitlist++;\r\n        emit AddedWhiteList(newAddress);\r\n        return true;\r\n    }\r\n\r\n    function setupTransaction(\r\n        address payable _paymentReciever,\r\n        uint256 _threshold,\r\n        uint256 _amount\r\n    ) external payable returns (uint256) {\r\n        require(msg.value == _amount, \"Not enough eth to send transaction\");\r\n\r\n        transactionData memory tmp = transactionData(\r\n            msg.sender,\r\n            _paymentReciever,\r\n            _amount,\r\n            nonce,\r\n            _threshold\r\n        );\r\n\r\n        transactions.push(tmp);\r\n        pendingTransactions.push(tmp);\r\n        numPendingTx++;\r\n\r\n        emit transactionCreated(\r\n            msg.sender,\r\n            _paymentReciever,\r\n            nonce,\r\n            _threshold\r\n        );\r\n\r\n        bytes32 txHash = encodeTransaction(nonce);\r\n\r\n        numSigs[txHash] = 0;\r\n        signTransaction(nonce);\r\n\r\n        nonce++;\r\n        emit emitHash(txHash);\r\n\r\n        return nonce - 1;\r\n    }\r\n\r\n    function encodeTransaction(uint256 index) internal returns (bytes32) {\r\n        bytes32 tmp = keccak256(\r\n            abi.encode(\r\n                transactions[index].to,\r\n                transactions[index].from,\r\n                transactions[index].amount,\r\n                transactions[index].nonceTrans,\r\n                transactions[index].threshold\r\n            )\r\n        );\r\n\r\n        return tmp;\r\n    }\r\n\r\n    // Msg.sender signs transaction\r\n    function signTransaction(uint256 index) public returns (bool success) {\r\n        bytes32 txHash = encodeTransaction(index);\r\n        // Makes sure sender is on whitelist and has not signed yet\r\n        require(\r\n            findAddress(msg.sender),\r\n            \"This address is not on the whitelist\"\r\n        );\r\n        require(\r\n            signedList[txHash][msg.sender] == false,\r\n            \"This address has already signed the transaction\"\r\n        );\r\n\r\n        // Increment num of signatures on transact and approve on signedList\r\n        signedList[txHash][msg.sender] = true;\r\n        numSigs[txHash] += 1;\r\n        emit SignedTransact(msg.sender);\r\n\r\n        return checkStatus(index);\r\n    }\r\n\r\n    function handlePayment(uint256 index) private returns (bool) {\r\n        address payable reciever = transactions[index].to;\r\n        reciever.transfer(transactions[index].amount);\r\n\r\n        emit transactionOccured(\r\n            transactions[index].to,\r\n            transactions[index].amount\r\n        );\r\n\r\n        for (uint256 i = index; i < pendingTransactions.length - 1; i++) {\r\n            pendingTransactions[i] = pendingTransactions[i + 1];\r\n        }\r\n\r\n        delete pendingTransactions[pendingTransactions.length - 1];\r\n        pendingTransactions.length--;\r\n        numPendingTx--;\r\n\r\n        return true;\r\n    }\r\n\r\n    function contractBalance() public view returns (uint256 balance) {\r\n        return address(this).balance;\r\n    }\r\n\r\n    // Getter for number of entities signed\r\n    function checkStatus(uint256 index) public payable returns (bool success) {\r\n        bytes32 txHash = encodeTransaction(index);\r\n        if (numSigs[txHash] >= transactions[index].threshold) {\r\n            return handlePayment(index);\r\n        }\r\n\r\n        return false;\r\n    }\r\n\r\n}\r\n",
  "sourcePath": "C:\\Users\\spvye\\Documents\\Fortmatic\\phantom\\contract\\contracts\\MultiSig.sol",
  "compiler": {
    "name": "solc",
    "version": "0.5.16+commit.9c3226ce.Emscripten.clang"
  },
  "schemaVersion": "3.0.23",
  "updatedAt": "2020-03-10T22:10:24.257Z",
  "devdoc": {
    "methods": {}
  },
  "userdoc": {
    "methods": {}
  }
}