{
  "contractName": "MultiSig",
  "abi": [
    {
      "inputs": [],
      "payable": false,
      "stateMutability": "nonpayable",
      "type": "constructor"
    },
    {
      "anonymous": false,
      "inputs": [
        {
          "indexed": false,
          "internalType": "address",
          "name": "",
          "type": "address"
        }
      ],
      "name": "AddedWhiteList",
      "type": "event"
    },
    {
      "anonymous": false,
      "inputs": [
        {
          "indexed": false,
          "internalType": "address",
          "name": "",
          "type": "address"
        }
      ],
      "name": "SignedTransact",
      "type": "event"
    },
    {
      "anonymous": false,
      "inputs": [
        {
          "indexed": false,
          "internalType": "address",
          "name": "",
          "type": "address"
        },
        {
          "indexed": false,
          "internalType": "address",
          "name": "",
          "type": "address"
        },
        {
          "indexed": false,
          "internalType": "uint256",
          "name": "",
          "type": "uint256"
        },
        {
          "indexed": false,
          "internalType": "uint256",
          "name": "",
          "type": "uint256"
        }
      ],
      "name": "transactionCreated",
      "type": "event"
    },
    {
      "anonymous": false,
      "inputs": [
        {
          "indexed": false,
          "internalType": "address",
          "name": "",
          "type": "address"
        },
        {
          "indexed": false,
          "internalType": "uint256",
          "name": "",
          "type": "uint256"
        }
      ],
      "name": "transactionOccured",
      "type": "event"
    },
    {
      "constant": true,
      "inputs": [
        {
          "internalType": "bytes32",
          "name": "",
          "type": "bytes32"
        }
      ],
      "name": "dataViaTxHash",
      "outputs": [
        {
          "internalType": "uint256",
          "name": "",
          "type": "uint256"
        }
      ],
      "payable": false,
      "stateMutability": "view",
      "type": "function"
    },
    {
      "constant": true,
      "inputs": [],
      "name": "nonce",
      "outputs": [
        {
          "internalType": "uint256",
          "name": "",
          "type": "uint256"
        }
      ],
      "payable": false,
      "stateMutability": "view",
      "type": "function"
    },
    {
      "constant": true,
      "inputs": [],
      "name": "owner",
      "outputs": [
        {
          "internalType": "address payable",
          "name": "",
          "type": "address"
        }
      ],
      "payable": false,
      "stateMutability": "view",
      "type": "function"
    },
    {
      "constant": true,
      "inputs": [
        {
          "internalType": "bytes32",
          "name": "",
          "type": "bytes32"
        }
      ],
      "name": "signedMessages",
      "outputs": [
        {
          "internalType": "uint256",
          "name": "",
          "type": "uint256"
        }
      ],
      "payable": false,
      "stateMutability": "view",
      "type": "function"
    },
    {
      "constant": true,
      "inputs": [],
      "name": "threshold",
      "outputs": [
        {
          "internalType": "uint256",
          "name": "",
          "type": "uint256"
        }
      ],
      "payable": false,
      "stateMutability": "view",
      "type": "function"
    },
    {
      "constant": false,
      "inputs": [
        {
          "internalType": "address",
          "name": "newAddress",
          "type": "address"
        }
      ],
      "name": "addAddress",
      "outputs": [
        {
          "internalType": "bool",
          "name": "success",
          "type": "bool"
        }
      ],
      "payable": false,
      "stateMutability": "nonpayable",
      "type": "function"
    },
    {
      "constant": false,
      "inputs": [
        {
          "internalType": "address",
          "name": "called",
          "type": "address"
        }
      ],
      "name": "checkList",
      "outputs": [
        {
          "internalType": "bool",
          "name": "checked",
          "type": "bool"
        }
      ],
      "payable": false,
      "stateMutability": "nonpayable",
      "type": "function"
    },
    {
      "constant": false,
      "inputs": [
        {
          "internalType": "address payable",
          "name": "_paymentReciever",
          "type": "address"
        },
        {
          "internalType": "uint256",
          "name": "_threshold",
          "type": "uint256"
        },
        {
          "internalType": "uint256",
          "name": "_amount",
          "type": "uint256"
        }
      ],
      "name": "setupTransaction",
      "outputs": [
        {
          "internalType": "bytes32",
          "name": "",
          "type": "bytes32"
        }
      ],
      "payable": true,
      "stateMutability": "payable",
      "type": "function"
    },
    {
      "constant": false,
      "inputs": [
        {
          "internalType": "bytes32",
          "name": "txHash",
          "type": "bytes32"
        }
      ],
      "name": "signTransaction",
      "outputs": [
        {
          "internalType": "bool",
          "name": "success",
          "type": "bool"
        }
      ],
      "payable": false,
      "stateMutability": "nonpayable",
      "type": "function"
    },
    {
      "constant": true,
      "inputs": [],
      "name": "contractBalance",
      "outputs": [
        {
          "internalType": "uint256",
          "name": "balance",
          "type": "uint256"
        }
      ],
      "payable": false,
      "stateMutability": "view",
      "type": "function"
    }
  ],
  "bytecode": "0x6080604052600060065534801561001557600080fd5b50336000806101000a81548173ffffffffffffffffffffffffffffffffffffffff021916908373ffffffffffffffffffffffffffffffffffffffff1602179055506001600260008060009054906101000a900473ffffffffffffffffffffffffffffffffffffffff1673ffffffffffffffffffffffffffffffffffffffff1673ffffffffffffffffffffffffffffffffffffffff16815260200190815260200160002060006101000a81548160ff02191690831515021790555060006003819055506001600581905550610ef6806100ee6000396000f3fe6080604052600436106100915760003560e01c80635ae6bd37116100595780635ae6bd371461024e5780638b7afe2e1461029d5780638da5cb5b146102c8578063955c20b21461031f578063affed0e01461037257610091565b8063051faa6d146100965780630dc29f7f146100e557806338eada1c1461014e5780633d8c16de146101b757806342cde4e814610223575b600080fd5b3480156100a257600080fd5b506100cf600480360360208110156100b957600080fd5b810190808035906020019092919050505061039d565b6040518082815260200191505060405180910390f35b3480156100f157600080fd5b506101346004803603602081101561010857600080fd5b81019080803573ffffffffffffffffffffffffffffffffffffffff1690602001909291905050506103b5565b604051808215151515815260200191505060405180910390f35b34801561015a57600080fd5b5061019d6004803603602081101561017157600080fd5b81019080803573ffffffffffffffffffffffffffffffffffffffff16906020019092919050505061040b565b604051808215151515815260200191505060405180910390f35b61020d600480360360608110156101cd57600080fd5b81019080803573ffffffffffffffffffffffffffffffffffffffff1690602001909291908035906020019092919080359060200190929190505050610669565b6040518082815260200191505060405180910390f35b34801561022f57600080fd5b50610238610a6a565b6040518082815260200191505060405180910390f35b34801561025a57600080fd5b506102876004803603602081101561027157600080fd5b8101908080359060200190929190505050610a70565b6040518082815260200191505060405180910390f35b3480156102a957600080fd5b506102b2610a88565b6040518082815260200191505060405180910390f35b3480156102d457600080fd5b506102dd610a90565b604051808273ffffffffffffffffffffffffffffffffffffffff1673ffffffffffffffffffffffffffffffffffffffff16815260200191505060405180910390f35b34801561032b57600080fd5b506103586004803603602081101561034257600080fd5b8101908080359060200190929190505050610ab5565b604051808215151515815260200191505060405180910390f35b34801561037e57600080fd5b50610387610d06565b6040518082815260200191505060405180910390f35b60096020528060005260406000206000915090505481565b6000600460008373ffffffffffffffffffffffffffffffffffffffff1673ffffffffffffffffffffffffffffffffffffffff16815260200190815260200160002060009054906101000a900460ff169050919050565b60008060009054906101000a900473ffffffffffffffffffffffffffffffffffffffff1673ffffffffffffffffffffffffffffffffffffffff163373ffffffffffffffffffffffffffffffffffffffff16146104cf576040517f08c379a00000000000000000000000000000000000000000000000000000000081526004018080602001828103825260158152602001807f53656e646572206e6f7420617574686f72697a6564000000000000000000000081525060200191505060405180910390fd5b60001515600260008473ffffffffffffffffffffffffffffffffffffffff1673ffffffffffffffffffffffffffffffffffffffff16815260200190815260200160002060009054906101000a900460ff16151514610595576040517f08c379a000000000000000000000000000000000000000000000000000000000815260040180806020018281038252601f8152602001807f4164647265737320697320616c7265616479206f6e2077686974656c6973740081525060200191505060405180910390fd5b6001600260008473ffffffffffffffffffffffffffffffffffffffff1673ffffffffffffffffffffffffffffffffffffffff16815260200190815260200160002060006101000a81548160ff0219169083151502179055507f64fd21439447139bed5a374a0f62ecc0fbd38cf2687d4ed5d587cb55dfbd425882604051808273ffffffffffffffffffffffffffffffffffffffff1673ffffffffffffffffffffffffffffffffffffffff16815260200191505060405180910390a16005600081546001019190508190555060019050919050565b60008134146106c3576040517f08c379a0000000000000000000000000000000000000000000000000000000008152600401808060200182810382526022815260200180610ea06022913960400191505060405180910390fd5b6040518060a001604052803373ffffffffffffffffffffffffffffffffffffffff1681526020018573ffffffffffffffffffffffffffffffffffffffff16815260200183815260200160065481526020018481525060016006548154811061072757fe5b906000526020600020906005020160008201518160000160006101000a81548173ffffffffffffffffffffffffffffffffffffffff021916908373ffffffffffffffffffffffffffffffffffffffff16021790555060208201518160010160006101000a81548173ffffffffffffffffffffffffffffffffffffffff021916908373ffffffffffffffffffffffffffffffffffffffff1602179055506040820151816002015560608201518160030155608082015181600401559050507fc5094f20ddbb9bda2b4d1b39f78d7d784f323b721a2a8f32456a45d3dfb716d8338560065486604051808573ffffffffffffffffffffffffffffffffffffffff1673ffffffffffffffffffffffffffffffffffffffff1681526020018473ffffffffffffffffffffffffffffffffffffffff1673ffffffffffffffffffffffffffffffffffffffff16815260200183815260200182815260200194505050505060405180910390a1600060016006548154811061089e57fe5b906000526020600020906005020160010160009054906101000a900473ffffffffffffffffffffffffffffffffffffffff166001600654815481106108df57fe5b906000526020600020906005020160000160009054906101000a900473ffffffffffffffffffffffffffffffffffffffff1660016006548154811061092057fe5b90600052602060002090600502016002015460016006548154811061094157fe5b90600052602060002090600502016003015460016006548154811061096257fe5b906000526020600020906005020160040154604051602001808673ffffffffffffffffffffffffffffffffffffffff1673ffffffffffffffffffffffffffffffffffffffff1681526020018573ffffffffffffffffffffffffffffffffffffffff1673ffffffffffffffffffffffffffffffffffffffff16815260200184815260200183815260200182815260200195505050505050604051602081830303815290604052805190602001209050600060086000838152602001908152602001600020819055506006546009600083815260200190815260200160002081905550610a4c81610ab5565b50600660008154809291906001019190505550809150509392505050565b60075481565b60086020528060005260406000206000915090505481565b600047905090565b6000809054906101000a900473ffffffffffffffffffffffffffffffffffffffff1681565b600060011515600260003373ffffffffffffffffffffffffffffffffffffffff1673ffffffffffffffffffffffffffffffffffffffff16815260200190815260200160002060009054906101000a900460ff16151514610b60576040517f08c379a0000000000000000000000000000000000000000000000000000000008152600401808060200182810382526024815260200180610e7c6024913960400191505060405180910390fd5b60001515600460003373ffffffffffffffffffffffffffffffffffffffff1673ffffffffffffffffffffffffffffffffffffffff16815260200190815260200160002060009054906101000a900460ff16151514610c09576040517f08c379a000000000000000000000000000000000000000000000000000000000815260040180806020018281038252602f815260200180610e4d602f913960400191505060405180910390fd5b600360008154600101919050819055506001600460003373ffffffffffffffffffffffffffffffffffffffff1673ffffffffffffffffffffffffffffffffffffffff16815260200190815260200160002060006101000a81548160ff021916908315150217905550600160086000848152602001908152602001600020600082825401925050819055507f827bfe95984eb396b6d8ff47200bd671835f5a6d87dc4bad10d2dbd4fe6355a333604051808273ffffffffffffffffffffffffffffffffffffffff1673ffffffffffffffffffffffffffffffffffffffff16815260200191505060405180910390a1610cff82610d0c565b9050919050565b60065481565b60006001600960008481526020019081526020016000205481548110610d2e57fe5b906000526020600020906005020160040154600860008481526020019081526020016000205410610d6957610d6282610d73565b9050610d6e565b600090505b919050565b6000806001600960008581526020019081526020016000205481548110610d9657fe5b906000526020600020906005020160010160009054906101000a900473ffffffffffffffffffffffffffffffffffffffff1690508073ffffffffffffffffffffffffffffffffffffffff166108fc6001600960008781526020019081526020016000205481548110610e0457fe5b9060005260206000209060050201600201549081150290604051600060405180830381858888f19350505050158015610e41573d6000803e3d6000fd5b50600191505091905056fe5468697320616464726573732068617320616c7265616479207369676e656420746865207472616e73616374696f6e546869732061646472657373206973206e6f74206f6e207468652077686974656c6973744e6f7420656e6f7567682065746820746f2073656e64207472616e73616374696f6ea265627a7a72315820a2ada29bc5919638720950cf8a04226daa56e1be2a5d9940b0a6470e73123a3e64736f6c63430005100032",
  "source": "pragma solidity ^0.5.16;\r\n\r\ncontract MultiSig {\r\n    address payable public owner; // Will be the address of who deploys to contract\r\n\r\n    struct transactionData {\r\n        address payable from;\r\n        address payable to;\r\n        uint256 amount;\r\n        uint256 nonceTrans;\r\n        uint256 threshold;\r\n    }\r\n\r\n    transactionData[] transactions;\r\n\r\n    mapping(address => bool) private whiteList; // whitelist of address that can sign transactions\r\n    uint256 private numSigs; // Keeps track of num of signatures on transaction\r\n\r\n    mapping(address => bool) private signedList; // list of address that have signed the transaction\r\n    uint256 private numWhiteList; // Keep track of num of addresses on whitelist\r\n\r\n    // Events to emmit\r\n    event transactionCreated(address, address, uint256, uint256);\r\n\r\n    event SignedTransact(address);\r\n    event AddedWhiteList(address);\r\n    event transactionOccured(address, uint256);\r\n\r\n    uint256 public nonce = 0;\r\n    uint256 public threshold;\r\n    // Mapping to keep track of all message hashes that have been approve by ALL REQUIRED owners\r\n    mapping(bytes32 => uint256) public signedMessages;\r\n    mapping(bytes32 => uint256) public dataViaTxHash;\r\n\r\n    constructor() public {\r\n        // Make the owner who deploys contract\r\n        owner = msg.sender;\r\n\r\n        // Add to white list for owner to sign\r\n        whiteList[owner] = true;\r\n        numSigs = 0;\r\n        numWhiteList = 1;\r\n    }\r\n\r\n    // Adds address to whitelist so entity has signing ability\r\n    function addAddress(address newAddress) public returns (bool success) {\r\n        // Requires to ensure owner adding signers\r\n        require(msg.sender == owner, \"Sender not authorized\");\r\n        require(\r\n            whiteList[newAddress] == false,\r\n            \"Address is already on whitelist\"\r\n        );\r\n\r\n        // Give address signing ability and emit event\r\n        whiteList[newAddress] = true;\r\n        emit AddedWhiteList(newAddress);\r\n        ++numWhiteList;\r\n        return true;\r\n    }\r\n\r\n    // Checks if address has signed transaction\r\n    function checkList(address called) public returns (bool checked) {\r\n        return signedList[called];\r\n    }\r\n\r\n    function setupTransaction(\r\n        address payable _paymentReciever,\r\n        uint256 _threshold,\r\n        uint256 _amount\r\n    ) external payable returns (bytes32) {\r\n        require(msg.value == _amount, \"Not enough eth to send transaction\");\r\n\r\n        transactions[nonce] = transactionData(\r\n            msg.sender,\r\n            _paymentReciever,\r\n            _amount,\r\n            nonce,\r\n            _threshold\r\n        );\r\n\r\n        emit transactionCreated(\r\n            msg.sender,\r\n            _paymentReciever,\r\n            nonce,\r\n            _threshold\r\n        );\r\n\r\n        bytes32 txHash = keccak256(\r\n            abi.encode(\r\n                transactions[nonce].to,\r\n                transactions[nonce].from,\r\n                transactions[nonce].amount,\r\n                transactions[nonce].nonceTrans,\r\n                transactions[nonce].threshold\r\n            )\r\n        );\r\n\r\n        signedMessages[txHash] = 0;\r\n        dataViaTxHash[txHash] = nonce;\r\n        signTransaction(txHash);\r\n\r\n        nonce++;\r\n        return txHash;\r\n    }\r\n\r\n    // Msg.sender signs transaction\r\n    function signTransaction(bytes32 txHash) public returns (bool success) {\r\n        // Makes sure sender is on whitelist and has not signed yet\r\n        require(\r\n            whiteList[msg.sender] == true,\r\n            \"This address is not on the whitelist\"\r\n        );\r\n        require(\r\n            signedList[msg.sender] == false,\r\n            \"This address has already signed the transaction\"\r\n        );\r\n\r\n        // Increment num of signatures on transact and approve on signedList\r\n        ++numSigs;\r\n        signedList[msg.sender] = true;\r\n        signedMessages[txHash] += 1;\r\n        emit SignedTransact(msg.sender);\r\n\r\n        return checkStatus(txHash);\r\n    }\r\n\r\n    function handlePayment(bytes32 txHash) private returns (bool) {\r\n        address payable reciever = transactions[dataViaTxHash[txHash]].to;\r\n        reciever.transfer(transactions[dataViaTxHash[txHash]].amount);\r\n        return true;\r\n    }\r\n\r\n    function contractBalance() public view returns (uint256 balance) {\r\n        return address(this).balance;\r\n    }\r\n\r\n    // Getter for number of entities signed\r\n    function checkStatus(bytes32 txHash) private returns (bool success) {\r\n        if (\r\n            signedMessages[txHash] >=\r\n            transactions[dataViaTxHash[txHash]].threshold\r\n        ) {\r\n            return handlePayment(txHash);\r\n        }\r\n\r\n        return false;\r\n    }\r\n\r\n}\r\n",
  "sourcePath": "C:\\Users\\spvye\\Documents\\Fortmatic\\phantom\\contract\\contracts\\MultiSig.sol",
  "compiler": {
    "name": "solc",
    "version": "0.5.16+commit.9c3226ce.Emscripten.clang"
  },
  "schemaVersion": "3.0.23",
  "updatedAt": "2020-02-26T18:43:22.695Z",
  "devdoc": {
    "methods": {}
  },
  "userdoc": {
    "methods": {}
  }
}