{
  "contractName": "MultiSig",
  "abi": [
    {
      "inputs": [],
      "payable": false,
      "stateMutability": "nonpayable",
      "type": "constructor"
    },
    {
      "anonymous": false,
      "inputs": [
        {
          "indexed": false,
          "internalType": "address",
          "name": "",
          "type": "address"
        }
      ],
      "name": "AddedWhiteList",
      "type": "event"
    },
    {
      "anonymous": false,
      "inputs": [
        {
          "indexed": false,
          "internalType": "address",
          "name": "",
          "type": "address"
        }
      ],
      "name": "SignedTransact",
      "type": "event"
    },
    {
      "anonymous": false,
      "inputs": [
        {
          "indexed": false,
          "internalType": "bytes32",
          "name": "",
          "type": "bytes32"
        }
      ],
      "name": "emitHash",
      "type": "event"
    },
    {
      "anonymous": false,
      "inputs": [
        {
          "indexed": false,
          "internalType": "address",
          "name": "",
          "type": "address"
        },
        {
          "indexed": false,
          "internalType": "address",
          "name": "",
          "type": "address"
        },
        {
          "indexed": false,
          "internalType": "uint256",
          "name": "",
          "type": "uint256"
        },
        {
          "indexed": false,
          "internalType": "uint256",
          "name": "",
          "type": "uint256"
        }
      ],
      "name": "transactionCreated",
      "type": "event"
    },
    {
      "anonymous": false,
      "inputs": [
        {
          "indexed": false,
          "internalType": "address",
          "name": "",
          "type": "address"
        },
        {
          "indexed": false,
          "internalType": "uint256",
          "name": "",
          "type": "uint256"
        }
      ],
      "name": "transactionOccured",
      "type": "event"
    },
    {
      "constant": true,
      "inputs": [],
      "name": "nonce",
      "outputs": [
        {
          "internalType": "uint256",
          "name": "",
          "type": "uint256"
        }
      ],
      "payable": false,
      "stateMutability": "view",
      "type": "function"
    },
    {
      "constant": true,
      "inputs": [],
      "name": "numPendingTx",
      "outputs": [
        {
          "internalType": "uint256",
          "name": "",
          "type": "uint256"
        }
      ],
      "payable": false,
      "stateMutability": "view",
      "type": "function"
    },
    {
      "constant": true,
      "inputs": [],
      "name": "numWhitlist",
      "outputs": [
        {
          "internalType": "uint256",
          "name": "",
          "type": "uint256"
        }
      ],
      "payable": false,
      "stateMutability": "view",
      "type": "function"
    },
    {
      "constant": true,
      "inputs": [],
      "name": "owner",
      "outputs": [
        {
          "internalType": "address",
          "name": "",
          "type": "address"
        }
      ],
      "payable": false,
      "stateMutability": "view",
      "type": "function"
    },
    {
      "constant": true,
      "inputs": [
        {
          "internalType": "uint256",
          "name": "",
          "type": "uint256"
        }
      ],
      "name": "pendingTransactions",
      "outputs": [
        {
          "internalType": "address payable",
          "name": "from",
          "type": "address"
        },
        {
          "internalType": "address payable",
          "name": "to",
          "type": "address"
        },
        {
          "internalType": "uint256",
          "name": "amount",
          "type": "uint256"
        },
        {
          "internalType": "uint256",
          "name": "nonceTrans",
          "type": "uint256"
        },
        {
          "internalType": "uint256",
          "name": "threshold",
          "type": "uint256"
        }
      ],
      "payable": false,
      "stateMutability": "view",
      "type": "function"
    },
    {
      "constant": true,
      "inputs": [
        {
          "internalType": "bytes32",
          "name": "",
          "type": "bytes32"
        },
        {
          "internalType": "address",
          "name": "",
          "type": "address"
        }
      ],
      "name": "signedList",
      "outputs": [
        {
          "internalType": "bool",
          "name": "",
          "type": "bool"
        }
      ],
      "payable": false,
      "stateMutability": "view",
      "type": "function"
    },
    {
      "constant": true,
      "inputs": [
        {
          "internalType": "uint256",
          "name": "",
          "type": "uint256"
        }
      ],
      "name": "transactions",
      "outputs": [
        {
          "internalType": "address payable",
          "name": "from",
          "type": "address"
        },
        {
          "internalType": "address payable",
          "name": "to",
          "type": "address"
        },
        {
          "internalType": "uint256",
          "name": "amount",
          "type": "uint256"
        },
        {
          "internalType": "uint256",
          "name": "nonceTrans",
          "type": "uint256"
        },
        {
          "internalType": "uint256",
          "name": "threshold",
          "type": "uint256"
        }
      ],
      "payable": false,
      "stateMutability": "view",
      "type": "function"
    },
    {
      "constant": true,
      "inputs": [
        {
          "internalType": "address",
          "name": "",
          "type": "address"
        }
      ],
      "name": "whitelist",
      "outputs": [
        {
          "internalType": "bool",
          "name": "",
          "type": "bool"
        }
      ],
      "payable": false,
      "stateMutability": "view",
      "type": "function"
    },
    {
      "constant": true,
      "inputs": [
        {
          "internalType": "uint256",
          "name": "",
          "type": "uint256"
        }
      ],
      "name": "whitelistAdd",
      "outputs": [
        {
          "internalType": "address",
          "name": "",
          "type": "address"
        }
      ],
      "payable": false,
      "stateMutability": "view",
      "type": "function"
    },
    {
      "constant": true,
      "inputs": [],
      "name": "getWhitelistAdd",
      "outputs": [
        {
          "internalType": "address[]",
          "name": "whitelistArr",
          "type": "address[]"
        }
      ],
      "payable": false,
      "stateMutability": "view",
      "type": "function"
    },
    {
      "constant": true,
      "inputs": [],
      "name": "getPendingTx",
      "outputs": [
        {
          "components": [
            {
              "internalType": "address payable",
              "name": "from",
              "type": "address"
            },
            {
              "internalType": "address payable",
              "name": "to",
              "type": "address"
            },
            {
              "internalType": "uint256",
              "name": "amount",
              "type": "uint256"
            },
            {
              "internalType": "uint256",
              "name": "nonceTrans",
              "type": "uint256"
            },
            {
              "internalType": "uint256",
              "name": "threshold",
              "type": "uint256"
            }
          ],
          "internalType": "struct MultiSig.transactionData[]",
          "name": "pending",
          "type": "tuple[]"
        }
      ],
      "payable": false,
      "stateMutability": "view",
      "type": "function"
    },
    {
      "constant": false,
      "inputs": [
        {
          "internalType": "address",
          "name": "newAddress",
          "type": "address"
        }
      ],
      "name": "addAddress",
      "outputs": [
        {
          "internalType": "bool",
          "name": "success",
          "type": "bool"
        }
      ],
      "payable": false,
      "stateMutability": "nonpayable",
      "type": "function"
    },
    {
      "constant": false,
      "inputs": [
        {
          "internalType": "address payable",
          "name": "_paymentReciever",
          "type": "address"
        },
        {
          "internalType": "uint256",
          "name": "_threshold",
          "type": "uint256"
        },
        {
          "internalType": "uint256",
          "name": "_amount",
          "type": "uint256"
        }
      ],
      "name": "setupTransaction",
      "outputs": [
        {
          "internalType": "uint256",
          "name": "",
          "type": "uint256"
        }
      ],
      "payable": true,
      "stateMutability": "payable",
      "type": "function"
    },
    {
      "constant": false,
      "inputs": [
        {
          "internalType": "uint256",
          "name": "index",
          "type": "uint256"
        }
      ],
      "name": "getEncoding",
      "outputs": [
        {
          "internalType": "bytes32",
          "name": "",
          "type": "bytes32"
        }
      ],
      "payable": false,
      "stateMutability": "nonpayable",
      "type": "function"
    },
    {
      "constant": false,
      "inputs": [
        {
          "internalType": "uint256",
          "name": "index",
          "type": "uint256"
        }
      ],
      "name": "signTransaction",
      "outputs": [
        {
          "internalType": "bool",
          "name": "success",
          "type": "bool"
        }
      ],
      "payable": false,
      "stateMutability": "nonpayable",
      "type": "function"
    },
    {
      "constant": false,
      "inputs": [
        {
          "internalType": "uint256",
          "name": "index",
          "type": "uint256"
        }
      ],
      "name": "getNumSigs",
      "outputs": [
        {
          "internalType": "uint256",
          "name": "num",
          "type": "uint256"
        }
      ],
      "payable": false,
      "stateMutability": "nonpayable",
      "type": "function"
    },
    {
      "constant": true,
      "inputs": [],
      "name": "contractBalance",
      "outputs": [
        {
          "internalType": "uint256",
          "name": "balance",
          "type": "uint256"
        }
      ],
      "payable": false,
      "stateMutability": "view",
      "type": "function"
    },
    {
      "constant": false,
      "inputs": [
        {
          "internalType": "uint256",
          "name": "index",
          "type": "uint256"
        }
      ],
      "name": "checkStatus",
      "outputs": [
        {
          "internalType": "bool",
          "name": "success",
          "type": "bool"
        }
      ],
      "payable": true,
      "stateMutability": "payable",
      "type": "function"
    }
  ],
  "bytecode": "0x60806040523480156200001157600080fd5b50336000806101000a81548173ffffffffffffffffffffffffffffffffffffffff021916908373ffffffffffffffffffffffffffffffffffffffff1602179055506000600481905550600060078190555060006001819055506200007b336200008260201b60201c565b50620003f9565b60008060009054906101000a900473ffffffffffffffffffffffffffffffffffffffff1673ffffffffffffffffffffffffffffffffffffffff163373ffffffffffffffffffffffffffffffffffffffff161462000116576040517f08c379a00000000000000000000000000000000000000000000000000000000081526004016200010d9062000370565b60405180910390fd5b60001515600360008473ffffffffffffffffffffffffffffffffffffffff1673ffffffffffffffffffffffffffffffffffffffff16815260200190815260200160002060009054906101000a900460ff16151514620001ac576040517f08c379a0000000000000000000000000000000000000000000000000000000008152600401620001a39062000392565b60405180910390fd5b60028290806001815401808255809150509060018203906000526020600020016000909192909190916101000a81548173ffffffffffffffffffffffffffffffffffffffff021916908373ffffffffffffffffffffffffffffffffffffffff160217905550506001600360008473ffffffffffffffffffffffffffffffffffffffff1673ffffffffffffffffffffffffffffffffffffffff16815260200190815260200160002060006101000a81548160ff0219169083151502179055506004600081548092919060010191905055507f64fd21439447139bed5a374a0f62ecc0fbd38cf2687d4ed5d587cb55dfbd425882604051620002ad919062000353565b60405180910390a160019050919050565b620002c981620003c5565b82525050565b6000620002de601583620003b4565b91507f53656e646572206e6f7420617574686f72697a656400000000000000000000006000830152602082019050919050565b600062000320600d83620003b4565b91507f416c7265616479206164646564000000000000000000000000000000000000006000830152602082019050919050565b60006020820190506200036a6000830184620002be565b92915050565b600060208201905081810360008301526200038b81620002cf565b9050919050565b60006020820190508181036000830152620003ad8162000311565b9050919050565b600082825260208201905092915050565b6000620003d282620003d9565b9050919050565b600073ffffffffffffffffffffffffffffffffffffffff82169050919050565b6123d080620004096000396000f3fe6080604052600436106101095760003560e01c80638da5cb5b116100955780639b19251a116100645780639b19251a146103cd578063affed0e01461040a578063c2d2c06114610435578063e95597fc14610472578063fe05ee131461049d57610109565b80638da5cb5b146102f95780638e847aa61461032457806395b52bdb146103615780639ace38c21461038c57610109565b80633d8c16de116100dc5780633d8c16de146101e35780635d9ec2101461021357806363a8374d1461025057806383588447146102915780638b7afe2e146102ce57610109565b80631045af361461010e57806324691869146101395780632858c7641461017657806338eada1c146101a6575b600080fd5b34801561011a57600080fd5b506101236104c8565b60405161013091906121f9565b60405180910390f35b34801561014557600080fd5b50610160600480360361015b9190810190611c32565b6104ce565b60405161016d91906121f9565b60405180910390f35b610190600480360361018b9190810190611c32565b61061a565b60405161019d9190612123565b60405180910390f35b3480156101b257600080fd5b506101cd60048036036101c89190810190611b7e565b61079e565b6040516101da9190612123565b60405180910390f35b6101fd60048036036101f89190810190611ba7565b6109d2565b60405161020a91906121f9565b60405180910390f35b34801561021f57600080fd5b5061023a60048036036102359190810190611c32565b610e2f565b6040516102479190612123565b60405180910390f35b34801561025c57600080fd5b5061027760048036036102729190810190611c32565b611169565b604051610288959493929190612063565b60405180910390f35b34801561029d57600080fd5b506102b860048036036102b39190810190611c32565b6111ec565b6040516102c59190611fe8565b60405180910390f35b3480156102da57600080fd5b506102e3611228565b6040516102f091906121f9565b60405180910390f35b34801561030557600080fd5b5061030e611230565b60405161031b9190611fe8565b60405180910390f35b34801561033057600080fd5b5061034b60048036036103469190810190611bf6565b611255565b6040516103589190612123565b60405180910390f35b34801561036d57600080fd5b50610376611284565b60405161038391906120df565b60405180910390f35b34801561039857600080fd5b506103b360048036036103ae9190810190611c32565b611312565b6040516103c4959493929190612063565b60405180910390f35b3480156103d957600080fd5b506103f460048036036103ef9190810190611b7e565b611395565b6040516104019190612123565b60405180910390f35b34801561041657600080fd5b5061041f6113b5565b60405161042c91906121f9565b60405180910390f35b34801561044157600080fd5b5061045c60048036036104579190810190611c32565b6113bb565b604051610469919061213e565b60405180910390f35b34801561047e57600080fd5b506104876114ef565b6040516104949190612101565b60405180910390f35b3480156104a957600080fd5b506104b2611618565b6040516104bf91906121f9565b60405180910390f35b60075481565b6000806105fc836006805480602002602001604051908101604052809291908181526020016000905b828210156105f357838290600052602060002090600502016040518060a00160405290816000820160009054906101000a900473ffffffffffffffffffffffffffffffffffffffff1673ffffffffffffffffffffffffffffffffffffffff1673ffffffffffffffffffffffffffffffffffffffff1681526020016001820160009054906101000a900473ffffffffffffffffffffffffffffffffffffffff1673ffffffffffffffffffffffffffffffffffffffff1673ffffffffffffffffffffffffffffffffffffffff1681526020016002820154815260200160038201548152602001600482015481525050815260200190600101906104f7565b5050505061161e565b90506009600082815260200190815260200160002054915050919050565b600080610748836006805480602002602001604051908101604052809291908181526020016000905b8282101561073f57838290600052602060002090600502016040518060a00160405290816000820160009054906101000a900473ffffffffffffffffffffffffffffffffffffffff1673ffffffffffffffffffffffffffffffffffffffff1673ffffffffffffffffffffffffffffffffffffffff1681526020016001820160009054906101000a900473ffffffffffffffffffffffffffffffffffffffff1673ffffffffffffffffffffffffffffffffffffffff1673ffffffffffffffffffffffffffffffffffffffff168152602001600282015481526020016003820154815260200160048201548152505081526020019060010190610643565b5050505061161e565b90506005838154811061075757fe5b9060005260206000209060050201600401546009600083815260200190815260200160002054106107935761078b836116cf565b915050610799565b60009150505b919050565b60008060009054906101000a900473ffffffffffffffffffffffffffffffffffffffff1673ffffffffffffffffffffffffffffffffffffffff163373ffffffffffffffffffffffffffffffffffffffff161461082f576040517f08c379a000000000000000000000000000000000000000000000000000000000815260040161082690612159565b60405180910390fd5b60001515600360008473ffffffffffffffffffffffffffffffffffffffff1673ffffffffffffffffffffffffffffffffffffffff16815260200190815260200160002060009054906101000a900460ff161515146108c2576040517f08c379a00000000000000000000000000000000000000000000000000000000081526004016108b9906121d9565b60405180910390fd5b60028290806001815401808255809150509060018203906000526020600020016000909192909190916101000a81548173ffffffffffffffffffffffffffffffffffffffff021916908373ffffffffffffffffffffffffffffffffffffffff160217905550506001600360008473ffffffffffffffffffffffffffffffffffffffff1673ffffffffffffffffffffffffffffffffffffffff16815260200190815260200160002060006101000a81548160ff0219169083151502179055506004600081548092919060010191905055507f64fd21439447139bed5a374a0f62ecc0fbd38cf2687d4ed5d587cb55dfbd4258826040516109c19190611fe8565b60405180910390a160019050919050565b6000813414610a16576040517f08c379a0000000000000000000000000000000000000000000000000000000008152600401610a0d906121b9565b60405180910390fd5b610a1e611a18565b6040518060a001604052803373ffffffffffffffffffffffffffffffffffffffff1681526020018673ffffffffffffffffffffffffffffffffffffffff16815260200184815260200160015481526020018581525090506005819080600181540180825580915050906001820390600052602060002090600502016000909192909190915060008201518160000160006101000a81548173ffffffffffffffffffffffffffffffffffffffff021916908373ffffffffffffffffffffffffffffffffffffffff16021790555060208201518160010160006101000a81548173ffffffffffffffffffffffffffffffffffffffff021916908373ffffffffffffffffffffffffffffffffffffffff1602179055506040820151816002015560608201518160030155608082015181600401555050506006819080600181540180825580915050906001820390600052602060002090600502016000909192909190915060008201518160000160006101000a81548173ffffffffffffffffffffffffffffffffffffffff021916908373ffffffffffffffffffffffffffffffffffffffff16021790555060208201518160010160006101000a81548173ffffffffffffffffffffffffffffffffffffffff021916908373ffffffffffffffffffffffffffffffffffffffff1602179055506040820151816002015560608201518160030155608082015181600401555050506007600081548092919060010191905055507fc5094f20ddbb9bda2b4d1b39f78d7d784f323b721a2a8f32456a45d3dfb716d8338660015487604051610c78949392919061201e565b60405180910390a16000610daf6001546005805480602002602001604051908101604052809291908181526020016000905b82821015610da657838290600052602060002090600502016040518060a00160405290816000820160009054906101000a900473ffffffffffffffffffffffffffffffffffffffff1673ffffffffffffffffffffffffffffffffffffffff1673ffffffffffffffffffffffffffffffffffffffff1681526020016001820160009054906101000a900473ffffffffffffffffffffffffffffffffffffffff1673ffffffffffffffffffffffffffffffffffffffff1673ffffffffffffffffffffffffffffffffffffffff168152602001600282015481526020016003820154815260200160048201548152505081526020019060010190610caa565b5050505061161e565b905060006009600083815260200190815260200160002081905550610dd5600154610e2f565b506001600081548092919060010191905055507f5cc0f3a9b565d77821d0b777308389f2f8c3bca39e70f63f8e636af113c6429a81604051610e17919061213e565b60405180910390a16001805403925050509392505050565b600080610f5d836006805480602002602001604051908101604052809291908181526020016000905b82821015610f5457838290600052602060002090600502016040518060a00160405290816000820160009054906101000a900473ffffffffffffffffffffffffffffffffffffffff1673ffffffffffffffffffffffffffffffffffffffff1673ffffffffffffffffffffffffffffffffffffffff1681526020016001820160009054906101000a900473ffffffffffffffffffffffffffffffffffffffff1673ffffffffffffffffffffffffffffffffffffffff1673ffffffffffffffffffffffffffffffffffffffff168152602001600282015481526020016003820154815260200160048201548152505081526020019060010190610e58565b5050505061161e565b905060011515600360003373ffffffffffffffffffffffffffffffffffffffff1673ffffffffffffffffffffffffffffffffffffffff16815260200190815260200160002060009054906101000a900460ff16151514610ff2576040517f08c379a0000000000000000000000000000000000000000000000000000000008152600401610fe990612199565b60405180910390fd5b600015156008600083815260200190815260200160002060003373ffffffffffffffffffffffffffffffffffffffff1673ffffffffffffffffffffffffffffffffffffffff16815260200190815260200160002060009054906101000a900460ff16151514611096576040517f08c379a000000000000000000000000000000000000000000000000000000000815260040161108d90612179565b60405180910390fd5b60016008600083815260200190815260200160002060003373ffffffffffffffffffffffffffffffffffffffff1673ffffffffffffffffffffffffffffffffffffffff16815260200190815260200160002060006101000a81548160ff021916908315150217905550600160096000838152602001908152602001600020600082825401925050819055507f827bfe95984eb396b6d8ff47200bd671835f5a6d87dc4bad10d2dbd4fe6355a3336040516111509190612003565b60405180910390a16111618361061a565b915050919050565b6006818154811061117657fe5b90600052602060002090600502016000915090508060000160009054906101000a900473ffffffffffffffffffffffffffffffffffffffff16908060010160009054906101000a900473ffffffffffffffffffffffffffffffffffffffff16908060020154908060030154908060040154905085565b600281815481106111f957fe5b906000526020600020016000915054906101000a900473ffffffffffffffffffffffffffffffffffffffff1681565b600047905090565b6000809054906101000a900473ffffffffffffffffffffffffffffffffffffffff1681565b60086020528160005260406000206020528060005260406000206000915091509054906101000a900460ff1681565b6060600280548060200260200160405190810160405280929190818152602001828054801561130857602002820191906000526020600020905b8160009054906101000a900473ffffffffffffffffffffffffffffffffffffffff1673ffffffffffffffffffffffffffffffffffffffff16815260200190600101908083116112be575b5050505050905090565b6005818154811061131f57fe5b90600052602060002090600502016000915090508060000160009054906101000a900473ffffffffffffffffffffffffffffffffffffffff16908060010160009054906101000a900473ffffffffffffffffffffffffffffffffffffffff16908060020154908060030154908060040154905085565b60036020528060005260406000206000915054906101000a900460ff1681565b60015481565b60006114e8826006805480602002602001604051908101604052809291908181526020016000905b828210156114df57838290600052602060002090600502016040518060a00160405290816000820160009054906101000a900473ffffffffffffffffffffffffffffffffffffffff1673ffffffffffffffffffffffffffffffffffffffff1673ffffffffffffffffffffffffffffffffffffffff1681526020016001820160009054906101000a900473ffffffffffffffffffffffffffffffffffffffff1673ffffffffffffffffffffffffffffffffffffffff1673ffffffffffffffffffffffffffffffffffffffff1681526020016002820154815260200160038201548152602001600482015481525050815260200190600101906113e3565b5050505061161e565b9050919050565b60606006805480602002602001604051908101604052809291908181526020016000905b8282101561160f57838290600052602060002090600502016040518060a00160405290816000820160009054906101000a900473ffffffffffffffffffffffffffffffffffffffff1673ffffffffffffffffffffffffffffffffffffffff1673ffffffffffffffffffffffffffffffffffffffff1681526020016001820160009054906101000a900473ffffffffffffffffffffffffffffffffffffffff1673ffffffffffffffffffffffffffffffffffffffff1673ffffffffffffffffffffffffffffffffffffffff168152602001600282015481526020016003820154815260200160048201548152505081526020019060010190611513565b50505050905090565b60045481565b60008082848151811061162d57fe5b60200260200101516020015183858151811061164557fe5b60200260200101516000015184868151811061165d57fe5b60200260200101516040015185878151811061167557fe5b60200260200101516060015186888151811061168d57fe5b6020026020010151608001516040516020016116ad959493929190612063565b6040516020818303038152906040528051906020012090508091505092915050565b600080600583815481106116df57fe5b906000526020600020906005020160010160009054906101000a900473ffffffffffffffffffffffffffffffffffffffff1690508073ffffffffffffffffffffffffffffffffffffffff166108fc6005858154811061173a57fe5b9060005260206000209060050201600201549081150290604051600060405180830381858888f19350505050158015611777573d6000803e3d6000fd5b507f2f03f1395f971b1f02ef2bc5afe3dcaadb5138627f8f45633cefd28f1a5f7e45600584815481106117a657fe5b906000526020600020906005020160010160009054906101000a900473ffffffffffffffffffffffffffffffffffffffff16600585815481106117e557fe5b9060005260206000209060050201600201546040516118059291906120b6565b60405180910390a160008390505b600160068054905003811015611958576006600182018154811061183357fe5b90600052602060002090600502016006828154811061184e57fe5b90600052602060002090600502016000820160009054906101000a900473ffffffffffffffffffffffffffffffffffffffff168160000160006101000a81548173ffffffffffffffffffffffffffffffffffffffff021916908373ffffffffffffffffffffffffffffffffffffffff1602179055506001820160009054906101000a900473ffffffffffffffffffffffffffffffffffffffff168160010160006101000a81548173ffffffffffffffffffffffffffffffffffffffff021916908373ffffffffffffffffffffffffffffffffffffffff1602179055506002820154816002015560038201548160030155600482015481600401559050508080600101915050611813565b5060066001600680549050038154811061196e57fe5b9060005260206000209060050201600080820160006101000a81549073ffffffffffffffffffffffffffffffffffffffff02191690556001820160006101000a81549073ffffffffffffffffffffffffffffffffffffffff0219169055600282016000905560038201600090556004820160009055505060068054809190600190036119fa9190611a73565b50600760008154809291906001900391905055506001915050919050565b6040518060a00160405280600073ffffffffffffffffffffffffffffffffffffffff168152602001600073ffffffffffffffffffffffffffffffffffffffff1681526020016000815260200160008152602001600081525090565b815481835581811115611aa057600502816005028360005260206000209182019101611a9f9190611aa5565b5b505050565b611b2791905b80821115611b2357600080820160006101000a81549073ffffffffffffffffffffffffffffffffffffffff02191690556001820160006101000a81549073ffffffffffffffffffffffffffffffffffffffff021916905560028201600090556003820160009055600482016000905550600501611aab565b5090565b90565b600081359050611b3981612331565b92915050565b600081359050611b4e81612348565b92915050565b600081359050611b638161235f565b92915050565b600081359050611b7881612376565b92915050565b600060208284031215611b9057600080fd5b6000611b9e84828501611b2a565b91505092915050565b600080600060608486031215611bbc57600080fd5b6000611bca86828701611b3f565b9350506020611bdb86828701611b69565b9250506040611bec86828701611b69565b9150509250925092565b60008060408385031215611c0957600080fd5b6000611c1785828601611b54565b9250506020611c2885828601611b2a565b9150509250929050565b600060208284031215611c4457600080fd5b6000611c5284828501611b69565b91505092915050565b6000611c678383611cb8565b60208301905092915050565b6000611c7f8383611f62565b60a08301905092915050565b611c94816122fb565b82525050565b611ca3816122a9565b82525050565b611cb2816122a9565b82525050565b611cc181612297565b82525050565b611cd081612297565b82525050565b6000611ce182612234565b611ceb8185612264565b9350611cf683612214565b8060005b83811015611d27578151611d0e8882611c5b565b9750611d198361224a565b925050600181019050611cfa565b5085935050505092915050565b6000611d3f8261223f565b611d498185612275565b9350611d5483612224565b8060005b83811015611d85578151611d6c8882611c73565b9750611d7783612257565b925050600181019050611d58565b5085935050505092915050565b611d9b816122bb565b82525050565b611daa816122c7565b82525050565b6000611dbd601583612286565b91507f53656e646572206e6f7420617574686f72697a656400000000000000000000006000830152602082019050919050565b6000611dfd602f83612286565b91507f5468697320616464726573732068617320616c7265616479207369676e65642060008301527f746865207472616e73616374696f6e00000000000000000000000000000000006020830152604082019050919050565b6000611e63602483612286565b91507f546869732061646472657373206973206e6f74206f6e2074686520776869746560008301527f6c697374000000000000000000000000000000000000000000000000000000006020830152604082019050919050565b6000611ec9602283612286565b91507f4e6f7420656e6f7567682065746820746f2073656e64207472616e736163746960008301527f6f6e0000000000000000000000000000000000000000000000000000000000006020830152604082019050919050565b6000611f2f600d83612286565b91507f416c7265616479206164646564000000000000000000000000000000000000006000830152602082019050919050565b60a082016000820151611f786000850182611c9a565b506020820151611f8b6020850182611c9a565b506040820151611f9e6040850182611fca565b506060820151611fb16060850182611fca565b506080820151611fc46080850182611fca565b50505050565b611fd3816122f1565b82525050565b611fe2816122f1565b82525050565b6000602082019050611ffd6000830184611cc7565b92915050565b60006020820190506120186000830184611c8b565b92915050565b60006080820190506120336000830187611c8b565b6120406020830186611c8b565b61204d6040830185611fd9565b61205a6060830184611fd9565b95945050505050565b600060a0820190506120786000830188611ca9565b6120856020830187611ca9565b6120926040830186611fd9565b61209f6060830185611fd9565b6120ac6080830184611fd9565b9695505050505050565b60006040820190506120cb6000830185611c8b565b6120d86020830184611fd9565b9392505050565b600060208201905081810360008301526120f98184611cd6565b905092915050565b6000602082019050818103600083015261211b8184611d34565b905092915050565b60006020820190506121386000830184611d92565b92915050565b60006020820190506121536000830184611da1565b92915050565b6000602082019050818103600083015261217281611db0565b9050919050565b6000602082019050818103600083015261219281611df0565b9050919050565b600060208201905081810360008301526121b281611e56565b9050919050565b600060208201905081810360008301526121d281611ebc565b9050919050565b600060208201905081810360008301526121f281611f22565b9050919050565b600060208201905061220e6000830184611fd9565b92915050565b6000819050602082019050919050565b6000819050602082019050919050565b600081519050919050565b600081519050919050565b6000602082019050919050565b6000602082019050919050565b600082825260208201905092915050565b600082825260208201905092915050565b600082825260208201905092915050565b60006122a2826122d1565b9050919050565b60006122b4826122d1565b9050919050565b60008115159050919050565b6000819050919050565b600073ffffffffffffffffffffffffffffffffffffffff82169050919050565b6000819050919050565b60006123068261230d565b9050919050565b60006123188261231f565b9050919050565b600061232a826122d1565b9050919050565b61233a81612297565b811461234557600080fd5b50565b612351816122a9565b811461235c57600080fd5b50565b612368816122c7565b811461237357600080fd5b50565b61237f816122f1565b811461238a57600080fd5b5056fea365627a7a72315820a98013778b7ce3ad87381f7b29cad0aed39ea7d9231a7a175d99d0f4d0a209d36c6578706572696d656e74616cf564736f6c63430005100040",
  "source": "pragma solidity ^0.5.16;\r\npragma experimental ABIEncoderV2;\r\n\r\ncontract MultiSig {\r\n    address public owner; // Will be the address of who deploys to contract\r\n    uint256 public nonce;\r\n\r\n    struct transactionData {\r\n        address payable from;\r\n        address payable to;\r\n        uint256 amount;\r\n        uint256 nonceTrans;\r\n        uint256 threshold;\r\n    }\r\n\r\n    address[] public whitelistAdd; // list of addresses added to whitelist\r\n    mapping(address => bool) public whitelist;\r\n    uint256 public numWhitlist;\r\n\r\n    transactionData[] public transactions;\r\n    transactionData[] public pendingTransactions;\r\n    uint256 public numPendingTx;\r\n\r\n    mapping(bytes32 => mapping(address => bool)) public signedList; // list of address that have signed the transaction\r\n    mapping(bytes32 => uint256) numSigs;\r\n\r\n    // Events to emmit\r\n    event transactionCreated(address, address, uint256, uint256);\r\n    event SignedTransact(address);\r\n    event AddedWhiteList(address);\r\n    event transactionOccured(address, uint256);\r\n    event emitHash(bytes32);\r\n\r\n    constructor() public {\r\n        // Make the owner who deploys contract\r\n        owner = msg.sender;\r\n        // Add to white list for owner to sign\r\n        numWhitlist = 0;\r\n        numPendingTx = 0;\r\n        nonce = 0;\r\n        addAddress(msg.sender); // add owner's address as address 0 of whitelist addresses\r\n    }\r\n\r\n    function getWhitelistAdd()\r\n        public\r\n        view\r\n        returns (address[] memory whitelistArr)\r\n    {\r\n        return whitelistAdd;\r\n    }\r\n\r\n    function getPendingTx()\r\n        public\r\n        view\r\n        returns (transactionData[] memory pending)\r\n    {\r\n        return pendingTransactions;\r\n    }\r\n\r\n    // Adds address to whitelist so entity has signing ability\r\n    function addAddress(address newAddress) public returns (bool success) {\r\n        // Requires to ensure owner adding signers\r\n        require(msg.sender == owner, \"Sender not authorized\");\r\n        require(whitelist[newAddress] == false, \"Already added\");\r\n\r\n        // Give address signing ability and emit event\r\n        whitelistAdd.push(newAddress); // add the new address to list of whitelist addresses\r\n        whitelist[newAddress] = true;\r\n        numWhitlist++;\r\n        emit AddedWhiteList(newAddress);\r\n        return true;\r\n    }\r\n\r\n    function setupTransaction(\r\n        address payable _paymentReciever,\r\n        uint256 _threshold,\r\n        uint256 _amount\r\n    ) external payable returns (uint256) {\r\n        require(msg.value == _amount, \"Not enough eth to send transaction\");\r\n\r\n        transactionData memory tmp = transactionData(\r\n            msg.sender,\r\n            _paymentReciever,\r\n            _amount,\r\n            nonce,\r\n            _threshold\r\n        );\r\n\r\n        transactions.push(tmp);\r\n        pendingTransactions.push(tmp);\r\n        numPendingTx++;\r\n\r\n        emit transactionCreated(\r\n            msg.sender,\r\n            _paymentReciever,\r\n            nonce,\r\n            _threshold\r\n        );\r\n\r\n        bytes32 txHash = encodeTransaction(nonce, transactions);\r\n\r\n        numSigs[txHash] = 0;\r\n        signTransaction(nonce);\r\n\r\n        nonce++;\r\n        emit emitHash(txHash);\r\n\r\n        return nonce - 1;\r\n    }\r\n\r\n    function getEncoding(uint256 index) public returns (bytes32) {\r\n        return encodeTransaction(index, pendingTransactions);\r\n    }\r\n\r\n    function encodeTransaction(uint256 index, transactionData[] memory txns)\r\n        internal\r\n        pure\r\n        returns (bytes32)\r\n    {\r\n        bytes32 tmp = keccak256(\r\n            abi.encode(\r\n                txns[index].to,\r\n                txns[index].from,\r\n                txns[index].amount,\r\n                txns[index].nonceTrans,\r\n                txns[index].threshold\r\n            )\r\n        );\r\n\r\n        return tmp;\r\n    }\r\n\r\n    // Msg.sender signs transaction\r\n    function signTransaction(uint256 index) public returns (bool success) {\r\n        bytes32 txHash = encodeTransaction(index, pendingTransactions);\r\n        // Makes sure sender is on whitelist and has not signed yet\r\n        require(\r\n            whitelist[msg.sender] == true,\r\n            \"This address is not on the whitelist\"\r\n        );\r\n        require(\r\n            signedList[txHash][msg.sender] == false,\r\n            \"This address has already signed the transaction\"\r\n        );\r\n\r\n        // Increment num of signatures on transact and approve on signedList\r\n        signedList[txHash][msg.sender] = true;\r\n        numSigs[txHash] += 1;\r\n\r\n        emit SignedTransact(msg.sender);\r\n\r\n        return checkStatus(index);\r\n    }\r\n\r\n    function getNumSigs(uint256 index) public returns (uint256 num) {\r\n        bytes32 txHash = encodeTransaction(index, pendingTransactions);\r\n        return numSigs[txHash];\r\n    }\r\n\r\n    function handlePayment(uint256 index) private returns (bool) {\r\n        address payable reciever = transactions[index].to;\r\n        reciever.transfer(transactions[index].amount);\r\n\r\n        emit transactionOccured(\r\n            transactions[index].to,\r\n            transactions[index].amount\r\n        );\r\n\r\n        for (uint256 i = index; i < pendingTransactions.length - 1; i++) {\r\n            pendingTransactions[i] = pendingTransactions[i + 1];\r\n        }\r\n\r\n        delete pendingTransactions[pendingTransactions.length - 1];\r\n        pendingTransactions.length--;\r\n        numPendingTx--;\r\n\r\n        return true;\r\n    }\r\n\r\n    function contractBalance() public view returns (uint256 balance) {\r\n        return address(this).balance;\r\n    }\r\n\r\n    // Getter for number of entities signed\r\n    function checkStatus(uint256 index) public payable returns (bool success) {\r\n        bytes32 txHash = encodeTransaction(index, pendingTransactions);\r\n        if (numSigs[txHash] >= transactions[index].threshold) {\r\n            return handlePayment(index);\r\n        }\r\n\r\n        return false;\r\n    }\r\n\r\n}\r\n",
  "sourcePath": "/Users/sangillee/Documents/phantom/contract/contracts/MultiSig.sol",
  "compiler": {
    "name": "solc",
    "version": "0.5.16+commit.9c3226ce.Emscripten.clang"
  },
  "schemaVersion": "3.0.23",
  "updatedAt": "2020-03-16T04:32:36.280Z",
  "devdoc": {
    "methods": {}
  },
  "userdoc": {
    "methods": {}
  }
}