{
  "contractName": "MultiSig",
  "abi": [
    {
      "inputs": [],
      "payable": false,
      "stateMutability": "nonpayable",
      "type": "constructor"
    },
    {
      "anonymous": false,
      "inputs": [
        {
          "indexed": false,
          "internalType": "address",
          "name": "",
          "type": "address"
        }
      ],
      "name": "AddedWhiteList",
      "type": "event"
    },
    {
      "anonymous": false,
      "inputs": [
        {
          "indexed": false,
          "internalType": "address",
          "name": "",
          "type": "address"
        }
      ],
      "name": "SignedTransact",
      "type": "event"
    },
    {
      "anonymous": false,
      "inputs": [
        {
          "indexed": false,
          "internalType": "address",
          "name": "",
          "type": "address"
        },
        {
          "indexed": false,
          "internalType": "address",
          "name": "",
          "type": "address"
        },
        {
          "indexed": false,
          "internalType": "uint256",
          "name": "",
          "type": "uint256"
        },
        {
          "indexed": false,
          "internalType": "uint256",
          "name": "",
          "type": "uint256"
        }
      ],
      "name": "transactionCreated",
      "type": "event"
    },
    {
      "anonymous": false,
      "inputs": [
        {
          "indexed": false,
          "internalType": "address",
          "name": "",
          "type": "address"
        },
        {
          "indexed": false,
          "internalType": "uint256",
          "name": "",
          "type": "uint256"
        }
      ],
      "name": "transactionOccured",
      "type": "event"
    },
    {
      "constant": true,
      "inputs": [
        {
          "internalType": "uint256",
          "name": "",
          "type": "uint256"
        }
      ],
      "name": "ethTxHashes",
      "outputs": [
        {
          "internalType": "string",
          "name": "",
          "type": "string"
        }
      ],
      "payable": false,
      "stateMutability": "view",
      "type": "function"
    },
    {
      "constant": true,
      "inputs": [],
      "name": "nonce",
      "outputs": [
        {
          "internalType": "uint256",
          "name": "",
          "type": "uint256"
        }
      ],
      "payable": false,
      "stateMutability": "view",
      "type": "function"
    },
    {
      "constant": true,
      "inputs": [],
      "name": "owner",
      "outputs": [
        {
          "internalType": "address",
          "name": "",
          "type": "address"
        }
      ],
      "payable": false,
      "stateMutability": "view",
      "type": "function"
    },
    {
      "constant": true,
      "inputs": [
        {
          "internalType": "uint256",
          "name": "",
          "type": "uint256"
        }
      ],
      "name": "pendingTransactions",
      "outputs": [
        {
          "components": [
            {
              "internalType": "address payable",
              "name": "from",
              "type": "address"
            },
            {
              "internalType": "address payable",
              "name": "to",
              "type": "address"
            },
            {
              "internalType": "uint256",
              "name": "amount",
              "type": "uint256"
            },
            {
              "internalType": "uint256",
              "name": "nonceTrans",
              "type": "uint256"
            },
            {
              "internalType": "uint256",
              "name": "threshold",
              "type": "uint256"
            }
          ],
          "internalType": "struct MultiSig.transactionData",
          "name": "txnData",
          "type": "tuple"
        },
        {
          "internalType": "uint256",
          "name": "numSigs",
          "type": "uint256"
        },
        {
          "internalType": "bytes32",
          "name": "txHash",
          "type": "bytes32"
        }
      ],
      "payable": false,
      "stateMutability": "view",
      "type": "function"
    },
    {
      "constant": true,
      "inputs": [
        {
          "internalType": "uint256",
          "name": "",
          "type": "uint256"
        }
      ],
      "name": "transactions",
      "outputs": [
        {
          "internalType": "address payable",
          "name": "from",
          "type": "address"
        },
        {
          "internalType": "address payable",
          "name": "to",
          "type": "address"
        },
        {
          "internalType": "uint256",
          "name": "amount",
          "type": "uint256"
        },
        {
          "internalType": "uint256",
          "name": "nonceTrans",
          "type": "uint256"
        },
        {
          "internalType": "uint256",
          "name": "threshold",
          "type": "uint256"
        }
      ],
      "payable": false,
      "stateMutability": "view",
      "type": "function"
    },
    {
      "constant": true,
      "inputs": [
        {
          "internalType": "address",
          "name": "",
          "type": "address"
        }
      ],
      "name": "whitelist",
      "outputs": [
        {
          "internalType": "bool",
          "name": "",
          "type": "bool"
        }
      ],
      "payable": false,
      "stateMutability": "view",
      "type": "function"
    },
    {
      "constant": true,
      "inputs": [
        {
          "internalType": "uint256",
          "name": "",
          "type": "uint256"
        }
      ],
      "name": "whitelistAdd",
      "outputs": [
        {
          "internalType": "address",
          "name": "",
          "type": "address"
        }
      ],
      "payable": false,
      "stateMutability": "view",
      "type": "function"
    },
    {
      "constant": true,
      "inputs": [],
      "name": "getWhitelistAdd",
      "outputs": [
        {
          "internalType": "address[]",
          "name": "whitelistArr",
          "type": "address[]"
        }
      ],
      "payable": false,
      "stateMutability": "view",
      "type": "function"
    },
    {
      "constant": true,
      "inputs": [],
      "name": "getPendingTx",
      "outputs": [
        {
          "components": [
            {
              "components": [
                {
                  "internalType": "address payable",
                  "name": "from",
                  "type": "address"
                },
                {
                  "internalType": "address payable",
                  "name": "to",
                  "type": "address"
                },
                {
                  "internalType": "uint256",
                  "name": "amount",
                  "type": "uint256"
                },
                {
                  "internalType": "uint256",
                  "name": "nonceTrans",
                  "type": "uint256"
                },
                {
                  "internalType": "uint256",
                  "name": "threshold",
                  "type": "uint256"
                }
              ],
              "internalType": "struct MultiSig.transactionData",
              "name": "txnData",
              "type": "tuple"
            },
            {
              "internalType": "uint256",
              "name": "numSigs",
              "type": "uint256"
            },
            {
              "internalType": "bytes32",
              "name": "txHash",
              "type": "bytes32"
            }
          ],
          "internalType": "struct MultiSig.pendingData[]",
          "name": "pending",
          "type": "tuple[]"
        }
      ],
      "payable": false,
      "stateMutability": "view",
      "type": "function"
    },
    {
      "constant": true,
      "inputs": [],
      "name": "contractBalance",
      "outputs": [
        {
          "internalType": "uint256",
          "name": "balance",
          "type": "uint256"
        }
      ],
      "payable": false,
      "stateMutability": "view",
      "type": "function"
    },
    {
      "constant": true,
      "inputs": [],
      "name": "getHashes",
      "outputs": [
        {
          "internalType": "string[]",
          "name": "hashes",
          "type": "string[]"
        }
      ],
      "payable": false,
      "stateMutability": "view",
      "type": "function"
    },
    {
      "constant": false,
      "inputs": [
        {
          "internalType": "string",
          "name": "txHash",
          "type": "string"
        }
      ],
      "name": "setHash",
      "outputs": [
        {
          "internalType": "bool",
          "name": "success",
          "type": "bool"
        }
      ],
      "payable": false,
      "stateMutability": "nonpayable",
      "type": "function"
    },
    {
      "constant": false,
      "inputs": [
        {
          "internalType": "address",
          "name": "newAddress",
          "type": "address"
        }
      ],
      "name": "addAddress",
      "outputs": [
        {
          "internalType": "bool",
          "name": "success",
          "type": "bool"
        }
      ],
      "payable": false,
      "stateMutability": "nonpayable",
      "type": "function"
    },
    {
      "constant": false,
      "inputs": [
        {
          "internalType": "address payable",
          "name": "_paymentReciever",
          "type": "address"
        },
        {
          "internalType": "uint256",
          "name": "_threshold",
          "type": "uint256"
        },
        {
          "internalType": "uint256",
          "name": "_amount",
          "type": "uint256"
        }
      ],
      "name": "setupTransaction",
      "outputs": [
        {
          "internalType": "uint256",
          "name": "",
          "type": "uint256"
        }
      ],
      "payable": true,
      "stateMutability": "payable",
      "type": "function"
    },
    {
      "constant": false,
      "inputs": [
        {
          "internalType": "uint256",
          "name": "index",
          "type": "uint256"
        }
      ],
      "name": "signTransaction",
      "outputs": [
        {
          "internalType": "bool",
          "name": "success",
          "type": "bool"
        }
      ],
      "payable": false,
      "stateMutability": "nonpayable",
      "type": "function"
    },
    {
      "constant": false,
      "inputs": [
        {
          "internalType": "uint256",
          "name": "index",
          "type": "uint256"
        }
      ],
      "name": "checkStatus",
      "outputs": [
        {
          "internalType": "bool",
          "name": "success",
          "type": "bool"
        }
      ],
      "payable": true,
      "stateMutability": "payable",
      "type": "function"
    }
  ],
  "bytecode": "0x60806040523480156200001157600080fd5b50336000806101000a81548173ffffffffffffffffffffffffffffffffffffffff021916908373ffffffffffffffffffffffffffffffffffffffff16021790555060006001819055506200006b336200007260201b60201c565b50620003d7565b60008060009054906101000a900473ffffffffffffffffffffffffffffffffffffffff1673ffffffffffffffffffffffffffffffffffffffff163373ffffffffffffffffffffffffffffffffffffffff161462000106576040517f08c379a0000000000000000000000000000000000000000000000000000000008152600401620000fd906200034e565b60405180910390fd5b60001515600360008473ffffffffffffffffffffffffffffffffffffffff1673ffffffffffffffffffffffffffffffffffffffff16815260200190815260200160002060009054906101000a900460ff161515146200019c576040517f08c379a0000000000000000000000000000000000000000000000000000000008152600401620001939062000370565b60405180910390fd5b60028290806001815401808255809150509060018203906000526020600020016000909192909190916101000a81548173ffffffffffffffffffffffffffffffffffffffff021916908373ffffffffffffffffffffffffffffffffffffffff160217905550506001600360008473ffffffffffffffffffffffffffffffffffffffff1673ffffffffffffffffffffffffffffffffffffffff16815260200190815260200160002060006101000a81548160ff0219169083151502179055507f64fd21439447139bed5a374a0f62ecc0fbd38cf2687d4ed5d587cb55dfbd4258826040516200028b919062000331565b60405180910390a160019050919050565b620002a781620003a3565b82525050565b6000620002bc60158362000392565b91507f53656e646572206e6f7420617574686f72697a656400000000000000000000006000830152602082019050919050565b6000620002fe600d8362000392565b91507f416c7265616479206164646564000000000000000000000000000000000000006000830152602082019050919050565b60006020820190506200034860008301846200029c565b92915050565b600060208201905081810360008301526200036981620002ad565b9050919050565b600060208201905081810360008301526200038b81620002ef565b9050919050565b600082825260208201905092915050565b6000620003b082620003b7565b9050919050565b600073ffffffffffffffffffffffffffffffffffffffff82169050919050565b61280180620003e76000396000f3fe6080604052600436106100f35760003560e01c8063835884471161008a5780639ace38c2116100595780639ace38c2146103745780639b19251a146103b5578063affed0e0146103f2578063e95597fc1461041d576100f3565b806383588447146102b65780638b7afe2e146102f35780638da5cb5b1461031e57806395b52bdb14610349576100f3565b80634245d48e116100c65780634245d48e146101d25780635d9ec210146101fd57806363a8374d1461023a57806365bc989314610279576100f3565b80631ed83fd4146100f85780632858c7641461013557806338eada1c146101655780633d8c16de146101a2575b600080fd5b34801561010457600080fd5b5061011f600480360361011a9190810190611c9e565b610448565b60405161012c919061240c565b60405180910390f35b61014f600480360361014a9190810190611cdf565b610492565b60405161015c919061240c565b60405180910390f35b34801561017157600080fd5b5061018c60048036036101879190810190611c26565b6104f4565b604051610199919061240c565b60405180910390f35b6101bc60048036036101b79190810190611c4f565b610716565b6040516101c99190612540565b60405180910390f35b3480156101de57600080fd5b506101e7610cbd565b6040516101f491906123c8565b60405180910390f35b34801561020957600080fd5b50610224600480360361021f9190810190611cdf565b610da6565b604051610231919061240c565b60405180910390f35b34801561024657600080fd5b50610261600480360361025c9190810190611cdf565b610ff8565b60405161027093929190612509565b60405180910390f35b34801561028557600080fd5b506102a0600480360361029b9190810190611cdf565b611103565b6040516102ad9190612427565b60405180910390f35b3480156102c257600080fd5b506102dd60048036036102d89190810190611cdf565b6111bc565b6040516102ea91906122af565b60405180910390f35b3480156102ff57600080fd5b506103086111f8565b6040516103159190612540565b60405180910390f35b34801561032a57600080fd5b50610333611200565b60405161034091906122af565b60405180910390f35b34801561035557600080fd5b5061035e611225565b60405161036b91906123a6565b60405180910390f35b34801561038057600080fd5b5061039b60048036036103969190810190611cdf565b6112b3565b6040516103ac95949392919061232a565b60405180910390f35b3480156103c157600080fd5b506103dc60048036036103d79190810190611c26565b611336565b6040516103e9919061240c565b60405180910390f35b3480156103fe57600080fd5b50610407611356565b6040516104149190612540565b60405180910390f35b34801561042957600080fd5b5061043261135c565b60405161043f91906123ea565b60405180910390f35b60006007829080600181540180825580915050906001820390600052602060002001600090919290919091509080519060200190610487929190611951565b505060019050919050565b6000600682815481106104a157fe5b906000526020600020906007020160000160040154600683815481106104c357fe5b906000526020600020906007020160050154106104ea576104e3826114ad565b90506104ef565b600090505b919050565b60008060009054906101000a900473ffffffffffffffffffffffffffffffffffffffff1673ffffffffffffffffffffffffffffffffffffffff163373ffffffffffffffffffffffffffffffffffffffff1614610585576040517f08c379a000000000000000000000000000000000000000000000000000000000815260040161057c90612449565b60405180910390fd5b60001515600360008473ffffffffffffffffffffffffffffffffffffffff1673ffffffffffffffffffffffffffffffffffffffff16815260200190815260200160002060009054906101000a900460ff16151514610618576040517f08c379a000000000000000000000000000000000000000000000000000000000815260040161060f906124e9565b60405180910390fd5b60028290806001815401808255809150509060018203906000526020600020016000909192909190916101000a81548173ffffffffffffffffffffffffffffffffffffffff021916908373ffffffffffffffffffffffffffffffffffffffff160217905550506001600360008473ffffffffffffffffffffffffffffffffffffffff1673ffffffffffffffffffffffffffffffffffffffff16815260200190815260200160002060006101000a81548160ff0219169083151502179055507f64fd21439447139bed5a374a0f62ecc0fbd38cf2687d4ed5d587cb55dfbd42588260405161070591906122af565b60405180910390a160019050919050565b600081341461075a576040517f08c379a0000000000000000000000000000000000000000000000000000000008152600401610751906124c9565b60405180910390fd5b60011515600360003373ffffffffffffffffffffffffffffffffffffffff1673ffffffffffffffffffffffffffffffffffffffff16815260200190815260200160002060009054906101000a900460ff161515146107ed576040517f08c379a00000000000000000000000000000000000000000000000000000000081526004016107e490612489565b60405180910390fd5b60056040518060a001604052803373ffffffffffffffffffffffffffffffffffffffff1681526020018673ffffffffffffffffffffffffffffffffffffffff1681526020018481526020016001548152602001858152509080600181540180825580915050906001820390600052602060002090600502016000909192909190915060008201518160000160006101000a81548173ffffffffffffffffffffffffffffffffffffffff021916908373ffffffffffffffffffffffffffffffffffffffff16021790555060208201518160010160006101000a81548173ffffffffffffffffffffffffffffffffffffffff021916908373ffffffffffffffffffffffffffffffffffffffff1602179055506040820151816002015560608201518160030155608082015181600401555050506006604051806060016040528060056001548154811061093a57fe5b90600052602060002090600502016040518060a00160405290816000820160009054906101000a900473ffffffffffffffffffffffffffffffffffffffff1673ffffffffffffffffffffffffffffffffffffffff1673ffffffffffffffffffffffffffffffffffffffff1681526020016001820160009054906101000a900473ffffffffffffffffffffffffffffffffffffffff1673ffffffffffffffffffffffffffffffffffffffff1673ffffffffffffffffffffffffffffffffffffffff1681526020016002820154815260200160038201548152602001600482015481525050815260200160008152602001610b566001546005805480602002602001604051908101604052809291908181526020016000905b82821015610b4d57838290600052602060002090600502016040518060a00160405290816000820160009054906101000a900473ffffffffffffffffffffffffffffffffffffffff1673ffffffffffffffffffffffffffffffffffffffff1673ffffffffffffffffffffffffffffffffffffffff1681526020016001820160009054906101000a900473ffffffffffffffffffffffffffffffffffffffff1673ffffffffffffffffffffffffffffffffffffffff1673ffffffffffffffffffffffffffffffffffffffff168152602001600282015481526020016003820154815260200160048201548152505081526020019060010190610a51565b505050506118a0565b8152509080600181540180825580915050906001820390600052602060002090600702016000909192909190915060008201518160000160008201518160000160006101000a81548173ffffffffffffffffffffffffffffffffffffffff021916908373ffffffffffffffffffffffffffffffffffffffff16021790555060208201518160010160006101000a81548173ffffffffffffffffffffffffffffffffffffffff021916908373ffffffffffffffffffffffffffffffffffffffff160217905550604082015181600201556060820151816003015560808201518160040155505060208201518160050155604082015181600601555050507fc5094f20ddbb9bda2b4d1b39f78d7d784f323b721a2a8f32456a45d3dfb716d8338560015486604051610c8994939291906122e5565b60405180910390a1610c9c600154610da6565b50600160008154809291906001019190505550600180540390509392505050565b60606007805480602002602001604051908101604052809291908181526020016000905b82821015610d9d578382906000526020600020018054600181600116156101000203166002900480601f016020809104026020016040519081016040528092919081815260200182805460018160011615610100020316600290048015610d895780601f10610d5e57610100808354040283529160200191610d89565b820191906000526020600020905b815481529060010190602001808311610d6c57829003601f168201915b505050505081526020019060010190610ce1565b50505050905090565b600060011515600360003373ffffffffffffffffffffffffffffffffffffffff1673ffffffffffffffffffffffffffffffffffffffff16815260200190815260200160002060009054906101000a900460ff16151514610e3b576040517f08c379a0000000000000000000000000000000000000000000000000000000008152600401610e32906124a9565b60405180910390fd5b600015156004600060068581548110610e5057fe5b906000526020600020906007020160060154815260200190815260200160002060003373ffffffffffffffffffffffffffffffffffffffff1673ffffffffffffffffffffffffffffffffffffffff16815260200190815260200160002060009054906101000a900460ff16151514610efd576040517f08c379a0000000000000000000000000000000000000000000000000000000008152600401610ef490612469565b60405180910390fd5b60016004600060068581548110610f1057fe5b906000526020600020906007020160060154815260200190815260200160002060003373ffffffffffffffffffffffffffffffffffffffff1673ffffffffffffffffffffffffffffffffffffffff16815260200190815260200160002060006101000a81548160ff021916908315150217905550600160068381548110610f9357fe5b9060005260206000209060070201600501600082825401925050819055507f827bfe95984eb396b6d8ff47200bd671835f5a6d87dc4bad10d2dbd4fe6355a333604051610fe091906122ca565b60405180910390a1610ff182610492565b9050919050565b6006818154811061100557fe5b9060005260206000209060070201600091509050806000016040518060a00160405290816000820160009054906101000a900473ffffffffffffffffffffffffffffffffffffffff1673ffffffffffffffffffffffffffffffffffffffff1673ffffffffffffffffffffffffffffffffffffffff1681526020016001820160009054906101000a900473ffffffffffffffffffffffffffffffffffffffff1673ffffffffffffffffffffffffffffffffffffffff1673ffffffffffffffffffffffffffffffffffffffff1681526020016002820154815260200160038201548152602001600482015481525050908060050154908060060154905083565b6007818154811061111057fe5b906000526020600020016000915090508054600181600116156101000203166002900480601f0160208091040260200160405190810160405280929190818152602001828054600181600116156101000203166002900480156111b45780601f10611189576101008083540402835291602001916111b4565b820191906000526020600020905b81548152906001019060200180831161119757829003601f168201915b505050505081565b600281815481106111c957fe5b906000526020600020016000915054906101000a900473ffffffffffffffffffffffffffffffffffffffff1681565b600047905090565b6000809054906101000a900473ffffffffffffffffffffffffffffffffffffffff1681565b606060028054806020026020016040519081016040528092919081815260200182805480156112a957602002820191906000526020600020905b8160009054906101000a900473ffffffffffffffffffffffffffffffffffffffff1673ffffffffffffffffffffffffffffffffffffffff168152602001906001019080831161125f575b5050505050905090565b600581815481106112c057fe5b90600052602060002090600502016000915090508060000160009054906101000a900473ffffffffffffffffffffffffffffffffffffffff16908060010160009054906101000a900473ffffffffffffffffffffffffffffffffffffffff16908060020154908060030154908060040154905085565b60036020528060005260406000206000915054906101000a900460ff1681565b60015481565b60606006805480602002602001604051908101604052809291908181526020016000905b828210156114a45783829060005260206000209060070201604051806060016040529081600082016040518060a00160405290816000820160009054906101000a900473ffffffffffffffffffffffffffffffffffffffff1673ffffffffffffffffffffffffffffffffffffffff1673ffffffffffffffffffffffffffffffffffffffff1681526020016001820160009054906101000a900473ffffffffffffffffffffffffffffffffffffffff1673ffffffffffffffffffffffffffffffffffffffff1673ffffffffffffffffffffffffffffffffffffffff168152602001600282015481526020016003820154815260200160048201548152505081526020016005820154815260200160068201548152505081526020019060010190611380565b50505050905090565b600080600683815481106114bd57fe5b906000526020600020906007020160000160010160009054906101000a900473ffffffffffffffffffffffffffffffffffffffff1690508073ffffffffffffffffffffffffffffffffffffffff166108fc6006858154811061151b57fe5b9060005260206000209060070201600001600201549081150290604051600060405180830381858888f1935050505015801561155b573d6000803e3d6000fd5b507f2f03f1395f971b1f02ef2bc5afe3dcaadb5138627f8f45633cefd28f1a5f7e456006848154811061158a57fe5b906000526020600020906007020160000160010160009054906101000a900473ffffffffffffffffffffffffffffffffffffffff16600685815481106115cc57fe5b9060005260206000209060070201600001600201546040516115ef92919061237d565b60405180910390a160008390505b6001600680549050038110156117b1576006600182018154811061161d57fe5b90600052602060002090600702016006828154811061163857fe5b906000526020600020906007020160008201816000016000820160009054906101000a900473ffffffffffffffffffffffffffffffffffffffff168160000160006101000a81548173ffffffffffffffffffffffffffffffffffffffff021916908373ffffffffffffffffffffffffffffffffffffffff1602179055506001820160009054906101000a900473ffffffffffffffffffffffffffffffffffffffff168160010160006101000a81548173ffffffffffffffffffffffffffffffffffffffff021916908373ffffffffffffffffffffffffffffffffffffffff160217905550600282015481600201556003820154816003015560048201548160040155505060058201548160050155600682015481600601559050506007600182018154811061176357fe5b906000526020600020016007828154811061177a57fe5b9060005260206000200190805460018160011615610100020316600290046117a39291906119d1565b5080806001019150506115fd565b506006600160068054905003815481106117c757fe5b90600052602060002090600702016000808201600080820160006101000a81549073ffffffffffffffffffffffffffffffffffffffff02191690556001820160006101000a81549073ffffffffffffffffffffffffffffffffffffffff0219169055600282016000905560038201600090556004820160009055505060058201600090556006820160009055505060076001600780549050038154811061186a57fe5b9060005260206000200160006118809190611a58565b60068054809190600190036118959190611aa0565b506001915050919050565b6000808284815181106118af57fe5b6020026020010151602001518385815181106118c757fe5b6020026020010151600001518486815181106118df57fe5b6020026020010151604001518587815181106118f757fe5b60200260200101516060015186888151811061190f57fe5b60200260200101516080015160405160200161192f95949392919061232a565b6040516020818303038152906040528051906020012090508091505092915050565b828054600181600116156101000203166002900490600052602060002090601f016020900481019282601f1061199257805160ff19168380011785556119c0565b828001600101855582156119c0579182015b828111156119bf5782518255916020019190600101906119a4565b5b5090506119cd9190611ad2565b5090565b828054600181600116156101000203166002900490600052602060002090601f016020900481019282601f10611a0a5780548555611a47565b82800160010185558215611a4757600052602060002091601f016020900482015b82811115611a46578254825591600101919060010190611a2b565b5b509050611a549190611ad2565b5090565b50805460018160011615610100020316600290046000825580601f10611a7e5750611a9d565b601f016020900490600052602060002090810190611a9c9190611ad2565b5b50565b815481835581811115611acd57600702816007028360005260206000209182019101611acc9190611af7565b5b505050565b611af491905b80821115611af0576000816000905550600101611ad8565b5090565b90565b611b9091905b80821115611b8c576000808201600080820160006101000a81549073ffffffffffffffffffffffffffffffffffffffff02191690556001820160006101000a81549073ffffffffffffffffffffffffffffffffffffffff021916905560028201600090556003820160009055600482016000905550506005820160009055600682016000905550600701611afd565b5090565b90565b600081359050611ba281612779565b92915050565b600081359050611bb781612790565b92915050565b600082601f830112611bce57600080fd5b8135611be1611bdc82612588565b61255b565b91508082526020830160208301858383011115611bfd57600080fd5b611c08838284612726565b50505092915050565b600081359050611c20816127a7565b92915050565b600060208284031215611c3857600080fd5b6000611c4684828501611b93565b91505092915050565b600080600060608486031215611c6457600080fd5b6000611c7286828701611ba8565b9350506020611c8386828701611c11565b9250506040611c9486828701611c11565b9150509250925092565b600060208284031215611cb057600080fd5b600082013567ffffffffffffffff811115611cca57600080fd5b611cd684828501611bbd565b91505092915050565b600060208284031215611cf157600080fd5b6000611cff84828501611c11565b91505092915050565b6000611d148383611d79565b60208301905092915050565b6000611d2c8383611ef5565b905092915050565b6000611d40838361217f565b60e08301905092915050565b611d55816126f0565b82525050565b611d648161269e565b82525050565b611d738161269e565b82525050565b611d828161268c565b82525050565b611d918161268c565b82525050565b6000611da2826125e4565b611dac8185612637565b9350611db7836125b4565b8060005b83811015611de8578151611dcf8882611d08565b9750611dda83612610565b925050600181019050611dbb565b5085935050505092915050565b6000611e00826125ef565b611e0a8185612648565b935083602082028501611e1c856125c4565b8060005b85811015611e585784840389528151611e398582611d20565b9450611e448361261d565b925060208a01995050600181019050611e20565b50829750879550505050505092915050565b6000611e75826125fa565b611e7f8185612659565b9350611e8a836125d4565b8060005b83811015611ebb578151611ea28882611d34565b9750611ead8361262a565b925050600181019050611e8e565b5085935050505092915050565b611ed1816126b0565b82525050565b611ee0816126bc565b82525050565b611eef816126bc565b82525050565b6000611f0082612605565b611f0a818561266a565b9350611f1a818560208601612735565b611f2381612768565b840191505092915050565b6000611f3982612605565b611f43818561267b565b9350611f53818560208601612735565b611f5c81612768565b840191505092915050565b6000611f7460158361267b565b91507f53656e646572206e6f7420617574686f72697a656400000000000000000000006000830152602082019050919050565b6000611fb4602f8361267b565b91507f5468697320616464726573732068617320616c7265616479207369676e65642060008301527f746865207472616e73616374696f6e00000000000000000000000000000000006020830152604082019050919050565b600061201a60248361267b565b91507f546869732061646472657373206973206e6f7420616e2074686520776869746560008301527f6c697374000000000000000000000000000000000000000000000000000000006020830152604082019050919050565b600061208060248361267b565b91507f546869732061646472657373206973206e6f74206f6e2074686520776869746560008301527f6c697374000000000000000000000000000000000000000000000000000000006020830152604082019050919050565b60006120e660228361267b565b91507f4e6f7420656e6f7567682065746820746f2073656e64207472616e736163746960008301527f6f6e0000000000000000000000000000000000000000000000000000000000006020830152604082019050919050565b600061214c600d8361267b565b91507f416c7265616479206164646564000000000000000000000000000000000000006000830152602082019050919050565b60e08201600082015161219560008501826121c1565b5060208201516121a860a0850182612291565b5060408201516121bb60c0850182611ed7565b50505050565b60a0820160008201516121d76000850182611d5b565b5060208201516121ea6020850182611d5b565b5060408201516121fd6040850182612291565b5060608201516122106060850182612291565b5060808201516122236080850182612291565b50505050565b60a08201600082015161223f6000850182611d5b565b5060208201516122526020850182611d5b565b5060408201516122656040850182612291565b5060608201516122786060850182612291565b50608082015161228b6080850182612291565b50505050565b61229a816126e6565b82525050565b6122a9816126e6565b82525050565b60006020820190506122c46000830184611d88565b92915050565b60006020820190506122df6000830184611d4c565b92915050565b60006080820190506122fa6000830187611d4c565b6123076020830186611d4c565b61231460408301856122a0565b61232160608301846122a0565b95945050505050565b600060a08201905061233f6000830188611d6a565b61234c6020830187611d6a565b61235960408301866122a0565b61236660608301856122a0565b61237360808301846122a0565b9695505050505050565b60006040820190506123926000830185611d4c565b61239f60208301846122a0565b9392505050565b600060208201905081810360008301526123c08184611d97565b905092915050565b600060208201905081810360008301526123e28184611df5565b905092915050565b600060208201905081810360008301526124048184611e6a565b905092915050565b60006020820190506124216000830184611ec8565b92915050565b600060208201905081810360008301526124418184611f2e565b905092915050565b6000602082019050818103600083015261246281611f67565b9050919050565b6000602082019050818103600083015261248281611fa7565b9050919050565b600060208201905081810360008301526124a28161200d565b9050919050565b600060208201905081810360008301526124c281612073565b9050919050565b600060208201905081810360008301526124e2816120d9565b9050919050565b600060208201905081810360008301526125028161213f565b9050919050565b600060e08201905061251e6000830186612229565b61252b60a08301856122a0565b61253860c0830184611ee6565b949350505050565b600060208201905061255560008301846122a0565b92915050565b6000604051905081810181811067ffffffffffffffff8211171561257e57600080fd5b8060405250919050565b600067ffffffffffffffff82111561259f57600080fd5b601f19601f8301169050602081019050919050565b6000819050602082019050919050565b6000819050602082019050919050565b6000819050602082019050919050565b600081519050919050565b600081519050919050565b600081519050919050565b600081519050919050565b6000602082019050919050565b6000602082019050919050565b6000602082019050919050565b600082825260208201905092915050565b600082825260208201905092915050565b600082825260208201905092915050565b600082825260208201905092915050565b600082825260208201905092915050565b6000612697826126c6565b9050919050565b60006126a9826126c6565b9050919050565b60008115159050919050565b6000819050919050565b600073ffffffffffffffffffffffffffffffffffffffff82169050919050565b6000819050919050565b60006126fb82612702565b9050919050565b600061270d82612714565b9050919050565b600061271f826126c6565b9050919050565b82818337600083830152505050565b60005b83811015612753578082015181840152602081019050612738565b83811115612762576000848401525b50505050565b6000601f19601f8301169050919050565b6127828161268c565b811461278d57600080fd5b50565b6127998161269e565b81146127a457600080fd5b50565b6127b0816126e6565b81146127bb57600080fd5b5056fea365627a7a723158208320075cd11e936a031628af3d30087cb733ea67ef4ebec99edd5feeceeec4686c6578706572696d656e74616cf564736f6c63430005100040",
  "source": "pragma solidity ^0.5.16;\r\npragma experimental ABIEncoderV2;\r\n\r\ncontract MultiSig {\r\n    // Basic Contract data for ownership and nonce\r\n    address public owner;\r\n    uint256 public nonce;\r\n\r\n    // WhiteList info\r\n    address[] public whitelistAdd;\r\n    mapping(address => bool) public whitelist;\r\n\r\n    // Structs for transactions\r\n    struct transactionData {\r\n        address payable from;\r\n        address payable to;\r\n        uint256 amount;\r\n        uint256 nonceTrans;\r\n        uint256 threshold;\r\n    }\r\n\r\n    struct pendingData {\r\n        transactionData txnData;\r\n        uint256 numSigs;\r\n        bytes32 txHash;\r\n    }\r\n    mapping(bytes32 => mapping(address => bool)) signedList;\r\n\r\n    // Arrays for transactions\r\n    transactionData[] public transactions;\r\n    pendingData[] public pendingTransactions;\r\n    string[] public ethTxHashes;\r\n\r\n    // Events to emmit\r\n    event transactionCreated(address, address, uint256, uint256);\r\n    event SignedTransact(address);\r\n    event AddedWhiteList(address);\r\n    event transactionOccured(address, uint256);\r\n\r\n    constructor() public {\r\n        // Make the owner address that deploys contract\r\n        owner = msg.sender;\r\n        nonce = 0;\r\n\r\n        // Add to white list for owner to sign\r\n        addAddress(msg.sender);\r\n    }\r\n\r\n    function getWhitelistAdd()\r\n        public\r\n        view\r\n        returns (address[] memory whitelistArr)\r\n    {\r\n        return whitelistAdd;\r\n    }\r\n\r\n    function getPendingTx()\r\n        external\r\n        view\r\n        returns (pendingData[] memory pending)\r\n    {\r\n        return pendingTransactions;\r\n    }\r\n\r\n    function contractBalance() external view returns (uint256 balance) {\r\n        return address(this).balance;\r\n    }\r\n\r\n    function getHashes() external view returns (string[] memory hashes) {\r\n        return ethTxHashes;\r\n    }\r\n\r\n    function setHash(string memory txHash) public returns (bool success) {\r\n        ethTxHashes.push(txHash);\r\n        return true;\r\n    }\r\n\r\n    // Adds address to whitelist so entity has signing ability\r\n    function addAddress(address newAddress) public returns (bool success) {\r\n        // Requires to ensure owner adding signers\r\n        require(msg.sender == owner, \"Sender not authorized\");\r\n        require(whitelist[newAddress] == false, \"Already added\");\r\n\r\n        // Give address signing ability and emit event\r\n        whitelistAdd.push(newAddress); // add the new address to list of whitelist addresses\r\n        whitelist[newAddress] = true;\r\n\r\n        emit AddedWhiteList(newAddress);\r\n        return true;\r\n    }\r\n\r\n    function setupTransaction(\r\n        address payable _paymentReciever,\r\n        uint256 _threshold,\r\n        uint256 _amount\r\n    ) external payable returns (uint256) {\r\n        require(msg.value == _amount, \"Not enough eth to send transaction\");\r\n        require(\r\n            whitelist[msg.sender] == true,\r\n            \"This address is not an the whitelist\"\r\n        );\r\n\r\n        transactions.push(\r\n            transactionData(\r\n                msg.sender,\r\n                _paymentReciever,\r\n                _amount,\r\n                nonce,\r\n                _threshold\r\n            )\r\n        );\r\n\r\n        pendingTransactions.push(\r\n            pendingData(\r\n                transactions[nonce],\r\n                0,\r\n                encodeTransaction(nonce, transactions)\r\n            )\r\n        );\r\n\r\n        emit transactionCreated(\r\n            msg.sender,\r\n            _paymentReciever,\r\n            nonce,\r\n            _threshold\r\n        );\r\n        signTransaction(nonce);\r\n\r\n        nonce++;\r\n        return nonce - 1;\r\n    }\r\n\r\n    function encodeTransaction(uint256 index, transactionData[] memory txns)\r\n        internal\r\n        pure\r\n        returns (bytes32)\r\n    {\r\n        bytes32 tmp = keccak256(\r\n            abi.encode(\r\n                txns[index].to,\r\n                txns[index].from,\r\n                txns[index].amount,\r\n                txns[index].nonceTrans,\r\n                txns[index].threshold\r\n            )\r\n        );\r\n\r\n        return tmp;\r\n    }\r\n\r\n    // Msg.sender signs transaction\r\n    function signTransaction(uint256 index) public returns (bool success) {\r\n        // Makes sure sender is on whitelist and has not signed yet\r\n        require(\r\n            whitelist[msg.sender] == true,\r\n            \"This address is not on the whitelist\"\r\n        );\r\n        require(\r\n            signedList[pendingTransactions[index].txHash][msg.sender] == false,\r\n            \"This address has already signed the transaction\"\r\n        );\r\n\r\n        // Increment num of signatures on transact and approve on signedList\r\n        signedList[pendingTransactions[index].txHash][msg.sender] = true;\r\n        pendingTransactions[index].numSigs += 1;\r\n        emit SignedTransact(msg.sender);\r\n\r\n        return checkStatus(index);\r\n    }\r\n\r\n    function handlePayment(uint256 index) private returns (bool) {\r\n        address payable reciever = pendingTransactions[index].txnData.to;\r\n        reciever.transfer(pendingTransactions[index].txnData.amount);\r\n\r\n        emit transactionOccured(\r\n            pendingTransactions[index].txnData.to,\r\n            pendingTransactions[index].txnData.amount\r\n        );\r\n\r\n        for (uint256 i = index; i < pendingTransactions.length - 1; i++) {\r\n            pendingTransactions[i] = pendingTransactions[i + 1];\r\n            ethTxHashes[i] = ethTxHashes[i + 1];\r\n        }\r\n\r\n        delete pendingTransactions[pendingTransactions.length - 1];\r\n        delete ethTxHashes[ethTxHashes.length - 1];\r\n        pendingTransactions.length--;\r\n\r\n        return true;\r\n    }\r\n\r\n    function checkStatus(uint256 index) public payable returns (bool success) {\r\n        if (\r\n            pendingTransactions[index].numSigs >=\r\n            pendingTransactions[index].txnData.threshold\r\n        ) {\r\n            return handlePayment(index);\r\n        }\r\n\r\n        return false;\r\n    }\r\n\r\n}\r\n",
  "sourcePath": "C:\\Users\\spvye\\Documents\\Fortmatic\\phantom\\contract\\contracts\\MultiSig.sol",
  "compiler": {
    "name": "solc",
    "version": "0.5.16+commit.9c3226ce.Emscripten.clang"
  },
  "schemaVersion": "3.0.23",
  "updatedAt": "2020-03-25T01:12:46.507Z",
  "devdoc": {
    "methods": {}
  },
  "userdoc": {
    "methods": {}
  }
}