{
  "contractName": "MultiSig",
  "abi": [
    {
      "inputs": [],
      "payable": false,
      "stateMutability": "nonpayable",
      "type": "constructor"
    },
    {
      "anonymous": false,
      "inputs": [
        {
          "indexed": false,
          "internalType": "address",
          "name": "",
          "type": "address"
        }
      ],
      "name": "AddedWhiteList",
      "type": "event"
    },
    {
      "anonymous": false,
      "inputs": [
        {
          "indexed": false,
          "internalType": "address",
          "name": "",
          "type": "address"
        }
      ],
      "name": "SignedTransact",
      "type": "event"
    },
    {
      "anonymous": false,
      "inputs": [
        {
          "indexed": false,
          "internalType": "address",
          "name": "",
          "type": "address"
        },
        {
          "indexed": false,
          "internalType": "address",
          "name": "",
          "type": "address"
        },
        {
          "indexed": false,
          "internalType": "uint256",
          "name": "",
          "type": "uint256"
        },
        {
          "indexed": false,
          "internalType": "uint256",
          "name": "",
          "type": "uint256"
        }
      ],
      "name": "transactionCreated",
      "type": "event"
    },
    {
      "anonymous": false,
      "inputs": [
        {
          "indexed": false,
          "internalType": "address",
          "name": "",
          "type": "address"
        },
        {
          "indexed": false,
          "internalType": "uint256",
          "name": "",
          "type": "uint256"
        }
      ],
      "name": "transactionOccured",
      "type": "event"
    },
    {
      "constant": true,
      "inputs": [],
      "name": "nonce",
      "outputs": [
        {
          "internalType": "uint256",
          "name": "",
          "type": "uint256"
        }
      ],
      "payable": false,
      "stateMutability": "view",
      "type": "function"
    },
    {
      "constant": true,
      "inputs": [],
      "name": "owner",
      "outputs": [
        {
          "internalType": "address",
          "name": "",
          "type": "address"
        }
      ],
      "payable": false,
      "stateMutability": "view",
      "type": "function"
    },
    {
      "constant": true,
      "inputs": [
        {
          "internalType": "uint256",
          "name": "",
          "type": "uint256"
        }
      ],
      "name": "pendingTransactions",
      "outputs": [
        {
          "components": [
            {
              "internalType": "address payable",
              "name": "from",
              "type": "address"
            },
            {
              "internalType": "address payable",
              "name": "to",
              "type": "address"
            },
            {
              "internalType": "uint256",
              "name": "amount",
              "type": "uint256"
            },
            {
              "internalType": "uint256",
              "name": "nonceTrans",
              "type": "uint256"
            },
            {
              "internalType": "uint256",
              "name": "threshold",
              "type": "uint256"
            }
          ],
          "internalType": "struct MultiSig.transactionData",
          "name": "txnData",
          "type": "tuple"
        },
        {
          "internalType": "uint256",
          "name": "numSigs",
          "type": "uint256"
        },
        {
          "internalType": "bytes32",
          "name": "txHash",
          "type": "bytes32"
        }
      ],
      "payable": false,
      "stateMutability": "view",
      "type": "function"
    },
    {
      "constant": true,
      "inputs": [
        {
          "internalType": "uint256",
          "name": "",
          "type": "uint256"
        }
      ],
      "name": "transactions",
      "outputs": [
        {
          "internalType": "address payable",
          "name": "from",
          "type": "address"
        },
        {
          "internalType": "address payable",
          "name": "to",
          "type": "address"
        },
        {
          "internalType": "uint256",
          "name": "amount",
          "type": "uint256"
        },
        {
          "internalType": "uint256",
          "name": "nonceTrans",
          "type": "uint256"
        },
        {
          "internalType": "uint256",
          "name": "threshold",
          "type": "uint256"
        }
      ],
      "payable": false,
      "stateMutability": "view",
      "type": "function"
    },
    {
      "constant": true,
      "inputs": [
        {
          "internalType": "address",
          "name": "",
          "type": "address"
        }
      ],
      "name": "whitelist",
      "outputs": [
        {
          "internalType": "bool",
          "name": "",
          "type": "bool"
        }
      ],
      "payable": false,
      "stateMutability": "view",
      "type": "function"
    },
    {
      "constant": true,
      "inputs": [
        {
          "internalType": "uint256",
          "name": "",
          "type": "uint256"
        }
      ],
      "name": "whitelistAdd",
      "outputs": [
        {
          "internalType": "address",
          "name": "",
          "type": "address"
        }
      ],
      "payable": false,
      "stateMutability": "view",
      "type": "function"
    },
    {
      "constant": true,
      "inputs": [],
      "name": "getWhitelistAdd",
      "outputs": [
        {
          "internalType": "address[]",
          "name": "whitelistArr",
          "type": "address[]"
        }
      ],
      "payable": false,
      "stateMutability": "view",
      "type": "function"
    },
    {
      "constant": true,
      "inputs": [],
      "name": "getPendingTx",
      "outputs": [
        {
          "components": [
            {
              "components": [
                {
                  "internalType": "address payable",
                  "name": "from",
                  "type": "address"
                },
                {
                  "internalType": "address payable",
                  "name": "to",
                  "type": "address"
                },
                {
                  "internalType": "uint256",
                  "name": "amount",
                  "type": "uint256"
                },
                {
                  "internalType": "uint256",
                  "name": "nonceTrans",
                  "type": "uint256"
                },
                {
                  "internalType": "uint256",
                  "name": "threshold",
                  "type": "uint256"
                }
              ],
              "internalType": "struct MultiSig.transactionData",
              "name": "txnData",
              "type": "tuple"
            },
            {
              "internalType": "uint256",
              "name": "numSigs",
              "type": "uint256"
            },
            {
              "internalType": "bytes32",
              "name": "txHash",
              "type": "bytes32"
            }
          ],
          "internalType": "struct MultiSig.pendingData[]",
          "name": "pending",
          "type": "tuple[]"
        }
      ],
      "payable": false,
      "stateMutability": "view",
      "type": "function"
    },
    {
      "constant": true,
      "inputs": [],
      "name": "contractBalance",
      "outputs": [
        {
          "internalType": "uint256",
          "name": "balance",
          "type": "uint256"
        }
      ],
      "payable": false,
      "stateMutability": "view",
      "type": "function"
    },
    {
      "constant": false,
      "inputs": [
        {
          "internalType": "address",
          "name": "newAddress",
          "type": "address"
        }
      ],
      "name": "addAddress",
      "outputs": [
        {
          "internalType": "bool",
          "name": "success",
          "type": "bool"
        }
      ],
      "payable": false,
      "stateMutability": "nonpayable",
      "type": "function"
    },
    {
      "constant": false,
      "inputs": [
        {
          "internalType": "address payable",
          "name": "_paymentReciever",
          "type": "address"
        },
        {
          "internalType": "uint256",
          "name": "_threshold",
          "type": "uint256"
        },
        {
          "internalType": "uint256",
          "name": "_amount",
          "type": "uint256"
        }
      ],
      "name": "setupTransaction",
      "outputs": [
        {
          "internalType": "uint256",
          "name": "",
          "type": "uint256"
        }
      ],
      "payable": true,
      "stateMutability": "payable",
      "type": "function"
    },
    {
      "constant": false,
      "inputs": [
        {
          "internalType": "uint256",
          "name": "index",
          "type": "uint256"
        }
      ],
      "name": "signTransaction",
      "outputs": [
        {
          "internalType": "bool",
          "name": "success",
          "type": "bool"
        }
      ],
      "payable": false,
      "stateMutability": "nonpayable",
      "type": "function"
    },
    {
      "constant": false,
      "inputs": [
        {
          "internalType": "uint256",
          "name": "index",
          "type": "uint256"
        }
      ],
      "name": "checkStatus",
      "outputs": [
        {
          "internalType": "bool",
          "name": "success",
          "type": "bool"
        }
      ],
      "payable": true,
      "stateMutability": "payable",
      "type": "function"
    }
  ],
  "bytecode": "0x60806040523480156200001157600080fd5b50336000806101000a81548173ffffffffffffffffffffffffffffffffffffffff021916908373ffffffffffffffffffffffffffffffffffffffff16021790555060006001819055506200006b336200007260201b60201c565b50620003d7565b60008060009054906101000a900473ffffffffffffffffffffffffffffffffffffffff1673ffffffffffffffffffffffffffffffffffffffff163373ffffffffffffffffffffffffffffffffffffffff161462000106576040517f08c379a0000000000000000000000000000000000000000000000000000000008152600401620000fd906200034e565b60405180910390fd5b60001515600360008473ffffffffffffffffffffffffffffffffffffffff1673ffffffffffffffffffffffffffffffffffffffff16815260200190815260200160002060009054906101000a900460ff161515146200019c576040517f08c379a0000000000000000000000000000000000000000000000000000000008152600401620001939062000370565b60405180910390fd5b60028290806001815401808255809150509060018203906000526020600020016000909192909190916101000a81548173ffffffffffffffffffffffffffffffffffffffff021916908373ffffffffffffffffffffffffffffffffffffffff160217905550506001600360008473ffffffffffffffffffffffffffffffffffffffff1673ffffffffffffffffffffffffffffffffffffffff16815260200190815260200160002060006101000a81548160ff0219169083151502179055507f64fd21439447139bed5a374a0f62ecc0fbd38cf2687d4ed5d587cb55dfbd4258826040516200028b919062000331565b60405180910390a160019050919050565b620002a781620003a3565b82525050565b6000620002bc60158362000392565b91507f53656e646572206e6f7420617574686f72697a656400000000000000000000006000830152602082019050919050565b6000620002fe600d8362000392565b91507f416c7265616479206164646564000000000000000000000000000000000000006000830152602082019050919050565b60006020820190506200034860008301846200029c565b92915050565b600060208201905081810360008301526200036981620002ad565b9050919050565b600060208201905081810360008301526200038b81620002ef565b9050919050565b600082825260208201905092915050565b6000620003b082620003b7565b9050919050565b600073ffffffffffffffffffffffffffffffffffffffff82169050919050565b61208780620003e76000396000f3fe6080604052600436106100c25760003560e01c80638b7afe2e1161007f5780639ace38c2116100595780639ace38c21461029e5780639b19251a146102df578063affed0e01461031c578063e95597fc14610347576100c2565b80638b7afe2e1461021d5780638da5cb5b1461024857806395b52bdb14610273576100c2565b80632858c764146100c757806338eada1c146100f75780633d8c16de146101345780635d9ec2101461016457806363a8374d146101a157806383588447146101e0575b600080fd5b6100e160048036036100dc91908101906117a5565b610372565b6040516100ee9190611db5565b60405180910390f35b34801561010357600080fd5b5061011e6004803603610119919081019061172d565b6103d4565b60405161012b9190611db5565b60405180910390f35b61014e60048036036101499190810190611756565b6105f6565b60405161015b9190611ec7565b60405180910390f35b34801561017057600080fd5b5061018b600480360361018691908101906117a5565b610aca565b6040516101989190611db5565b60405180910390f35b3480156101ad57600080fd5b506101c860048036036101c391908101906117a5565b610d1c565b6040516101d793929190611e90565b60405180910390f35b3480156101ec57600080fd5b50610207600480360361020291908101906117a5565b610e27565b6040516102149190611c7a565b60405180910390f35b34801561022957600080fd5b50610232610e63565b60405161023f9190611ec7565b60405180910390f35b34801561025457600080fd5b5061025d610e6b565b60405161026a9190611c7a565b60405180910390f35b34801561027f57600080fd5b50610288610e90565b6040516102959190611d71565b60405180910390f35b3480156102aa57600080fd5b506102c560048036036102c091908101906117a5565b610f1e565b6040516102d6959493929190611cf5565b60405180910390f35b3480156102eb57600080fd5b506103066004803603610301919081019061172d565b610fa1565b6040516103139190611db5565b60405180910390f35b34801561032857600080fd5b50610331610fc1565b60405161033e9190611ec7565b60405180910390f35b34801561035357600080fd5b5061035c610fc7565b6040516103699190611d93565b60405180910390f35b60006006828154811061038157fe5b906000526020600020906007020160000160040154600683815481106103a357fe5b906000526020600020906007020160050154106103ca576103c382611118565b90506103cf565b600090505b919050565b60008060009054906101000a900473ffffffffffffffffffffffffffffffffffffffff1673ffffffffffffffffffffffffffffffffffffffff163373ffffffffffffffffffffffffffffffffffffffff1614610465576040517f08c379a000000000000000000000000000000000000000000000000000000000815260040161045c90611dd0565b60405180910390fd5b60001515600360008473ffffffffffffffffffffffffffffffffffffffff1673ffffffffffffffffffffffffffffffffffffffff16815260200190815260200160002060009054906101000a900460ff161515146104f8576040517f08c379a00000000000000000000000000000000000000000000000000000000081526004016104ef90611e70565b60405180910390fd5b60028290806001815401808255809150509060018203906000526020600020016000909192909190916101000a81548173ffffffffffffffffffffffffffffffffffffffff021916908373ffffffffffffffffffffffffffffffffffffffff160217905550506001600360008473ffffffffffffffffffffffffffffffffffffffff1673ffffffffffffffffffffffffffffffffffffffff16815260200190815260200160002060006101000a81548160ff0219169083151502179055507f64fd21439447139bed5a374a0f62ecc0fbd38cf2687d4ed5d587cb55dfbd4258826040516105e59190611c7a565b60405180910390a160019050919050565b600081341461063a576040517f08c379a000000000000000000000000000000000000000000000000000000000815260040161063190611e50565b60405180910390fd5b60011515600360003373ffffffffffffffffffffffffffffffffffffffff1673ffffffffffffffffffffffffffffffffffffffff16815260200190815260200160002060009054906101000a900460ff161515146106cd576040517f08c379a00000000000000000000000000000000000000000000000000000000081526004016106c490611e10565b60405180910390fd5b6106d5611540565b6040518060a001604052803373ffffffffffffffffffffffffffffffffffffffff1681526020018673ffffffffffffffffffffffffffffffffffffffff16815260200184815260200160015481526020018581525090506005819080600181540180825580915050906001820390600052602060002090600502016000909192909190915060008201518160000160006101000a81548173ffffffffffffffffffffffffffffffffffffffff021916908373ffffffffffffffffffffffffffffffffffffffff16021790555060208201518160010160006101000a81548173ffffffffffffffffffffffffffffffffffffffff021916908373ffffffffffffffffffffffffffffffffffffffff16021790555060408201518160020155606082015181600301556080820151816004015550505060006109386001546005805480602002602001604051908101604052809291908181526020016000905b8282101561092f57838290600052602060002090600502016040518060a00160405290816000820160009054906101000a900473ffffffffffffffffffffffffffffffffffffffff1673ffffffffffffffffffffffffffffffffffffffff1673ffffffffffffffffffffffffffffffffffffffff1681526020016001820160009054906101000a900473ffffffffffffffffffffffffffffffffffffffff1673ffffffffffffffffffffffffffffffffffffffff1673ffffffffffffffffffffffffffffffffffffffff168152602001600282015481526020016003820154815260200160048201548152505081526020019060010190610833565b5050505061148f565b905061094261159b565b6040518060600160405280848152602001600081526020018381525090506006819080600181540180825580915050906001820390600052602060002090600702016000909192909190915060008201518160000160008201518160000160006101000a81548173ffffffffffffffffffffffffffffffffffffffff021916908373ffffffffffffffffffffffffffffffffffffffff16021790555060208201518160010160006101000a81548173ffffffffffffffffffffffffffffffffffffffff021916908373ffffffffffffffffffffffffffffffffffffffff160217905550604082015181600201556060820151816003015560808201518160040155505060208201518160050155604082015181600601555050507fc5094f20ddbb9bda2b4d1b39f78d7d784f323b721a2a8f32456a45d3dfb716d8338860015489604051610a939493929190611cb0565b60405180910390a1610aa6600154610aca565b50600160008154809291906001019190505550600180540393505050509392505050565b600060011515600360003373ffffffffffffffffffffffffffffffffffffffff1673ffffffffffffffffffffffffffffffffffffffff16815260200190815260200160002060009054906101000a900460ff16151514610b5f576040517f08c379a0000000000000000000000000000000000000000000000000000000008152600401610b5690611e30565b60405180910390fd5b600015156004600060068581548110610b7457fe5b906000526020600020906007020160060154815260200190815260200160002060003373ffffffffffffffffffffffffffffffffffffffff1673ffffffffffffffffffffffffffffffffffffffff16815260200190815260200160002060009054906101000a900460ff16151514610c21576040517f08c379a0000000000000000000000000000000000000000000000000000000008152600401610c1890611df0565b60405180910390fd5b60016004600060068581548110610c3457fe5b906000526020600020906007020160060154815260200190815260200160002060003373ffffffffffffffffffffffffffffffffffffffff1673ffffffffffffffffffffffffffffffffffffffff16815260200190815260200160002060006101000a81548160ff021916908315150217905550600160068381548110610cb757fe5b9060005260206000209060070201600501600082825401925050819055507f827bfe95984eb396b6d8ff47200bd671835f5a6d87dc4bad10d2dbd4fe6355a333604051610d049190611c95565b60405180910390a1610d1582610372565b9050919050565b60068181548110610d2957fe5b9060005260206000209060070201600091509050806000016040518060a00160405290816000820160009054906101000a900473ffffffffffffffffffffffffffffffffffffffff1673ffffffffffffffffffffffffffffffffffffffff1673ffffffffffffffffffffffffffffffffffffffff1681526020016001820160009054906101000a900473ffffffffffffffffffffffffffffffffffffffff1673ffffffffffffffffffffffffffffffffffffffff1673ffffffffffffffffffffffffffffffffffffffff1681526020016002820154815260200160038201548152602001600482015481525050908060050154908060060154905083565b60028181548110610e3457fe5b906000526020600020016000915054906101000a900473ffffffffffffffffffffffffffffffffffffffff1681565b600047905090565b6000809054906101000a900473ffffffffffffffffffffffffffffffffffffffff1681565b60606002805480602002602001604051908101604052809291908181526020018280548015610f1457602002820191906000526020600020905b8160009054906101000a900473ffffffffffffffffffffffffffffffffffffffff1673ffffffffffffffffffffffffffffffffffffffff1681526020019060010190808311610eca575b5050505050905090565b60058181548110610f2b57fe5b90600052602060002090600502016000915090508060000160009054906101000a900473ffffffffffffffffffffffffffffffffffffffff16908060010160009054906101000a900473ffffffffffffffffffffffffffffffffffffffff16908060020154908060030154908060040154905085565b60036020528060005260406000206000915054906101000a900460ff1681565b60015481565b60606006805480602002602001604051908101604052809291908181526020016000905b8282101561110f5783829060005260206000209060070201604051806060016040529081600082016040518060a00160405290816000820160009054906101000a900473ffffffffffffffffffffffffffffffffffffffff1673ffffffffffffffffffffffffffffffffffffffff1673ffffffffffffffffffffffffffffffffffffffff1681526020016001820160009054906101000a900473ffffffffffffffffffffffffffffffffffffffff1673ffffffffffffffffffffffffffffffffffffffff1673ffffffffffffffffffffffffffffffffffffffff168152602001600282015481526020016003820154815260200160048201548152505081526020016005820154815260200160068201548152505081526020019060010190610feb565b50505050905090565b6000806006838154811061112857fe5b906000526020600020906007020160000160010160009054906101000a900473ffffffffffffffffffffffffffffffffffffffff1690508073ffffffffffffffffffffffffffffffffffffffff166108fc6006858154811061118657fe5b9060005260206000209060070201600001600201549081150290604051600060405180830381858888f193505050501580156111c6573d6000803e3d6000fd5b507f2f03f1395f971b1f02ef2bc5afe3dcaadb5138627f8f45633cefd28f1a5f7e45600684815481106111f557fe5b906000526020600020906007020160000160010160009054906101000a900473ffffffffffffffffffffffffffffffffffffffff166006858154811061123757fe5b90600052602060002090600702016000016002015460405161125a929190611d48565b60405180910390a160008390505b6001600680549050038110156113cb576006600182018154811061128857fe5b9060005260206000209060070201600682815481106112a357fe5b906000526020600020906007020160008201816000016000820160009054906101000a900473ffffffffffffffffffffffffffffffffffffffff168160000160006101000a81548173ffffffffffffffffffffffffffffffffffffffff021916908373ffffffffffffffffffffffffffffffffffffffff1602179055506001820160009054906101000a900473ffffffffffffffffffffffffffffffffffffffff168160010160006101000a81548173ffffffffffffffffffffffffffffffffffffffff021916908373ffffffffffffffffffffffffffffffffffffffff160217905550600282015481600201556003820154816003015560048201548160040155505060058201548160050155600682015481600601559050508080600101915050611268565b506006600160068054905003815481106113e157fe5b90600052602060002090600702016000808201600080820160006101000a81549073ffffffffffffffffffffffffffffffffffffffff02191690556001820160006101000a81549073ffffffffffffffffffffffffffffffffffffffff02191690556002820160009055600382016000905560048201600090555050600582016000905560068201600090555050600680548091906001900361148491906115c5565b506001915050919050565b60008082848151811061149e57fe5b6020026020010151602001518385815181106114b657fe5b6020026020010151600001518486815181106114ce57fe5b6020026020010151604001518587815181106114e657fe5b6020026020010151606001518688815181106114fe57fe5b60200260200101516080015160405160200161151e959493929190611cf5565b6040516020818303038152906040528051906020012090508091505092915050565b6040518060a00160405280600073ffffffffffffffffffffffffffffffffffffffff168152602001600073ffffffffffffffffffffffffffffffffffffffff1681526020016000815260200160008152602001600081525090565b60405180606001604052806115ae6115f7565b815260200160008152602001600080191681525090565b8154818355818111156115f2576007028160070283600052602060002091820191016115f19190611652565b5b505050565b6040518060a00160405280600073ffffffffffffffffffffffffffffffffffffffff168152602001600073ffffffffffffffffffffffffffffffffffffffff1681526020016000815260200160008152602001600081525090565b6116eb91905b808211156116e7576000808201600080820160006101000a81549073ffffffffffffffffffffffffffffffffffffffff02191690556001820160006101000a81549073ffffffffffffffffffffffffffffffffffffffff021916905560028201600090556003820160009055600482016000905550506005820160009055600682016000905550600701611658565b5090565b90565b6000813590506116fd81611fff565b92915050565b60008135905061171281612016565b92915050565b6000813590506117278161202d565b92915050565b60006020828403121561173f57600080fd5b600061174d848285016116ee565b91505092915050565b60008060006060848603121561176b57600080fd5b600061177986828701611703565b935050602061178a86828701611718565b925050604061179b86828701611718565b9150509250925092565b6000602082840312156117b757600080fd5b60006117c584828501611718565b91505092915050565b60006117da838361182b565b60208301905092915050565b60006117f28383611b4a565b60e08301905092915050565b61180781611fc9565b82525050565b61181681611f77565b82525050565b61182581611f77565b82525050565b61183481611f65565b82525050565b61184381611f65565b82525050565b600061185482611f02565b61185e8185611f32565b935061186983611ee2565b8060005b8381101561189a57815161188188826117ce565b975061188c83611f18565b92505060018101905061186d565b5085935050505092915050565b60006118b282611f0d565b6118bc8185611f43565b93506118c783611ef2565b8060005b838110156118f85781516118df88826117e6565b97506118ea83611f25565b9250506001810190506118cb565b5085935050505092915050565b61190e81611f89565b82525050565b61191d81611f95565b82525050565b61192c81611f95565b82525050565b600061193f601583611f54565b91507f53656e646572206e6f7420617574686f72697a656400000000000000000000006000830152602082019050919050565b600061197f602f83611f54565b91507f5468697320616464726573732068617320616c7265616479207369676e65642060008301527f746865207472616e73616374696f6e00000000000000000000000000000000006020830152604082019050919050565b60006119e5602483611f54565b91507f546869732061646472657373206973206e6f7420616e2074686520776869746560008301527f6c697374000000000000000000000000000000000000000000000000000000006020830152604082019050919050565b6000611a4b602483611f54565b91507f546869732061646472657373206973206e6f74206f6e2074686520776869746560008301527f6c697374000000000000000000000000000000000000000000000000000000006020830152604082019050919050565b6000611ab1602283611f54565b91507f4e6f7420656e6f7567682065746820746f2073656e64207472616e736163746960008301527f6f6e0000000000000000000000000000000000000000000000000000000000006020830152604082019050919050565b6000611b17600d83611f54565b91507f416c7265616479206164646564000000000000000000000000000000000000006000830152602082019050919050565b60e082016000820151611b606000850182611b8c565b506020820151611b7360a0850182611c5c565b506040820151611b8660c0850182611914565b50505050565b60a082016000820151611ba2600085018261180d565b506020820151611bb5602085018261180d565b506040820151611bc86040850182611c5c565b506060820151611bdb6060850182611c5c565b506080820151611bee6080850182611c5c565b50505050565b60a082016000820151611c0a600085018261180d565b506020820151611c1d602085018261180d565b506040820151611c306040850182611c5c565b506060820151611c436060850182611c5c565b506080820151611c566080850182611c5c565b50505050565b611c6581611fbf565b82525050565b611c7481611fbf565b82525050565b6000602082019050611c8f600083018461183a565b92915050565b6000602082019050611caa60008301846117fe565b92915050565b6000608082019050611cc560008301876117fe565b611cd260208301866117fe565b611cdf6040830185611c6b565b611cec6060830184611c6b565b95945050505050565b600060a082019050611d0a600083018861181c565b611d17602083018761181c565b611d246040830186611c6b565b611d316060830185611c6b565b611d3e6080830184611c6b565b9695505050505050565b6000604082019050611d5d60008301856117fe565b611d6a6020830184611c6b565b9392505050565b60006020820190508181036000830152611d8b8184611849565b905092915050565b60006020820190508181036000830152611dad81846118a7565b905092915050565b6000602082019050611dca6000830184611905565b92915050565b60006020820190508181036000830152611de981611932565b9050919050565b60006020820190508181036000830152611e0981611972565b9050919050565b60006020820190508181036000830152611e29816119d8565b9050919050565b60006020820190508181036000830152611e4981611a3e565b9050919050565b60006020820190508181036000830152611e6981611aa4565b9050919050565b60006020820190508181036000830152611e8981611b0a565b9050919050565b600060e082019050611ea56000830186611bf4565b611eb260a0830185611c6b565b611ebf60c0830184611923565b949350505050565b6000602082019050611edc6000830184611c6b565b92915050565b6000819050602082019050919050565b6000819050602082019050919050565b600081519050919050565b600081519050919050565b6000602082019050919050565b6000602082019050919050565b600082825260208201905092915050565b600082825260208201905092915050565b600082825260208201905092915050565b6000611f7082611f9f565b9050919050565b6000611f8282611f9f565b9050919050565b60008115159050919050565b6000819050919050565b600073ffffffffffffffffffffffffffffffffffffffff82169050919050565b6000819050919050565b6000611fd482611fdb565b9050919050565b6000611fe682611fed565b9050919050565b6000611ff882611f9f565b9050919050565b61200881611f65565b811461201357600080fd5b50565b61201f81611f77565b811461202a57600080fd5b50565b61203681611fbf565b811461204157600080fd5b5056fea365627a7a7231582055e5a4971c7a04eb25545ea5dd69a78093f2d72e6e9854c2e790ce0e899f84056c6578706572696d656e74616cf564736f6c63430005100040",
  "source": "pragma solidity ^0.5.16;\r\npragma experimental ABIEncoderV2;\r\n\r\ncontract MultiSig {\r\n    // Basic Contract data for ownership and nonce\r\n    address public owner;\r\n    uint256 public nonce;\r\n\r\n    // WhiteList info\r\n    address[] public whitelistAdd;\r\n    mapping(address => bool) public whitelist;\r\n\r\n    // Structs for transactions\r\n    struct transactionData {\r\n        address payable from;\r\n        address payable to;\r\n        uint256 amount;\r\n        uint256 nonceTrans;\r\n        uint256 threshold;\r\n    }\r\n\r\n    struct pendingData {\r\n        transactionData txnData;\r\n        uint256 numSigs;\r\n        bytes32 txHash;\r\n    }\r\n    mapping(bytes32 => mapping(address => bool)) signedList;\r\n\r\n    // Arrays for transactions\r\n    transactionData[] public transactions;\r\n    pendingData[] public pendingTransactions;\r\n\r\n    // Events to emmit\r\n    event transactionCreated(address, address, uint256, uint256);\r\n    event SignedTransact(address);\r\n    event AddedWhiteList(address);\r\n    event transactionOccured(address, uint256);\r\n\r\n    constructor() public {\r\n        // Make the owner address that deploys contract\r\n        owner = msg.sender;\r\n        nonce = 0;\r\n\r\n        // Add to white list for owner to sign\r\n        addAddress(msg.sender);\r\n    }\r\n\r\n    function getWhitelistAdd()\r\n        public\r\n        view\r\n        returns (address[] memory whitelistArr)\r\n    {\r\n        return whitelistAdd;\r\n    }\r\n\r\n    function getPendingTx() public view returns (pendingData[] memory pending) {\r\n        return pendingTransactions;\r\n    }\r\n\r\n    function contractBalance() public view returns (uint256 balance) {\r\n        return address(this).balance;\r\n    }\r\n\r\n    // Adds address to whitelist so entity has signing ability\r\n    function addAddress(address newAddress) public returns (bool success) {\r\n        // Requires to ensure owner adding signers\r\n        require(msg.sender == owner, \"Sender not authorized\");\r\n        require(whitelist[newAddress] == false, \"Already added\");\r\n\r\n        // Give address signing ability and emit event\r\n        whitelistAdd.push(newAddress); // add the new address to list of whitelist addresses\r\n        whitelist[newAddress] = true;\r\n\r\n        emit AddedWhiteList(newAddress);\r\n        return true;\r\n    }\r\n\r\n    function setupTransaction(\r\n        address payable _paymentReciever,\r\n        uint256 _threshold,\r\n        uint256 _amount\r\n    ) external payable returns (uint256) {\r\n        require(msg.value == _amount, \"Not enough eth to send transaction\");\r\n        require(\r\n            whitelist[msg.sender] == true,\r\n            \"This address is not an the whitelist\"\r\n        );\r\n\r\n        transactionData memory tmp = transactionData(\r\n            msg.sender,\r\n            _paymentReciever,\r\n            _amount,\r\n            nonce,\r\n            _threshold\r\n        );\r\n        transactions.push(tmp);\r\n\r\n        bytes32 txHash = encodeTransaction(nonce, transactions);\r\n        pendingData memory pendingtmp = pendingData(tmp, 0, txHash);\r\n        pendingTransactions.push(pendingtmp);\r\n\r\n        emit transactionCreated(\r\n            msg.sender,\r\n            _paymentReciever,\r\n            nonce,\r\n            _threshold\r\n        );\r\n        signTransaction(nonce);\r\n\r\n        nonce++;\r\n        return nonce - 1;\r\n    }\r\n\r\n    function encodeTransaction(uint256 index, transactionData[] memory txns)\r\n        internal\r\n        pure\r\n        returns (bytes32)\r\n    {\r\n        bytes32 tmp = keccak256(\r\n            abi.encode(\r\n                txns[index].to,\r\n                txns[index].from,\r\n                txns[index].amount,\r\n                txns[index].nonceTrans,\r\n                txns[index].threshold\r\n            )\r\n        );\r\n\r\n        return tmp;\r\n    }\r\n\r\n    // Msg.sender signs transaction\r\n    function signTransaction(uint256 index) public returns (bool success) {\r\n        // Makes sure sender is on whitelist and has not signed yet\r\n        require(\r\n            whitelist[msg.sender] == true,\r\n            \"This address is not on the whitelist\"\r\n        );\r\n        require(\r\n            signedList[pendingTransactions[index].txHash][msg.sender] == false,\r\n            \"This address has already signed the transaction\"\r\n        );\r\n\r\n        // Increment num of signatures on transact and approve on signedList\r\n        signedList[pendingTransactions[index].txHash][msg.sender] = true;\r\n        pendingTransactions[index].numSigs += 1;\r\n        emit SignedTransact(msg.sender);\r\n\r\n        return checkStatus(index);\r\n    }\r\n\r\n    function handlePayment(uint256 index) private returns (bool) {\r\n        address payable reciever = pendingTransactions[index].txnData.to;\r\n        reciever.transfer(pendingTransactions[index].txnData.amount);\r\n\r\n        emit transactionOccured(\r\n            pendingTransactions[index].txnData.to,\r\n            pendingTransactions[index].txnData.amount\r\n        );\r\n\r\n        for (uint256 i = index; i < pendingTransactions.length - 1; i++) {\r\n            pendingTransactions[i] = pendingTransactions[i + 1];\r\n        }\r\n\r\n        delete pendingTransactions[pendingTransactions.length - 1];\r\n        pendingTransactions.length--;\r\n\r\n        return true;\r\n    }\r\n\r\n    function checkStatus(uint256 index) public payable returns (bool success) {\r\n        if (\r\n            pendingTransactions[index].numSigs >=\r\n            pendingTransactions[index].txnData.threshold\r\n        ) {\r\n            return handlePayment(index);\r\n        }\r\n\r\n        return false;\r\n    }\r\n\r\n}\r\n",
  "sourcePath": "C:\\Users\\spvye\\Documents\\Fortmatic\\phantom\\contract\\contracts\\MultiSig.sol",
  "compiler": {
    "name": "solc",
    "version": "0.5.16+commit.9c3226ce.Emscripten.clang"
  },
  "schemaVersion": "3.0.23",
  "updatedAt": "2020-03-16T14:54:50.752Z",
  "devdoc": {
    "methods": {}
  },
  "userdoc": {
    "methods": {}
  }
}