{
  "contractName": "MultiSig",
  "abi": [
    {
      "inputs": [],
      "payable": false,
      "stateMutability": "nonpayable",
      "type": "constructor"
    },
    {
      "anonymous": false,
      "inputs": [
        {
          "indexed": false,
          "internalType": "address",
          "name": "",
          "type": "address"
        }
      ],
      "name": "AddedWhiteList",
      "type": "event"
    },
    {
      "anonymous": false,
      "inputs": [
        {
          "indexed": false,
          "internalType": "address",
          "name": "",
          "type": "address"
        }
      ],
      "name": "SignedTransact",
      "type": "event"
    },
    {
      "anonymous": false,
      "inputs": [
        {
          "indexed": false,
          "internalType": "bytes32",
          "name": "",
          "type": "bytes32"
        }
      ],
      "name": "emitHash",
      "type": "event"
    },
    {
      "anonymous": false,
      "inputs": [
        {
          "indexed": false,
          "internalType": "address",
          "name": "",
          "type": "address"
        },
        {
          "indexed": false,
          "internalType": "address",
          "name": "",
          "type": "address"
        },
        {
          "indexed": false,
          "internalType": "uint256",
          "name": "",
          "type": "uint256"
        },
        {
          "indexed": false,
          "internalType": "uint256",
          "name": "",
          "type": "uint256"
        }
      ],
      "name": "transactionCreated",
      "type": "event"
    },
    {
      "anonymous": false,
      "inputs": [
        {
          "indexed": false,
          "internalType": "address",
          "name": "",
          "type": "address"
        },
        {
          "indexed": false,
          "internalType": "uint256",
          "name": "",
          "type": "uint256"
        }
      ],
      "name": "transactionOccured",
      "type": "event"
    },
    {
      "constant": true,
      "inputs": [],
      "name": "nonce",
      "outputs": [
        {
          "internalType": "uint256",
          "name": "",
          "type": "uint256"
        }
      ],
      "payable": false,
      "stateMutability": "view",
      "type": "function"
    },
    {
      "constant": true,
      "inputs": [],
      "name": "numPendingTx",
      "outputs": [
        {
          "internalType": "uint256",
          "name": "",
          "type": "uint256"
        }
      ],
      "payable": false,
      "stateMutability": "view",
      "type": "function"
    },
    {
      "constant": true,
      "inputs": [],
      "name": "numWhitlist",
      "outputs": [
        {
          "internalType": "uint256",
          "name": "",
          "type": "uint256"
        }
      ],
      "payable": false,
      "stateMutability": "view",
      "type": "function"
    },
    {
      "constant": true,
      "inputs": [],
      "name": "owner",
      "outputs": [
        {
          "internalType": "address",
          "name": "",
          "type": "address"
        }
      ],
      "payable": false,
      "stateMutability": "view",
      "type": "function"
    },
    {
      "constant": true,
      "inputs": [
        {
          "internalType": "uint256",
          "name": "",
          "type": "uint256"
        }
      ],
      "name": "pendingTransactions",
      "outputs": [
        {
          "internalType": "address payable",
          "name": "from",
          "type": "address"
        },
        {
          "internalType": "address payable",
          "name": "to",
          "type": "address"
        },
        {
          "internalType": "uint256",
          "name": "amount",
          "type": "uint256"
        },
        {
          "internalType": "uint256",
          "name": "nonceTrans",
          "type": "uint256"
        },
        {
          "internalType": "uint256",
          "name": "threshold",
          "type": "uint256"
        }
      ],
      "payable": false,
      "stateMutability": "view",
      "type": "function"
    },
    {
      "constant": true,
      "inputs": [
        {
          "internalType": "bytes32",
          "name": "",
          "type": "bytes32"
        },
        {
          "internalType": "address",
          "name": "",
          "type": "address"
        }
      ],
      "name": "signedList",
      "outputs": [
        {
          "internalType": "bool",
          "name": "",
          "type": "bool"
        }
      ],
      "payable": false,
      "stateMutability": "view",
      "type": "function"
    },
    {
      "constant": true,
      "inputs": [
        {
          "internalType": "uint256",
          "name": "",
          "type": "uint256"
        }
      ],
      "name": "transactions",
      "outputs": [
        {
          "internalType": "address payable",
          "name": "from",
          "type": "address"
        },
        {
          "internalType": "address payable",
          "name": "to",
          "type": "address"
        },
        {
          "internalType": "uint256",
          "name": "amount",
          "type": "uint256"
        },
        {
          "internalType": "uint256",
          "name": "nonceTrans",
          "type": "uint256"
        },
        {
          "internalType": "uint256",
          "name": "threshold",
          "type": "uint256"
        }
      ],
      "payable": false,
      "stateMutability": "view",
      "type": "function"
    },
    {
      "constant": true,
      "inputs": [
        {
          "internalType": "address",
          "name": "",
          "type": "address"
        }
      ],
      "name": "whitelist",
      "outputs": [
        {
          "internalType": "bool",
          "name": "",
          "type": "bool"
        }
      ],
      "payable": false,
      "stateMutability": "view",
      "type": "function"
    },
    {
      "constant": true,
      "inputs": [
        {
          "internalType": "uint256",
          "name": "",
          "type": "uint256"
        }
      ],
      "name": "whitelistAdd",
      "outputs": [
        {
          "internalType": "address",
          "name": "",
          "type": "address"
        }
      ],
      "payable": false,
      "stateMutability": "view",
      "type": "function"
    },
    {
      "constant": true,
      "inputs": [],
      "name": "getWhitelistAdd",
      "outputs": [
        {
          "internalType": "address[]",
          "name": "whitelistArr",
          "type": "address[]"
        }
      ],
      "payable": false,
      "stateMutability": "view",
      "type": "function"
    },
    {
      "constant": true,
      "inputs": [],
      "name": "getPendingTx",
      "outputs": [
        {
          "components": [
            {
              "internalType": "address payable",
              "name": "from",
              "type": "address"
            },
            {
              "internalType": "address payable",
              "name": "to",
              "type": "address"
            },
            {
              "internalType": "uint256",
              "name": "amount",
              "type": "uint256"
            },
            {
              "internalType": "uint256",
              "name": "nonceTrans",
              "type": "uint256"
            },
            {
              "internalType": "uint256",
              "name": "threshold",
              "type": "uint256"
            }
          ],
          "internalType": "struct MultiSig.transactionData[]",
          "name": "pending",
          "type": "tuple[]"
        }
      ],
      "payable": false,
      "stateMutability": "view",
      "type": "function"
    },
    {
      "constant": false,
      "inputs": [
        {
          "internalType": "address",
          "name": "newAddress",
          "type": "address"
        }
      ],
      "name": "addAddress",
      "outputs": [
        {
          "internalType": "bool",
          "name": "success",
          "type": "bool"
        }
      ],
      "payable": false,
      "stateMutability": "nonpayable",
      "type": "function"
    },
    {
      "constant": false,
      "inputs": [
        {
          "internalType": "address payable",
          "name": "_paymentReciever",
          "type": "address"
        },
        {
          "internalType": "uint256",
          "name": "_threshold",
          "type": "uint256"
        },
        {
          "internalType": "uint256",
          "name": "_amount",
          "type": "uint256"
        }
      ],
      "name": "setupTransaction",
      "outputs": [
        {
          "internalType": "uint256",
          "name": "",
          "type": "uint256"
        }
      ],
      "payable": true,
      "stateMutability": "payable",
      "type": "function"
    },
    {
      "constant": false,
      "inputs": [
        {
          "internalType": "uint256",
          "name": "index",
          "type": "uint256"
        }
      ],
      "name": "getEncoding",
      "outputs": [
        {
          "internalType": "bytes32",
          "name": "",
          "type": "bytes32"
        }
      ],
      "payable": false,
      "stateMutability": "nonpayable",
      "type": "function"
    },
    {
      "constant": false,
      "inputs": [
        {
          "internalType": "uint256",
          "name": "index",
          "type": "uint256"
        }
      ],
      "name": "signTransaction",
      "outputs": [
        {
          "internalType": "bool",
          "name": "success",
          "type": "bool"
        }
      ],
      "payable": false,
      "stateMutability": "nonpayable",
      "type": "function"
    },
    {
      "constant": false,
      "inputs": [
        {
          "internalType": "uint256",
          "name": "index",
          "type": "uint256"
        }
      ],
      "name": "getNumSigs",
      "outputs": [
        {
          "internalType": "uint256",
          "name": "num",
          "type": "uint256"
        }
      ],
      "payable": false,
      "stateMutability": "nonpayable",
      "type": "function"
    },
    {
      "constant": true,
      "inputs": [],
      "name": "contractBalance",
      "outputs": [
        {
          "internalType": "uint256",
          "name": "balance",
          "type": "uint256"
        }
      ],
      "payable": false,
      "stateMutability": "view",
      "type": "function"
    },
    {
      "constant": false,
      "inputs": [
        {
          "internalType": "uint256",
          "name": "index",
          "type": "uint256"
        }
      ],
      "name": "checkStatus",
      "outputs": [
        {
          "internalType": "bool",
          "name": "success",
          "type": "bool"
        }
      ],
      "payable": true,
      "stateMutability": "payable",
      "type": "function"
    }
  ],
  "bytecode": "0x60806040523480156200001157600080fd5b50336000806101000a81548173ffffffffffffffffffffffffffffffffffffffff021916908373ffffffffffffffffffffffffffffffffffffffff1602179055506000600481905550600060078190555060006001819055506200007b336200008260201b60201c565b50620003f9565b60008060009054906101000a900473ffffffffffffffffffffffffffffffffffffffff1673ffffffffffffffffffffffffffffffffffffffff163373ffffffffffffffffffffffffffffffffffffffff161462000116576040517f08c379a00000000000000000000000000000000000000000000000000000000081526004016200010d9062000370565b60405180910390fd5b60001515600360008473ffffffffffffffffffffffffffffffffffffffff1673ffffffffffffffffffffffffffffffffffffffff16815260200190815260200160002060009054906101000a900460ff16151514620001ac576040517f08c379a0000000000000000000000000000000000000000000000000000000008152600401620001a39062000392565b60405180910390fd5b60028290806001815401808255809150509060018203906000526020600020016000909192909190916101000a81548173ffffffffffffffffffffffffffffffffffffffff021916908373ffffffffffffffffffffffffffffffffffffffff160217905550506001600360008473ffffffffffffffffffffffffffffffffffffffff1673ffffffffffffffffffffffffffffffffffffffff16815260200190815260200160002060006101000a81548160ff0219169083151502179055506004600081548092919060010191905055507f64fd21439447139bed5a374a0f62ecc0fbd38cf2687d4ed5d587cb55dfbd425882604051620002ad919062000353565b60405180910390a160019050919050565b620002c981620003c5565b82525050565b6000620002de601583620003b4565b91507f53656e646572206e6f7420617574686f72697a656400000000000000000000006000830152602082019050919050565b600062000320600d83620003b4565b91507f416c7265616479206164646564000000000000000000000000000000000000006000830152602082019050919050565b60006020820190506200036a6000830184620002be565b92915050565b600060208201905081810360008301526200038b81620002cf565b9050919050565b60006020820190508181036000830152620003ad8162000311565b9050919050565b600082825260208201905092915050565b6000620003d282620003d9565b9050919050565b600073ffffffffffffffffffffffffffffffffffffffff82169050919050565b6124e980620004096000396000f3fe6080604052600436106101095760003560e01c80638da5cb5b116100955780639b19251a116100645780639b19251a146103cd578063affed0e01461040a578063c2d2c06114610435578063e95597fc14610472578063fe05ee131461049d57610109565b80638da5cb5b146102f95780638e847aa61461032457806395b52bdb146103615780639ace38c21461038c57610109565b80633d8c16de116100dc5780633d8c16de146101e35780635d9ec2101461021357806363a8374d1461025057806383588447146102915780638b7afe2e146102ce57610109565b80631045af361461010e57806324691869146101395780632858c7641461017657806338eada1c146101a6575b600080fd5b34801561011a57600080fd5b506101236104c8565b6040516101309190612312565b60405180910390f35b34801561014557600080fd5b50610160600480360361015b9190810190611cc5565b6104ce565b60405161016d9190612312565b60405180910390f35b610190600480360361018b9190810190611cc5565b61061a565b60405161019d919061221c565b60405180910390f35b3480156101b257600080fd5b506101cd60048036036101c89190810190611c11565b61079e565b6040516101da919061221c565b60405180910390f35b6101fd60048036036101f89190810190611c3a565b6109d2565b60405161020a9190612312565b60405180910390f35b34801561021f57600080fd5b5061023a60048036036102359190810190611cc5565b610ec2565b604051610247919061221c565b60405180910390f35b34801561025c57600080fd5b5061027760048036036102729190810190611cc5565b6111fc565b60405161028895949392919061215c565b60405180910390f35b34801561029d57600080fd5b506102b860048036036102b39190810190611cc5565b61127f565b6040516102c591906120e1565b60405180910390f35b3480156102da57600080fd5b506102e36112bb565b6040516102f09190612312565b60405180910390f35b34801561030557600080fd5b5061030e6112c3565b60405161031b91906120e1565b60405180910390f35b34801561033057600080fd5b5061034b60048036036103469190810190611c89565b6112e8565b604051610358919061221c565b60405180910390f35b34801561036d57600080fd5b50610376611317565b60405161038391906121d8565b60405180910390f35b34801561039857600080fd5b506103b360048036036103ae9190810190611cc5565b6113a5565b6040516103c495949392919061215c565b60405180910390f35b3480156103d957600080fd5b506103f460048036036103ef9190810190611c11565b611428565b604051610401919061221c565b60405180910390f35b34801561041657600080fd5b5061041f611448565b60405161042c9190612312565b60405180910390f35b34801561044157600080fd5b5061045c60048036036104579190810190611cc5565b61144e565b6040516104699190612237565b60405180910390f35b34801561047e57600080fd5b50610487611582565b60405161049491906121fa565b60405180910390f35b3480156104a957600080fd5b506104b26116ab565b6040516104bf9190612312565b60405180910390f35b60075481565b6000806105fc836006805480602002602001604051908101604052809291908181526020016000905b828210156105f357838290600052602060002090600502016040518060a00160405290816000820160009054906101000a900473ffffffffffffffffffffffffffffffffffffffff1673ffffffffffffffffffffffffffffffffffffffff1673ffffffffffffffffffffffffffffffffffffffff1681526020016001820160009054906101000a900473ffffffffffffffffffffffffffffffffffffffff1673ffffffffffffffffffffffffffffffffffffffff1673ffffffffffffffffffffffffffffffffffffffff1681526020016002820154815260200160038201548152602001600482015481525050815260200190600101906104f7565b505050506116b1565b90506009600082815260200190815260200160002054915050919050565b600080610748836006805480602002602001604051908101604052809291908181526020016000905b8282101561073f57838290600052602060002090600502016040518060a00160405290816000820160009054906101000a900473ffffffffffffffffffffffffffffffffffffffff1673ffffffffffffffffffffffffffffffffffffffff1673ffffffffffffffffffffffffffffffffffffffff1681526020016001820160009054906101000a900473ffffffffffffffffffffffffffffffffffffffff1673ffffffffffffffffffffffffffffffffffffffff1673ffffffffffffffffffffffffffffffffffffffff168152602001600282015481526020016003820154815260200160048201548152505081526020019060010190610643565b505050506116b1565b90506005838154811061075757fe5b9060005260206000209060050201600401546009600083815260200190815260200160002054106107935761078b83611762565b915050610799565b60009150505b919050565b60008060009054906101000a900473ffffffffffffffffffffffffffffffffffffffff1673ffffffffffffffffffffffffffffffffffffffff163373ffffffffffffffffffffffffffffffffffffffff161461082f576040517f08c379a000000000000000000000000000000000000000000000000000000000815260040161082690612252565b60405180910390fd5b60001515600360008473ffffffffffffffffffffffffffffffffffffffff1673ffffffffffffffffffffffffffffffffffffffff16815260200190815260200160002060009054906101000a900460ff161515146108c2576040517f08c379a00000000000000000000000000000000000000000000000000000000081526004016108b9906122f2565b60405180910390fd5b60028290806001815401808255809150509060018203906000526020600020016000909192909190916101000a81548173ffffffffffffffffffffffffffffffffffffffff021916908373ffffffffffffffffffffffffffffffffffffffff160217905550506001600360008473ffffffffffffffffffffffffffffffffffffffff1673ffffffffffffffffffffffffffffffffffffffff16815260200190815260200160002060006101000a81548160ff0219169083151502179055506004600081548092919060010191905055507f64fd21439447139bed5a374a0f62ecc0fbd38cf2687d4ed5d587cb55dfbd4258826040516109c191906120e1565b60405180910390a160019050919050565b6000813414610a16576040517f08c379a0000000000000000000000000000000000000000000000000000000008152600401610a0d906122d2565b60405180910390fd5b60011515600360003373ffffffffffffffffffffffffffffffffffffffff1673ffffffffffffffffffffffffffffffffffffffff16815260200190815260200160002060009054906101000a900460ff16151514610aa9576040517f08c379a0000000000000000000000000000000000000000000000000000000008152600401610aa0906122b2565b60405180910390fd5b610ab1611aab565b6040518060a001604052803373ffffffffffffffffffffffffffffffffffffffff1681526020018673ffffffffffffffffffffffffffffffffffffffff16815260200184815260200160015481526020018581525090506005819080600181540180825580915050906001820390600052602060002090600502016000909192909190915060008201518160000160006101000a81548173ffffffffffffffffffffffffffffffffffffffff021916908373ffffffffffffffffffffffffffffffffffffffff16021790555060208201518160010160006101000a81548173ffffffffffffffffffffffffffffffffffffffff021916908373ffffffffffffffffffffffffffffffffffffffff1602179055506040820151816002015560608201518160030155608082015181600401555050506006819080600181540180825580915050906001820390600052602060002090600502016000909192909190915060008201518160000160006101000a81548173ffffffffffffffffffffffffffffffffffffffff021916908373ffffffffffffffffffffffffffffffffffffffff16021790555060208201518160010160006101000a81548173ffffffffffffffffffffffffffffffffffffffff021916908373ffffffffffffffffffffffffffffffffffffffff1602179055506040820151816002015560608201518160030155608082015181600401555050506007600081548092919060010191905055507fc5094f20ddbb9bda2b4d1b39f78d7d784f323b721a2a8f32456a45d3dfb716d8338660015487604051610d0b9493929190612117565b60405180910390a16000610e426001546005805480602002602001604051908101604052809291908181526020016000905b82821015610e3957838290600052602060002090600502016040518060a00160405290816000820160009054906101000a900473ffffffffffffffffffffffffffffffffffffffff1673ffffffffffffffffffffffffffffffffffffffff1673ffffffffffffffffffffffffffffffffffffffff1681526020016001820160009054906101000a900473ffffffffffffffffffffffffffffffffffffffff1673ffffffffffffffffffffffffffffffffffffffff1673ffffffffffffffffffffffffffffffffffffffff168152602001600282015481526020016003820154815260200160048201548152505081526020019060010190610d3d565b505050506116b1565b905060006009600083815260200190815260200160002081905550610e68600154610ec2565b506001600081548092919060010191905055507f5cc0f3a9b565d77821d0b777308389f2f8c3bca39e70f63f8e636af113c6429a81604051610eaa9190612237565b60405180910390a16001805403925050509392505050565b600080610ff0836006805480602002602001604051908101604052809291908181526020016000905b82821015610fe757838290600052602060002090600502016040518060a00160405290816000820160009054906101000a900473ffffffffffffffffffffffffffffffffffffffff1673ffffffffffffffffffffffffffffffffffffffff1673ffffffffffffffffffffffffffffffffffffffff1681526020016001820160009054906101000a900473ffffffffffffffffffffffffffffffffffffffff1673ffffffffffffffffffffffffffffffffffffffff1673ffffffffffffffffffffffffffffffffffffffff168152602001600282015481526020016003820154815260200160048201548152505081526020019060010190610eeb565b505050506116b1565b905060011515600360003373ffffffffffffffffffffffffffffffffffffffff1673ffffffffffffffffffffffffffffffffffffffff16815260200190815260200160002060009054906101000a900460ff16151514611085576040517f08c379a000000000000000000000000000000000000000000000000000000000815260040161107c90612292565b60405180910390fd5b600015156008600083815260200190815260200160002060003373ffffffffffffffffffffffffffffffffffffffff1673ffffffffffffffffffffffffffffffffffffffff16815260200190815260200160002060009054906101000a900460ff16151514611129576040517f08c379a000000000000000000000000000000000000000000000000000000000815260040161112090612272565b60405180910390fd5b60016008600083815260200190815260200160002060003373ffffffffffffffffffffffffffffffffffffffff1673ffffffffffffffffffffffffffffffffffffffff16815260200190815260200160002060006101000a81548160ff021916908315150217905550600160096000838152602001908152602001600020600082825401925050819055507f827bfe95984eb396b6d8ff47200bd671835f5a6d87dc4bad10d2dbd4fe6355a3336040516111e391906120fc565b60405180910390a16111f48361061a565b915050919050565b6006818154811061120957fe5b90600052602060002090600502016000915090508060000160009054906101000a900473ffffffffffffffffffffffffffffffffffffffff16908060010160009054906101000a900473ffffffffffffffffffffffffffffffffffffffff16908060020154908060030154908060040154905085565b6002818154811061128c57fe5b906000526020600020016000915054906101000a900473ffffffffffffffffffffffffffffffffffffffff1681565b600047905090565b6000809054906101000a900473ffffffffffffffffffffffffffffffffffffffff1681565b60086020528160005260406000206020528060005260406000206000915091509054906101000a900460ff1681565b6060600280548060200260200160405190810160405280929190818152602001828054801561139b57602002820191906000526020600020905b8160009054906101000a900473ffffffffffffffffffffffffffffffffffffffff1673ffffffffffffffffffffffffffffffffffffffff1681526020019060010190808311611351575b5050505050905090565b600581815481106113b257fe5b90600052602060002090600502016000915090508060000160009054906101000a900473ffffffffffffffffffffffffffffffffffffffff16908060010160009054906101000a900473ffffffffffffffffffffffffffffffffffffffff16908060020154908060030154908060040154905085565b60036020528060005260406000206000915054906101000a900460ff1681565b60015481565b600061157b826006805480602002602001604051908101604052809291908181526020016000905b8282101561157257838290600052602060002090600502016040518060a00160405290816000820160009054906101000a900473ffffffffffffffffffffffffffffffffffffffff1673ffffffffffffffffffffffffffffffffffffffff1673ffffffffffffffffffffffffffffffffffffffff1681526020016001820160009054906101000a900473ffffffffffffffffffffffffffffffffffffffff1673ffffffffffffffffffffffffffffffffffffffff1673ffffffffffffffffffffffffffffffffffffffff168152602001600282015481526020016003820154815260200160048201548152505081526020019060010190611476565b505050506116b1565b9050919050565b60606006805480602002602001604051908101604052809291908181526020016000905b828210156116a257838290600052602060002090600502016040518060a00160405290816000820160009054906101000a900473ffffffffffffffffffffffffffffffffffffffff1673ffffffffffffffffffffffffffffffffffffffff1673ffffffffffffffffffffffffffffffffffffffff1681526020016001820160009054906101000a900473ffffffffffffffffffffffffffffffffffffffff1673ffffffffffffffffffffffffffffffffffffffff1673ffffffffffffffffffffffffffffffffffffffff1681526020016002820154815260200160038201548152602001600482015481525050815260200190600101906115a6565b50505050905090565b60045481565b6000808284815181106116c057fe5b6020026020010151602001518385815181106116d857fe5b6020026020010151600001518486815181106116f057fe5b60200260200101516040015185878151811061170857fe5b60200260200101516060015186888151811061172057fe5b60200260200101516080015160405160200161174095949392919061215c565b6040516020818303038152906040528051906020012090508091505092915050565b6000806005838154811061177257fe5b906000526020600020906005020160010160009054906101000a900473ffffffffffffffffffffffffffffffffffffffff1690508073ffffffffffffffffffffffffffffffffffffffff166108fc600585815481106117cd57fe5b9060005260206000209060050201600201549081150290604051600060405180830381858888f1935050505015801561180a573d6000803e3d6000fd5b507f2f03f1395f971b1f02ef2bc5afe3dcaadb5138627f8f45633cefd28f1a5f7e456005848154811061183957fe5b906000526020600020906005020160010160009054906101000a900473ffffffffffffffffffffffffffffffffffffffff166005858154811061187857fe5b9060005260206000209060050201600201546040516118989291906121af565b60405180910390a160008390505b6001600680549050038110156119eb57600660018201815481106118c657fe5b9060005260206000209060050201600682815481106118e157fe5b90600052602060002090600502016000820160009054906101000a900473ffffffffffffffffffffffffffffffffffffffff168160000160006101000a81548173ffffffffffffffffffffffffffffffffffffffff021916908373ffffffffffffffffffffffffffffffffffffffff1602179055506001820160009054906101000a900473ffffffffffffffffffffffffffffffffffffffff168160010160006101000a81548173ffffffffffffffffffffffffffffffffffffffff021916908373ffffffffffffffffffffffffffffffffffffffff16021790555060028201548160020155600382015481600301556004820154816004015590505080806001019150506118a6565b50600660016006805490500381548110611a0157fe5b9060005260206000209060050201600080820160006101000a81549073ffffffffffffffffffffffffffffffffffffffff02191690556001820160006101000a81549073ffffffffffffffffffffffffffffffffffffffff021916905560028201600090556003820160009055600482016000905550506006805480919060019003611a8d9190611b06565b50600760008154809291906001900391905055506001915050919050565b6040518060a00160405280600073ffffffffffffffffffffffffffffffffffffffff168152602001600073ffffffffffffffffffffffffffffffffffffffff1681526020016000815260200160008152602001600081525090565b815481835581811115611b3357600502816005028360005260206000209182019101611b329190611b38565b5b505050565b611bba91905b80821115611bb657600080820160006101000a81549073ffffffffffffffffffffffffffffffffffffffff02191690556001820160006101000a81549073ffffffffffffffffffffffffffffffffffffffff021916905560028201600090556003820160009055600482016000905550600501611b3e565b5090565b90565b600081359050611bcc8161244a565b92915050565b600081359050611be181612461565b92915050565b600081359050611bf681612478565b92915050565b600081359050611c0b8161248f565b92915050565b600060208284031215611c2357600080fd5b6000611c3184828501611bbd565b91505092915050565b600080600060608486031215611c4f57600080fd5b6000611c5d86828701611bd2565b9350506020611c6e86828701611bfc565b9250506040611c7f86828701611bfc565b9150509250925092565b60008060408385031215611c9c57600080fd5b6000611caa85828601611be7565b9250506020611cbb85828601611bbd565b9150509250929050565b600060208284031215611cd757600080fd5b6000611ce584828501611bfc565b91505092915050565b6000611cfa8383611d4b565b60208301905092915050565b6000611d12838361205b565b60a08301905092915050565b611d2781612414565b82525050565b611d36816123c2565b82525050565b611d45816123c2565b82525050565b611d54816123b0565b82525050565b611d63816123b0565b82525050565b6000611d748261234d565b611d7e818561237d565b9350611d898361232d565b8060005b83811015611dba578151611da18882611cee565b9750611dac83612363565b925050600181019050611d8d565b5085935050505092915050565b6000611dd282612358565b611ddc818561238e565b9350611de78361233d565b8060005b83811015611e18578151611dff8882611d06565b9750611e0a83612370565b925050600181019050611deb565b5085935050505092915050565b611e2e816123d4565b82525050565b611e3d816123e0565b82525050565b6000611e5060158361239f565b91507f53656e646572206e6f7420617574686f72697a656400000000000000000000006000830152602082019050919050565b6000611e90602f8361239f565b91507f5468697320616464726573732068617320616c7265616479207369676e65642060008301527f746865207472616e73616374696f6e00000000000000000000000000000000006020830152604082019050919050565b6000611ef660248361239f565b91507f546869732061646472657373206973206e6f74206f6e2074686520776869746560008301527f6c697374000000000000000000000000000000000000000000000000000000006020830152604082019050919050565b6000611f5c60228361239f565b91507f4e6f7420617574686f72697a656420746f206d616b65207472616e736163746960008301527f6f6e0000000000000000000000000000000000000000000000000000000000006020830152604082019050919050565b6000611fc260228361239f565b91507f4e6f7420656e6f7567682065746820746f2073656e64207472616e736163746960008301527f6f6e0000000000000000000000000000000000000000000000000000000000006020830152604082019050919050565b6000612028600d8361239f565b91507f416c7265616479206164646564000000000000000000000000000000000000006000830152602082019050919050565b60a0820160008201516120716000850182611d2d565b5060208201516120846020850182611d2d565b50604082015161209760408501826120c3565b5060608201516120aa60608501826120c3565b5060808201516120bd60808501826120c3565b50505050565b6120cc8161240a565b82525050565b6120db8161240a565b82525050565b60006020820190506120f66000830184611d5a565b92915050565b60006020820190506121116000830184611d1e565b92915050565b600060808201905061212c6000830187611d1e565b6121396020830186611d1e565b61214660408301856120d2565b61215360608301846120d2565b95945050505050565b600060a0820190506121716000830188611d3c565b61217e6020830187611d3c565b61218b60408301866120d2565b61219860608301856120d2565b6121a560808301846120d2565b9695505050505050565b60006040820190506121c46000830185611d1e565b6121d160208301846120d2565b9392505050565b600060208201905081810360008301526121f28184611d69565b905092915050565b600060208201905081810360008301526122148184611dc7565b905092915050565b60006020820190506122316000830184611e25565b92915050565b600060208201905061224c6000830184611e34565b92915050565b6000602082019050818103600083015261226b81611e43565b9050919050565b6000602082019050818103600083015261228b81611e83565b9050919050565b600060208201905081810360008301526122ab81611ee9565b9050919050565b600060208201905081810360008301526122cb81611f4f565b9050919050565b600060208201905081810360008301526122eb81611fb5565b9050919050565b6000602082019050818103600083015261230b8161201b565b9050919050565b600060208201905061232760008301846120d2565b92915050565b6000819050602082019050919050565b6000819050602082019050919050565b600081519050919050565b600081519050919050565b6000602082019050919050565b6000602082019050919050565b600082825260208201905092915050565b600082825260208201905092915050565b600082825260208201905092915050565b60006123bb826123ea565b9050919050565b60006123cd826123ea565b9050919050565b60008115159050919050565b6000819050919050565b600073ffffffffffffffffffffffffffffffffffffffff82169050919050565b6000819050919050565b600061241f82612426565b9050919050565b600061243182612438565b9050919050565b6000612443826123ea565b9050919050565b612453816123b0565b811461245e57600080fd5b50565b61246a816123c2565b811461247557600080fd5b50565b612481816123e0565b811461248c57600080fd5b50565b6124988161240a565b81146124a357600080fd5b5056fea365627a7a7231582094d42de9c0f88b8305c4cb3bc75e1ea66786d3b3142c18ae224380190446c0e16c6578706572696d656e74616cf564736f6c63430005100040",
  "source": "pragma solidity ^0.5.16;\r\npragma experimental ABIEncoderV2;\r\n\r\ncontract MultiSig {\r\n    address public owner; // Will be the address of who deploys to contract\r\n    uint256 public nonce;\r\n\r\n    struct transactionData {\r\n        address payable from;\r\n        address payable to;\r\n        uint256 amount;\r\n        uint256 nonceTrans;\r\n        uint256 threshold;\r\n    }\r\n\r\n    address[] public whitelistAdd; // list of addresses added to whitelist\r\n    mapping(address => bool) public whitelist;\r\n    uint256 public numWhitlist;\r\n\r\n    transactionData[] public transactions;\r\n    transactionData[] public pendingTransactions;\r\n    uint256 public numPendingTx;\r\n\r\n    mapping(bytes32 => mapping(address => bool)) public signedList; // list of address that have signed the transaction\r\n    mapping(bytes32 => uint256) numSigs;\r\n\r\n    // Events to emmit\r\n    event transactionCreated(address, address, uint256, uint256);\r\n    event SignedTransact(address);\r\n    event AddedWhiteList(address);\r\n    event transactionOccured(address, uint256);\r\n    event emitHash(bytes32);\r\n\r\n    constructor() public {\r\n        // Make the owner who deploys contract\r\n        owner = msg.sender;\r\n        // Add to white list for owner to sign\r\n        numWhitlist = 0;\r\n        numPendingTx = 0;\r\n        nonce = 0;\r\n        addAddress(msg.sender); // add owner's address as address 0 of whitelist addresses\r\n    }\r\n\r\n    function getWhitelistAdd()\r\n        public\r\n        view\r\n        returns (address[] memory whitelistArr)\r\n    {\r\n        return whitelistAdd;\r\n    }\r\n\r\n    function getPendingTx()\r\n        public\r\n        view\r\n        returns (transactionData[] memory pending)\r\n    {\r\n        return pendingTransactions;\r\n    }\r\n\r\n    // Adds address to whitelist so entity has signing ability\r\n    function addAddress(address newAddress) public returns (bool success) {\r\n        // Requires to ensure owner adding signers\r\n        require(msg.sender == owner, \"Sender not authorized\");\r\n        require(whitelist[newAddress] == false, \"Already added\");\r\n\r\n        // Give address signing ability and emit event\r\n        whitelistAdd.push(newAddress); // add the new address to list of whitelist addresses\r\n        whitelist[newAddress] = true;\r\n        numWhitlist++;\r\n        emit AddedWhiteList(newAddress);\r\n        return true;\r\n    }\r\n\r\n    function setupTransaction(\r\n        address payable _paymentReciever,\r\n        uint256 _threshold,\r\n        uint256 _amount\r\n    ) external payable returns (uint256) {\r\n        require(msg.value == _amount, \"Not enough eth to send transaction\");\r\n        require(whitelist[msg.sender] == true, \"Not authorized to make transaction\");\r\n\r\n        transactionData memory tmp = transactionData(\r\n            msg.sender,\r\n            _paymentReciever,\r\n            _amount,\r\n            nonce,\r\n            _threshold\r\n        );\r\n\r\n        transactions.push(tmp);\r\n        pendingTransactions.push(tmp);\r\n        numPendingTx++;\r\n\r\n        emit transactionCreated(\r\n            msg.sender,\r\n            _paymentReciever,\r\n            nonce,\r\n            _threshold\r\n        );\r\n\r\n        bytes32 txHash = encodeTransaction(nonce, transactions);\r\n\r\n        numSigs[txHash] = 0;\r\n        signTransaction(nonce);\r\n\r\n        nonce++;\r\n        emit emitHash(txHash);\r\n\r\n        return nonce - 1;\r\n    }\r\n\r\n    function getEncoding(uint256 index) public returns (bytes32) {\r\n        return encodeTransaction(index, pendingTransactions);\r\n    }\r\n\r\n    function encodeTransaction(uint256 index, transactionData[] memory txns)\r\n        internal\r\n        pure\r\n        returns (bytes32)\r\n    {\r\n        bytes32 tmp = keccak256(\r\n            abi.encode(\r\n                txns[index].to,\r\n                txns[index].from,\r\n                txns[index].amount,\r\n                txns[index].nonceTrans,\r\n                txns[index].threshold\r\n            )\r\n        );\r\n\r\n        return tmp;\r\n    }\r\n\r\n    // Msg.sender signs transaction\r\n    function signTransaction(uint256 index) public returns (bool success) {\r\n        bytes32 txHash = encodeTransaction(index, pendingTransactions);\r\n        // Makes sure sender is on whitelist and has not signed yet\r\n        require(\r\n            whitelist[msg.sender] == true,\r\n            \"This address is not on the whitelist\"\r\n        );\r\n        require(\r\n            signedList[txHash][msg.sender] == false,\r\n            \"This address has already signed the transaction\"\r\n        );\r\n\r\n        // Increment num of signatures on transact and approve on signedList\r\n        signedList[txHash][msg.sender] = true;\r\n        numSigs[txHash] += 1;\r\n\r\n        emit SignedTransact(msg.sender);\r\n\r\n        return checkStatus(index);\r\n    }\r\n\r\n    function getNumSigs(uint256 index) public returns (uint256 num) {\r\n        bytes32 txHash = encodeTransaction(index, pendingTransactions);\r\n        return numSigs[txHash];\r\n    }\r\n\r\n    function handlePayment(uint256 index) private returns (bool) {\r\n        address payable reciever = transactions[index].to;\r\n        reciever.transfer(transactions[index].amount);\r\n\r\n        emit transactionOccured(\r\n            transactions[index].to,\r\n            transactions[index].amount\r\n        );\r\n\r\n        for (uint256 i = index; i < pendingTransactions.length - 1; i++) {\r\n            pendingTransactions[i] = pendingTransactions[i + 1];\r\n        }\r\n\r\n        delete pendingTransactions[pendingTransactions.length - 1];\r\n        pendingTransactions.length--;\r\n        numPendingTx--;\r\n\r\n        return true;\r\n    }\r\n\r\n    function contractBalance() public view returns (uint256 balance) {\r\n        return address(this).balance;\r\n    }\r\n\r\n    // Getter for number of entities signed\r\n    function checkStatus(uint256 index) public payable returns (bool success) {\r\n        bytes32 txHash = encodeTransaction(index, pendingTransactions);\r\n        if (numSigs[txHash] >= transactions[index].threshold) {\r\n            return handlePayment(index);\r\n        }\r\n\r\n        return false;\r\n    }\r\n\r\n}\r\n",
  "sourcePath": "/Users/sangillee/Documents/phantom/contract/contracts/MultiSig.sol",
  "compiler": {
    "name": "solc",
    "version": "0.5.16+commit.9c3226ce.Emscripten.clang"
  },
  "schemaVersion": "3.0.23",
  "updatedAt": "2020-03-16T04:37:45.116Z",
  "devdoc": {
    "methods": {}
  },
  "userdoc": {
    "methods": {}
  }
}